{"contracts/Mastermind.sol":{"Mastermind":{"abi":[{"inputs":[],"stateMutability":"nonpayable","type":"constructor"},{"inputs":[{"internalType":"address","name":"sender","type":"address"},{"internalType":"uint256","name":"tokenId","type":"uint256"},{"internalType":"address","name":"owner","type":"address"}],"name":"ERC721IncorrectOwner","type":"error"},{"inputs":[{"internalType":"address","name":"operator","type":"address"},{"internalType":"uint256","name":"tokenId","type":"uint256"}],"name":"ERC721InsufficientApproval","type":"error"},{"inputs":[{"internalType":"address","name":"approver","type":"address"}],"name":"ERC721InvalidApprover","type":"error"},{"inputs":[{"internalType":"address","name":"operator","type":"address"}],"name":"ERC721InvalidOperator","type":"error"},{"inputs":[{"internalType":"address","name":"owner","type":"address"}],"name":"ERC721InvalidOwner","type":"error"},{"inputs":[{"internalType":"address","name":"receiver","type":"address"}],"name":"ERC721InvalidReceiver","type":"error"},{"inputs":[{"internalType":"address","name":"sender","type":"address"}],"name":"ERC721InvalidSender","type":"error"},{"inputs":[{"internalType":"uint256","name":"tokenId","type":"uint256"}],"name":"ERC721NonexistentToken","type":"error"},{"inputs":[],"name":"Mastermind__GameAlreadyStarted","type":"error"},{"anonymous":false,"inputs":[{"indexed":true,"internalType":"address","name":"owner","type":"address"},{"indexed":true,"internalType":"address","name":"approved","type":"address"},{"indexed":true,"internalType":"uint256","name":"tokenId","type":"uint256"}],"name":"Approval","type":"event"},{"anonymous":false,"inputs":[{"indexed":true,"internalType":"address","name":"owner","type":"address"},{"indexed":true,"internalType":"address","name":"operator","type":"address"},{"indexed":false,"internalType":"bool","name":"approved","type":"bool"}],"name":"ApprovalForAll","type":"event"},{"anonymous":false,"inputs":[{"indexed":true,"internalType":"address","name":"codebreaker","type":"address"},{"indexed":false,"internalType":"uint256","name":"timestamp","type":"uint256"}],"name":"CodebreakerSet","type":"event"},{"anonymous":false,"inputs":[{"indexed":true,"internalType":"address","name":"codemaker","type":"address"},{"indexed":false,"internalType":"uint256","name":"timestamp","type":"uint256"}],"name":"CodemakerSet","type":"event"},{"anonymous":false,"inputs":[{"indexed":true,"internalType":"address","name":"winner","type":"address"},{"indexed":false,"internalType":"uint256","name":"timestamp","type":"uint256"}],"name":"GameEnded","type":"event"},{"anonymous":false,"inputs":[{"indexed":true,"internalType":"address","name":"codemaker","type":"address"},{"indexed":false,"internalType":"uint256","name":"timestamp","type":"uint256"}],"name":"GameStarted","type":"event"},{"anonymous":false,"inputs":[{"indexed":false,"internalType":"enum Mastermind.GameStatus","name":"status","type":"uint8"},{"indexed":false,"internalType":"uint256","name":"timestamp","type":"uint256"}],"name":"GameStatusChanged","type":"event"},{"anonymous":false,"inputs":[{"indexed":true,"internalType":"address","name":"codebreaker","type":"address"},{"indexed":false,"internalType":"uint8[]","name":"guess","type":"uint8[]"},{"indexed":false,"internalType":"uint8","name":"blackPegs","type":"uint8"},{"indexed":false,"internalType":"uint8","name":"whitePegs","type":"uint8"},{"indexed":false,"internalType":"bool","name":"correct","type":"bool"},{"indexed":false,"internalType":"uint256","name":"timestamp","type":"uint256"}],"name":"GuessMade","type":"event"},{"anonymous":false,"inputs":[{"indexed":false,"internalType":"uint256","name":"scoreCodebreaker","type":"uint256"},{"indexed":false,"internalType":"uint256","name":"scoreCodemaker","type":"uint256"},{"indexed":false,"internalType":"uint256","name":"timestamp","type":"uint256"}],"name":"ScoreUpdated","type":"event"},{"anonymous":false,"inputs":[{"indexed":true,"internalType":"address","name":"from","type":"address"},{"indexed":true,"internalType":"address","name":"to","type":"address"},{"indexed":true,"internalType":"uint256","name":"tokenId","type":"uint256"}],"name":"Transfer","type":"event"},{"inputs":[{"internalType":"address","name":"to","type":"address"},{"internalType":"uint256","name":"tokenId","type":"uint256"}],"name":"approve","outputs":[],"stateMutability":"nonpayable","type":"function"},{"inputs":[{"internalType":"address","name":"owner","type":"address"}],"name":"balanceOf","outputs":[{"internalType":"uint256","name":"","type":"uint256"}],"stateMutability":"view","type":"function"},{"inputs":[],"name":"codebreaker","outputs":[{"internalType":"address","name":"","type":"address"}],"stateMutability":"view","type":"function"},{"inputs":[],"name":"codemaker","outputs":[{"internalType":"address","name":"","type":"address"}],"stateMutability":"view","type":"function"},{"inputs":[],"name":"gameActive","outputs":[{"internalType":"bool","name":"","type":"bool"}],"stateMutability":"view","type":"function"},{"inputs":[],"name":"gameStatus","outputs":[{"internalType":"enum Mastermind.GameStatus","name":"","type":"uint8"}],"stateMutability":"view","type":"function"},{"inputs":[],"name":"getAllFeedback","outputs":[{"internalType":"uint8[2][]","name":"","type":"uint8[2][]"}],"stateMutability":"view","type":"function"},{"inputs":[{"internalType":"uint256","name":"tokenId","type":"uint256"}],"name":"getApproved","outputs":[{"internalType":"address","name":"","type":"address"}],"stateMutability":"view","type":"function"},{"inputs":[],"name":"getBreakerScore","outputs":[{"internalType":"uint256","name":"","type":"uint256"}],"stateMutability":"view","type":"function"},{"inputs":[],"name":"getGuesses","outputs":[{"components":[{"internalType":"uint8[]","name":"code","type":"uint8[]"},{"internalType":"uint8","name":"blackPegs","type":"uint8"},{"internalType":"uint8","name":"whitePegs","type":"uint8"},{"internalType":"bool","name":"correct","type":"bool"}],"internalType":"struct Mastermind.Guess[]","name":"","type":"tuple[]"}],"stateMutability":"view","type":"function"},{"inputs":[],"name":"getGuessesCodes","outputs":[{"internalType":"uint8[][]","name":"","type":"uint8[][]"}],"stateMutability":"view","type":"function"},{"inputs":[],"name":"getLatestFeedback","outputs":[{"internalType":"uint8","name":"blackPegs","type":"uint8"},{"internalType":"uint8","name":"whitePegs","type":"uint8"}],"stateMutability":"view","type":"function"},{"inputs":[],"name":"getMakerScore","outputs":[{"internalType":"uint256","name":"","type":"uint256"}],"stateMutability":"view","type":"function"},{"inputs":[],"name":"getSecret","outputs":[{"internalType":"uint8[]","name":"_secret","type":"uint8[]"}],"stateMutability":"view","type":"function"},{"inputs":[],"name":"guessCount","outputs":[{"internalType":"uint256","name":"","type":"uint256"}],"stateMutability":"view","type":"function"},{"inputs":[{"internalType":"uint256","name":"","type":"uint256"}],"name":"guesses","outputs":[{"internalType":"uint8","name":"blackPegs","type":"uint8"},{"internalType":"uint8","name":"whitePegs","type":"uint8"},{"internalType":"bool","name":"correct","type":"bool"}],"stateMutability":"view","type":"function"},{"inputs":[{"internalType":"address","name":"owner","type":"address"},{"internalType":"address","name":"operator","type":"address"}],"name":"isApprovedForAll","outputs":[{"internalType":"bool","name":"","type":"bool"}],"stateMutability":"view","type":"function"},{"inputs":[{"internalType":"uint8[]","name":"_guess","type":"uint8[]"}],"name":"makeGuess","outputs":[],"stateMutability":"nonpayable","type":"function"},{"inputs":[],"name":"name","outputs":[{"internalType":"string","name":"","type":"string"}],"stateMutability":"view","type":"function"},{"inputs":[{"internalType":"uint256","name":"tokenId","type":"uint256"}],"name":"ownerOf","outputs":[{"internalType":"address","name":"","type":"address"}],"stateMutability":"view","type":"function"},{"inputs":[{"internalType":"address","name":"from","type":"address"},{"internalType":"address","name":"to","type":"address"},{"internalType":"uint256","name":"tokenId","type":"uint256"}],"name":"safeTransferFrom","outputs":[],"stateMutability":"nonpayable","type":"function"},{"inputs":[{"internalType":"address","name":"from","type":"address"},{"internalType":"address","name":"to","type":"address"},{"internalType":"uint256","name":"tokenId","type":"uint256"},{"internalType":"bytes","name":"data","type":"bytes"}],"name":"safeTransferFrom","outputs":[],"stateMutability":"nonpayable","type":"function"},{"inputs":[],"name":"scoreCodebreaker","outputs":[{"internalType":"uint256","name":"","type":"uint256"}],"stateMutability":"view","type":"function"},{"inputs":[],"name":"scoreCodemaker","outputs":[{"internalType":"uint256","name":"","type":"uint256"}],"stateMutability":"view","type":"function"},{"inputs":[{"internalType":"address","name":"operator","type":"address"},{"internalType":"bool","name":"approved","type":"bool"}],"name":"setApprovalForAll","outputs":[],"stateMutability":"nonpayable","type":"function"},{"inputs":[],"name":"setCodebreaker","outputs":[],"stateMutability":"nonpayable","type":"function"},{"inputs":[],"name":"setCodemaker","outputs":[],"stateMutability":"nonpayable","type":"function"},{"inputs":[{"internalType":"uint8[]","name":"_secretCode","type":"uint8[]"}],"name":"startGame","outputs":[],"stateMutability":"nonpayable","type":"function"},{"inputs":[{"internalType":"bytes4","name":"interfaceId","type":"bytes4"}],"name":"supportsInterface","outputs":[{"internalType":"bool","name":"","type":"bool"}],"stateMutability":"view","type":"function"},{"inputs":[],"name":"symbol","outputs":[{"internalType":"string","name":"","type":"string"}],"stateMutability":"view","type":"function"},{"inputs":[{"internalType":"uint256","name":"tokenId","type":"uint256"}],"name":"tokenURI","outputs":[{"internalType":"string","name":"","type":"string"}],"stateMutability":"view","type":"function"},{"inputs":[{"internalType":"address","name":"from","type":"address"},{"internalType":"address","name":"to","type":"address"},{"internalType":"uint256","name":"tokenId","type":"uint256"}],"name":"transferFrom","outputs":[],"stateMutability":"nonpayable","type":"function"}],"evm":{"bytecode":{"linkReferences":{},"object":"60806040523480156200001157600080fd5b506040518060400160405280600a81526020017f4d61737465724d696e64000000000000000000000000000000000000000000008152506040518060400160405280600381526020017f4d534d000000000000000000000000000000000000000000000000000000000081525081600090816200008f91906200033f565b508060019081620000a191906200033f565b5050506000600c60006101000a81548160ff02191690831515021790555062000426565b600081519050919050565b7f4e487b7100000000000000000000000000000000000000000000000000000000600052604160045260246000fd5b7f4e487b7100000000000000000000000000000000000000000000000000000000600052602260045260246000fd5b600060028204905060018216806200014757607f821691505b6020821081036200015d576200015c620000ff565b5b50919050565b60008190508160005260206000209050919050565b60006020601f8301049050919050565b600082821b905092915050565b600060088302620001c77fffffffffffffffffffffffffffffffffffffffffffffffffffffffffffffffff8262000188565b620001d3868362000188565b95508019841693508086168417925050509392505050565b6000819050919050565b6000819050919050565b6000620002206200021a6200021484620001eb565b620001f5565b620001eb565b9050919050565b6000819050919050565b6200023c83620001ff565b620002546200024b8262000227565b84845462000195565b825550505050565b600090565b6200026b6200025c565b6200027881848462000231565b505050565b5b81811015620002a0576200029460008262000261565b6001810190506200027e565b5050565b601f821115620002ef57620002b98162000163565b620002c48462000178565b81016020851015620002d4578190505b620002ec620002e38562000178565b8301826200027d565b50505b505050565b600082821c905092915050565b60006200031460001984600802620002f4565b1980831691505092915050565b60006200032f838362000301565b9150826002028217905092915050565b6200034a82620000c5565b67ffffffffffffffff811115620003665762000365620000d0565b5b6200037282546200012e565b6200037f828285620002a4565b600060209050601f831160018114620003b75760008415620003a2578287015190505b620003ae858262000321565b8655506200041e565b601f198416620003c78662000163565b60005b82811015620003f157848901518255600182019150602085019450602081019050620003ca565b868310156200041157848901516200040d601f89168262000301565b8355505b6001600288020188555050505b505050505050565b615b9480620004366000396000f3fe608060405234801561001057600080fd5b50600436106101f05760003560e01c8063797642db1161010f578063c0e361d2116100a2578063db1329d511610071578063db1329d514610575578063e985e9c514610594578063f020044f146105c4578063f0d4e2db146105e2576101f0565b8063c0e361d2146104eb578063c68a9fe414610509578063c87b56dd14610527578063d3b6866414610557576101f0565b806395d89b41116100de57806395d89b4114610479578063a22cb46514610497578063a42dc7b7146104b3578063b88d4fde146104cf576101f0565b8063797642db14610429578063801db33d1461044757806384894606146104655780638e5cd8e91461046f576101f0565b8063276d2121116101875780635b9fdc30116101565780635b9fdc301461038d5780636352211e146103ab57806370a08231146103db578063722fed7e1461040b576101f0565b8063276d21211461031957806329b817c81461033557806342842e0e1461035357806350633fa71461036f576101f0565b8063095ea7b3116101c3578063095ea7b3146102915780630e5c05f1146102ad5780631f491389146102cb57806323b872dd146102fd576101f0565b8063011d7ab2146101f557806301ffc9a71461021357806306fdde0314610243578063081812fc14610261575b600080fd5b6101fd610600565b60405161020a9190613584565b60405180910390f35b61022d6004803603810190610228919061360b565b610606565b60405161023a9190613653565b60405180910390f35b61024b6106e8565b60405161025891906136fe565b60405180910390f35b61027b6004803603810190610276919061374c565b61077a565b60405161028891906137ba565b60405180910390f35b6102ab60048036038101906102a69190613801565b610796565b005b6102b56107ac565b6040516102c291906137ba565b60405180910390f35b6102e560048036038101906102e0919061374c565b6107d2565b6040516102f49392919061385d565b60405180910390f35b61031760048036038101906103129190613894565b610833565b005b610333600480360381019061032e9190613a5b565b610935565b005b61033d610d25565b60405161034a9190613584565b60405180910390f35b61036d60048036038101906103689190613894565b610d2f565b005b610377610d4f565b60405161038491906137ba565b60405180910390f35b610395610d75565b6040516103a29190613b62565b60405180910390f35b6103c560048036038101906103c0919061374c565b610f3b565b6040516103d291906137ba565b60405180910390f35b6103f560048036038101906103f09190613b84565b610f4d565b6040516104029190613584565b60405180910390f35b610413611007565b6040516104209190613c28565b60405180910390f35b61043161101a565b60405161043e9190613de6565b60405180910390f35b61044f61114c565b60405161045c9190613584565b60405180910390f35b61046d611156565b005b610477611259565b005b61048161135c565b60405161048e91906136fe565b60405180910390f35b6104b160048036038101906104ac9190613e34565b6113ee565b005b6104cd60048036038101906104c89190613a5b565b611404565b005b6104e960048036038101906104e49190613f29565b611a4e565b005b6104f3611a6b565b6040516105009190613584565b60405180910390f35b610511611a71565b60405161051e9190613584565b60405180910390f35b610541600480360381019061053c919061374c565b611a77565b60405161054e91906136fe565b60405180910390f35b61055f611bbb565b60405161056c91906140df565b60405180910390f35b61057d611ce2565b60405161058b929190614101565b60405180910390f35b6105ae60048036038101906105a9919061412a565b611e55565b6040516105bb9190613653565b60405180910390f35b6105cc611ee9565b6040516105d99190613653565b60405180910390f35b6105ea611efc565b6040516105f7919061422c565b60405180910390f35b600f5481565b60007f80ac58cd000000000000000000000000000000000000000000000000000000007bffffffffffffffffffffffffffffffffffffffffffffffffffffffff1916827bffffffffffffffffffffffffffffffffffffffffffffffffffffffff191614806106d157507f5b5e139f000000000000000000000000000000000000000000000000000000007bffffffffffffffffffffffffffffffffffffffffffffffffffffffff1916827bffffffffffffffffffffffffffffffffffffffffffffffffffffffff1916145b806106e157506106e082612032565b5b9050919050565b6060600080546106f79061427d565b80601f01602080910402602001604051908101604052809291908181526020018280546107239061427d565b80156107705780601f1061074557610100808354040283529160200191610770565b820191906000526020600020905b81548152906001019060200180831161075357829003601f168201915b5050505050905090565b60006107858261209c565b5061078f82612124565b9050919050565b6107a882826107a3612161565b612169565b5050565b600860009054906101000a900473ffffffffffffffffffffffffffffffffffffffff1681565b600d81815481106107e257600080fd5b90600052602060002090600202016000915090508060010160009054906101000a900460ff16908060010160019054906101000a900460ff16908060010160029054906101000a900460ff16905083565b600073ffffffffffffffffffffffffffffffffffffffff168273ffffffffffffffffffffffffffffffffffffffff16036108a55760006040517f64a0ae9200000000000000000000000000000000000000000000000000000000815260040161089c91906137ba565b60405180910390fd5b60006108b983836108b4612161565b61217b565b90508373ffffffffffffffffffffffffffffffffffffffff168173ffffffffffffffffffffffffffffffffffffffff161461092f578382826040517f64283d7b000000000000000000000000000000000000000000000000000000008152600401610926939291906142ae565b60405180910390fd5b50505050565b600760009054906101000a900473ffffffffffffffffffffffffffffffffffffffff1673ffffffffffffffffffffffffffffffffffffffff163373ffffffffffffffffffffffffffffffffffffffff16146109c5576040517f08c379a00000000000000000000000000000000000000000000000000000000081526004016109bc90614357565b60405180910390fd5b600073ffffffffffffffffffffffffffffffffffffffff16600760009054906101000a900473ffffffffffffffffffffffffffffffffffffffff1673ffffffffffffffffffffffffffffffffffffffff1603610a56576040517f08c379a0000000000000000000000000000000000000000000000000000000008152600401610a4d906143c3565b60405180910390fd5b600073ffffffffffffffffffffffffffffffffffffffff16600860009054906101000a900473ffffffffffffffffffffffffffffffffffffffff1673ffffffffffffffffffffffffffffffffffffffff1603610ae7576040517f08c379a0000000000000000000000000000000000000000000000000000000008152600401610ade9061442f565b60405180910390fd5b600460ff16815114610b2e576040517f08c379a0000000000000000000000000000000000000000000000000000000008152600401610b25906144c1565b60405180910390fd5b60011515600c60009054906101000a900460ff16151503610b7b576040517fbcefc32900000000000000000000000000000000000000000000000000000000815260040160405180910390fd5b80600a9080519060200190610b919291906133b4565b5080604051602001610ba39190614571565b604051602081830303815290604052805190602001206009819055506000600b81905550600d6000610bd5919061345b565b6001600c60006101000a81548160ff0219169083151502179055506000600c60016101000a81548160ff02191690836002811115610c1657610c15613bb1565b5b02179055506000600e819055506000600f81905550600760009054906101000a900473ffffffffffffffffffffffffffffffffffffffff1673ffffffffffffffffffffffffffffffffffffffff167fea32a03505fd9f04d664676d72295a86c5fb0465e69654751907ca305bc1d1c742604051610c939190613584565b60405180910390a27fafcf3201aa5a8b6350cd7e42802f62089c82cf3e88f4ef6d7a1cabd94763d8d9600c60019054906101000a900460ff1642604051610cdb929190614588565b60405180910390a17fb2383e82269e758b9ec0fc961ac69cecc166570a12068c11b3f9cf29c8de9e88600e54600f5442604051610d1a939291906145b1565b60405180910390a150565b6000600f54905090565b610d4a83838360405180602001604052806000815250611a4e565b505050565b600760009054906101000a900473ffffffffffffffffffffffffffffffffffffffff1681565b606060016002811115610d8b57610d8a613bb1565b5b600c60019054906101000a900460ff166002811115610dad57610dac613bb1565b5b03610e3057600a805480602002602001604051908101604052809291908181526020018280548015610e2457602002820191906000526020600020906000905b82829054906101000a900460ff1660ff1681526020019060010190602082600001049283019260010382029150808411610ded5790505b50505050509050610f38565b600280811115610e4357610e42613bb1565b5b600c60019054906101000a900460ff166002811115610e6557610e64613bb1565b5b03610ee857600a805480602002602001604051908101604052809291908181526020018280548015610edc57602002820191906000526020600020906000905b82829054906101000a900460ff1660ff1681526020019060010190602082600001049283019260010382029150808411610ea55790505b50505050509050610f38565b600460ff1667ffffffffffffffff811115610f0657610f056138ec565b5b604051908082528060200260200182016040528015610f345781602001602082028036833780820191505090505b5090505b90565b6000610f468261209c565b9050919050565b60008073ffffffffffffffffffffffffffffffffffffffff168273ffffffffffffffffffffffffffffffffffffffff1603610fc05760006040517f89c62b64000000000000000000000000000000000000000000000000000000008152600401610fb791906137ba565b60405180910390fd5b600360008373ffffffffffffffffffffffffffffffffffffffff1673ffffffffffffffffffffffffffffffffffffffff168152602001908152602001600020549050919050565b600c60019054906101000a900460ff1681565b6060600d805480602002602001604051908101604052809291908181526020016000905b828210156111435783829060005260206000209060020201604051806080016040529081600082018054806020026020016040519081016040528092919081815260200182805480156110d657602002820191906000526020600020906000905b82829054906101000a900460ff1660ff168152602001906001019060208260000104928301926001038202915080841161109f5790505b505050505081526020016001820160009054906101000a900460ff1660ff1660ff1681526020016001820160019054906101000a900460ff1660ff1660ff1681526020016001820160029054906101000a900460ff1615151515815250508152602001906001019061103e565b50505050905090565b6000600e54905090565b600c60009054906101000a900460ff16156111a6576040517f08c379a000000000000000000000000000000000000000000000000000000000815260040161119d90614634565b60405180910390fd5b33600860006101000a81548173ffffffffffffffffffffffffffffffffffffffff021916908373ffffffffffffffffffffffffffffffffffffffff160217905550600860009054906101000a900473ffffffffffffffffffffffffffffffffffffffff1673ffffffffffffffffffffffffffffffffffffffff167fe030cca42591fdc0fe1e7a7cc3892f5f6d13aaa3aebcafa2563c78df1b9de2514260405161124f9190613584565b60405180910390a2565b600c60009054906101000a900460ff16156112a9576040517f08c379a00000000000000000000000000000000000000000000000000000000081526004016112a090614634565b60405180910390fd5b33600760006101000a81548173ffffffffffffffffffffffffffffffffffffffff021916908373ffffffffffffffffffffffffffffffffffffffff160217905550600760009054906101000a900473ffffffffffffffffffffffffffffffffffffffff1673ffffffffffffffffffffffffffffffffffffffff167f65bd3084c68c3b9e4a26f0857a1c9a69285e55ded79629480351f98856f096a2426040516113529190613584565b60405180910390a2565b60606001805461136b9061427d565b80601f01602080910402602001604051908101604052809291908181526020018280546113979061427d565b80156113e45780601f106113b9576101008083540402835291602001916113e4565b820191906000526020600020905b8154815290600101906020018083116113c757829003601f168201915b5050505050905090565b6114006113f9612161565b8383612395565b5050565b600860009054906101000a900473ffffffffffffffffffffffffffffffffffffffff1673ffffffffffffffffffffffffffffffffffffffff163373ffffffffffffffffffffffffffffffffffffffff1614611494576040517f08c379a000000000000000000000000000000000000000000000000000000000815260040161148b906146c6565b60405180910390fd5b600c60009054906101000a900460ff166114e3576040517f08c379a00000000000000000000000000000000000000000000000000000000081526004016114da90614732565b60405180910390fd5b600460ff1681511461152a576040517f08c379a00000000000000000000000000000000000000000000000000000000081526004016115219061479e565b60405180910390fd5b600a60ff16600b5410611572576040517f08c379a000000000000000000000000000000000000000000000000000000000815260040161156990614830565b60405180910390fd5b60008061157e83612504565b915091506000600460ff168360ff16149050600d60405180608001604052808681526020018560ff1681526020018460ff168152602001831515815250908060018154018082558091505060019003906000526020600020906002020160009091909190915060008201518160000190805190602001906116009291906133b4565b5060208201518160010160006101000a81548160ff021916908360ff16021790555060408201518160010160016101000a81548160ff021916908360ff16021790555060608201518160010160026101000a81548160ff0219169083151502179055505050600860009054906101000a900473ffffffffffffffffffffffffffffffffffffffff1673ffffffffffffffffffffffffffffffffffffffff167f0b733e8664b442058353db00385a5c6640f039b74589925d748092f1d1b6baad85858585426040516116d5959493929190614850565b60405180910390a28015611885576000600c60006101000a81548160ff0219169083151502179055506001600c60016101000a81548160ff0219169083600281111561172457611723613bb1565b5b0217905550612710600e600082825461173d91906148d9565b9250508190555061174e600661272b565b600061175a6006612741565b9050611788600860009054906101000a900473ffffffffffffffffffffffffffffffffffffffff168261274f565b7fafcf3201aa5a8b6350cd7e42802f62089c82cf3e88f4ef6d7a1cabd94763d8d9600c60019054906101000a900460ff16426040516117c8929190614588565b60405180910390a1600860009054906101000a900473ffffffffffffffffffffffffffffffffffffffff1673ffffffffffffffffffffffffffffffffffffffff167fd4ba6fec82d9b0e8ffe50b9fed9e4be3b25c984ce1e0e016405a5528726e8a2c426040516118389190613584565b60405180910390a27fb2383e82269e758b9ec0fc961ac69cecc166570a12068c11b3f9cf29c8de9e88600e54600f5442604051611877939291906145b1565b60405180910390a150611a48565b6064600f600082825461189891906148d9565b92505081905550600b60008154809291906118b29061490d565b9190505550600a60ff16600b5410611a47576000600c60006101000a81548160ff0219169083151502179055506002600c60016101000a81548160ff0219169083600281111561190557611904613bb1565b5b0217905550611914600661272b565b60006119206006612741565b905061194e600760009054906101000a900473ffffffffffffffffffffffffffffffffffffffff168261274f565b7fafcf3201aa5a8b6350cd7e42802f62089c82cf3e88f4ef6d7a1cabd94763d8d9600c60019054906101000a900460ff164260405161198e929190614588565b60405180910390a1600760009054906101000a900473ffffffffffffffffffffffffffffffffffffffff1673ffffffffffffffffffffffffffffffffffffffff167fd4ba6fec82d9b0e8ffe50b9fed9e4be3b25c984ce1e0e016405a5528726e8a2c426040516119fe9190613584565b60405180910390a27fb2383e82269e758b9ec0fc961ac69cecc166570a12068c11b3f9cf29c8de9e88600e54600f5442604051611a3d939291906145b1565b60405180910390a1505b5b50505050565b611a59848484610833565b611a658484848461276d565b50505050565b600e5481565b600b5481565b6060600060016002811115611a8f57611a8e613bb1565b5b600c60019054906101000a900460ff166002811115611ab157611ab0613bb1565b5b14611af1576040518060400160405280600481526020017f4c6f737400000000000000000000000000000000000000000000000000000000815250611b28565b6040518060400160405280600381526020017f576f6e00000000000000000000000000000000000000000000000000000000008152505b90506000611b368285612924565b90506000611b4385610f3b565b90506000611b85611b538761298b565b85611b5d85612b66565b86604051602001611b719493929190614bf1565b604051602081830303815290604052612d23565b9050611b8f612e95565b81604051602001611ba1929190614c71565b604051602081830303815290604052945050505050919050565b60606000600d8054905067ffffffffffffffff811115611bde57611bdd6138ec565b5b604051908082528060200260200182016040528015611c1757816020015b611c0461347f565b815260200190600190039081611bfc5790505b50905060005b600d80549050811015611cda576040518060400160405280600d8381548110611c4957611c48614c95565b5b906000526020600020906002020160010160009054906101000a900460ff1660ff1660ff168152602001600d8381548110611c8757611c86614c95565b5b906000526020600020906002020160010160019054906101000a900460ff1660ff1660ff16815250828281518110611cc257611cc1614c95565b5b60200260200101819052508080600101915050611c1d565b508091505090565b6000806000600d8054905011611d2d576040517f08c379a0000000000000000000000000000000000000000000000000000000008152600401611d2490614d10565b60405180910390fd5b6000600d6001600d80549050611d439190614d30565b81548110611d5457611d53614c95565b5b906000526020600020906002020160405180608001604052908160008201805480602002602001604051908101604052809291908181526020018280548015611de257602002820191906000526020600020906000905b82829054906101000a900460ff1660ff1681526020019060010190602082600001049283019260010382029150808411611dab5790505b505050505081526020016001820160009054906101000a900460ff1660ff1660ff1681526020016001820160019054906101000a900460ff1660ff1660ff1681526020016001820160029054906101000a900460ff16151515158152505090508060200151816040015192509250509091565b6000600560008473ffffffffffffffffffffffffffffffffffffffff1673ffffffffffffffffffffffffffffffffffffffff16815260200190815260200160002060008373ffffffffffffffffffffffffffffffffffffffff1673ffffffffffffffffffffffffffffffffffffffff16815260200190815260200160002060009054906101000a900460ff16905092915050565b600c60009054906101000a900460ff1681565b60606000600d8054905067ffffffffffffffff811115611f1f57611f1e6138ec565b5b604051908082528060200260200182016040528015611f5257816020015b6060815260200190600190039081611f3d5790505b50905060005b600d8054905081101561202a57600d8181548110611f7957611f78614c95565b5b9060005260206000209060020201600001805480602002602001604051908101604052809291908181526020018280548015611ffa57602002820191906000526020600020906000905b82829054906101000a900460ff1660ff1681526020019060010190602082600001049283019260010382029150808411611fc35790505b505050505082828151811061201257612011614c95565b5b60200260200101819052508080600101915050611f58565b508091505090565b60007f01ffc9a7000000000000000000000000000000000000000000000000000000007bffffffffffffffffffffffffffffffffffffffffffffffffffffffff1916827bffffffffffffffffffffffffffffffffffffffffffffffffffffffff1916149050919050565b6000806120a883612ed2565b9050600073ffffffffffffffffffffffffffffffffffffffff168173ffffffffffffffffffffffffffffffffffffffff160361211b57826040517f7e2732890000000000000000000000000000000000000000000000000000000081526004016121129190613584565b60405180910390fd5b80915050919050565b60006004600083815260200190815260200160002060009054906101000a900473ffffffffffffffffffffffffffffffffffffffff169050919050565b600033905090565b6121768383836001612f0f565b505050565b60008061218784612ed2565b9050600073ffffffffffffffffffffffffffffffffffffffff168373ffffffffffffffffffffffffffffffffffffffff16146121c9576121c88184866130d4565b5b600073ffffffffffffffffffffffffffffffffffffffff168173ffffffffffffffffffffffffffffffffffffffff161461225a5761220b600085600080612f0f565b6001600360008373ffffffffffffffffffffffffffffffffffffffff1673ffffffffffffffffffffffffffffffffffffffff168152602001908152602001600020600082825403925050819055505b600073ffffffffffffffffffffffffffffffffffffffff168573ffffffffffffffffffffffffffffffffffffffff16146122dd576001600360008773ffffffffffffffffffffffffffffffffffffffff1673ffffffffffffffffffffffffffffffffffffffff168152602001908152602001600020600082825401925050819055505b846002600086815260200190815260200160002060006101000a81548173ffffffffffffffffffffffffffffffffffffffff021916908373ffffffffffffffffffffffffffffffffffffffff160217905550838573ffffffffffffffffffffffffffffffffffffffff168273ffffffffffffffffffffffffffffffffffffffff167fddf252ad1be2c89b69c2b068fc378daa952ba7f163c4a11628f55a4df523b3ef60405160405180910390a4809150509392505050565b600073ffffffffffffffffffffffffffffffffffffffff168273ffffffffffffffffffffffffffffffffffffffff160361240657816040517f5b08ba180000000000000000000000000000000000000000000000000000000081526004016123fd91906137ba565b60405180910390fd5b80600560008573ffffffffffffffffffffffffffffffffffffffff1673ffffffffffffffffffffffffffffffffffffffff16815260200190815260200160002060008473ffffffffffffffffffffffffffffffffffffffff1673ffffffffffffffffffffffffffffffffffffffff16815260200190815260200160002060006101000a81548160ff0219169083151502179055508173ffffffffffffffffffffffffffffffffffffffff168373ffffffffffffffffffffffffffffffffffffffff167f17307eab39ab6107e8899845ad3d59bd9653f200f220920489ca2b5937696c31836040516124f79190613653565b60405180910390a3505050565b60008061250f6134a1565b6125176134a1565b60005b600460ff168160ff1610156125f757600a8160ff16815481106125405761253f614c95565b5b90600052602060002090602091828204019190069054906101000a900460ff1660ff16868260ff168151811061257957612578614c95565b5b602002602001015160ff16036125ea57848061259490614d64565b9550506001838260ff16600481106125af576125ae614c95565b5b602002019060ff16908160ff16815250506001828260ff16600481106125d8576125d7614c95565b5b602002019060ff16908160ff16815250505b808060010191505061251a565b5060005b600460ff168160ff161015612723576000828260ff166004811061262257612621614c95565b5b602002015160ff16036127165760005b600460ff168160ff161015612714576000848260ff166004811061265957612658614c95565b5b602002015160ff161480156126c65750600a8160ff16815481106126805761267f614c95565b5b90600052602060002090602091828204019190069054906101000a900460ff1660ff16878360ff16815181106126b9576126b8614c95565b5b602002602001015160ff16145b156127075784806126d690614d64565b9550506001848260ff16600481106126f1576126f0614c95565b5b602002019060ff16908160ff1681525050612714565b8080600101915050612632565b505b80806001019150506125fb565b505050915091565b6001816000016000828254019250508190555050565b600081600001549050919050565b612769828260405180602001604052806000815250613198565b5050565b60008373ffffffffffffffffffffffffffffffffffffffff163b111561291e578273ffffffffffffffffffffffffffffffffffffffff1663150b7a026127b1612161565b8685856040518563ffffffff1660e01b81526004016127d39493929190614de2565b6020604051808303816000875af192505050801561280f57506040513d601f19601f8201168201806040525081019061280c9190614e43565b60015b612893573d806000811461283f576040519150601f19603f3d011682016040523d82523d6000602084013e612844565b606091505b50600081510361288b57836040517f64a0ae9200000000000000000000000000000000000000000000000000000000815260040161288291906137ba565b60405180910390fd5b805181602001fd5b63150b7a0260e01b7bffffffffffffffffffffffffffffffffffffffffffffffffffffffff1916817bffffffffffffffffffffffffffffffffffffffffffffffffffffffff19161461291c57836040517f64a0ae9200000000000000000000000000000000000000000000000000000000815260040161291391906137ba565b60405180910390fd5b505b50505050565b60606000836129328461298b565b604051602001612943929190615674565b6040516020818303038152906040529050600061295f82612d23565b60405160200161296f91906157aa565b6040516020818303038152906040529050809250505092915050565b60606000604e905060008167ffffffffffffffff8111156129af576129ae6138ec565b5b6040519080825280601f01601f1916602001820160405280156129e15781602001600182028036833780820191505090505b50905060005b60008514612a73576000600a866129fe91906157fb565b9050600a86612a0d919061582c565b9550806030612a1c91906148d9565b60f81b838380612a2b9061490d565b945081518110612a3e57612a3d614c95565b5b60200101907effffffffffffffffffffffffffffffffffffffffffffffffffffffffffffff1916908160001a905350506129e7565b60008167ffffffffffffffff811115612a8f57612a8e6138ec565b5b6040519080825280601f01601f191660200182016040528015612ac15781602001600182028036833780820191505090505b50905060005b82811015612b53578360018285612ade9190614d30565b612ae89190614d30565b81518110612af957612af8614c95565b5b602001015160f81c60f81b828281518110612b1757612b16614c95565b5b60200101907effffffffffffffffffffffffffffffffffffffffffffffffffffffffffffff1916908160001a9053508080600101915050612ac7565b5060008190508095505050505050919050565b60606000602867ffffffffffffffff811115612b8557612b846138ec565b5b6040519080825280601f01601f191660200182016040528015612bb75781602001600182028036833780820191505090505b50905060005b6014811015612d19576000816013612bd59190614d30565b6008612be1919061585d565b6002612bed91906159d2565b8573ffffffffffffffffffffffffffffffffffffffff16612c0e919061582c565b60f81b9050600060108260f81c612c259190615a1d565b60f81b905060008160f81c6010612c3c9190615a4e565b8360f81c612c4a9190615a8b565b60f81b9050612c58826131b4565b85856002612c66919061585d565b81518110612c7757612c76614c95565b5b60200101907effffffffffffffffffffffffffffffffffffffffffffffffffffffffffffff1916908160001a905350612caf816131b4565b856001866002612cbf919061585d565b612cc991906148d9565b81518110612cda57612cd9614c95565b5b60200101907effffffffffffffffffffffffffffffffffffffffffffffffffffffffffffff1916908160001a9053505050508080600101915050612bbd565b5080915050919050565b60606000825103612d4557604051806020016040528060008152509050612e90565b6000604051806060016040528060408152602001615b1f6040913990506000600360028551612d7491906148d9565b612d7e919061582c565b6004612d8a919061585d565b67ffffffffffffffff811115612da357612da26138ec565b5b6040519080825280601f01601f191660200182016040528015612dd55781602001600182028036833780820191505090505b50905060018201602082018586518701602081018051600082525b82841015612e4b576003840193508351603f8160121c168701518653600186019550603f81600c1c168701518653600186019550603f8160061c168701518653600186019550603f8116870151865360018601955050612df0565b80825260038a510660018114612e685760028114612e7b57612e83565b603d6001870353603d6002870353612e83565b603d60018703535b5050505050505080925050505b919050565b60606040518060400160405280601d81526020017f646174613a6170706c69636174696f6e2f6a736f6e3b6261736536342c000000815250905090565b60006002600083815260200190815260200160002060009054906101000a900473ffffffffffffffffffffffffffffffffffffffff169050919050565b8080612f485750600073ffffffffffffffffffffffffffffffffffffffff168273ffffffffffffffffffffffffffffffffffffffff1614155b1561307c576000612f588461209c565b9050600073ffffffffffffffffffffffffffffffffffffffff168373ffffffffffffffffffffffffffffffffffffffff1614158015612fc357508273ffffffffffffffffffffffffffffffffffffffff168173ffffffffffffffffffffffffffffffffffffffff1614155b8015612fd65750612fd48184611e55565b155b1561301857826040517fa9fbf51f00000000000000000000000000000000000000000000000000000000815260040161300f91906137ba565b60405180910390fd5b811561307a57838573ffffffffffffffffffffffffffffffffffffffff168273ffffffffffffffffffffffffffffffffffffffff167f8c5be1e5ebec7d5bd14f71427d1e84f3dd0314c0f7b2291e5b200ac8c7c3b92560405160405180910390a45b505b836004600085815260200190815260200160002060006101000a81548173ffffffffffffffffffffffffffffffffffffffff021916908373ffffffffffffffffffffffffffffffffffffffff16021790555050505050565b6130df8383836131fa565b61319357600073ffffffffffffffffffffffffffffffffffffffff168373ffffffffffffffffffffffffffffffffffffffff160361315457806040517f7e27328900000000000000000000000000000000000000000000000000000000815260040161314b9190613584565b60405180910390fd5b81816040517f177e802f00000000000000000000000000000000000000000000000000000000815260040161318a929190615ac0565b60405180910390fd5b505050565b6131a283836132bb565b6131af600084848461276d565b505050565b6000600a8260f81c60ff1610156131df5760308260f81c6131d59190615ae9565b60f81b90506131f5565b60578260f81c6131ef9190615ae9565b60f81b90505b919050565b60008073ffffffffffffffffffffffffffffffffffffffff168373ffffffffffffffffffffffffffffffffffffffff16141580156132b257508273ffffffffffffffffffffffffffffffffffffffff168473ffffffffffffffffffffffffffffffffffffffff16148061327357506132728484611e55565b5b806132b157508273ffffffffffffffffffffffffffffffffffffffff1661329983612124565b73ffffffffffffffffffffffffffffffffffffffff16145b5b90509392505050565b600073ffffffffffffffffffffffffffffffffffffffff168273ffffffffffffffffffffffffffffffffffffffff160361332d5760006040517f64a0ae9200000000000000000000000000000000000000000000000000000000815260040161332491906137ba565b60405180910390fd5b600061333b8383600061217b565b9050600073ffffffffffffffffffffffffffffffffffffffff168173ffffffffffffffffffffffffffffffffffffffff16146133af5760006040517f73c6ac6e0000000000000000000000000000000000000000000000000000000081526004016133a691906137ba565b60405180910390fd5b505050565b82805482825590600052602060002090601f0160209004810192821561344a5791602002820160005b8382111561341b57835183826101000a81548160ff021916908360ff16021790555092602001926001016020816000010492830192600103026133dd565b80156134485782816101000a81549060ff021916905560010160208160000104928301926001030261341b565b505b50905061345791906134c3565b5090565b508054600082556002029060005260206000209081019061347c91906134e0565b50565b6040518060400160405280600290602082028036833780820191505090505090565b6040518060800160405280600490602082028036833780820191505090505090565b5b808211156134dc5760008160009055506001016134c4565b5090565b5b8082111561353f57600080820160006134fa9190613543565b6001820160006101000a81549060ff02191690556001820160016101000a81549060ff02191690556001820160026101000a81549060ff0219169055506002016134e1565b5090565b50805460008255601f01602090049060005260206000209081019061356891906134c3565b50565b6000819050919050565b61357e8161356b565b82525050565b60006020820190506135996000830184613575565b92915050565b6000604051905090565b600080fd5b600080fd5b60007fffffffff0000000000000000000000000000000000000000000000000000000082169050919050565b6135e8816135b3565b81146135f357600080fd5b50565b600081359050613605816135df565b92915050565b600060208284031215613621576136206135a9565b5b600061362f848285016135f6565b91505092915050565b60008115159050919050565b61364d81613638565b82525050565b60006020820190506136686000830184613644565b92915050565b600081519050919050565b600082825260208201905092915050565b60005b838110156136a857808201518184015260208101905061368d565b60008484015250505050565b6000601f19601f8301169050919050565b60006136d08261366e565b6136da8185613679565b93506136ea81856020860161368a565b6136f3816136b4565b840191505092915050565b6000602082019050818103600083015261371881846136c5565b905092915050565b6137298161356b565b811461373457600080fd5b50565b60008135905061374681613720565b92915050565b600060208284031215613762576137616135a9565b5b600061377084828501613737565b91505092915050565b600073ffffffffffffffffffffffffffffffffffffffff82169050919050565b60006137a482613779565b9050919050565b6137b481613799565b82525050565b60006020820190506137cf60008301846137ab565b92915050565b6137de81613799565b81146137e957600080fd5b50565b6000813590506137fb816137d5565b92915050565b60008060408385031215613818576138176135a9565b5b6000613826858286016137ec565b925050602061383785828601613737565b9150509250929050565b600060ff82169050919050565b61385781613841565b82525050565b6000606082019050613872600083018661384e565b61387f602083018561384e565b61388c6040830184613644565b949350505050565b6000806000606084860312156138ad576138ac6135a9565b5b60006138bb868287016137ec565b93505060206138cc868287016137ec565b92505060406138dd86828701613737565b9150509250925092565b600080fd5b7f4e487b7100000000000000000000000000000000000000000000000000000000600052604160045260246000fd5b613924826136b4565b810181811067ffffffffffffffff82111715613943576139426138ec565b5b80604052505050565b600061395661359f565b9050613962828261391b565b919050565b600067ffffffffffffffff821115613982576139816138ec565b5b602082029050602081019050919050565b600080fd5b6139a181613841565b81146139ac57600080fd5b50565b6000813590506139be81613998565b92915050565b60006139d76139d284613967565b61394c565b905080838252602082019050602084028301858111156139fa576139f9613993565b5b835b81811015613a235780613a0f88826139af565b8452602084019350506020810190506139fc565b5050509392505050565b600082601f830112613a4257613a416138e7565b5b8135613a528482602086016139c4565b91505092915050565b600060208284031215613a7157613a706135a9565b5b600082013567ffffffffffffffff811115613a8f57613a8e6135ae565b5b613a9b84828501613a2d565b91505092915050565b600081519050919050565b600082825260208201905092915050565b6000819050602082019050919050565b613ad981613841565b82525050565b6000613aeb8383613ad0565b60208301905092915050565b6000602082019050919050565b6000613b0f82613aa4565b613b198185613aaf565b9350613b2483613ac0565b8060005b83811015613b55578151613b3c8882613adf565b9750613b4783613af7565b925050600181019050613b28565b5085935050505092915050565b60006020820190508181036000830152613b7c8184613b04565b905092915050565b600060208284031215613b9a57613b996135a9565b5b6000613ba8848285016137ec565b91505092915050565b7f4e487b7100000000000000000000000000000000000000000000000000000000600052602160045260246000fd5b60038110613bf157613bf0613bb1565b5b50565b6000819050613c0282613be0565b919050565b6000613c1282613bf4565b9050919050565b613c2281613c07565b82525050565b6000602082019050613c3d6000830184613c19565b92915050565b600081519050919050565b600082825260208201905092915050565b6000819050602082019050919050565b600082825260208201905092915050565b6000613c8b82613aa4565b613c958185613c6f565b9350613ca083613ac0565b8060005b83811015613cd1578151613cb88882613adf565b9750613cc383613af7565b925050600181019050613ca4565b5085935050505092915050565b613ce781613638565b82525050565b60006080830160008301518482036000860152613d0a8282613c80565b9150506020830151613d1f6020860182613ad0565b506040830151613d326040860182613ad0565b506060830151613d456060860182613cde565b508091505092915050565b6000613d5c8383613ced565b905092915050565b6000602082019050919050565b6000613d7c82613c43565b613d868185613c4e565b935083602082028501613d9885613c5f565b8060005b85811015613dd45784840389528151613db58582613d50565b9450613dc083613d64565b925060208a01995050600181019050613d9c565b50829750879550505050505092915050565b60006020820190508181036000830152613e008184613d71565b905092915050565b613e1181613638565b8114613e1c57600080fd5b50565b600081359050613e2e81613e08565b92915050565b60008060408385031215613e4b57613e4a6135a9565b5b6000613e59858286016137ec565b9250506020613e6a85828601613e1f565b9150509250929050565b600080fd5b600067ffffffffffffffff821115613e9457613e936138ec565b5b613e9d826136b4565b9050602081019050919050565b82818337600083830152505050565b6000613ecc613ec784613e79565b61394c565b905082815260208101848484011115613ee857613ee7613e74565b5b613ef3848285613eaa565b509392505050565b600082601f830112613f1057613f0f6138e7565b5b8135613f20848260208601613eb9565b91505092915050565b60008060008060808587031215613f4357613f426135a9565b5b6000613f51878288016137ec565b9450506020613f62878288016137ec565b9350506040613f7387828801613737565b925050606085013567ffffffffffffffff811115613f9457613f936135ae565b5b613fa087828801613efb565b91505092959194509250565b600081519050919050565b600082825260208201905092915050565b6000819050602082019050919050565b600060029050919050565b600081905092915050565b6000819050919050565b6000602082019050919050565b61400e81613fd8565b6140188184613fe3565b925061402382613fee565b8060005b8381101561405457815161403b8782613adf565b965061404683613ff8565b925050600181019050614027565b505050505050565b60006140688383614005565b60408301905092915050565b6000602082019050919050565b600061408c82613fac565b6140968185613fb7565b93506140a183613fc8565b8060005b838110156140d25781516140b9888261405c565b97506140c483614074565b9250506001810190506140a5565b5085935050505092915050565b600060208201905081810360008301526140f98184614081565b905092915050565b6000604082019050614116600083018561384e565b614123602083018461384e565b9392505050565b60008060408385031215614141576141406135a9565b5b600061414f858286016137ec565b9250506020614160858286016137ec565b9150509250929050565b600081519050919050565b600082825260208201905092915050565b6000819050602082019050919050565b60006141a28383613c80565b905092915050565b6000602082019050919050565b60006141c28261416a565b6141cc8185614175565b9350836020820285016141de85614186565b8060005b8581101561421a57848403895281516141fb8582614196565b9450614206836141aa565b925060208a019950506001810190506141e2565b50829750879550505050505092915050565b6000602082019050818103600083015261424681846141b7565b905092915050565b7f4e487b7100000000000000000000000000000000000000000000000000000000600052602260045260246000fd5b6000600282049050600182168061429557607f821691505b6020821081036142a8576142a761424e565b5b50919050565b60006060820190506142c360008301866137ab565b6142d06020830185613575565b6142dd60408301846137ab565b949350505050565b7f4f6e6c792074686520636f64656d616b65722063616e2063616c6c207468697360008201527f2066756e6374696f6e0000000000000000000000000000000000000000000000602082015250565b6000614341602983613679565b915061434c826142e5565b604082019050919050565b6000602082019050818103600083015261437081614334565b9050919050565b7f636f64656d616b65722061646472657373206d75737420626520736574000000600082015250565b60006143ad601d83613679565b91506143b882614377565b602082019050919050565b600060208201905081810360008301526143dc816143a0565b9050919050565b7f436f6465627265616b65722061646472657373206d7573742062652073657400600082015250565b6000614419601f83613679565b9150614424826143e3565b602082019050919050565b600060208201905081810360008301526144488161440c565b9050919050565b7f53656372657420636f6465206d757374206265203420646967697473206c6f6e60008201527f6700000000000000000000000000000000000000000000000000000000000000602082015250565b60006144ab602183613679565b91506144b68261444f565b604082019050919050565b600060208201905081810360008301526144da8161449e565b9050919050565b600081905092915050565b6144f581613841565b82525050565b600061450783836144ec565b60208301905092915050565b600061451e82613aa4565b61452881856144e1565b935061453383613ac0565b8060005b8381101561456457815161454b88826144fb565b975061455683613af7565b925050600181019050614537565b5085935050505092915050565b600061457d8284614513565b915081905092915050565b600060408201905061459d6000830185613c19565b6145aa6020830184613575565b9392505050565b60006060820190506145c66000830186613575565b6145d36020830185613575565b6145e06040830184613575565b949350505050565b7f47616d6520696e2073657373696f6e0000000000000000000000000000000000600082015250565b600061461e600f83613679565b9150614629826145e8565b602082019050919050565b6000602082019050818103600083015261464d81614611565b9050919050565b7f4f6e6c792074686520636f6465627265616b65722063616e2063616c6c20746860008201527f69732066756e6374696f6e000000000000000000000000000000000000000000602082015250565b60006146b0602b83613679565b91506146bb82614654565b604082019050919050565b600060208201905081810360008301526146df816146a3565b9050919050565b7f47616d65206973206e6f74206163746976650000000000000000000000000000600082015250565b600061471c601283613679565b9150614727826146e6565b602082019050919050565b6000602082019050818103600083015261474b8161470f565b9050919050565b7f4775657373206d757374206265203420646967697473206c6f6e670000000000600082015250565b6000614788601b83613679565b915061479382614752565b602082019050919050565b600060208201905081810360008301526147b78161477b565b9050919050565b7f4d6178696d756d206e756d626572206f6620677565737365732072656163686560008201527f6400000000000000000000000000000000000000000000000000000000000000602082015250565b600061481a602183613679565b9150614825826147be565b604082019050919050565b600060208201905081810360008301526148498161480d565b9050919050565b600060a082019050818103600083015261486a8188613b04565b9050614879602083018761384e565b614886604083018661384e565b6148936060830185613644565b6148a06080830184613575565b9695505050505050565b7f4e487b7100000000000000000000000000000000000000000000000000000000600052601160045260246000fd5b60006148e48261356b565b91506148ef8361356b565b9250828201905080821115614907576149066148aa565b5b92915050565b60006149188261356b565b91507fffffffffffffffffffffffffffffffffffffffffffffffffffffffffffffffff820361494a576149496148aa565b5b600182019050919050565b600081905092915050565b7f7b226e616d65223a224d61737465726d696e6420230000000000000000000000600082015250565b6000614996601583614955565b91506149a182614960565b601582019050919050565b60006149b78261366e565b6149c18185614955565b93506149d181856020860161368a565b80840191505092915050565b7f222c20226465736372697074696f6e223a22416e204e4654207468617420726560008201527f666c6563747320746865206f7574636f6d65206f662061204d61737465726d6960208201527f6e642067616d65222c2000000000000000000000000000000000000000000000604082015250565b6000614a5f604a83614955565b9150614a6a826149dd565b604a82019050919050565b7f2261747472696275746573223a205b7b2274726169745f74797065223a20226760008201527f616d655f726573756c74222c202276616c7565223a2022000000000000000000602082015250565b6000614ad1603783614955565b9150614adc82614a75565b603782019050919050565b7f227d2c207b2274726169745f74797065223a20226f776e6572222c202276616c60008201527f7565223a20220000000000000000000000000000000000000000000000000000602082015250565b6000614b43602683614955565b9150614b4e82614ae7565b602682019050919050565b7f227d5d2c2022696d616765223a22000000000000000000000000000000000000600082015250565b6000614b8f600e83614955565b9150614b9a82614b59565b600e82019050919050565b7f227d000000000000000000000000000000000000000000000000000000000000600082015250565b6000614bdb600283614955565b9150614be682614ba5565b600282019050919050565b6000614bfc82614989565b9150614c0882876149ac565b9150614c1382614a52565b9150614c1e82614ac4565b9150614c2a82866149ac565b9150614c3582614b36565b9150614c4182856149ac565b9150614c4c82614b82565b9150614c5882846149ac565b9150614c6382614bce565b915081905095945050505050565b6000614c7d82856149ac565b9150614c8982846149ac565b91508190509392505050565b7f4e487b7100000000000000000000000000000000000000000000000000000000600052603260045260246000fd5b7f4e6f2067756573736573206d6164652079657400000000000000000000000000600082015250565b6000614cfa601383613679565b9150614d0582614cc4565b602082019050919050565b60006020820190508181036000830152614d2981614ced565b9050919050565b6000614d3b8261356b565b9150614d468361356b565b9250828203905081811115614d5e57614d5d6148aa565b5b92915050565b6000614d6f82613841565b915060ff8203614d8257614d816148aa565b5b600182019050919050565b600081519050919050565b600082825260208201905092915050565b6000614db482614d8d565b614dbe8185614d98565b9350614dce81856020860161368a565b614dd7816136b4565b840191505092915050565b6000608082019050614df760008301876137ab565b614e0460208301866137ab565b614e116040830185613575565b8181036060830152614e238184614da9565b905095945050505050565b600081519050614e3d816135df565b92915050565b600060208284031215614e5957614e586135a9565b5b6000614e6784828501614e2e565b91505092915050565b7f3c7376672077696474683d2233303022206865696768743d223330302220786d60008201527f6c6e733d22687474703a2f2f7777772e77332e6f72672f323030302f7376672260208201527f3e00000000000000000000000000000000000000000000000000000000000000604082015250565b6000614ef2604183614955565b9150614efd82614e70565b604182019050919050565b7f3c726563742077696474683d2233303022206865696768743d2233303022206660008201527f696c6c3d2223336330613633222072783d223430222072793d2234302220737460208201527f726f6b653d222366666437303022207374726f6b652d77696474683d2232302260408201527f2f3e000000000000000000000000000000000000000000000000000000000000606082015250565b6000614fb0606283614955565b9150614fbb82614f08565b606282019050919050565b7f3c636972636c652063783d22313530222063793d2236302220723d223330222060008201527f66696c6c3d2223303063666666222f3e00000000000000000000000000000000602082015250565b6000615022603083614955565b915061502d82614fc6565b603082019050919050565b7f3c636972636c652063783d223630222063793d223135302220723d223330222060008201527f66696c6c3d2223303066663537222f3e00000000000000000000000000000000602082015250565b6000615094603083614955565b915061509f82615038565b603082019050919050565b7f3c636972636c652063783d22313530222063793d223234302220723d2233302260008201527f2066696c6c3d2223666635633563222f3e000000000000000000000000000000602082015250565b6000615106603183614955565b9150615111826150aa565b603182019050919050565b7f3c636972636c652063783d22323430222063793d223135302220723d2233302260008201527f2066696c6c3d2223623235636666222f3e000000000000000000000000000000602082015250565b6000615178603183614955565b91506151838261511c565b603182019050919050565b7f3c636972636c652063783d223630222063793d2236302220723d22333022206660008201527f696c6c3d2223666639623030222f3e0000000000000000000000000000000000602082015250565b60006151ea602f83614955565b91506151f58261518e565b602f82019050919050565b7f3c636972636c652063783d22323430222063793d2236302220723d223330222060008201527f66696c6c3d2223666635636632222f3e00000000000000000000000000000000602082015250565b600061525c603083614955565b915061526782615200565b603082019050919050565b7f3c636972636c652063783d22323430222063793d223234302220723d2233302260008201527f2066696c6c3d2223666639623030222f3e000000000000000000000000000000602082015250565b60006152ce603183614955565b91506152d982615272565b603182019050919050565b7f3c636972636c652063783d223630222063793d223234302220723d223330222060008201527f66696c6c3d2223666663663030222f3e00000000000000000000000000000000602082015250565b6000615340603083614955565b915061534b826152e4565b603082019050919050565b7f3c7465787420783d223135302220793d223136352220666f6e742d66616d696c60008201527f793d22417269616c2220666f6e742d73697a653d223732222066696c6c3d222360208201527f6335363866662220746578742d616e63686f723d226d6964646c652220646f6d60408201527f696e616e742d626173656c696e653d226d6964646c65223e6d3c2f746578743e606082015250565b60006153fe608083614955565b915061540982615356565b608082019050919050565b7f3c7465787420783d2239302220793d223238302220666f6e742d66616d696c7960008201527f3d22526f626f746f2220666f6e742d73697a653d223136222066696c6c3d227760208201527f68697465223e0000000000000000000000000000000000000000000000000000604082015250565b6000615496604683614955565b91506154a182615414565b604682019050919050565b7f47616d6520526573756c743a2000000000000000000000000000000000000000600082015250565b60006154e2600d83614955565b91506154ed826154ac565b600d82019050919050565b7f3c2f746578743e00000000000000000000000000000000000000000000000000600082015250565b600061552e600783614955565b9150615539826154f8565b600782019050919050565b7f3c7465787420783d2239302220793d223239352220666f6e742d66616d696c7960008201527f3d22526f626f746f2220666f6e742d73697a653d223136222066696c6c3d227760208201527f68697465223e0000000000000000000000000000000000000000000000000000604082015250565b60006155c6604683614955565b91506155d182615544565b604682019050919050565b7f546f6b656e2049443a2000000000000000000000000000000000000000000000600082015250565b6000615612600a83614955565b915061561d826155dc565b600a82019050919050565b7f3c2f7376673e0000000000000000000000000000000000000000000000000000600082015250565b600061565e600683614955565b915061566982615628565b600682019050919050565b600061567f82614ee5565b915061568a82614fa3565b915061569582615015565b91506156a082615087565b91506156ab826150f9565b91506156b68261516b565b91506156c1826151dd565b91506156cc8261524f565b91506156d7826152c1565b91506156e282615333565b91506156ed826153f1565b91506156f882615489565b9150615703826154d5565b915061570f82856149ac565b915061571a82615521565b9150615725826155b9565b915061573082615605565b915061573c82846149ac565b915061574782615521565b915061575282615651565b91508190509392505050565b7f646174613a696d6167652f7376672b786d6c3b6261736536342c000000000000600082015250565b6000615794601a83614955565b915061579f8261575e565b601a82019050919050565b60006157b582615787565b91506157c182846149ac565b915081905092915050565b7f4e487b7100000000000000000000000000000000000000000000000000000000600052601260045260246000fd5b60006158068261356b565b91506158118361356b565b925082615821576158206157cc565b5b828206905092915050565b60006158378261356b565b91506158428361356b565b925082615852576158516157cc565b5b828204905092915050565b60006158688261356b565b91506158738361356b565b92508282026158818161356b565b91508282048414831517615898576158976148aa565b5b5092915050565b60008160011c9050919050565b6000808291508390505b60018511156158f6578086048111156158d2576158d16148aa565b5b60018516156158e15780820291505b80810290506158ef8561589f565b94506158b6565b94509492505050565b60008261590f57600190506159cb565b8161591d57600090506159cb565b8160018114615933576002811461593d5761596c565b60019150506159cb565b60ff84111561594f5761594e6148aa565b5b8360020a915084821115615966576159656148aa565b5b506159cb565b5060208310610133831016604e8410600b84101617156159a15782820a90508381111561599c5761599b6148aa565b5b6159cb565b6159ae84848460016158ac565b925090508184048111156159c5576159c46148aa565b5b81810290505b9392505050565b60006159dd8261356b565b91506159e88361356b565b9250615a157fffffffffffffffffffffffffffffffffffffffffffffffffffffffffffffffff84846158ff565b905092915050565b6000615a2882613841565b9150615a3383613841565b925082615a4357615a426157cc565b5b828204905092915050565b6000615a5982613841565b9150615a6483613841565b9250828202615a7281613841565b9150808214615a8457615a836148aa565b5b5092915050565b6000615a9682613841565b9150615aa183613841565b9250828203905060ff811115615aba57615ab96148aa565b5b92915050565b6000604082019050615ad560008301856137ab565b615ae26020830184613575565b9392505050565b6000615af482613841565b9150615aff83613841565b9250828201905060ff811115615b1857615b176148aa565b5b9291505056fe4142434445464748494a4b4c4d4e4f505152535455565758595a6162636465666768696a6b6c6d6e6f707172737475767778797a303132333435363738392b2fa2646970667358221220a1b5b58cb3b009eae051790478826068cc2f2780759a6116e64acbca3ca7cc7364736f6c63430008180033","opcodes":"PUSH1 0x80 PUSH1 0x40 MSTORE CALLVALUE DUP1 ISZERO PUSH3 0x11 JUMPI PUSH1 0x0 DUP1 REVERT JUMPDEST POP PUSH1 0x40 MLOAD DUP1 PUSH1 0x40 ADD PUSH1 0x40 MSTORE DUP1 PUSH1 0xA DUP2 MSTORE PUSH1 0x20 ADD PUSH32 0x4D61737465724D696E6400000000000000000000000000000000000000000000 DUP2 MSTORE POP PUSH1 0x40 MLOAD DUP1 PUSH1 0x40 ADD PUSH1 0x40 MSTORE DUP1 PUSH1 0x3 DUP2 MSTORE PUSH1 0x20 ADD PUSH32 0x4D534D0000000000000000000000000000000000000000000000000000000000 DUP2 MSTORE POP DUP2 PUSH1 0x0 SWAP1 DUP2 PUSH3 0x8F SWAP2 SWAP1 PUSH3 0x33F JUMP JUMPDEST POP DUP1 PUSH1 0x1 SWAP1 DUP2 PUSH3 0xA1 SWAP2 SWAP1 PUSH3 0x33F JUMP JUMPDEST POP POP POP PUSH1 0x0 PUSH1 0xC PUSH1 0x0 PUSH2 0x100 EXP DUP2 SLOAD DUP2 PUSH1 0xFF MUL NOT AND SWAP1 DUP4 ISZERO ISZERO MUL OR SWAP1 SSTORE POP PUSH3 0x426 JUMP JUMPDEST PUSH1 0x0 DUP2 MLOAD SWAP1 POP SWAP2 SWAP1 POP JUMP JUMPDEST PUSH32 0x4E487B7100000000000000000000000000000000000000000000000000000000 PUSH1 0x0 MSTORE PUSH1 0x41 PUSH1 0x4 MSTORE PUSH1 0x24 PUSH1 0x0 REVERT JUMPDEST PUSH32 0x4E487B7100000000000000000000000000000000000000000000000000000000 PUSH1 0x0 MSTORE PUSH1 0x22 PUSH1 0x4 MSTORE PUSH1 0x24 PUSH1 0x0 REVERT JUMPDEST PUSH1 0x0 PUSH1 0x2 DUP3 DIV SWAP1 POP PUSH1 0x1 DUP3 AND DUP1 PUSH3 0x147 JUMPI PUSH1 0x7F DUP3 AND SWAP2 POP JUMPDEST PUSH1 0x20 DUP3 LT DUP2 SUB PUSH3 0x15D JUMPI PUSH3 0x15C PUSH3 0xFF JUMP JUMPDEST JUMPDEST POP SWAP2 SWAP1 POP JUMP JUMPDEST PUSH1 0x0 DUP2 SWAP1 POP DUP2 PUSH1 0x0 MSTORE PUSH1 0x20 PUSH1 0x0 KECCAK256 SWAP1 POP SWAP2 SWAP1 POP JUMP JUMPDEST PUSH1 0x0 PUSH1 0x20 PUSH1 0x1F DUP4 ADD DIV SWAP1 POP SWAP2 SWAP1 POP JUMP JUMPDEST PUSH1 0x0 DUP3 DUP3 SHL SWAP1 POP SWAP3 SWAP2 POP POP JUMP JUMPDEST PUSH1 0x0 PUSH1 0x8 DUP4 MUL PUSH3 0x1C7 PUSH32 0xFFFFFFFFFFFFFFFFFFFFFFFFFFFFFFFFFFFFFFFFFFFFFFFFFFFFFFFFFFFFFFFF DUP3 PUSH3 0x188 JUMP JUMPDEST PUSH3 0x1D3 DUP7 DUP4 PUSH3 0x188 JUMP JUMPDEST SWAP6 POP DUP1 NOT DUP5 AND SWAP4 POP DUP1 DUP7 AND DUP5 OR SWAP3 POP POP POP SWAP4 SWAP3 POP POP POP JUMP JUMPDEST PUSH1 0x0 DUP2 SWAP1 POP SWAP2 SWAP1 POP JUMP JUMPDEST PUSH1 0x0 DUP2 SWAP1 POP SWAP2 SWAP1 POP JUMP JUMPDEST PUSH1 0x0 PUSH3 0x220 PUSH3 0x21A PUSH3 0x214 DUP5 PUSH3 0x1EB JUMP JUMPDEST PUSH3 0x1F5 JUMP JUMPDEST PUSH3 0x1EB JUMP JUMPDEST SWAP1 POP SWAP2 SWAP1 POP JUMP JUMPDEST PUSH1 0x0 DUP2 SWAP1 POP SWAP2 SWAP1 POP JUMP JUMPDEST PUSH3 0x23C DUP4 PUSH3 0x1FF JUMP JUMPDEST PUSH3 0x254 PUSH3 0x24B DUP3 PUSH3 0x227 JUMP JUMPDEST DUP5 DUP5 SLOAD PUSH3 0x195 JUMP JUMPDEST DUP3 SSTORE POP POP POP POP JUMP JUMPDEST PUSH1 0x0 SWAP1 JUMP JUMPDEST PUSH3 0x26B PUSH3 0x25C JUMP JUMPDEST PUSH3 0x278 DUP2 DUP5 DUP5 PUSH3 0x231 JUMP JUMPDEST POP POP POP JUMP JUMPDEST JUMPDEST DUP2 DUP2 LT ISZERO PUSH3 0x2A0 JUMPI PUSH3 0x294 PUSH1 0x0 DUP3 PUSH3 0x261 JUMP JUMPDEST PUSH1 0x1 DUP2 ADD SWAP1 POP PUSH3 0x27E JUMP JUMPDEST POP POP JUMP JUMPDEST PUSH1 0x1F DUP3 GT ISZERO PUSH3 0x2EF JUMPI PUSH3 0x2B9 DUP2 PUSH3 0x163 JUMP JUMPDEST PUSH3 0x2C4 DUP5 PUSH3 0x178 JUMP JUMPDEST DUP2 ADD PUSH1 0x20 DUP6 LT ISZERO PUSH3 0x2D4 JUMPI DUP2 SWAP1 POP JUMPDEST PUSH3 0x2EC PUSH3 0x2E3 DUP6 PUSH3 0x178 JUMP JUMPDEST DUP4 ADD DUP3 PUSH3 0x27D JUMP JUMPDEST POP POP JUMPDEST POP POP POP JUMP JUMPDEST PUSH1 0x0 DUP3 DUP3 SHR SWAP1 POP SWAP3 SWAP2 POP POP JUMP JUMPDEST PUSH1 0x0 PUSH3 0x314 PUSH1 0x0 NOT DUP5 PUSH1 0x8 MUL PUSH3 0x2F4 JUMP JUMPDEST NOT DUP1 DUP4 AND SWAP2 POP POP SWAP3 SWAP2 POP POP JUMP JUMPDEST PUSH1 0x0 PUSH3 0x32F DUP4 DUP4 PUSH3 0x301 JUMP JUMPDEST SWAP2 POP DUP3 PUSH1 0x2 MUL DUP3 OR SWAP1 POP SWAP3 SWAP2 POP POP JUMP JUMPDEST PUSH3 0x34A DUP3 PUSH3 0xC5 JUMP JUMPDEST PUSH8 0xFFFFFFFFFFFFFFFF DUP2 GT ISZERO PUSH3 0x366 JUMPI PUSH3 0x365 PUSH3 0xD0 JUMP JUMPDEST JUMPDEST PUSH3 0x372 DUP3 SLOAD PUSH3 0x12E JUMP JUMPDEST PUSH3 0x37F DUP3 DUP3 DUP6 PUSH3 0x2A4 JUMP JUMPDEST PUSH1 0x0 PUSH1 0x20 SWAP1 POP PUSH1 0x1F DUP4 GT PUSH1 0x1 DUP2 EQ PUSH3 0x3B7 JUMPI PUSH1 0x0 DUP5 ISZERO PUSH3 0x3A2 JUMPI DUP3 DUP8 ADD MLOAD SWAP1 POP JUMPDEST PUSH3 0x3AE DUP6 DUP3 PUSH3 0x321 JUMP JUMPDEST DUP7 SSTORE POP PUSH3 0x41E JUMP JUMPDEST PUSH1 0x1F NOT DUP5 AND PUSH3 0x3C7 DUP7 PUSH3 0x163 JUMP JUMPDEST PUSH1 0x0 JUMPDEST DUP3 DUP2 LT ISZERO PUSH3 0x3F1 JUMPI DUP5 DUP10 ADD MLOAD DUP3 SSTORE PUSH1 0x1 DUP3 ADD SWAP2 POP PUSH1 0x20 DUP6 ADD SWAP5 POP PUSH1 0x20 DUP2 ADD SWAP1 POP PUSH3 0x3CA JUMP JUMPDEST DUP7 DUP4 LT ISZERO PUSH3 0x411 JUMPI DUP5 DUP10 ADD MLOAD PUSH3 0x40D PUSH1 0x1F DUP10 AND DUP3 PUSH3 0x301 JUMP JUMPDEST DUP4 SSTORE POP JUMPDEST PUSH1 0x1 PUSH1 0x2 DUP9 MUL ADD DUP9 SSTORE POP POP POP JUMPDEST POP POP POP POP POP POP JUMP JUMPDEST PUSH2 0x5B94 DUP1 PUSH3 0x436 PUSH1 0x0 CODECOPY PUSH1 0x0 RETURN INVALID PUSH1 0x80 PUSH1 0x40 MSTORE CALLVALUE DUP1 ISZERO PUSH2 0x10 JUMPI PUSH1 0x0 DUP1 REVERT JUMPDEST POP PUSH1 0x4 CALLDATASIZE LT PUSH2 0x1F0 JUMPI PUSH1 0x0 CALLDATALOAD PUSH1 0xE0 SHR DUP1 PUSH4 0x797642DB GT PUSH2 0x10F JUMPI DUP1 PUSH4 0xC0E361D2 GT PUSH2 0xA2 JUMPI DUP1 PUSH4 0xDB1329D5 GT PUSH2 0x71 JUMPI DUP1 PUSH4 0xDB1329D5 EQ PUSH2 0x575 JUMPI DUP1 PUSH4 0xE985E9C5 EQ PUSH2 0x594 JUMPI DUP1 PUSH4 0xF020044F EQ PUSH2 0x5C4 JUMPI DUP1 PUSH4 0xF0D4E2DB EQ PUSH2 0x5E2 JUMPI PUSH2 0x1F0 JUMP JUMPDEST DUP1 PUSH4 0xC0E361D2 EQ PUSH2 0x4EB JUMPI DUP1 PUSH4 0xC68A9FE4 EQ PUSH2 0x509 JUMPI DUP1 PUSH4 0xC87B56DD EQ PUSH2 0x527 JUMPI DUP1 PUSH4 0xD3B68664 EQ PUSH2 0x557 JUMPI PUSH2 0x1F0 JUMP JUMPDEST DUP1 PUSH4 0x95D89B41 GT PUSH2 0xDE JUMPI DUP1 PUSH4 0x95D89B41 EQ PUSH2 0x479 JUMPI DUP1 PUSH4 0xA22CB465 EQ PUSH2 0x497 JUMPI DUP1 PUSH4 0xA42DC7B7 EQ PUSH2 0x4B3 JUMPI DUP1 PUSH4 0xB88D4FDE EQ PUSH2 0x4CF JUMPI PUSH2 0x1F0 JUMP JUMPDEST DUP1 PUSH4 0x797642DB EQ PUSH2 0x429 JUMPI DUP1 PUSH4 0x801DB33D EQ PUSH2 0x447 JUMPI DUP1 PUSH4 0x84894606 EQ PUSH2 0x465 JUMPI DUP1 PUSH4 0x8E5CD8E9 EQ PUSH2 0x46F JUMPI PUSH2 0x1F0 JUMP JUMPDEST DUP1 PUSH4 0x276D2121 GT PUSH2 0x187 JUMPI DUP1 PUSH4 0x5B9FDC30 GT PUSH2 0x156 JUMPI DUP1 PUSH4 0x5B9FDC30 EQ PUSH2 0x38D JUMPI DUP1 PUSH4 0x6352211E EQ PUSH2 0x3AB JUMPI DUP1 PUSH4 0x70A08231 EQ PUSH2 0x3DB JUMPI DUP1 PUSH4 0x722FED7E EQ PUSH2 0x40B JUMPI PUSH2 0x1F0 JUMP JUMPDEST DUP1 PUSH4 0x276D2121 EQ PUSH2 0x319 JUMPI DUP1 PUSH4 0x29B817C8 EQ PUSH2 0x335 JUMPI DUP1 PUSH4 0x42842E0E EQ PUSH2 0x353 JUMPI DUP1 PUSH4 0x50633FA7 EQ PUSH2 0x36F JUMPI PUSH2 0x1F0 JUMP JUMPDEST DUP1 PUSH4 0x95EA7B3 GT PUSH2 0x1C3 JUMPI DUP1 PUSH4 0x95EA7B3 EQ PUSH2 0x291 JUMPI DUP1 PUSH4 0xE5C05F1 EQ PUSH2 0x2AD JUMPI DUP1 PUSH4 0x1F491389 EQ PUSH2 0x2CB JUMPI DUP1 PUSH4 0x23B872DD EQ PUSH2 0x2FD JUMPI PUSH2 0x1F0 JUMP JUMPDEST DUP1 PUSH4 0x11D7AB2 EQ PUSH2 0x1F5 JUMPI DUP1 PUSH4 0x1FFC9A7 EQ PUSH2 0x213 JUMPI DUP1 PUSH4 0x6FDDE03 EQ PUSH2 0x243 JUMPI DUP1 PUSH4 0x81812FC EQ PUSH2 0x261 JUMPI JUMPDEST PUSH1 0x0 DUP1 REVERT JUMPDEST PUSH2 0x1FD PUSH2 0x600 JUMP JUMPDEST PUSH1 0x40 MLOAD PUSH2 0x20A SWAP2 SWAP1 PUSH2 0x3584 JUMP JUMPDEST PUSH1 0x40 MLOAD DUP1 SWAP2 SUB SWAP1 RETURN JUMPDEST PUSH2 0x22D PUSH1 0x4 DUP1 CALLDATASIZE SUB DUP2 ADD SWAP1 PUSH2 0x228 SWAP2 SWAP1 PUSH2 0x360B JUMP JUMPDEST PUSH2 0x606 JUMP JUMPDEST PUSH1 0x40 MLOAD PUSH2 0x23A SWAP2 SWAP1 PUSH2 0x3653 JUMP JUMPDEST PUSH1 0x40 MLOAD DUP1 SWAP2 SUB SWAP1 RETURN JUMPDEST PUSH2 0x24B PUSH2 0x6E8 JUMP JUMPDEST PUSH1 0x40 MLOAD PUSH2 0x258 SWAP2 SWAP1 PUSH2 0x36FE JUMP JUMPDEST PUSH1 0x40 MLOAD DUP1 SWAP2 SUB SWAP1 RETURN JUMPDEST PUSH2 0x27B PUSH1 0x4 DUP1 CALLDATASIZE SUB DUP2 ADD SWAP1 PUSH2 0x276 SWAP2 SWAP1 PUSH2 0x374C JUMP JUMPDEST PUSH2 0x77A JUMP JUMPDEST PUSH1 0x40 MLOAD PUSH2 0x288 SWAP2 SWAP1 PUSH2 0x37BA JUMP JUMPDEST PUSH1 0x40 MLOAD DUP1 SWAP2 SUB SWAP1 RETURN JUMPDEST PUSH2 0x2AB PUSH1 0x4 DUP1 CALLDATASIZE SUB DUP2 ADD SWAP1 PUSH2 0x2A6 SWAP2 SWAP1 PUSH2 0x3801 JUMP JUMPDEST PUSH2 0x796 JUMP JUMPDEST STOP JUMPDEST PUSH2 0x2B5 PUSH2 0x7AC JUMP JUMPDEST PUSH1 0x40 MLOAD PUSH2 0x2C2 SWAP2 SWAP1 PUSH2 0x37BA JUMP JUMPDEST PUSH1 0x40 MLOAD DUP1 SWAP2 SUB SWAP1 RETURN JUMPDEST PUSH2 0x2E5 PUSH1 0x4 DUP1 CALLDATASIZE SUB DUP2 ADD SWAP1 PUSH2 0x2E0 SWAP2 SWAP1 PUSH2 0x374C JUMP JUMPDEST PUSH2 0x7D2 JUMP JUMPDEST PUSH1 0x40 MLOAD PUSH2 0x2F4 SWAP4 SWAP3 SWAP2 SWAP1 PUSH2 0x385D JUMP JUMPDEST PUSH1 0x40 MLOAD DUP1 SWAP2 SUB SWAP1 RETURN JUMPDEST PUSH2 0x317 PUSH1 0x4 DUP1 CALLDATASIZE SUB DUP2 ADD SWAP1 PUSH2 0x312 SWAP2 SWAP1 PUSH2 0x3894 JUMP JUMPDEST PUSH2 0x833 JUMP JUMPDEST STOP JUMPDEST PUSH2 0x333 PUSH1 0x4 DUP1 CALLDATASIZE SUB DUP2 ADD SWAP1 PUSH2 0x32E SWAP2 SWAP1 PUSH2 0x3A5B JUMP JUMPDEST PUSH2 0x935 JUMP JUMPDEST STOP JUMPDEST PUSH2 0x33D PUSH2 0xD25 JUMP JUMPDEST PUSH1 0x40 MLOAD PUSH2 0x34A SWAP2 SWAP1 PUSH2 0x3584 JUMP JUMPDEST PUSH1 0x40 MLOAD DUP1 SWAP2 SUB SWAP1 RETURN JUMPDEST PUSH2 0x36D PUSH1 0x4 DUP1 CALLDATASIZE SUB DUP2 ADD SWAP1 PUSH2 0x368 SWAP2 SWAP1 PUSH2 0x3894 JUMP JUMPDEST PUSH2 0xD2F JUMP JUMPDEST STOP JUMPDEST PUSH2 0x377 PUSH2 0xD4F JUMP JUMPDEST PUSH1 0x40 MLOAD PUSH2 0x384 SWAP2 SWAP1 PUSH2 0x37BA JUMP JUMPDEST PUSH1 0x40 MLOAD DUP1 SWAP2 SUB SWAP1 RETURN JUMPDEST PUSH2 0x395 PUSH2 0xD75 JUMP JUMPDEST PUSH1 0x40 MLOAD PUSH2 0x3A2 SWAP2 SWAP1 PUSH2 0x3B62 JUMP JUMPDEST PUSH1 0x40 MLOAD DUP1 SWAP2 SUB SWAP1 RETURN JUMPDEST PUSH2 0x3C5 PUSH1 0x4 DUP1 CALLDATASIZE SUB DUP2 ADD SWAP1 PUSH2 0x3C0 SWAP2 SWAP1 PUSH2 0x374C JUMP JUMPDEST PUSH2 0xF3B JUMP JUMPDEST PUSH1 0x40 MLOAD PUSH2 0x3D2 SWAP2 SWAP1 PUSH2 0x37BA JUMP JUMPDEST PUSH1 0x40 MLOAD DUP1 SWAP2 SUB SWAP1 RETURN JUMPDEST PUSH2 0x3F5 PUSH1 0x4 DUP1 CALLDATASIZE SUB DUP2 ADD SWAP1 PUSH2 0x3F0 SWAP2 SWAP1 PUSH2 0x3B84 JUMP JUMPDEST PUSH2 0xF4D JUMP JUMPDEST PUSH1 0x40 MLOAD PUSH2 0x402 SWAP2 SWAP1 PUSH2 0x3584 JUMP JUMPDEST PUSH1 0x40 MLOAD DUP1 SWAP2 SUB SWAP1 RETURN JUMPDEST PUSH2 0x413 PUSH2 0x1007 JUMP JUMPDEST PUSH1 0x40 MLOAD PUSH2 0x420 SWAP2 SWAP1 PUSH2 0x3C28 JUMP JUMPDEST PUSH1 0x40 MLOAD DUP1 SWAP2 SUB SWAP1 RETURN JUMPDEST PUSH2 0x431 PUSH2 0x101A JUMP JUMPDEST PUSH1 0x40 MLOAD PUSH2 0x43E SWAP2 SWAP1 PUSH2 0x3DE6 JUMP JUMPDEST PUSH1 0x40 MLOAD DUP1 SWAP2 SUB SWAP1 RETURN JUMPDEST PUSH2 0x44F PUSH2 0x114C JUMP JUMPDEST PUSH1 0x40 MLOAD PUSH2 0x45C SWAP2 SWAP1 PUSH2 0x3584 JUMP JUMPDEST PUSH1 0x40 MLOAD DUP1 SWAP2 SUB SWAP1 RETURN JUMPDEST PUSH2 0x46D PUSH2 0x1156 JUMP JUMPDEST STOP JUMPDEST PUSH2 0x477 PUSH2 0x1259 JUMP JUMPDEST STOP JUMPDEST PUSH2 0x481 PUSH2 0x135C JUMP JUMPDEST PUSH1 0x40 MLOAD PUSH2 0x48E SWAP2 SWAP1 PUSH2 0x36FE JUMP JUMPDEST PUSH1 0x40 MLOAD DUP1 SWAP2 SUB SWAP1 RETURN JUMPDEST PUSH2 0x4B1 PUSH1 0x4 DUP1 CALLDATASIZE SUB DUP2 ADD SWAP1 PUSH2 0x4AC SWAP2 SWAP1 PUSH2 0x3E34 JUMP JUMPDEST PUSH2 0x13EE JUMP JUMPDEST STOP JUMPDEST PUSH2 0x4CD PUSH1 0x4 DUP1 CALLDATASIZE SUB DUP2 ADD SWAP1 PUSH2 0x4C8 SWAP2 SWAP1 PUSH2 0x3A5B JUMP JUMPDEST PUSH2 0x1404 JUMP JUMPDEST STOP JUMPDEST PUSH2 0x4E9 PUSH1 0x4 DUP1 CALLDATASIZE SUB DUP2 ADD SWAP1 PUSH2 0x4E4 SWAP2 SWAP1 PUSH2 0x3F29 JUMP JUMPDEST PUSH2 0x1A4E JUMP JUMPDEST STOP JUMPDEST PUSH2 0x4F3 PUSH2 0x1A6B JUMP JUMPDEST PUSH1 0x40 MLOAD PUSH2 0x500 SWAP2 SWAP1 PUSH2 0x3584 JUMP JUMPDEST PUSH1 0x40 MLOAD DUP1 SWAP2 SUB SWAP1 RETURN JUMPDEST PUSH2 0x511 PUSH2 0x1A71 JUMP JUMPDEST PUSH1 0x40 MLOAD PUSH2 0x51E SWAP2 SWAP1 PUSH2 0x3584 JUMP JUMPDEST PUSH1 0x40 MLOAD DUP1 SWAP2 SUB SWAP1 RETURN JUMPDEST PUSH2 0x541 PUSH1 0x4 DUP1 CALLDATASIZE SUB DUP2 ADD SWAP1 PUSH2 0x53C SWAP2 SWAP1 PUSH2 0x374C JUMP JUMPDEST PUSH2 0x1A77 JUMP JUMPDEST PUSH1 0x40 MLOAD PUSH2 0x54E SWAP2 SWAP1 PUSH2 0x36FE JUMP JUMPDEST PUSH1 0x40 MLOAD DUP1 SWAP2 SUB SWAP1 RETURN JUMPDEST PUSH2 0x55F PUSH2 0x1BBB JUMP JUMPDEST PUSH1 0x40 MLOAD PUSH2 0x56C SWAP2 SWAP1 PUSH2 0x40DF JUMP JUMPDEST PUSH1 0x40 MLOAD DUP1 SWAP2 SUB SWAP1 RETURN JUMPDEST PUSH2 0x57D PUSH2 0x1CE2 JUMP JUMPDEST PUSH1 0x40 MLOAD PUSH2 0x58B SWAP3 SWAP2 SWAP1 PUSH2 0x4101 JUMP JUMPDEST PUSH1 0x40 MLOAD DUP1 SWAP2 SUB SWAP1 RETURN JUMPDEST PUSH2 0x5AE PUSH1 0x4 DUP1 CALLDATASIZE SUB DUP2 ADD SWAP1 PUSH2 0x5A9 SWAP2 SWAP1 PUSH2 0x412A JUMP JUMPDEST PUSH2 0x1E55 JUMP JUMPDEST PUSH1 0x40 MLOAD PUSH2 0x5BB SWAP2 SWAP1 PUSH2 0x3653 JUMP JUMPDEST PUSH1 0x40 MLOAD DUP1 SWAP2 SUB SWAP1 RETURN JUMPDEST PUSH2 0x5CC PUSH2 0x1EE9 JUMP JUMPDEST PUSH1 0x40 MLOAD PUSH2 0x5D9 SWAP2 SWAP1 PUSH2 0x3653 JUMP JUMPDEST PUSH1 0x40 MLOAD DUP1 SWAP2 SUB SWAP1 RETURN JUMPDEST PUSH2 0x5EA PUSH2 0x1EFC JUMP JUMPDEST PUSH1 0x40 MLOAD PUSH2 0x5F7 SWAP2 SWAP1 PUSH2 0x422C JUMP JUMPDEST PUSH1 0x40 MLOAD DUP1 SWAP2 SUB SWAP1 RETURN JUMPDEST PUSH1 0xF SLOAD DUP2 JUMP JUMPDEST PUSH1 0x0 PUSH32 0x80AC58CD00000000000000000000000000000000000000000000000000000000 PUSH28 0xFFFFFFFFFFFFFFFFFFFFFFFFFFFFFFFFFFFFFFFFFFFFFFFFFFFFFFFF NOT AND DUP3 PUSH28 0xFFFFFFFFFFFFFFFFFFFFFFFFFFFFFFFFFFFFFFFFFFFFFFFFFFFFFFFF NOT AND EQ DUP1 PUSH2 0x6D1 JUMPI POP PUSH32 0x5B5E139F00000000000000000000000000000000000000000000000000000000 PUSH28 0xFFFFFFFFFFFFFFFFFFFFFFFFFFFFFFFFFFFFFFFFFFFFFFFFFFFFFFFF NOT AND DUP3 PUSH28 0xFFFFFFFFFFFFFFFFFFFFFFFFFFFFFFFFFFFFFFFFFFFFFFFFFFFFFFFF NOT AND EQ JUMPDEST DUP1 PUSH2 0x6E1 JUMPI POP PUSH2 0x6E0 DUP3 PUSH2 0x2032 JUMP JUMPDEST JUMPDEST SWAP1 POP SWAP2 SWAP1 POP JUMP JUMPDEST PUSH1 0x60 PUSH1 0x0 DUP1 SLOAD PUSH2 0x6F7 SWAP1 PUSH2 0x427D JUMP JUMPDEST DUP1 PUSH1 0x1F ADD PUSH1 0x20 DUP1 SWAP2 DIV MUL PUSH1 0x20 ADD PUSH1 0x40 MLOAD SWAP1 DUP2 ADD PUSH1 0x40 MSTORE DUP1 SWAP3 SWAP2 SWAP1 DUP2 DUP2 MSTORE PUSH1 0x20 ADD DUP3 DUP1 SLOAD PUSH2 0x723 SWAP1 PUSH2 0x427D JUMP JUMPDEST DUP1 ISZERO PUSH2 0x770 JUMPI DUP1 PUSH1 0x1F LT PUSH2 0x745 JUMPI PUSH2 0x100 DUP1 DUP4 SLOAD DIV MUL DUP4 MSTORE SWAP2 PUSH1 0x20 ADD SWAP2 PUSH2 0x770 JUMP JUMPDEST DUP3 ADD SWAP2 SWAP1 PUSH1 0x0 MSTORE PUSH1 0x20 PUSH1 0x0 KECCAK256 SWAP1 JUMPDEST DUP2 SLOAD DUP2 MSTORE SWAP1 PUSH1 0x1 ADD SWAP1 PUSH1 0x20 ADD DUP1 DUP4 GT PUSH2 0x753 JUMPI DUP3 SWAP1 SUB PUSH1 0x1F AND DUP3 ADD SWAP2 JUMPDEST POP POP POP POP POP SWAP1 POP SWAP1 JUMP JUMPDEST PUSH1 0x0 PUSH2 0x785 DUP3 PUSH2 0x209C JUMP JUMPDEST POP PUSH2 0x78F DUP3 PUSH2 0x2124 JUMP JUMPDEST SWAP1 POP SWAP2 SWAP1 POP JUMP JUMPDEST PUSH2 0x7A8 DUP3 DUP3 PUSH2 0x7A3 PUSH2 0x2161 JUMP JUMPDEST PUSH2 0x2169 JUMP JUMPDEST POP POP JUMP JUMPDEST PUSH1 0x8 PUSH1 0x0 SWAP1 SLOAD SWAP1 PUSH2 0x100 EXP SWAP1 DIV PUSH20 0xFFFFFFFFFFFFFFFFFFFFFFFFFFFFFFFFFFFFFFFF AND DUP2 JUMP JUMPDEST PUSH1 0xD DUP2 DUP2 SLOAD DUP2 LT PUSH2 0x7E2 JUMPI PUSH1 0x0 DUP1 REVERT JUMPDEST SWAP1 PUSH1 0x0 MSTORE PUSH1 0x20 PUSH1 0x0 KECCAK256 SWAP1 PUSH1 0x2 MUL ADD PUSH1 0x0 SWAP2 POP SWAP1 POP DUP1 PUSH1 0x1 ADD PUSH1 0x0 SWAP1 SLOAD SWAP1 PUSH2 0x100 EXP SWAP1 DIV PUSH1 0xFF AND SWAP1 DUP1 PUSH1 0x1 ADD PUSH1 0x1 SWAP1 SLOAD SWAP1 PUSH2 0x100 EXP SWAP1 DIV PUSH1 0xFF AND SWAP1 DUP1 PUSH1 0x1 ADD PUSH1 0x2 SWAP1 SLOAD SWAP1 PUSH2 0x100 EXP SWAP1 DIV PUSH1 0xFF AND SWAP1 POP DUP4 JUMP JUMPDEST PUSH1 0x0 PUSH20 0xFFFFFFFFFFFFFFFFFFFFFFFFFFFFFFFFFFFFFFFF AND DUP3 PUSH20 0xFFFFFFFFFFFFFFFFFFFFFFFFFFFFFFFFFFFFFFFF AND SUB PUSH2 0x8A5 JUMPI PUSH1 0x0 PUSH1 0x40 MLOAD PUSH32 0x64A0AE9200000000000000000000000000000000000000000000000000000000 DUP2 MSTORE PUSH1 0x4 ADD PUSH2 0x89C SWAP2 SWAP1 PUSH2 0x37BA JUMP JUMPDEST PUSH1 0x40 MLOAD DUP1 SWAP2 SUB SWAP1 REVERT JUMPDEST PUSH1 0x0 PUSH2 0x8B9 DUP4 DUP4 PUSH2 0x8B4 PUSH2 0x2161 JUMP JUMPDEST PUSH2 0x217B JUMP JUMPDEST SWAP1 POP DUP4 PUSH20 0xFFFFFFFFFFFFFFFFFFFFFFFFFFFFFFFFFFFFFFFF AND DUP2 PUSH20 0xFFFFFFFFFFFFFFFFFFFFFFFFFFFFFFFFFFFFFFFF AND EQ PUSH2 0x92F JUMPI DUP4 DUP3 DUP3 PUSH1 0x40 MLOAD PUSH32 0x64283D7B00000000000000000000000000000000000000000000000000000000 DUP2 MSTORE PUSH1 0x4 ADD PUSH2 0x926 SWAP4 SWAP3 SWAP2 SWAP1 PUSH2 0x42AE JUMP JUMPDEST PUSH1 0x40 MLOAD DUP1 SWAP2 SUB SWAP1 REVERT JUMPDEST POP POP POP POP JUMP JUMPDEST PUSH1 0x7 PUSH1 0x0 SWAP1 SLOAD SWAP1 PUSH2 0x100 EXP SWAP1 DIV PUSH20 0xFFFFFFFFFFFFFFFFFFFFFFFFFFFFFFFFFFFFFFFF AND PUSH20 0xFFFFFFFFFFFFFFFFFFFFFFFFFFFFFFFFFFFFFFFF AND CALLER PUSH20 0xFFFFFFFFFFFFFFFFFFFFFFFFFFFFFFFFFFFFFFFF AND EQ PUSH2 0x9C5 JUMPI PUSH1 0x40 MLOAD PUSH32 0x8C379A000000000000000000000000000000000000000000000000000000000 DUP2 MSTORE PUSH1 0x4 ADD PUSH2 0x9BC SWAP1 PUSH2 0x4357 JUMP JUMPDEST PUSH1 0x40 MLOAD DUP1 SWAP2 SUB SWAP1 REVERT JUMPDEST PUSH1 0x0 PUSH20 0xFFFFFFFFFFFFFFFFFFFFFFFFFFFFFFFFFFFFFFFF AND PUSH1 0x7 PUSH1 0x0 SWAP1 SLOAD SWAP1 PUSH2 0x100 EXP SWAP1 DIV PUSH20 0xFFFFFFFFFFFFFFFFFFFFFFFFFFFFFFFFFFFFFFFF AND PUSH20 0xFFFFFFFFFFFFFFFFFFFFFFFFFFFFFFFFFFFFFFFF AND SUB PUSH2 0xA56 JUMPI PUSH1 0x40 MLOAD PUSH32 0x8C379A000000000000000000000000000000000000000000000000000000000 DUP2 MSTORE PUSH1 0x4 ADD PUSH2 0xA4D SWAP1 PUSH2 0x43C3 JUMP JUMPDEST PUSH1 0x40 MLOAD DUP1 SWAP2 SUB SWAP1 REVERT JUMPDEST PUSH1 0x0 PUSH20 0xFFFFFFFFFFFFFFFFFFFFFFFFFFFFFFFFFFFFFFFF AND PUSH1 0x8 PUSH1 0x0 SWAP1 SLOAD SWAP1 PUSH2 0x100 EXP SWAP1 DIV PUSH20 0xFFFFFFFFFFFFFFFFFFFFFFFFFFFFFFFFFFFFFFFF AND PUSH20 0xFFFFFFFFFFFFFFFFFFFFFFFFFFFFFFFFFFFFFFFF AND SUB PUSH2 0xAE7 JUMPI PUSH1 0x40 MLOAD PUSH32 0x8C379A000000000000000000000000000000000000000000000000000000000 DUP2 MSTORE PUSH1 0x4 ADD PUSH2 0xADE SWAP1 PUSH2 0x442F JUMP JUMPDEST PUSH1 0x40 MLOAD DUP1 SWAP2 SUB SWAP1 REVERT JUMPDEST PUSH1 0x4 PUSH1 0xFF AND DUP2 MLOAD EQ PUSH2 0xB2E JUMPI PUSH1 0x40 MLOAD PUSH32 0x8C379A000000000000000000000000000000000000000000000000000000000 DUP2 MSTORE PUSH1 0x4 ADD PUSH2 0xB25 SWAP1 PUSH2 0x44C1 JUMP JUMPDEST PUSH1 0x40 MLOAD DUP1 SWAP2 SUB SWAP1 REVERT JUMPDEST PUSH1 0x1 ISZERO ISZERO PUSH1 0xC PUSH1 0x0 SWAP1 SLOAD SWAP1 PUSH2 0x100 EXP SWAP1 DIV PUSH1 0xFF AND ISZERO ISZERO SUB PUSH2 0xB7B JUMPI PUSH1 0x40 MLOAD PUSH32 0xBCEFC32900000000000000000000000000000000000000000000000000000000 DUP2 MSTORE PUSH1 0x4 ADD PUSH1 0x40 MLOAD DUP1 SWAP2 SUB SWAP1 REVERT JUMPDEST DUP1 PUSH1 0xA SWAP1 DUP1 MLOAD SWAP1 PUSH1 0x20 ADD SWAP1 PUSH2 0xB91 SWAP3 SWAP2 SWAP1 PUSH2 0x33B4 JUMP JUMPDEST POP DUP1 PUSH1 0x40 MLOAD PUSH1 0x20 ADD PUSH2 0xBA3 SWAP2 SWAP1 PUSH2 0x4571 JUMP JUMPDEST PUSH1 0x40 MLOAD PUSH1 0x20 DUP2 DUP4 SUB SUB DUP2 MSTORE SWAP1 PUSH1 0x40 MSTORE DUP1 MLOAD SWAP1 PUSH1 0x20 ADD KECCAK256 PUSH1 0x9 DUP2 SWAP1 SSTORE POP PUSH1 0x0 PUSH1 0xB DUP2 SWAP1 SSTORE POP PUSH1 0xD PUSH1 0x0 PUSH2 0xBD5 SWAP2 SWAP1 PUSH2 0x345B JUMP JUMPDEST PUSH1 0x1 PUSH1 0xC PUSH1 0x0 PUSH2 0x100 EXP DUP2 SLOAD DUP2 PUSH1 0xFF MUL NOT AND SWAP1 DUP4 ISZERO ISZERO MUL OR SWAP1 SSTORE POP PUSH1 0x0 PUSH1 0xC PUSH1 0x1 PUSH2 0x100 EXP DUP2 SLOAD DUP2 PUSH1 0xFF MUL NOT AND SWAP1 DUP4 PUSH1 0x2 DUP2 GT ISZERO PUSH2 0xC16 JUMPI PUSH2 0xC15 PUSH2 0x3BB1 JUMP JUMPDEST JUMPDEST MUL OR SWAP1 SSTORE POP PUSH1 0x0 PUSH1 0xE DUP2 SWAP1 SSTORE POP PUSH1 0x0 PUSH1 0xF DUP2 SWAP1 SSTORE POP PUSH1 0x7 PUSH1 0x0 SWAP1 SLOAD SWAP1 PUSH2 0x100 EXP SWAP1 DIV PUSH20 0xFFFFFFFFFFFFFFFFFFFFFFFFFFFFFFFFFFFFFFFF AND PUSH20 0xFFFFFFFFFFFFFFFFFFFFFFFFFFFFFFFFFFFFFFFF AND PUSH32 0xEA32A03505FD9F04D664676D72295A86C5FB0465E69654751907CA305BC1D1C7 TIMESTAMP PUSH1 0x40 MLOAD PUSH2 0xC93 SWAP2 SWAP1 PUSH2 0x3584 JUMP JUMPDEST PUSH1 0x40 MLOAD DUP1 SWAP2 SUB SWAP1 LOG2 PUSH32 0xAFCF3201AA5A8B6350CD7E42802F62089C82CF3E88F4EF6D7A1CABD94763D8D9 PUSH1 0xC PUSH1 0x1 SWAP1 SLOAD SWAP1 PUSH2 0x100 EXP SWAP1 DIV PUSH1 0xFF AND TIMESTAMP PUSH1 0x40 MLOAD PUSH2 0xCDB SWAP3 SWAP2 SWAP1 PUSH2 0x4588 JUMP JUMPDEST PUSH1 0x40 MLOAD DUP1 SWAP2 SUB SWAP1 LOG1 PUSH32 0xB2383E82269E758B9EC0FC961AC69CECC166570A12068C11B3F9CF29C8DE9E88 PUSH1 0xE SLOAD PUSH1 0xF SLOAD TIMESTAMP PUSH1 0x40 MLOAD PUSH2 0xD1A SWAP4 SWAP3 SWAP2 SWAP1 PUSH2 0x45B1 JUMP JUMPDEST PUSH1 0x40 MLOAD DUP1 SWAP2 SUB SWAP1 LOG1 POP JUMP JUMPDEST PUSH1 0x0 PUSH1 0xF SLOAD SWAP1 POP SWAP1 JUMP JUMPDEST PUSH2 0xD4A DUP4 DUP4 DUP4 PUSH1 0x40 MLOAD DUP1 PUSH1 0x20 ADD PUSH1 0x40 MSTORE DUP1 PUSH1 0x0 DUP2 MSTORE POP PUSH2 0x1A4E JUMP JUMPDEST POP POP POP JUMP JUMPDEST PUSH1 0x7 PUSH1 0x0 SWAP1 SLOAD SWAP1 PUSH2 0x100 EXP SWAP1 DIV PUSH20 0xFFFFFFFFFFFFFFFFFFFFFFFFFFFFFFFFFFFFFFFF AND DUP2 JUMP JUMPDEST PUSH1 0x60 PUSH1 0x1 PUSH1 0x2 DUP2 GT ISZERO PUSH2 0xD8B JUMPI PUSH2 0xD8A PUSH2 0x3BB1 JUMP JUMPDEST JUMPDEST PUSH1 0xC PUSH1 0x1 SWAP1 SLOAD SWAP1 PUSH2 0x100 EXP SWAP1 DIV PUSH1 0xFF AND PUSH1 0x2 DUP2 GT ISZERO PUSH2 0xDAD JUMPI PUSH2 0xDAC PUSH2 0x3BB1 JUMP JUMPDEST JUMPDEST SUB PUSH2 0xE30 JUMPI PUSH1 0xA DUP1 SLOAD DUP1 PUSH1 0x20 MUL PUSH1 0x20 ADD PUSH1 0x40 MLOAD SWAP1 DUP2 ADD PUSH1 0x40 MSTORE DUP1 SWAP3 SWAP2 SWAP1 DUP2 DUP2 MSTORE PUSH1 0x20 ADD DUP3 DUP1 SLOAD DUP1 ISZERO PUSH2 0xE24 JUMPI PUSH1 0x20 MUL DUP3 ADD SWAP2 SWAP1 PUSH1 0x0 MSTORE PUSH1 0x20 PUSH1 0x0 KECCAK256 SWAP1 PUSH1 0x0 SWAP1 JUMPDEST DUP3 DUP3 SWAP1 SLOAD SWAP1 PUSH2 0x100 EXP SWAP1 DIV PUSH1 0xFF AND PUSH1 0xFF AND DUP2 MSTORE PUSH1 0x20 ADD SWAP1 PUSH1 0x1 ADD SWAP1 PUSH1 0x20 DUP3 PUSH1 0x0 ADD DIV SWAP3 DUP4 ADD SWAP3 PUSH1 0x1 SUB DUP3 MUL SWAP2 POP DUP1 DUP5 GT PUSH2 0xDED JUMPI SWAP1 POP JUMPDEST POP POP POP POP POP SWAP1 POP PUSH2 0xF38 JUMP JUMPDEST PUSH1 0x2 DUP1 DUP2 GT ISZERO PUSH2 0xE43 JUMPI PUSH2 0xE42 PUSH2 0x3BB1 JUMP JUMPDEST JUMPDEST PUSH1 0xC PUSH1 0x1 SWAP1 SLOAD SWAP1 PUSH2 0x100 EXP SWAP1 DIV PUSH1 0xFF AND PUSH1 0x2 DUP2 GT ISZERO PUSH2 0xE65 JUMPI PUSH2 0xE64 PUSH2 0x3BB1 JUMP JUMPDEST JUMPDEST SUB PUSH2 0xEE8 JUMPI PUSH1 0xA DUP1 SLOAD DUP1 PUSH1 0x20 MUL PUSH1 0x20 ADD PUSH1 0x40 MLOAD SWAP1 DUP2 ADD PUSH1 0x40 MSTORE DUP1 SWAP3 SWAP2 SWAP1 DUP2 DUP2 MSTORE PUSH1 0x20 ADD DUP3 DUP1 SLOAD DUP1 ISZERO PUSH2 0xEDC JUMPI PUSH1 0x20 MUL DUP3 ADD SWAP2 SWAP1 PUSH1 0x0 MSTORE PUSH1 0x20 PUSH1 0x0 KECCAK256 SWAP1 PUSH1 0x0 SWAP1 JUMPDEST DUP3 DUP3 SWAP1 SLOAD SWAP1 PUSH2 0x100 EXP SWAP1 DIV PUSH1 0xFF AND PUSH1 0xFF AND DUP2 MSTORE PUSH1 0x20 ADD SWAP1 PUSH1 0x1 ADD SWAP1 PUSH1 0x20 DUP3 PUSH1 0x0 ADD DIV SWAP3 DUP4 ADD SWAP3 PUSH1 0x1 SUB DUP3 MUL SWAP2 POP DUP1 DUP5 GT PUSH2 0xEA5 JUMPI SWAP1 POP JUMPDEST POP POP POP POP POP SWAP1 POP PUSH2 0xF38 JUMP JUMPDEST PUSH1 0x4 PUSH1 0xFF AND PUSH8 0xFFFFFFFFFFFFFFFF DUP2 GT ISZERO PUSH2 0xF06 JUMPI PUSH2 0xF05 PUSH2 0x38EC JUMP JUMPDEST JUMPDEST PUSH1 0x40 MLOAD SWAP1 DUP1 DUP3 MSTORE DUP1 PUSH1 0x20 MUL PUSH1 0x20 ADD DUP3 ADD PUSH1 0x40 MSTORE DUP1 ISZERO PUSH2 0xF34 JUMPI DUP2 PUSH1 0x20 ADD PUSH1 0x20 DUP3 MUL DUP1 CALLDATASIZE DUP4 CALLDATACOPY DUP1 DUP3 ADD SWAP2 POP POP SWAP1 POP JUMPDEST POP SWAP1 POP JUMPDEST SWAP1 JUMP JUMPDEST PUSH1 0x0 PUSH2 0xF46 DUP3 PUSH2 0x209C JUMP JUMPDEST SWAP1 POP SWAP2 SWAP1 POP JUMP JUMPDEST PUSH1 0x0 DUP1 PUSH20 0xFFFFFFFFFFFFFFFFFFFFFFFFFFFFFFFFFFFFFFFF AND DUP3 PUSH20 0xFFFFFFFFFFFFFFFFFFFFFFFFFFFFFFFFFFFFFFFF AND SUB PUSH2 0xFC0 JUMPI PUSH1 0x0 PUSH1 0x40 MLOAD PUSH32 0x89C62B6400000000000000000000000000000000000000000000000000000000 DUP2 MSTORE PUSH1 0x4 ADD PUSH2 0xFB7 SWAP2 SWAP1 PUSH2 0x37BA JUMP JUMPDEST PUSH1 0x40 MLOAD DUP1 SWAP2 SUB SWAP1 REVERT JUMPDEST PUSH1 0x3 PUSH1 0x0 DUP4 PUSH20 0xFFFFFFFFFFFFFFFFFFFFFFFFFFFFFFFFFFFFFFFF AND PUSH20 0xFFFFFFFFFFFFFFFFFFFFFFFFFFFFFFFFFFFFFFFF AND DUP2 MSTORE PUSH1 0x20 ADD SWAP1 DUP2 MSTORE PUSH1 0x20 ADD PUSH1 0x0 KECCAK256 SLOAD SWAP1 POP SWAP2 SWAP1 POP JUMP JUMPDEST PUSH1 0xC PUSH1 0x1 SWAP1 SLOAD SWAP1 PUSH2 0x100 EXP SWAP1 DIV PUSH1 0xFF AND DUP2 JUMP JUMPDEST PUSH1 0x60 PUSH1 0xD DUP1 SLOAD DUP1 PUSH1 0x20 MUL PUSH1 0x20 ADD PUSH1 0x40 MLOAD SWAP1 DUP2 ADD PUSH1 0x40 MSTORE DUP1 SWAP3 SWAP2 SWAP1 DUP2 DUP2 MSTORE PUSH1 0x20 ADD PUSH1 0x0 SWAP1 JUMPDEST DUP3 DUP3 LT ISZERO PUSH2 0x1143 JUMPI DUP4 DUP3 SWAP1 PUSH1 0x0 MSTORE PUSH1 0x20 PUSH1 0x0 KECCAK256 SWAP1 PUSH1 0x2 MUL ADD PUSH1 0x40 MLOAD DUP1 PUSH1 0x80 ADD PUSH1 0x40 MSTORE SWAP1 DUP2 PUSH1 0x0 DUP3 ADD DUP1 SLOAD DUP1 PUSH1 0x20 MUL PUSH1 0x20 ADD PUSH1 0x40 MLOAD SWAP1 DUP2 ADD PUSH1 0x40 MSTORE DUP1 SWAP3 SWAP2 SWAP1 DUP2 DUP2 MSTORE PUSH1 0x20 ADD DUP3 DUP1 SLOAD DUP1 ISZERO PUSH2 0x10D6 JUMPI PUSH1 0x20 MUL DUP3 ADD SWAP2 SWAP1 PUSH1 0x0 MSTORE PUSH1 0x20 PUSH1 0x0 KECCAK256 SWAP1 PUSH1 0x0 SWAP1 JUMPDEST DUP3 DUP3 SWAP1 SLOAD SWAP1 PUSH2 0x100 EXP SWAP1 DIV PUSH1 0xFF AND PUSH1 0xFF AND DUP2 MSTORE PUSH1 0x20 ADD SWAP1 PUSH1 0x1 ADD SWAP1 PUSH1 0x20 DUP3 PUSH1 0x0 ADD DIV SWAP3 DUP4 ADD SWAP3 PUSH1 0x1 SUB DUP3 MUL SWAP2 POP DUP1 DUP5 GT PUSH2 0x109F JUMPI SWAP1 POP JUMPDEST POP POP POP POP POP DUP2 MSTORE PUSH1 0x20 ADD PUSH1 0x1 DUP3 ADD PUSH1 0x0 SWAP1 SLOAD SWAP1 PUSH2 0x100 EXP SWAP1 DIV PUSH1 0xFF AND PUSH1 0xFF AND PUSH1 0xFF AND DUP2 MSTORE PUSH1 0x20 ADD PUSH1 0x1 DUP3 ADD PUSH1 0x1 SWAP1 SLOAD SWAP1 PUSH2 0x100 EXP SWAP1 DIV PUSH1 0xFF AND PUSH1 0xFF AND PUSH1 0xFF AND DUP2 MSTORE PUSH1 0x20 ADD PUSH1 0x1 DUP3 ADD PUSH1 0x2 SWAP1 SLOAD SWAP1 PUSH2 0x100 EXP SWAP1 DIV PUSH1 0xFF AND ISZERO ISZERO ISZERO ISZERO DUP2 MSTORE POP POP DUP2 MSTORE PUSH1 0x20 ADD SWAP1 PUSH1 0x1 ADD SWAP1 PUSH2 0x103E JUMP JUMPDEST POP POP POP POP SWAP1 POP SWAP1 JUMP JUMPDEST PUSH1 0x0 PUSH1 0xE SLOAD SWAP1 POP SWAP1 JUMP JUMPDEST PUSH1 0xC PUSH1 0x0 SWAP1 SLOAD SWAP1 PUSH2 0x100 EXP SWAP1 DIV PUSH1 0xFF AND ISZERO PUSH2 0x11A6 JUMPI PUSH1 0x40 MLOAD PUSH32 0x8C379A000000000000000000000000000000000000000000000000000000000 DUP2 MSTORE PUSH1 0x4 ADD PUSH2 0x119D SWAP1 PUSH2 0x4634 JUMP JUMPDEST PUSH1 0x40 MLOAD DUP1 SWAP2 SUB SWAP1 REVERT JUMPDEST CALLER PUSH1 0x8 PUSH1 0x0 PUSH2 0x100 EXP DUP2 SLOAD DUP2 PUSH20 0xFFFFFFFFFFFFFFFFFFFFFFFFFFFFFFFFFFFFFFFF MUL NOT AND SWAP1 DUP4 PUSH20 0xFFFFFFFFFFFFFFFFFFFFFFFFFFFFFFFFFFFFFFFF AND MUL OR SWAP1 SSTORE POP PUSH1 0x8 PUSH1 0x0 SWAP1 SLOAD SWAP1 PUSH2 0x100 EXP SWAP1 DIV PUSH20 0xFFFFFFFFFFFFFFFFFFFFFFFFFFFFFFFFFFFFFFFF AND PUSH20 0xFFFFFFFFFFFFFFFFFFFFFFFFFFFFFFFFFFFFFFFF AND PUSH32 0xE030CCA42591FDC0FE1E7A7CC3892F5F6D13AAA3AEBCAFA2563C78DF1B9DE251 TIMESTAMP PUSH1 0x40 MLOAD PUSH2 0x124F SWAP2 SWAP1 PUSH2 0x3584 JUMP JUMPDEST PUSH1 0x40 MLOAD DUP1 SWAP2 SUB SWAP1 LOG2 JUMP JUMPDEST PUSH1 0xC PUSH1 0x0 SWAP1 SLOAD SWAP1 PUSH2 0x100 EXP SWAP1 DIV PUSH1 0xFF AND ISZERO PUSH2 0x12A9 JUMPI PUSH1 0x40 MLOAD PUSH32 0x8C379A000000000000000000000000000000000000000000000000000000000 DUP2 MSTORE PUSH1 0x4 ADD PUSH2 0x12A0 SWAP1 PUSH2 0x4634 JUMP JUMPDEST PUSH1 0x40 MLOAD DUP1 SWAP2 SUB SWAP1 REVERT JUMPDEST CALLER PUSH1 0x7 PUSH1 0x0 PUSH2 0x100 EXP DUP2 SLOAD DUP2 PUSH20 0xFFFFFFFFFFFFFFFFFFFFFFFFFFFFFFFFFFFFFFFF MUL NOT AND SWAP1 DUP4 PUSH20 0xFFFFFFFFFFFFFFFFFFFFFFFFFFFFFFFFFFFFFFFF AND MUL OR SWAP1 SSTORE POP PUSH1 0x7 PUSH1 0x0 SWAP1 SLOAD SWAP1 PUSH2 0x100 EXP SWAP1 DIV PUSH20 0xFFFFFFFFFFFFFFFFFFFFFFFFFFFFFFFFFFFFFFFF AND PUSH20 0xFFFFFFFFFFFFFFFFFFFFFFFFFFFFFFFFFFFFFFFF AND PUSH32 0x65BD3084C68C3B9E4A26F0857A1C9A69285E55DED79629480351F98856F096A2 TIMESTAMP PUSH1 0x40 MLOAD PUSH2 0x1352 SWAP2 SWAP1 PUSH2 0x3584 JUMP JUMPDEST PUSH1 0x40 MLOAD DUP1 SWAP2 SUB SWAP1 LOG2 JUMP JUMPDEST PUSH1 0x60 PUSH1 0x1 DUP1 SLOAD PUSH2 0x136B SWAP1 PUSH2 0x427D JUMP JUMPDEST DUP1 PUSH1 0x1F ADD PUSH1 0x20 DUP1 SWAP2 DIV MUL PUSH1 0x20 ADD PUSH1 0x40 MLOAD SWAP1 DUP2 ADD PUSH1 0x40 MSTORE DUP1 SWAP3 SWAP2 SWAP1 DUP2 DUP2 MSTORE PUSH1 0x20 ADD DUP3 DUP1 SLOAD PUSH2 0x1397 SWAP1 PUSH2 0x427D JUMP JUMPDEST DUP1 ISZERO PUSH2 0x13E4 JUMPI DUP1 PUSH1 0x1F LT PUSH2 0x13B9 JUMPI PUSH2 0x100 DUP1 DUP4 SLOAD DIV MUL DUP4 MSTORE SWAP2 PUSH1 0x20 ADD SWAP2 PUSH2 0x13E4 JUMP JUMPDEST DUP3 ADD SWAP2 SWAP1 PUSH1 0x0 MSTORE PUSH1 0x20 PUSH1 0x0 KECCAK256 SWAP1 JUMPDEST DUP2 SLOAD DUP2 MSTORE SWAP1 PUSH1 0x1 ADD SWAP1 PUSH1 0x20 ADD DUP1 DUP4 GT PUSH2 0x13C7 JUMPI DUP3 SWAP1 SUB PUSH1 0x1F AND DUP3 ADD SWAP2 JUMPDEST POP POP POP POP POP SWAP1 POP SWAP1 JUMP JUMPDEST PUSH2 0x1400 PUSH2 0x13F9 PUSH2 0x2161 JUMP JUMPDEST DUP4 DUP4 PUSH2 0x2395 JUMP JUMPDEST POP POP JUMP JUMPDEST PUSH1 0x8 PUSH1 0x0 SWAP1 SLOAD SWAP1 PUSH2 0x100 EXP SWAP1 DIV PUSH20 0xFFFFFFFFFFFFFFFFFFFFFFFFFFFFFFFFFFFFFFFF AND PUSH20 0xFFFFFFFFFFFFFFFFFFFFFFFFFFFFFFFFFFFFFFFF AND CALLER PUSH20 0xFFFFFFFFFFFFFFFFFFFFFFFFFFFFFFFFFFFFFFFF AND EQ PUSH2 0x1494 JUMPI PUSH1 0x40 MLOAD PUSH32 0x8C379A000000000000000000000000000000000000000000000000000000000 DUP2 MSTORE PUSH1 0x4 ADD PUSH2 0x148B SWAP1 PUSH2 0x46C6 JUMP JUMPDEST PUSH1 0x40 MLOAD DUP1 SWAP2 SUB SWAP1 REVERT JUMPDEST PUSH1 0xC PUSH1 0x0 SWAP1 SLOAD SWAP1 PUSH2 0x100 EXP SWAP1 DIV PUSH1 0xFF AND PUSH2 0x14E3 JUMPI PUSH1 0x40 MLOAD PUSH32 0x8C379A000000000000000000000000000000000000000000000000000000000 DUP2 MSTORE PUSH1 0x4 ADD PUSH2 0x14DA SWAP1 PUSH2 0x4732 JUMP JUMPDEST PUSH1 0x40 MLOAD DUP1 SWAP2 SUB SWAP1 REVERT JUMPDEST PUSH1 0x4 PUSH1 0xFF AND DUP2 MLOAD EQ PUSH2 0x152A JUMPI PUSH1 0x40 MLOAD PUSH32 0x8C379A000000000000000000000000000000000000000000000000000000000 DUP2 MSTORE PUSH1 0x4 ADD PUSH2 0x1521 SWAP1 PUSH2 0x479E JUMP JUMPDEST PUSH1 0x40 MLOAD DUP1 SWAP2 SUB SWAP1 REVERT JUMPDEST PUSH1 0xA PUSH1 0xFF AND PUSH1 0xB SLOAD LT PUSH2 0x1572 JUMPI PUSH1 0x40 MLOAD PUSH32 0x8C379A000000000000000000000000000000000000000000000000000000000 DUP2 MSTORE PUSH1 0x4 ADD PUSH2 0x1569 SWAP1 PUSH2 0x4830 JUMP JUMPDEST PUSH1 0x40 MLOAD DUP1 SWAP2 SUB SWAP1 REVERT JUMPDEST PUSH1 0x0 DUP1 PUSH2 0x157E DUP4 PUSH2 0x2504 JUMP JUMPDEST SWAP2 POP SWAP2 POP PUSH1 0x0 PUSH1 0x4 PUSH1 0xFF AND DUP4 PUSH1 0xFF AND EQ SWAP1 POP PUSH1 0xD PUSH1 0x40 MLOAD DUP1 PUSH1 0x80 ADD PUSH1 0x40 MSTORE DUP1 DUP7 DUP2 MSTORE PUSH1 0x20 ADD DUP6 PUSH1 0xFF AND DUP2 MSTORE PUSH1 0x20 ADD DUP5 PUSH1 0xFF AND DUP2 MSTORE PUSH1 0x20 ADD DUP4 ISZERO ISZERO DUP2 MSTORE POP SWAP1 DUP1 PUSH1 0x1 DUP2 SLOAD ADD DUP1 DUP3 SSTORE DUP1 SWAP2 POP POP PUSH1 0x1 SWAP1 SUB SWAP1 PUSH1 0x0 MSTORE PUSH1 0x20 PUSH1 0x0 KECCAK256 SWAP1 PUSH1 0x2 MUL ADD PUSH1 0x0 SWAP1 SWAP2 SWAP1 SWAP2 SWAP1 SWAP2 POP PUSH1 0x0 DUP3 ADD MLOAD DUP2 PUSH1 0x0 ADD SWAP1 DUP1 MLOAD SWAP1 PUSH1 0x20 ADD SWAP1 PUSH2 0x1600 SWAP3 SWAP2 SWAP1 PUSH2 0x33B4 JUMP JUMPDEST POP PUSH1 0x20 DUP3 ADD MLOAD DUP2 PUSH1 0x1 ADD PUSH1 0x0 PUSH2 0x100 EXP DUP2 SLOAD DUP2 PUSH1 0xFF MUL NOT AND SWAP1 DUP4 PUSH1 0xFF AND MUL OR SWAP1 SSTORE POP PUSH1 0x40 DUP3 ADD MLOAD DUP2 PUSH1 0x1 ADD PUSH1 0x1 PUSH2 0x100 EXP DUP2 SLOAD DUP2 PUSH1 0xFF MUL NOT AND SWAP1 DUP4 PUSH1 0xFF AND MUL OR SWAP1 SSTORE POP PUSH1 0x60 DUP3 ADD MLOAD DUP2 PUSH1 0x1 ADD PUSH1 0x2 PUSH2 0x100 EXP DUP2 SLOAD DUP2 PUSH1 0xFF MUL NOT AND SWAP1 DUP4 ISZERO ISZERO MUL OR SWAP1 SSTORE POP POP POP PUSH1 0x8 PUSH1 0x0 SWAP1 SLOAD SWAP1 PUSH2 0x100 EXP SWAP1 DIV PUSH20 0xFFFFFFFFFFFFFFFFFFFFFFFFFFFFFFFFFFFFFFFF AND PUSH20 0xFFFFFFFFFFFFFFFFFFFFFFFFFFFFFFFFFFFFFFFF AND PUSH32 0xB733E8664B442058353DB00385A5C6640F039B74589925D748092F1D1B6BAAD DUP6 DUP6 DUP6 DUP6 TIMESTAMP PUSH1 0x40 MLOAD PUSH2 0x16D5 SWAP6 SWAP5 SWAP4 SWAP3 SWAP2 SWAP1 PUSH2 0x4850 JUMP JUMPDEST PUSH1 0x40 MLOAD DUP1 SWAP2 SUB SWAP1 LOG2 DUP1 ISZERO PUSH2 0x1885 JUMPI PUSH1 0x0 PUSH1 0xC PUSH1 0x0 PUSH2 0x100 EXP DUP2 SLOAD DUP2 PUSH1 0xFF MUL NOT AND SWAP1 DUP4 ISZERO ISZERO MUL OR SWAP1 SSTORE POP PUSH1 0x1 PUSH1 0xC PUSH1 0x1 PUSH2 0x100 EXP DUP2 SLOAD DUP2 PUSH1 0xFF MUL NOT AND SWAP1 DUP4 PUSH1 0x2 DUP2 GT ISZERO PUSH2 0x1724 JUMPI PUSH2 0x1723 PUSH2 0x3BB1 JUMP JUMPDEST JUMPDEST MUL OR SWAP1 SSTORE POP PUSH2 0x2710 PUSH1 0xE PUSH1 0x0 DUP3 DUP3 SLOAD PUSH2 0x173D SWAP2 SWAP1 PUSH2 0x48D9 JUMP JUMPDEST SWAP3 POP POP DUP2 SWAP1 SSTORE POP PUSH2 0x174E PUSH1 0x6 PUSH2 0x272B JUMP JUMPDEST PUSH1 0x0 PUSH2 0x175A PUSH1 0x6 PUSH2 0x2741 JUMP JUMPDEST SWAP1 POP PUSH2 0x1788 PUSH1 0x8 PUSH1 0x0 SWAP1 SLOAD SWAP1 PUSH2 0x100 EXP SWAP1 DIV PUSH20 0xFFFFFFFFFFFFFFFFFFFFFFFFFFFFFFFFFFFFFFFF AND DUP3 PUSH2 0x274F JUMP JUMPDEST PUSH32 0xAFCF3201AA5A8B6350CD7E42802F62089C82CF3E88F4EF6D7A1CABD94763D8D9 PUSH1 0xC PUSH1 0x1 SWAP1 SLOAD SWAP1 PUSH2 0x100 EXP SWAP1 DIV PUSH1 0xFF AND TIMESTAMP PUSH1 0x40 MLOAD PUSH2 0x17C8 SWAP3 SWAP2 SWAP1 PUSH2 0x4588 JUMP JUMPDEST PUSH1 0x40 MLOAD DUP1 SWAP2 SUB SWAP1 LOG1 PUSH1 0x8 PUSH1 0x0 SWAP1 SLOAD SWAP1 PUSH2 0x100 EXP SWAP1 DIV PUSH20 0xFFFFFFFFFFFFFFFFFFFFFFFFFFFFFFFFFFFFFFFF AND PUSH20 0xFFFFFFFFFFFFFFFFFFFFFFFFFFFFFFFFFFFFFFFF AND PUSH32 0xD4BA6FEC82D9B0E8FFE50B9FED9E4BE3B25C984CE1E0E016405A5528726E8A2C TIMESTAMP PUSH1 0x40 MLOAD PUSH2 0x1838 SWAP2 SWAP1 PUSH2 0x3584 JUMP JUMPDEST PUSH1 0x40 MLOAD DUP1 SWAP2 SUB SWAP1 LOG2 PUSH32 0xB2383E82269E758B9EC0FC961AC69CECC166570A12068C11B3F9CF29C8DE9E88 PUSH1 0xE SLOAD PUSH1 0xF SLOAD TIMESTAMP PUSH1 0x40 MLOAD PUSH2 0x1877 SWAP4 SWAP3 SWAP2 SWAP1 PUSH2 0x45B1 JUMP JUMPDEST PUSH1 0x40 MLOAD DUP1 SWAP2 SUB SWAP1 LOG1 POP PUSH2 0x1A48 JUMP JUMPDEST PUSH1 0x64 PUSH1 0xF PUSH1 0x0 DUP3 DUP3 SLOAD PUSH2 0x1898 SWAP2 SWAP1 PUSH2 0x48D9 JUMP JUMPDEST SWAP3 POP POP DUP2 SWAP1 SSTORE POP PUSH1 0xB PUSH1 0x0 DUP2 SLOAD DUP1 SWAP3 SWAP2 SWAP1 PUSH2 0x18B2 SWAP1 PUSH2 0x490D JUMP JUMPDEST SWAP2 SWAP1 POP SSTORE POP PUSH1 0xA PUSH1 0xFF AND PUSH1 0xB SLOAD LT PUSH2 0x1A47 JUMPI PUSH1 0x0 PUSH1 0xC PUSH1 0x0 PUSH2 0x100 EXP DUP2 SLOAD DUP2 PUSH1 0xFF MUL NOT AND SWAP1 DUP4 ISZERO ISZERO MUL OR SWAP1 SSTORE POP PUSH1 0x2 PUSH1 0xC PUSH1 0x1 PUSH2 0x100 EXP DUP2 SLOAD DUP2 PUSH1 0xFF MUL NOT AND SWAP1 DUP4 PUSH1 0x2 DUP2 GT ISZERO PUSH2 0x1905 JUMPI PUSH2 0x1904 PUSH2 0x3BB1 JUMP JUMPDEST JUMPDEST MUL OR SWAP1 SSTORE POP PUSH2 0x1914 PUSH1 0x6 PUSH2 0x272B JUMP JUMPDEST PUSH1 0x0 PUSH2 0x1920 PUSH1 0x6 PUSH2 0x2741 JUMP JUMPDEST SWAP1 POP PUSH2 0x194E PUSH1 0x7 PUSH1 0x0 SWAP1 SLOAD SWAP1 PUSH2 0x100 EXP SWAP1 DIV PUSH20 0xFFFFFFFFFFFFFFFFFFFFFFFFFFFFFFFFFFFFFFFF AND DUP3 PUSH2 0x274F JUMP JUMPDEST PUSH32 0xAFCF3201AA5A8B6350CD7E42802F62089C82CF3E88F4EF6D7A1CABD94763D8D9 PUSH1 0xC PUSH1 0x1 SWAP1 SLOAD SWAP1 PUSH2 0x100 EXP SWAP1 DIV PUSH1 0xFF AND TIMESTAMP PUSH1 0x40 MLOAD PUSH2 0x198E SWAP3 SWAP2 SWAP1 PUSH2 0x4588 JUMP JUMPDEST PUSH1 0x40 MLOAD DUP1 SWAP2 SUB SWAP1 LOG1 PUSH1 0x7 PUSH1 0x0 SWAP1 SLOAD SWAP1 PUSH2 0x100 EXP SWAP1 DIV PUSH20 0xFFFFFFFFFFFFFFFFFFFFFFFFFFFFFFFFFFFFFFFF AND PUSH20 0xFFFFFFFFFFFFFFFFFFFFFFFFFFFFFFFFFFFFFFFF AND PUSH32 0xD4BA6FEC82D9B0E8FFE50B9FED9E4BE3B25C984CE1E0E016405A5528726E8A2C TIMESTAMP PUSH1 0x40 MLOAD PUSH2 0x19FE SWAP2 SWAP1 PUSH2 0x3584 JUMP JUMPDEST PUSH1 0x40 MLOAD DUP1 SWAP2 SUB SWAP1 LOG2 PUSH32 0xB2383E82269E758B9EC0FC961AC69CECC166570A12068C11B3F9CF29C8DE9E88 PUSH1 0xE SLOAD PUSH1 0xF SLOAD TIMESTAMP PUSH1 0x40 MLOAD PUSH2 0x1A3D SWAP4 SWAP3 SWAP2 SWAP1 PUSH2 0x45B1 JUMP JUMPDEST PUSH1 0x40 MLOAD DUP1 SWAP2 SUB SWAP1 LOG1 POP JUMPDEST JUMPDEST POP POP POP POP JUMP JUMPDEST PUSH2 0x1A59 DUP5 DUP5 DUP5 PUSH2 0x833 JUMP JUMPDEST PUSH2 0x1A65 DUP5 DUP5 DUP5 DUP5 PUSH2 0x276D JUMP JUMPDEST POP POP POP POP JUMP JUMPDEST PUSH1 0xE SLOAD DUP2 JUMP JUMPDEST PUSH1 0xB SLOAD DUP2 JUMP JUMPDEST PUSH1 0x60 PUSH1 0x0 PUSH1 0x1 PUSH1 0x2 DUP2 GT ISZERO PUSH2 0x1A8F JUMPI PUSH2 0x1A8E PUSH2 0x3BB1 JUMP JUMPDEST JUMPDEST PUSH1 0xC PUSH1 0x1 SWAP1 SLOAD SWAP1 PUSH2 0x100 EXP SWAP1 DIV PUSH1 0xFF AND PUSH1 0x2 DUP2 GT ISZERO PUSH2 0x1AB1 JUMPI PUSH2 0x1AB0 PUSH2 0x3BB1 JUMP JUMPDEST JUMPDEST EQ PUSH2 0x1AF1 JUMPI PUSH1 0x40 MLOAD DUP1 PUSH1 0x40 ADD PUSH1 0x40 MSTORE DUP1 PUSH1 0x4 DUP2 MSTORE PUSH1 0x20 ADD PUSH32 0x4C6F737400000000000000000000000000000000000000000000000000000000 DUP2 MSTORE POP PUSH2 0x1B28 JUMP JUMPDEST PUSH1 0x40 MLOAD DUP1 PUSH1 0x40 ADD PUSH1 0x40 MSTORE DUP1 PUSH1 0x3 DUP2 MSTORE PUSH1 0x20 ADD PUSH32 0x576F6E0000000000000000000000000000000000000000000000000000000000 DUP2 MSTORE POP JUMPDEST SWAP1 POP PUSH1 0x0 PUSH2 0x1B36 DUP3 DUP6 PUSH2 0x2924 JUMP JUMPDEST SWAP1 POP PUSH1 0x0 PUSH2 0x1B43 DUP6 PUSH2 0xF3B JUMP JUMPDEST SWAP1 POP PUSH1 0x0 PUSH2 0x1B85 PUSH2 0x1B53 DUP8 PUSH2 0x298B JUMP JUMPDEST DUP6 PUSH2 0x1B5D DUP6 PUSH2 0x2B66 JUMP JUMPDEST DUP7 PUSH1 0x40 MLOAD PUSH1 0x20 ADD PUSH2 0x1B71 SWAP5 SWAP4 SWAP3 SWAP2 SWAP1 PUSH2 0x4BF1 JUMP JUMPDEST PUSH1 0x40 MLOAD PUSH1 0x20 DUP2 DUP4 SUB SUB DUP2 MSTORE SWAP1 PUSH1 0x40 MSTORE PUSH2 0x2D23 JUMP JUMPDEST SWAP1 POP PUSH2 0x1B8F PUSH2 0x2E95 JUMP JUMPDEST DUP2 PUSH1 0x40 MLOAD PUSH1 0x20 ADD PUSH2 0x1BA1 SWAP3 SWAP2 SWAP1 PUSH2 0x4C71 JUMP JUMPDEST PUSH1 0x40 MLOAD PUSH1 0x20 DUP2 DUP4 SUB SUB DUP2 MSTORE SWAP1 PUSH1 0x40 MSTORE SWAP5 POP POP POP POP POP SWAP2 SWAP1 POP JUMP JUMPDEST PUSH1 0x60 PUSH1 0x0 PUSH1 0xD DUP1 SLOAD SWAP1 POP PUSH8 0xFFFFFFFFFFFFFFFF DUP2 GT ISZERO PUSH2 0x1BDE JUMPI PUSH2 0x1BDD PUSH2 0x38EC JUMP JUMPDEST JUMPDEST PUSH1 0x40 MLOAD SWAP1 DUP1 DUP3 MSTORE DUP1 PUSH1 0x20 MUL PUSH1 0x20 ADD DUP3 ADD PUSH1 0x40 MSTORE DUP1 ISZERO PUSH2 0x1C17 JUMPI DUP2 PUSH1 0x20 ADD JUMPDEST PUSH2 0x1C04 PUSH2 0x347F JUMP JUMPDEST DUP2 MSTORE PUSH1 0x20 ADD SWAP1 PUSH1 0x1 SWAP1 SUB SWAP1 DUP2 PUSH2 0x1BFC JUMPI SWAP1 POP JUMPDEST POP SWAP1 POP PUSH1 0x0 JUMPDEST PUSH1 0xD DUP1 SLOAD SWAP1 POP DUP2 LT ISZERO PUSH2 0x1CDA JUMPI PUSH1 0x40 MLOAD DUP1 PUSH1 0x40 ADD PUSH1 0x40 MSTORE DUP1 PUSH1 0xD DUP4 DUP2 SLOAD DUP2 LT PUSH2 0x1C49 JUMPI PUSH2 0x1C48 PUSH2 0x4C95 JUMP JUMPDEST JUMPDEST SWAP1 PUSH1 0x0 MSTORE PUSH1 0x20 PUSH1 0x0 KECCAK256 SWAP1 PUSH1 0x2 MUL ADD PUSH1 0x1 ADD PUSH1 0x0 SWAP1 SLOAD SWAP1 PUSH2 0x100 EXP SWAP1 DIV PUSH1 0xFF AND PUSH1 0xFF AND PUSH1 0xFF AND DUP2 MSTORE PUSH1 0x20 ADD PUSH1 0xD DUP4 DUP2 SLOAD DUP2 LT PUSH2 0x1C87 JUMPI PUSH2 0x1C86 PUSH2 0x4C95 JUMP JUMPDEST JUMPDEST SWAP1 PUSH1 0x0 MSTORE PUSH1 0x20 PUSH1 0x0 KECCAK256 SWAP1 PUSH1 0x2 MUL ADD PUSH1 0x1 ADD PUSH1 0x1 SWAP1 SLOAD SWAP1 PUSH2 0x100 EXP SWAP1 DIV PUSH1 0xFF AND PUSH1 0xFF AND PUSH1 0xFF AND DUP2 MSTORE POP DUP3 DUP3 DUP2 MLOAD DUP2 LT PUSH2 0x1CC2 JUMPI PUSH2 0x1CC1 PUSH2 0x4C95 JUMP JUMPDEST JUMPDEST PUSH1 0x20 MUL PUSH1 0x20 ADD ADD DUP2 SWAP1 MSTORE POP DUP1 DUP1 PUSH1 0x1 ADD SWAP2 POP POP PUSH2 0x1C1D JUMP JUMPDEST POP DUP1 SWAP2 POP POP SWAP1 JUMP JUMPDEST PUSH1 0x0 DUP1 PUSH1 0x0 PUSH1 0xD DUP1 SLOAD SWAP1 POP GT PUSH2 0x1D2D JUMPI PUSH1 0x40 MLOAD PUSH32 0x8C379A000000000000000000000000000000000000000000000000000000000 DUP2 MSTORE PUSH1 0x4 ADD PUSH2 0x1D24 SWAP1 PUSH2 0x4D10 JUMP JUMPDEST PUSH1 0x40 MLOAD DUP1 SWAP2 SUB SWAP1 REVERT JUMPDEST PUSH1 0x0 PUSH1 0xD PUSH1 0x1 PUSH1 0xD DUP1 SLOAD SWAP1 POP PUSH2 0x1D43 SWAP2 SWAP1 PUSH2 0x4D30 JUMP JUMPDEST DUP2 SLOAD DUP2 LT PUSH2 0x1D54 JUMPI PUSH2 0x1D53 PUSH2 0x4C95 JUMP JUMPDEST JUMPDEST SWAP1 PUSH1 0x0 MSTORE PUSH1 0x20 PUSH1 0x0 KECCAK256 SWAP1 PUSH1 0x2 MUL ADD PUSH1 0x40 MLOAD DUP1 PUSH1 0x80 ADD PUSH1 0x40 MSTORE SWAP1 DUP2 PUSH1 0x0 DUP3 ADD DUP1 SLOAD DUP1 PUSH1 0x20 MUL PUSH1 0x20 ADD PUSH1 0x40 MLOAD SWAP1 DUP2 ADD PUSH1 0x40 MSTORE DUP1 SWAP3 SWAP2 SWAP1 DUP2 DUP2 MSTORE PUSH1 0x20 ADD DUP3 DUP1 SLOAD DUP1 ISZERO PUSH2 0x1DE2 JUMPI PUSH1 0x20 MUL DUP3 ADD SWAP2 SWAP1 PUSH1 0x0 MSTORE PUSH1 0x20 PUSH1 0x0 KECCAK256 SWAP1 PUSH1 0x0 SWAP1 JUMPDEST DUP3 DUP3 SWAP1 SLOAD SWAP1 PUSH2 0x100 EXP SWAP1 DIV PUSH1 0xFF AND PUSH1 0xFF AND DUP2 MSTORE PUSH1 0x20 ADD SWAP1 PUSH1 0x1 ADD SWAP1 PUSH1 0x20 DUP3 PUSH1 0x0 ADD DIV SWAP3 DUP4 ADD SWAP3 PUSH1 0x1 SUB DUP3 MUL SWAP2 POP DUP1 DUP5 GT PUSH2 0x1DAB JUMPI SWAP1 POP JUMPDEST POP POP POP POP POP DUP2 MSTORE PUSH1 0x20 ADD PUSH1 0x1 DUP3 ADD PUSH1 0x0 SWAP1 SLOAD SWAP1 PUSH2 0x100 EXP SWAP1 DIV PUSH1 0xFF AND PUSH1 0xFF AND PUSH1 0xFF AND DUP2 MSTORE PUSH1 0x20 ADD PUSH1 0x1 DUP3 ADD PUSH1 0x1 SWAP1 SLOAD SWAP1 PUSH2 0x100 EXP SWAP1 DIV PUSH1 0xFF AND PUSH1 0xFF AND PUSH1 0xFF AND DUP2 MSTORE PUSH1 0x20 ADD PUSH1 0x1 DUP3 ADD PUSH1 0x2 SWAP1 SLOAD SWAP1 PUSH2 0x100 EXP SWAP1 DIV PUSH1 0xFF AND ISZERO ISZERO ISZERO ISZERO DUP2 MSTORE POP POP SWAP1 POP DUP1 PUSH1 0x20 ADD MLOAD DUP2 PUSH1 0x40 ADD MLOAD SWAP3 POP SWAP3 POP POP SWAP1 SWAP2 JUMP JUMPDEST PUSH1 0x0 PUSH1 0x5 PUSH1 0x0 DUP5 PUSH20 0xFFFFFFFFFFFFFFFFFFFFFFFFFFFFFFFFFFFFFFFF AND PUSH20 0xFFFFFFFFFFFFFFFFFFFFFFFFFFFFFFFFFFFFFFFF AND DUP2 MSTORE PUSH1 0x20 ADD SWAP1 DUP2 MSTORE PUSH1 0x20 ADD PUSH1 0x0 KECCAK256 PUSH1 0x0 DUP4 PUSH20 0xFFFFFFFFFFFFFFFFFFFFFFFFFFFFFFFFFFFFFFFF AND PUSH20 0xFFFFFFFFFFFFFFFFFFFFFFFFFFFFFFFFFFFFFFFF AND DUP2 MSTORE PUSH1 0x20 ADD SWAP1 DUP2 MSTORE PUSH1 0x20 ADD PUSH1 0x0 KECCAK256 PUSH1 0x0 SWAP1 SLOAD SWAP1 PUSH2 0x100 EXP SWAP1 DIV PUSH1 0xFF AND SWAP1 POP SWAP3 SWAP2 POP POP JUMP JUMPDEST PUSH1 0xC PUSH1 0x0 SWAP1 SLOAD SWAP1 PUSH2 0x100 EXP SWAP1 DIV PUSH1 0xFF AND DUP2 JUMP JUMPDEST PUSH1 0x60 PUSH1 0x0 PUSH1 0xD DUP1 SLOAD SWAP1 POP PUSH8 0xFFFFFFFFFFFFFFFF DUP2 GT ISZERO PUSH2 0x1F1F JUMPI PUSH2 0x1F1E PUSH2 0x38EC JUMP JUMPDEST JUMPDEST PUSH1 0x40 MLOAD SWAP1 DUP1 DUP3 MSTORE DUP1 PUSH1 0x20 MUL PUSH1 0x20 ADD DUP3 ADD PUSH1 0x40 MSTORE DUP1 ISZERO PUSH2 0x1F52 JUMPI DUP2 PUSH1 0x20 ADD JUMPDEST PUSH1 0x60 DUP2 MSTORE PUSH1 0x20 ADD SWAP1 PUSH1 0x1 SWAP1 SUB SWAP1 DUP2 PUSH2 0x1F3D JUMPI SWAP1 POP JUMPDEST POP SWAP1 POP PUSH1 0x0 JUMPDEST PUSH1 0xD DUP1 SLOAD SWAP1 POP DUP2 LT ISZERO PUSH2 0x202A JUMPI PUSH1 0xD DUP2 DUP2 SLOAD DUP2 LT PUSH2 0x1F79 JUMPI PUSH2 0x1F78 PUSH2 0x4C95 JUMP JUMPDEST JUMPDEST SWAP1 PUSH1 0x0 MSTORE PUSH1 0x20 PUSH1 0x0 KECCAK256 SWAP1 PUSH1 0x2 MUL ADD PUSH1 0x0 ADD DUP1 SLOAD DUP1 PUSH1 0x20 MUL PUSH1 0x20 ADD PUSH1 0x40 MLOAD SWAP1 DUP2 ADD PUSH1 0x40 MSTORE DUP1 SWAP3 SWAP2 SWAP1 DUP2 DUP2 MSTORE PUSH1 0x20 ADD DUP3 DUP1 SLOAD DUP1 ISZERO PUSH2 0x1FFA JUMPI PUSH1 0x20 MUL DUP3 ADD SWAP2 SWAP1 PUSH1 0x0 MSTORE PUSH1 0x20 PUSH1 0x0 KECCAK256 SWAP1 PUSH1 0x0 SWAP1 JUMPDEST DUP3 DUP3 SWAP1 SLOAD SWAP1 PUSH2 0x100 EXP SWAP1 DIV PUSH1 0xFF AND PUSH1 0xFF AND DUP2 MSTORE PUSH1 0x20 ADD SWAP1 PUSH1 0x1 ADD SWAP1 PUSH1 0x20 DUP3 PUSH1 0x0 ADD DIV SWAP3 DUP4 ADD SWAP3 PUSH1 0x1 SUB DUP3 MUL SWAP2 POP DUP1 DUP5 GT PUSH2 0x1FC3 JUMPI SWAP1 POP JUMPDEST POP POP POP POP POP DUP3 DUP3 DUP2 MLOAD DUP2 LT PUSH2 0x2012 JUMPI PUSH2 0x2011 PUSH2 0x4C95 JUMP JUMPDEST JUMPDEST PUSH1 0x20 MUL PUSH1 0x20 ADD ADD DUP2 SWAP1 MSTORE POP DUP1 DUP1 PUSH1 0x1 ADD SWAP2 POP POP PUSH2 0x1F58 JUMP JUMPDEST POP DUP1 SWAP2 POP POP SWAP1 JUMP JUMPDEST PUSH1 0x0 PUSH32 0x1FFC9A700000000000000000000000000000000000000000000000000000000 PUSH28 0xFFFFFFFFFFFFFFFFFFFFFFFFFFFFFFFFFFFFFFFFFFFFFFFFFFFFFFFF NOT AND DUP3 PUSH28 0xFFFFFFFFFFFFFFFFFFFFFFFFFFFFFFFFFFFFFFFFFFFFFFFFFFFFFFFF NOT AND EQ SWAP1 POP SWAP2 SWAP1 POP JUMP JUMPDEST PUSH1 0x0 DUP1 PUSH2 0x20A8 DUP4 PUSH2 0x2ED2 JUMP JUMPDEST SWAP1 POP PUSH1 0x0 PUSH20 0xFFFFFFFFFFFFFFFFFFFFFFFFFFFFFFFFFFFFFFFF AND DUP2 PUSH20 0xFFFFFFFFFFFFFFFFFFFFFFFFFFFFFFFFFFFFFFFF AND SUB PUSH2 0x211B JUMPI DUP3 PUSH1 0x40 MLOAD PUSH32 0x7E27328900000000000000000000000000000000000000000000000000000000 DUP2 MSTORE PUSH1 0x4 ADD PUSH2 0x2112 SWAP2 SWAP1 PUSH2 0x3584 JUMP JUMPDEST PUSH1 0x40 MLOAD DUP1 SWAP2 SUB SWAP1 REVERT JUMPDEST DUP1 SWAP2 POP POP SWAP2 SWAP1 POP JUMP JUMPDEST PUSH1 0x0 PUSH1 0x4 PUSH1 0x0 DUP4 DUP2 MSTORE PUSH1 0x20 ADD SWAP1 DUP2 MSTORE PUSH1 0x20 ADD PUSH1 0x0 KECCAK256 PUSH1 0x0 SWAP1 SLOAD SWAP1 PUSH2 0x100 EXP SWAP1 DIV PUSH20 0xFFFFFFFFFFFFFFFFFFFFFFFFFFFFFFFFFFFFFFFF AND SWAP1 POP SWAP2 SWAP1 POP JUMP JUMPDEST PUSH1 0x0 CALLER SWAP1 POP SWAP1 JUMP JUMPDEST PUSH2 0x2176 DUP4 DUP4 DUP4 PUSH1 0x1 PUSH2 0x2F0F JUMP JUMPDEST POP POP POP JUMP JUMPDEST PUSH1 0x0 DUP1 PUSH2 0x2187 DUP5 PUSH2 0x2ED2 JUMP JUMPDEST SWAP1 POP PUSH1 0x0 PUSH20 0xFFFFFFFFFFFFFFFFFFFFFFFFFFFFFFFFFFFFFFFF AND DUP4 PUSH20 0xFFFFFFFFFFFFFFFFFFFFFFFFFFFFFFFFFFFFFFFF AND EQ PUSH2 0x21C9 JUMPI PUSH2 0x21C8 DUP2 DUP5 DUP7 PUSH2 0x30D4 JUMP JUMPDEST JUMPDEST PUSH1 0x0 PUSH20 0xFFFFFFFFFFFFFFFFFFFFFFFFFFFFFFFFFFFFFFFF AND DUP2 PUSH20 0xFFFFFFFFFFFFFFFFFFFFFFFFFFFFFFFFFFFFFFFF AND EQ PUSH2 0x225A JUMPI PUSH2 0x220B PUSH1 0x0 DUP6 PUSH1 0x0 DUP1 PUSH2 0x2F0F JUMP JUMPDEST PUSH1 0x1 PUSH1 0x3 PUSH1 0x0 DUP4 PUSH20 0xFFFFFFFFFFFFFFFFFFFFFFFFFFFFFFFFFFFFFFFF AND PUSH20 0xFFFFFFFFFFFFFFFFFFFFFFFFFFFFFFFFFFFFFFFF AND DUP2 MSTORE PUSH1 0x20 ADD SWAP1 DUP2 MSTORE PUSH1 0x20 ADD PUSH1 0x0 KECCAK256 PUSH1 0x0 DUP3 DUP3 SLOAD SUB SWAP3 POP POP DUP2 SWAP1 SSTORE POP JUMPDEST PUSH1 0x0 PUSH20 0xFFFFFFFFFFFFFFFFFFFFFFFFFFFFFFFFFFFFFFFF AND DUP6 PUSH20 0xFFFFFFFFFFFFFFFFFFFFFFFFFFFFFFFFFFFFFFFF AND EQ PUSH2 0x22DD JUMPI PUSH1 0x1 PUSH1 0x3 PUSH1 0x0 DUP8 PUSH20 0xFFFFFFFFFFFFFFFFFFFFFFFFFFFFFFFFFFFFFFFF AND PUSH20 0xFFFFFFFFFFFFFFFFFFFFFFFFFFFFFFFFFFFFFFFF AND DUP2 MSTORE PUSH1 0x20 ADD SWAP1 DUP2 MSTORE PUSH1 0x20 ADD PUSH1 0x0 KECCAK256 PUSH1 0x0 DUP3 DUP3 SLOAD ADD SWAP3 POP POP DUP2 SWAP1 SSTORE POP JUMPDEST DUP5 PUSH1 0x2 PUSH1 0x0 DUP7 DUP2 MSTORE PUSH1 0x20 ADD SWAP1 DUP2 MSTORE PUSH1 0x20 ADD PUSH1 0x0 KECCAK256 PUSH1 0x0 PUSH2 0x100 EXP DUP2 SLOAD DUP2 PUSH20 0xFFFFFFFFFFFFFFFFFFFFFFFFFFFFFFFFFFFFFFFF MUL NOT AND SWAP1 DUP4 PUSH20 0xFFFFFFFFFFFFFFFFFFFFFFFFFFFFFFFFFFFFFFFF AND MUL OR SWAP1 SSTORE POP DUP4 DUP6 PUSH20 0xFFFFFFFFFFFFFFFFFFFFFFFFFFFFFFFFFFFFFFFF AND DUP3 PUSH20 0xFFFFFFFFFFFFFFFFFFFFFFFFFFFFFFFFFFFFFFFF AND PUSH32 0xDDF252AD1BE2C89B69C2B068FC378DAA952BA7F163C4A11628F55A4DF523B3EF PUSH1 0x40 MLOAD PUSH1 0x40 MLOAD DUP1 SWAP2 SUB SWAP1 LOG4 DUP1 SWAP2 POP POP SWAP4 SWAP3 POP POP POP JUMP JUMPDEST PUSH1 0x0 PUSH20 0xFFFFFFFFFFFFFFFFFFFFFFFFFFFFFFFFFFFFFFFF AND DUP3 PUSH20 0xFFFFFFFFFFFFFFFFFFFFFFFFFFFFFFFFFFFFFFFF AND SUB PUSH2 0x2406 JUMPI DUP2 PUSH1 0x40 MLOAD PUSH32 0x5B08BA1800000000000000000000000000000000000000000000000000000000 DUP2 MSTORE PUSH1 0x4 ADD PUSH2 0x23FD SWAP2 SWAP1 PUSH2 0x37BA JUMP JUMPDEST PUSH1 0x40 MLOAD DUP1 SWAP2 SUB SWAP1 REVERT JUMPDEST DUP1 PUSH1 0x5 PUSH1 0x0 DUP6 PUSH20 0xFFFFFFFFFFFFFFFFFFFFFFFFFFFFFFFFFFFFFFFF AND PUSH20 0xFFFFFFFFFFFFFFFFFFFFFFFFFFFFFFFFFFFFFFFF AND DUP2 MSTORE PUSH1 0x20 ADD SWAP1 DUP2 MSTORE PUSH1 0x20 ADD PUSH1 0x0 KECCAK256 PUSH1 0x0 DUP5 PUSH20 0xFFFFFFFFFFFFFFFFFFFFFFFFFFFFFFFFFFFFFFFF AND PUSH20 0xFFFFFFFFFFFFFFFFFFFFFFFFFFFFFFFFFFFFFFFF AND DUP2 MSTORE PUSH1 0x20 ADD SWAP1 DUP2 MSTORE PUSH1 0x20 ADD PUSH1 0x0 KECCAK256 PUSH1 0x0 PUSH2 0x100 EXP DUP2 SLOAD DUP2 PUSH1 0xFF MUL NOT AND SWAP1 DUP4 ISZERO ISZERO MUL OR SWAP1 SSTORE POP DUP2 PUSH20 0xFFFFFFFFFFFFFFFFFFFFFFFFFFFFFFFFFFFFFFFF AND DUP4 PUSH20 0xFFFFFFFFFFFFFFFFFFFFFFFFFFFFFFFFFFFFFFFF AND PUSH32 0x17307EAB39AB6107E8899845AD3D59BD9653F200F220920489CA2B5937696C31 DUP4 PUSH1 0x40 MLOAD PUSH2 0x24F7 SWAP2 SWAP1 PUSH2 0x3653 JUMP JUMPDEST PUSH1 0x40 MLOAD DUP1 SWAP2 SUB SWAP1 LOG3 POP POP POP JUMP JUMPDEST PUSH1 0x0 DUP1 PUSH2 0x250F PUSH2 0x34A1 JUMP JUMPDEST PUSH2 0x2517 PUSH2 0x34A1 JUMP JUMPDEST PUSH1 0x0 JUMPDEST PUSH1 0x4 PUSH1 0xFF AND DUP2 PUSH1 0xFF AND LT ISZERO PUSH2 0x25F7 JUMPI PUSH1 0xA DUP2 PUSH1 0xFF AND DUP2 SLOAD DUP2 LT PUSH2 0x2540 JUMPI PUSH2 0x253F PUSH2 0x4C95 JUMP JUMPDEST JUMPDEST SWAP1 PUSH1 0x0 MSTORE PUSH1 0x20 PUSH1 0x0 KECCAK256 SWAP1 PUSH1 0x20 SWAP2 DUP3 DUP3 DIV ADD SWAP2 SWAP1 MOD SWAP1 SLOAD SWAP1 PUSH2 0x100 EXP SWAP1 DIV PUSH1 0xFF AND PUSH1 0xFF AND DUP7 DUP3 PUSH1 0xFF AND DUP2 MLOAD DUP2 LT PUSH2 0x2579 JUMPI PUSH2 0x2578 PUSH2 0x4C95 JUMP JUMPDEST JUMPDEST PUSH1 0x20 MUL PUSH1 0x20 ADD ADD MLOAD PUSH1 0xFF AND SUB PUSH2 0x25EA JUMPI DUP5 DUP1 PUSH2 0x2594 SWAP1 PUSH2 0x4D64 JUMP JUMPDEST SWAP6 POP POP PUSH1 0x1 DUP4 DUP3 PUSH1 0xFF AND PUSH1 0x4 DUP2 LT PUSH2 0x25AF JUMPI PUSH2 0x25AE PUSH2 0x4C95 JUMP JUMPDEST JUMPDEST PUSH1 0x20 MUL ADD SWAP1 PUSH1 0xFF AND SWAP1 DUP2 PUSH1 0xFF AND DUP2 MSTORE POP POP PUSH1 0x1 DUP3 DUP3 PUSH1 0xFF AND PUSH1 0x4 DUP2 LT PUSH2 0x25D8 JUMPI PUSH2 0x25D7 PUSH2 0x4C95 JUMP JUMPDEST JUMPDEST PUSH1 0x20 MUL ADD SWAP1 PUSH1 0xFF AND SWAP1 DUP2 PUSH1 0xFF AND DUP2 MSTORE POP POP JUMPDEST DUP1 DUP1 PUSH1 0x1 ADD SWAP2 POP POP PUSH2 0x251A JUMP JUMPDEST POP PUSH1 0x0 JUMPDEST PUSH1 0x4 PUSH1 0xFF AND DUP2 PUSH1 0xFF AND LT ISZERO PUSH2 0x2723 JUMPI PUSH1 0x0 DUP3 DUP3 PUSH1 0xFF AND PUSH1 0x4 DUP2 LT PUSH2 0x2622 JUMPI PUSH2 0x2621 PUSH2 0x4C95 JUMP JUMPDEST JUMPDEST PUSH1 0x20 MUL ADD MLOAD PUSH1 0xFF AND SUB PUSH2 0x2716 JUMPI PUSH1 0x0 JUMPDEST PUSH1 0x4 PUSH1 0xFF AND DUP2 PUSH1 0xFF AND LT ISZERO PUSH2 0x2714 JUMPI PUSH1 0x0 DUP5 DUP3 PUSH1 0xFF AND PUSH1 0x4 DUP2 LT PUSH2 0x2659 JUMPI PUSH2 0x2658 PUSH2 0x4C95 JUMP JUMPDEST JUMPDEST PUSH1 0x20 MUL ADD MLOAD PUSH1 0xFF AND EQ DUP1 ISZERO PUSH2 0x26C6 JUMPI POP PUSH1 0xA DUP2 PUSH1 0xFF AND DUP2 SLOAD DUP2 LT PUSH2 0x2680 JUMPI PUSH2 0x267F PUSH2 0x4C95 JUMP JUMPDEST JUMPDEST SWAP1 PUSH1 0x0 MSTORE PUSH1 0x20 PUSH1 0x0 KECCAK256 SWAP1 PUSH1 0x20 SWAP2 DUP3 DUP3 DIV ADD SWAP2 SWAP1 MOD SWAP1 SLOAD SWAP1 PUSH2 0x100 EXP SWAP1 DIV PUSH1 0xFF AND PUSH1 0xFF AND DUP8 DUP4 PUSH1 0xFF AND DUP2 MLOAD DUP2 LT PUSH2 0x26B9 JUMPI PUSH2 0x26B8 PUSH2 0x4C95 JUMP JUMPDEST JUMPDEST PUSH1 0x20 MUL PUSH1 0x20 ADD ADD MLOAD PUSH1 0xFF AND EQ JUMPDEST ISZERO PUSH2 0x2707 JUMPI DUP5 DUP1 PUSH2 0x26D6 SWAP1 PUSH2 0x4D64 JUMP JUMPDEST SWAP6 POP POP PUSH1 0x1 DUP5 DUP3 PUSH1 0xFF AND PUSH1 0x4 DUP2 LT PUSH2 0x26F1 JUMPI PUSH2 0x26F0 PUSH2 0x4C95 JUMP JUMPDEST JUMPDEST PUSH1 0x20 MUL ADD SWAP1 PUSH1 0xFF AND SWAP1 DUP2 PUSH1 0xFF AND DUP2 MSTORE POP POP PUSH2 0x2714 JUMP JUMPDEST DUP1 DUP1 PUSH1 0x1 ADD SWAP2 POP POP PUSH2 0x2632 JUMP JUMPDEST POP JUMPDEST DUP1 DUP1 PUSH1 0x1 ADD SWAP2 POP POP PUSH2 0x25FB JUMP JUMPDEST POP POP POP SWAP2 POP SWAP2 JUMP JUMPDEST PUSH1 0x1 DUP2 PUSH1 0x0 ADD PUSH1 0x0 DUP3 DUP3 SLOAD ADD SWAP3 POP POP DUP2 SWAP1 SSTORE POP POP JUMP JUMPDEST PUSH1 0x0 DUP2 PUSH1 0x0 ADD SLOAD SWAP1 POP SWAP2 SWAP1 POP JUMP JUMPDEST PUSH2 0x2769 DUP3 DUP3 PUSH1 0x40 MLOAD DUP1 PUSH1 0x20 ADD PUSH1 0x40 MSTORE DUP1 PUSH1 0x0 DUP2 MSTORE POP PUSH2 0x3198 JUMP JUMPDEST POP POP JUMP JUMPDEST PUSH1 0x0 DUP4 PUSH20 0xFFFFFFFFFFFFFFFFFFFFFFFFFFFFFFFFFFFFFFFF AND EXTCODESIZE GT ISZERO PUSH2 0x291E JUMPI DUP3 PUSH20 0xFFFFFFFFFFFFFFFFFFFFFFFFFFFFFFFFFFFFFFFF AND PUSH4 0x150B7A02 PUSH2 0x27B1 PUSH2 0x2161 JUMP JUMPDEST DUP7 DUP6 DUP6 PUSH1 0x40 MLOAD DUP6 PUSH4 0xFFFFFFFF AND PUSH1 0xE0 SHL DUP2 MSTORE PUSH1 0x4 ADD PUSH2 0x27D3 SWAP5 SWAP4 SWAP3 SWAP2 SWAP1 PUSH2 0x4DE2 JUMP JUMPDEST PUSH1 0x20 PUSH1 0x40 MLOAD DUP1 DUP4 SUB DUP2 PUSH1 0x0 DUP8 GAS CALL SWAP3 POP POP POP DUP1 ISZERO PUSH2 0x280F JUMPI POP PUSH1 0x40 MLOAD RETURNDATASIZE PUSH1 0x1F NOT PUSH1 0x1F DUP3 ADD AND DUP3 ADD DUP1 PUSH1 0x40 MSTORE POP DUP2 ADD SWAP1 PUSH2 0x280C SWAP2 SWAP1 PUSH2 0x4E43 JUMP JUMPDEST PUSH1 0x1 JUMPDEST PUSH2 0x2893 JUMPI RETURNDATASIZE DUP1 PUSH1 0x0 DUP2 EQ PUSH2 0x283F JUMPI PUSH1 0x40 MLOAD SWAP2 POP PUSH1 0x1F NOT PUSH1 0x3F RETURNDATASIZE ADD AND DUP3 ADD PUSH1 0x40 MSTORE RETURNDATASIZE DUP3 MSTORE RETURNDATASIZE PUSH1 0x0 PUSH1 0x20 DUP5 ADD RETURNDATACOPY PUSH2 0x2844 JUMP JUMPDEST PUSH1 0x60 SWAP2 POP JUMPDEST POP PUSH1 0x0 DUP2 MLOAD SUB PUSH2 0x288B JUMPI DUP4 PUSH1 0x40 MLOAD PUSH32 0x64A0AE9200000000000000000000000000000000000000000000000000000000 DUP2 MSTORE PUSH1 0x4 ADD PUSH2 0x2882 SWAP2 SWAP1 PUSH2 0x37BA JUMP JUMPDEST PUSH1 0x40 MLOAD DUP1 SWAP2 SUB SWAP1 REVERT JUMPDEST DUP1 MLOAD DUP2 PUSH1 0x20 ADD REVERT JUMPDEST PUSH4 0x150B7A02 PUSH1 0xE0 SHL PUSH28 0xFFFFFFFFFFFFFFFFFFFFFFFFFFFFFFFFFFFFFFFFFFFFFFFFFFFFFFFF NOT AND DUP2 PUSH28 0xFFFFFFFFFFFFFFFFFFFFFFFFFFFFFFFFFFFFFFFFFFFFFFFFFFFFFFFF NOT AND EQ PUSH2 0x291C JUMPI DUP4 PUSH1 0x40 MLOAD PUSH32 0x64A0AE9200000000000000000000000000000000000000000000000000000000 DUP2 MSTORE PUSH1 0x4 ADD PUSH2 0x2913 SWAP2 SWAP1 PUSH2 0x37BA JUMP JUMPDEST PUSH1 0x40 MLOAD DUP1 SWAP2 SUB SWAP1 REVERT JUMPDEST POP JUMPDEST POP POP POP POP JUMP JUMPDEST PUSH1 0x60 PUSH1 0x0 DUP4 PUSH2 0x2932 DUP5 PUSH2 0x298B JUMP JUMPDEST PUSH1 0x40 MLOAD PUSH1 0x20 ADD PUSH2 0x2943 SWAP3 SWAP2 SWAP1 PUSH2 0x5674 JUMP JUMPDEST PUSH1 0x40 MLOAD PUSH1 0x20 DUP2 DUP4 SUB SUB DUP2 MSTORE SWAP1 PUSH1 0x40 MSTORE SWAP1 POP PUSH1 0x0 PUSH2 0x295F DUP3 PUSH2 0x2D23 JUMP JUMPDEST PUSH1 0x40 MLOAD PUSH1 0x20 ADD PUSH2 0x296F SWAP2 SWAP1 PUSH2 0x57AA JUMP JUMPDEST PUSH1 0x40 MLOAD PUSH1 0x20 DUP2 DUP4 SUB SUB DUP2 MSTORE SWAP1 PUSH1 0x40 MSTORE SWAP1 POP DUP1 SWAP3 POP POP POP SWAP3 SWAP2 POP POP JUMP JUMPDEST PUSH1 0x60 PUSH1 0x0 PUSH1 0x4E SWAP1 POP PUSH1 0x0 DUP2 PUSH8 0xFFFFFFFFFFFFFFFF DUP2 GT ISZERO PUSH2 0x29AF JUMPI PUSH2 0x29AE PUSH2 0x38EC JUMP JUMPDEST JUMPDEST PUSH1 0x40 MLOAD SWAP1 DUP1 DUP3 MSTORE DUP1 PUSH1 0x1F ADD PUSH1 0x1F NOT AND PUSH1 0x20 ADD DUP3 ADD PUSH1 0x40 MSTORE DUP1 ISZERO PUSH2 0x29E1 JUMPI DUP2 PUSH1 0x20 ADD PUSH1 0x1 DUP3 MUL DUP1 CALLDATASIZE DUP4 CALLDATACOPY DUP1 DUP3 ADD SWAP2 POP POP SWAP1 POP JUMPDEST POP SWAP1 POP PUSH1 0x0 JUMPDEST PUSH1 0x0 DUP6 EQ PUSH2 0x2A73 JUMPI PUSH1 0x0 PUSH1 0xA DUP7 PUSH2 0x29FE SWAP2 SWAP1 PUSH2 0x57FB JUMP JUMPDEST SWAP1 POP PUSH1 0xA DUP7 PUSH2 0x2A0D SWAP2 SWAP1 PUSH2 0x582C JUMP JUMPDEST SWAP6 POP DUP1 PUSH1 0x30 PUSH2 0x2A1C SWAP2 SWAP1 PUSH2 0x48D9 JUMP JUMPDEST PUSH1 0xF8 SHL DUP4 DUP4 DUP1 PUSH2 0x2A2B SWAP1 PUSH2 0x490D JUMP JUMPDEST SWAP5 POP DUP2 MLOAD DUP2 LT PUSH2 0x2A3E JUMPI PUSH2 0x2A3D PUSH2 0x4C95 JUMP JUMPDEST JUMPDEST PUSH1 0x20 ADD ADD SWAP1 PUSH31 0xFFFFFFFFFFFFFFFFFFFFFFFFFFFFFFFFFFFFFFFFFFFFFFFFFFFFFFFFFFFFFF NOT AND SWAP1 DUP2 PUSH1 0x0 BYTE SWAP1 MSTORE8 POP POP PUSH2 0x29E7 JUMP JUMPDEST PUSH1 0x0 DUP2 PUSH8 0xFFFFFFFFFFFFFFFF DUP2 GT ISZERO PUSH2 0x2A8F JUMPI PUSH2 0x2A8E PUSH2 0x38EC JUMP JUMPDEST JUMPDEST PUSH1 0x40 MLOAD SWAP1 DUP1 DUP3 MSTORE DUP1 PUSH1 0x1F ADD PUSH1 0x1F NOT AND PUSH1 0x20 ADD DUP3 ADD PUSH1 0x40 MSTORE DUP1 ISZERO PUSH2 0x2AC1 JUMPI DUP2 PUSH1 0x20 ADD PUSH1 0x1 DUP3 MUL DUP1 CALLDATASIZE DUP4 CALLDATACOPY DUP1 DUP3 ADD SWAP2 POP POP SWAP1 POP JUMPDEST POP SWAP1 POP PUSH1 0x0 JUMPDEST DUP3 DUP2 LT ISZERO PUSH2 0x2B53 JUMPI DUP4 PUSH1 0x1 DUP3 DUP6 PUSH2 0x2ADE SWAP2 SWAP1 PUSH2 0x4D30 JUMP JUMPDEST PUSH2 0x2AE8 SWAP2 SWAP1 PUSH2 0x4D30 JUMP JUMPDEST DUP2 MLOAD DUP2 LT PUSH2 0x2AF9 JUMPI PUSH2 0x2AF8 PUSH2 0x4C95 JUMP JUMPDEST JUMPDEST PUSH1 0x20 ADD ADD MLOAD PUSH1 0xF8 SHR PUSH1 0xF8 SHL DUP3 DUP3 DUP2 MLOAD DUP2 LT PUSH2 0x2B17 JUMPI PUSH2 0x2B16 PUSH2 0x4C95 JUMP JUMPDEST JUMPDEST PUSH1 0x20 ADD ADD SWAP1 PUSH31 0xFFFFFFFFFFFFFFFFFFFFFFFFFFFFFFFFFFFFFFFFFFFFFFFFFFFFFFFFFFFFFF NOT AND SWAP1 DUP2 PUSH1 0x0 BYTE SWAP1 MSTORE8 POP DUP1 DUP1 PUSH1 0x1 ADD SWAP2 POP POP PUSH2 0x2AC7 JUMP JUMPDEST POP PUSH1 0x0 DUP2 SWAP1 POP DUP1 SWAP6 POP POP POP POP POP POP SWAP2 SWAP1 POP JUMP JUMPDEST PUSH1 0x60 PUSH1 0x0 PUSH1 0x28 PUSH8 0xFFFFFFFFFFFFFFFF DUP2 GT ISZERO PUSH2 0x2B85 JUMPI PUSH2 0x2B84 PUSH2 0x38EC JUMP JUMPDEST JUMPDEST PUSH1 0x40 MLOAD SWAP1 DUP1 DUP3 MSTORE DUP1 PUSH1 0x1F ADD PUSH1 0x1F NOT AND PUSH1 0x20 ADD DUP3 ADD PUSH1 0x40 MSTORE DUP1 ISZERO PUSH2 0x2BB7 JUMPI DUP2 PUSH1 0x20 ADD PUSH1 0x1 DUP3 MUL DUP1 CALLDATASIZE DUP4 CALLDATACOPY DUP1 DUP3 ADD SWAP2 POP POP SWAP1 POP JUMPDEST POP SWAP1 POP PUSH1 0x0 JUMPDEST PUSH1 0x14 DUP2 LT ISZERO PUSH2 0x2D19 JUMPI PUSH1 0x0 DUP2 PUSH1 0x13 PUSH2 0x2BD5 SWAP2 SWAP1 PUSH2 0x4D30 JUMP JUMPDEST PUSH1 0x8 PUSH2 0x2BE1 SWAP2 SWAP1 PUSH2 0x585D JUMP JUMPDEST PUSH1 0x2 PUSH2 0x2BED SWAP2 SWAP1 PUSH2 0x59D2 JUMP JUMPDEST DUP6 PUSH20 0xFFFFFFFFFFFFFFFFFFFFFFFFFFFFFFFFFFFFFFFF AND PUSH2 0x2C0E SWAP2 SWAP1 PUSH2 0x582C JUMP JUMPDEST PUSH1 0xF8 SHL SWAP1 POP PUSH1 0x0 PUSH1 0x10 DUP3 PUSH1 0xF8 SHR PUSH2 0x2C25 SWAP2 SWAP1 PUSH2 0x5A1D JUMP JUMPDEST PUSH1 0xF8 SHL SWAP1 POP PUSH1 0x0 DUP2 PUSH1 0xF8 SHR PUSH1 0x10 PUSH2 0x2C3C SWAP2 SWAP1 PUSH2 0x5A4E JUMP JUMPDEST DUP4 PUSH1 0xF8 SHR PUSH2 0x2C4A SWAP2 SWAP1 PUSH2 0x5A8B JUMP JUMPDEST PUSH1 0xF8 SHL SWAP1 POP PUSH2 0x2C58 DUP3 PUSH2 0x31B4 JUMP JUMPDEST DUP6 DUP6 PUSH1 0x2 PUSH2 0x2C66 SWAP2 SWAP1 PUSH2 0x585D JUMP JUMPDEST DUP2 MLOAD DUP2 LT PUSH2 0x2C77 JUMPI PUSH2 0x2C76 PUSH2 0x4C95 JUMP JUMPDEST JUMPDEST PUSH1 0x20 ADD ADD SWAP1 PUSH31 0xFFFFFFFFFFFFFFFFFFFFFFFFFFFFFFFFFFFFFFFFFFFFFFFFFFFFFFFFFFFFFF NOT AND SWAP1 DUP2 PUSH1 0x0 BYTE SWAP1 MSTORE8 POP PUSH2 0x2CAF DUP2 PUSH2 0x31B4 JUMP JUMPDEST DUP6 PUSH1 0x1 DUP7 PUSH1 0x2 PUSH2 0x2CBF SWAP2 SWAP1 PUSH2 0x585D JUMP JUMPDEST PUSH2 0x2CC9 SWAP2 SWAP1 PUSH2 0x48D9 JUMP JUMPDEST DUP2 MLOAD DUP2 LT PUSH2 0x2CDA JUMPI PUSH2 0x2CD9 PUSH2 0x4C95 JUMP JUMPDEST JUMPDEST PUSH1 0x20 ADD ADD SWAP1 PUSH31 0xFFFFFFFFFFFFFFFFFFFFFFFFFFFFFFFFFFFFFFFFFFFFFFFFFFFFFFFFFFFFFF NOT AND SWAP1 DUP2 PUSH1 0x0 BYTE SWAP1 MSTORE8 POP POP POP POP DUP1 DUP1 PUSH1 0x1 ADD SWAP2 POP POP PUSH2 0x2BBD JUMP JUMPDEST POP DUP1 SWAP2 POP POP SWAP2 SWAP1 POP JUMP JUMPDEST PUSH1 0x60 PUSH1 0x0 DUP3 MLOAD SUB PUSH2 0x2D45 JUMPI PUSH1 0x40 MLOAD DUP1 PUSH1 0x20 ADD PUSH1 0x40 MSTORE DUP1 PUSH1 0x0 DUP2 MSTORE POP SWAP1 POP PUSH2 0x2E90 JUMP JUMPDEST PUSH1 0x0 PUSH1 0x40 MLOAD DUP1 PUSH1 0x60 ADD PUSH1 0x40 MSTORE DUP1 PUSH1 0x40 DUP2 MSTORE PUSH1 0x20 ADD PUSH2 0x5B1F PUSH1 0x40 SWAP2 CODECOPY SWAP1 POP PUSH1 0x0 PUSH1 0x3 PUSH1 0x2 DUP6 MLOAD PUSH2 0x2D74 SWAP2 SWAP1 PUSH2 0x48D9 JUMP JUMPDEST PUSH2 0x2D7E SWAP2 SWAP1 PUSH2 0x582C JUMP JUMPDEST PUSH1 0x4 PUSH2 0x2D8A SWAP2 SWAP1 PUSH2 0x585D JUMP JUMPDEST PUSH8 0xFFFFFFFFFFFFFFFF DUP2 GT ISZERO PUSH2 0x2DA3 JUMPI PUSH2 0x2DA2 PUSH2 0x38EC JUMP JUMPDEST JUMPDEST PUSH1 0x40 MLOAD SWAP1 DUP1 DUP3 MSTORE DUP1 PUSH1 0x1F ADD PUSH1 0x1F NOT AND PUSH1 0x20 ADD DUP3 ADD PUSH1 0x40 MSTORE DUP1 ISZERO PUSH2 0x2DD5 JUMPI DUP2 PUSH1 0x20 ADD PUSH1 0x1 DUP3 MUL DUP1 CALLDATASIZE DUP4 CALLDATACOPY DUP1 DUP3 ADD SWAP2 POP POP SWAP1 POP JUMPDEST POP SWAP1 POP PUSH1 0x1 DUP3 ADD PUSH1 0x20 DUP3 ADD DUP6 DUP7 MLOAD DUP8 ADD PUSH1 0x20 DUP2 ADD DUP1 MLOAD PUSH1 0x0 DUP3 MSTORE JUMPDEST DUP3 DUP5 LT ISZERO PUSH2 0x2E4B JUMPI PUSH1 0x3 DUP5 ADD SWAP4 POP DUP4 MLOAD PUSH1 0x3F DUP2 PUSH1 0x12 SHR AND DUP8 ADD MLOAD DUP7 MSTORE8 PUSH1 0x1 DUP7 ADD SWAP6 POP PUSH1 0x3F DUP2 PUSH1 0xC SHR AND DUP8 ADD MLOAD DUP7 MSTORE8 PUSH1 0x1 DUP7 ADD SWAP6 POP PUSH1 0x3F DUP2 PUSH1 0x6 SHR AND DUP8 ADD MLOAD DUP7 MSTORE8 PUSH1 0x1 DUP7 ADD SWAP6 POP PUSH1 0x3F DUP2 AND DUP8 ADD MLOAD DUP7 MSTORE8 PUSH1 0x1 DUP7 ADD SWAP6 POP POP PUSH2 0x2DF0 JUMP JUMPDEST DUP1 DUP3 MSTORE PUSH1 0x3 DUP11 MLOAD MOD PUSH1 0x1 DUP2 EQ PUSH2 0x2E68 JUMPI PUSH1 0x2 DUP2 EQ PUSH2 0x2E7B JUMPI PUSH2 0x2E83 JUMP JUMPDEST PUSH1 0x3D PUSH1 0x1 DUP8 SUB MSTORE8 PUSH1 0x3D PUSH1 0x2 DUP8 SUB MSTORE8 PUSH2 0x2E83 JUMP JUMPDEST PUSH1 0x3D PUSH1 0x1 DUP8 SUB MSTORE8 JUMPDEST POP POP POP POP POP POP POP DUP1 SWAP3 POP POP POP JUMPDEST SWAP2 SWAP1 POP JUMP JUMPDEST PUSH1 0x60 PUSH1 0x40 MLOAD DUP1 PUSH1 0x40 ADD PUSH1 0x40 MSTORE DUP1 PUSH1 0x1D DUP2 MSTORE PUSH1 0x20 ADD PUSH32 0x646174613A6170706C69636174696F6E2F6A736F6E3B6261736536342C000000 DUP2 MSTORE POP SWAP1 POP SWAP1 JUMP JUMPDEST PUSH1 0x0 PUSH1 0x2 PUSH1 0x0 DUP4 DUP2 MSTORE PUSH1 0x20 ADD SWAP1 DUP2 MSTORE PUSH1 0x20 ADD PUSH1 0x0 KECCAK256 PUSH1 0x0 SWAP1 SLOAD SWAP1 PUSH2 0x100 EXP SWAP1 DIV PUSH20 0xFFFFFFFFFFFFFFFFFFFFFFFFFFFFFFFFFFFFFFFF AND SWAP1 POP SWAP2 SWAP1 POP JUMP JUMPDEST DUP1 DUP1 PUSH2 0x2F48 JUMPI POP PUSH1 0x0 PUSH20 0xFFFFFFFFFFFFFFFFFFFFFFFFFFFFFFFFFFFFFFFF AND DUP3 PUSH20 0xFFFFFFFFFFFFFFFFFFFFFFFFFFFFFFFFFFFFFFFF AND EQ ISZERO JUMPDEST ISZERO PUSH2 0x307C JUMPI PUSH1 0x0 PUSH2 0x2F58 DUP5 PUSH2 0x209C JUMP JUMPDEST SWAP1 POP PUSH1 0x0 PUSH20 0xFFFFFFFFFFFFFFFFFFFFFFFFFFFFFFFFFFFFFFFF AND DUP4 PUSH20 0xFFFFFFFFFFFFFFFFFFFFFFFFFFFFFFFFFFFFFFFF AND EQ ISZERO DUP1 ISZERO PUSH2 0x2FC3 JUMPI POP DUP3 PUSH20 0xFFFFFFFFFFFFFFFFFFFFFFFFFFFFFFFFFFFFFFFF AND DUP2 PUSH20 0xFFFFFFFFFFFFFFFFFFFFFFFFFFFFFFFFFFFFFFFF AND EQ ISZERO JUMPDEST DUP1 ISZERO PUSH2 0x2FD6 JUMPI POP PUSH2 0x2FD4 DUP2 DUP5 PUSH2 0x1E55 JUMP JUMPDEST ISZERO JUMPDEST ISZERO PUSH2 0x3018 JUMPI DUP3 PUSH1 0x40 MLOAD PUSH32 0xA9FBF51F00000000000000000000000000000000000000000000000000000000 DUP2 MSTORE PUSH1 0x4 ADD PUSH2 0x300F SWAP2 SWAP1 PUSH2 0x37BA JUMP JUMPDEST PUSH1 0x40 MLOAD DUP1 SWAP2 SUB SWAP1 REVERT JUMPDEST DUP2 ISZERO PUSH2 0x307A JUMPI DUP4 DUP6 PUSH20 0xFFFFFFFFFFFFFFFFFFFFFFFFFFFFFFFFFFFFFFFF AND DUP3 PUSH20 0xFFFFFFFFFFFFFFFFFFFFFFFFFFFFFFFFFFFFFFFF AND PUSH32 0x8C5BE1E5EBEC7D5BD14F71427D1E84F3DD0314C0F7B2291E5B200AC8C7C3B925 PUSH1 0x40 MLOAD PUSH1 0x40 MLOAD DUP1 SWAP2 SUB SWAP1 LOG4 JUMPDEST POP JUMPDEST DUP4 PUSH1 0x4 PUSH1 0x0 DUP6 DUP2 MSTORE PUSH1 0x20 ADD SWAP1 DUP2 MSTORE PUSH1 0x20 ADD PUSH1 0x0 KECCAK256 PUSH1 0x0 PUSH2 0x100 EXP DUP2 SLOAD DUP2 PUSH20 0xFFFFFFFFFFFFFFFFFFFFFFFFFFFFFFFFFFFFFFFF MUL NOT AND SWAP1 DUP4 PUSH20 0xFFFFFFFFFFFFFFFFFFFFFFFFFFFFFFFFFFFFFFFF AND MUL OR SWAP1 SSTORE POP POP POP POP POP JUMP JUMPDEST PUSH2 0x30DF DUP4 DUP4 DUP4 PUSH2 0x31FA JUMP JUMPDEST PUSH2 0x3193 JUMPI PUSH1 0x0 PUSH20 0xFFFFFFFFFFFFFFFFFFFFFFFFFFFFFFFFFFFFFFFF AND DUP4 PUSH20 0xFFFFFFFFFFFFFFFFFFFFFFFFFFFFFFFFFFFFFFFF AND SUB PUSH2 0x3154 JUMPI DUP1 PUSH1 0x40 MLOAD PUSH32 0x7E27328900000000000000000000000000000000000000000000000000000000 DUP2 MSTORE PUSH1 0x4 ADD PUSH2 0x314B SWAP2 SWAP1 PUSH2 0x3584 JUMP JUMPDEST PUSH1 0x40 MLOAD DUP1 SWAP2 SUB SWAP1 REVERT JUMPDEST DUP2 DUP2 PUSH1 0x40 MLOAD PUSH32 0x177E802F00000000000000000000000000000000000000000000000000000000 DUP2 MSTORE PUSH1 0x4 ADD PUSH2 0x318A SWAP3 SWAP2 SWAP1 PUSH2 0x5AC0 JUMP JUMPDEST PUSH1 0x40 MLOAD DUP1 SWAP2 SUB SWAP1 REVERT JUMPDEST POP POP POP JUMP JUMPDEST PUSH2 0x31A2 DUP4 DUP4 PUSH2 0x32BB JUMP JUMPDEST PUSH2 0x31AF PUSH1 0x0 DUP5 DUP5 DUP5 PUSH2 0x276D JUMP JUMPDEST POP POP POP JUMP JUMPDEST PUSH1 0x0 PUSH1 0xA DUP3 PUSH1 0xF8 SHR PUSH1 0xFF AND LT ISZERO PUSH2 0x31DF JUMPI PUSH1 0x30 DUP3 PUSH1 0xF8 SHR PUSH2 0x31D5 SWAP2 SWAP1 PUSH2 0x5AE9 JUMP JUMPDEST PUSH1 0xF8 SHL SWAP1 POP PUSH2 0x31F5 JUMP JUMPDEST PUSH1 0x57 DUP3 PUSH1 0xF8 SHR PUSH2 0x31EF SWAP2 SWAP1 PUSH2 0x5AE9 JUMP JUMPDEST PUSH1 0xF8 SHL SWAP1 POP JUMPDEST SWAP2 SWAP1 POP JUMP JUMPDEST PUSH1 0x0 DUP1 PUSH20 0xFFFFFFFFFFFFFFFFFFFFFFFFFFFFFFFFFFFFFFFF AND DUP4 PUSH20 0xFFFFFFFFFFFFFFFFFFFFFFFFFFFFFFFFFFFFFFFF AND EQ ISZERO DUP1 ISZERO PUSH2 0x32B2 JUMPI POP DUP3 PUSH20 0xFFFFFFFFFFFFFFFFFFFFFFFFFFFFFFFFFFFFFFFF AND DUP5 PUSH20 0xFFFFFFFFFFFFFFFFFFFFFFFFFFFFFFFFFFFFFFFF AND EQ DUP1 PUSH2 0x3273 JUMPI POP PUSH2 0x3272 DUP5 DUP5 PUSH2 0x1E55 JUMP JUMPDEST JUMPDEST DUP1 PUSH2 0x32B1 JUMPI POP DUP3 PUSH20 0xFFFFFFFFFFFFFFFFFFFFFFFFFFFFFFFFFFFFFFFF AND PUSH2 0x3299 DUP4 PUSH2 0x2124 JUMP JUMPDEST PUSH20 0xFFFFFFFFFFFFFFFFFFFFFFFFFFFFFFFFFFFFFFFF AND EQ JUMPDEST JUMPDEST SWAP1 POP SWAP4 SWAP3 POP POP POP JUMP JUMPDEST PUSH1 0x0 PUSH20 0xFFFFFFFFFFFFFFFFFFFFFFFFFFFFFFFFFFFFFFFF AND DUP3 PUSH20 0xFFFFFFFFFFFFFFFFFFFFFFFFFFFFFFFFFFFFFFFF AND SUB PUSH2 0x332D JUMPI PUSH1 0x0 PUSH1 0x40 MLOAD PUSH32 0x64A0AE9200000000000000000000000000000000000000000000000000000000 DUP2 MSTORE PUSH1 0x4 ADD PUSH2 0x3324 SWAP2 SWAP1 PUSH2 0x37BA JUMP JUMPDEST PUSH1 0x40 MLOAD DUP1 SWAP2 SUB SWAP1 REVERT JUMPDEST PUSH1 0x0 PUSH2 0x333B DUP4 DUP4 PUSH1 0x0 PUSH2 0x217B JUMP JUMPDEST SWAP1 POP PUSH1 0x0 PUSH20 0xFFFFFFFFFFFFFFFFFFFFFFFFFFFFFFFFFFFFFFFF AND DUP2 PUSH20 0xFFFFFFFFFFFFFFFFFFFFFFFFFFFFFFFFFFFFFFFF AND EQ PUSH2 0x33AF JUMPI PUSH1 0x0 PUSH1 0x40 MLOAD PUSH32 0x73C6AC6E00000000000000000000000000000000000000000000000000000000 DUP2 MSTORE PUSH1 0x4 ADD PUSH2 0x33A6 SWAP2 SWAP1 PUSH2 0x37BA JUMP JUMPDEST PUSH1 0x40 MLOAD DUP1 SWAP2 SUB SWAP1 REVERT JUMPDEST POP POP POP JUMP JUMPDEST DUP3 DUP1 SLOAD DUP3 DUP3 SSTORE SWAP1 PUSH1 0x0 MSTORE PUSH1 0x20 PUSH1 0x0 KECCAK256 SWAP1 PUSH1 0x1F ADD PUSH1 0x20 SWAP1 DIV DUP2 ADD SWAP3 DUP3 ISZERO PUSH2 0x344A JUMPI SWAP2 PUSH1 0x20 MUL DUP3 ADD PUSH1 0x0 JUMPDEST DUP4 DUP3 GT ISZERO PUSH2 0x341B JUMPI DUP4 MLOAD DUP4 DUP3 PUSH2 0x100 EXP DUP2 SLOAD DUP2 PUSH1 0xFF MUL NOT AND SWAP1 DUP4 PUSH1 0xFF AND MUL OR SWAP1 SSTORE POP SWAP3 PUSH1 0x20 ADD SWAP3 PUSH1 0x1 ADD PUSH1 0x20 DUP2 PUSH1 0x0 ADD DIV SWAP3 DUP4 ADD SWAP3 PUSH1 0x1 SUB MUL PUSH2 0x33DD JUMP JUMPDEST DUP1 ISZERO PUSH2 0x3448 JUMPI DUP3 DUP2 PUSH2 0x100 EXP DUP2 SLOAD SWAP1 PUSH1 0xFF MUL NOT AND SWAP1 SSTORE PUSH1 0x1 ADD PUSH1 0x20 DUP2 PUSH1 0x0 ADD DIV SWAP3 DUP4 ADD SWAP3 PUSH1 0x1 SUB MUL PUSH2 0x341B JUMP JUMPDEST POP JUMPDEST POP SWAP1 POP PUSH2 0x3457 SWAP2 SWAP1 PUSH2 0x34C3 JUMP JUMPDEST POP SWAP1 JUMP JUMPDEST POP DUP1 SLOAD PUSH1 0x0 DUP3 SSTORE PUSH1 0x2 MUL SWAP1 PUSH1 0x0 MSTORE PUSH1 0x20 PUSH1 0x0 KECCAK256 SWAP1 DUP2 ADD SWAP1 PUSH2 0x347C SWAP2 SWAP1 PUSH2 0x34E0 JUMP JUMPDEST POP JUMP JUMPDEST PUSH1 0x40 MLOAD DUP1 PUSH1 0x40 ADD PUSH1 0x40 MSTORE DUP1 PUSH1 0x2 SWAP1 PUSH1 0x20 DUP3 MUL DUP1 CALLDATASIZE DUP4 CALLDATACOPY DUP1 DUP3 ADD SWAP2 POP POP SWAP1 POP POP SWAP1 JUMP JUMPDEST PUSH1 0x40 MLOAD DUP1 PUSH1 0x80 ADD PUSH1 0x40 MSTORE DUP1 PUSH1 0x4 SWAP1 PUSH1 0x20 DUP3 MUL DUP1 CALLDATASIZE DUP4 CALLDATACOPY DUP1 DUP3 ADD SWAP2 POP POP SWAP1 POP POP SWAP1 JUMP JUMPDEST JUMPDEST DUP1 DUP3 GT ISZERO PUSH2 0x34DC JUMPI PUSH1 0x0 DUP2 PUSH1 0x0 SWAP1 SSTORE POP PUSH1 0x1 ADD PUSH2 0x34C4 JUMP JUMPDEST POP SWAP1 JUMP JUMPDEST JUMPDEST DUP1 DUP3 GT ISZERO PUSH2 0x353F JUMPI PUSH1 0x0 DUP1 DUP3 ADD PUSH1 0x0 PUSH2 0x34FA SWAP2 SWAP1 PUSH2 0x3543 JUMP JUMPDEST PUSH1 0x1 DUP3 ADD PUSH1 0x0 PUSH2 0x100 EXP DUP2 SLOAD SWAP1 PUSH1 0xFF MUL NOT AND SWAP1 SSTORE PUSH1 0x1 DUP3 ADD PUSH1 0x1 PUSH2 0x100 EXP DUP2 SLOAD SWAP1 PUSH1 0xFF MUL NOT AND SWAP1 SSTORE PUSH1 0x1 DUP3 ADD PUSH1 0x2 PUSH2 0x100 EXP DUP2 SLOAD SWAP1 PUSH1 0xFF MUL NOT AND SWAP1 SSTORE POP PUSH1 0x2 ADD PUSH2 0x34E1 JUMP JUMPDEST POP SWAP1 JUMP JUMPDEST POP DUP1 SLOAD PUSH1 0x0 DUP3 SSTORE PUSH1 0x1F ADD PUSH1 0x20 SWAP1 DIV SWAP1 PUSH1 0x0 MSTORE PUSH1 0x20 PUSH1 0x0 KECCAK256 SWAP1 DUP2 ADD SWAP1 PUSH2 0x3568 SWAP2 SWAP1 PUSH2 0x34C3 JUMP JUMPDEST POP JUMP JUMPDEST PUSH1 0x0 DUP2 SWAP1 POP SWAP2 SWAP1 POP JUMP JUMPDEST PUSH2 0x357E DUP2 PUSH2 0x356B JUMP JUMPDEST DUP3 MSTORE POP POP JUMP JUMPDEST PUSH1 0x0 PUSH1 0x20 DUP3 ADD SWAP1 POP PUSH2 0x3599 PUSH1 0x0 DUP4 ADD DUP5 PUSH2 0x3575 JUMP JUMPDEST SWAP3 SWAP2 POP POP JUMP JUMPDEST PUSH1 0x0 PUSH1 0x40 MLOAD SWAP1 POP SWAP1 JUMP JUMPDEST PUSH1 0x0 DUP1 REVERT JUMPDEST PUSH1 0x0 DUP1 REVERT JUMPDEST PUSH1 0x0 PUSH32 0xFFFFFFFF00000000000000000000000000000000000000000000000000000000 DUP3 AND SWAP1 POP SWAP2 SWAP1 POP JUMP JUMPDEST PUSH2 0x35E8 DUP2 PUSH2 0x35B3 JUMP JUMPDEST DUP2 EQ PUSH2 0x35F3 JUMPI PUSH1 0x0 DUP1 REVERT JUMPDEST POP JUMP JUMPDEST PUSH1 0x0 DUP2 CALLDATALOAD SWAP1 POP PUSH2 0x3605 DUP2 PUSH2 0x35DF JUMP JUMPDEST SWAP3 SWAP2 POP POP JUMP JUMPDEST PUSH1 0x0 PUSH1 0x20 DUP3 DUP5 SUB SLT ISZERO PUSH2 0x3621 JUMPI PUSH2 0x3620 PUSH2 0x35A9 JUMP JUMPDEST JUMPDEST PUSH1 0x0 PUSH2 0x362F DUP5 DUP3 DUP6 ADD PUSH2 0x35F6 JUMP JUMPDEST SWAP2 POP POP SWAP3 SWAP2 POP POP JUMP JUMPDEST PUSH1 0x0 DUP2 ISZERO ISZERO SWAP1 POP SWAP2 SWAP1 POP JUMP JUMPDEST PUSH2 0x364D DUP2 PUSH2 0x3638 JUMP JUMPDEST DUP3 MSTORE POP POP JUMP JUMPDEST PUSH1 0x0 PUSH1 0x20 DUP3 ADD SWAP1 POP PUSH2 0x3668 PUSH1 0x0 DUP4 ADD DUP5 PUSH2 0x3644 JUMP JUMPDEST SWAP3 SWAP2 POP POP JUMP JUMPDEST PUSH1 0x0 DUP2 MLOAD SWAP1 POP SWAP2 SWAP1 POP JUMP JUMPDEST PUSH1 0x0 DUP3 DUP3 MSTORE PUSH1 0x20 DUP3 ADD SWAP1 POP SWAP3 SWAP2 POP POP JUMP JUMPDEST PUSH1 0x0 JUMPDEST DUP4 DUP2 LT ISZERO PUSH2 0x36A8 JUMPI DUP1 DUP3 ADD MLOAD DUP2 DUP5 ADD MSTORE PUSH1 0x20 DUP2 ADD SWAP1 POP PUSH2 0x368D JUMP JUMPDEST PUSH1 0x0 DUP5 DUP5 ADD MSTORE POP POP POP POP JUMP JUMPDEST PUSH1 0x0 PUSH1 0x1F NOT PUSH1 0x1F DUP4 ADD AND SWAP1 POP SWAP2 SWAP1 POP JUMP JUMPDEST PUSH1 0x0 PUSH2 0x36D0 DUP3 PUSH2 0x366E JUMP JUMPDEST PUSH2 0x36DA DUP2 DUP6 PUSH2 0x3679 JUMP JUMPDEST SWAP4 POP PUSH2 0x36EA DUP2 DUP6 PUSH1 0x20 DUP7 ADD PUSH2 0x368A JUMP JUMPDEST PUSH2 0x36F3 DUP2 PUSH2 0x36B4 JUMP JUMPDEST DUP5 ADD SWAP2 POP POP SWAP3 SWAP2 POP POP JUMP JUMPDEST PUSH1 0x0 PUSH1 0x20 DUP3 ADD SWAP1 POP DUP2 DUP2 SUB PUSH1 0x0 DUP4 ADD MSTORE PUSH2 0x3718 DUP2 DUP5 PUSH2 0x36C5 JUMP JUMPDEST SWAP1 POP SWAP3 SWAP2 POP POP JUMP JUMPDEST PUSH2 0x3729 DUP2 PUSH2 0x356B JUMP JUMPDEST DUP2 EQ PUSH2 0x3734 JUMPI PUSH1 0x0 DUP1 REVERT JUMPDEST POP JUMP JUMPDEST PUSH1 0x0 DUP2 CALLDATALOAD SWAP1 POP PUSH2 0x3746 DUP2 PUSH2 0x3720 JUMP JUMPDEST SWAP3 SWAP2 POP POP JUMP JUMPDEST PUSH1 0x0 PUSH1 0x20 DUP3 DUP5 SUB SLT ISZERO PUSH2 0x3762 JUMPI PUSH2 0x3761 PUSH2 0x35A9 JUMP JUMPDEST JUMPDEST PUSH1 0x0 PUSH2 0x3770 DUP5 DUP3 DUP6 ADD PUSH2 0x3737 JUMP JUMPDEST SWAP2 POP POP SWAP3 SWAP2 POP POP JUMP JUMPDEST PUSH1 0x0 PUSH20 0xFFFFFFFFFFFFFFFFFFFFFFFFFFFFFFFFFFFFFFFF DUP3 AND SWAP1 POP SWAP2 SWAP1 POP JUMP JUMPDEST PUSH1 0x0 PUSH2 0x37A4 DUP3 PUSH2 0x3779 JUMP JUMPDEST SWAP1 POP SWAP2 SWAP1 POP JUMP JUMPDEST PUSH2 0x37B4 DUP2 PUSH2 0x3799 JUMP JUMPDEST DUP3 MSTORE POP POP JUMP JUMPDEST PUSH1 0x0 PUSH1 0x20 DUP3 ADD SWAP1 POP PUSH2 0x37CF PUSH1 0x0 DUP4 ADD DUP5 PUSH2 0x37AB JUMP JUMPDEST SWAP3 SWAP2 POP POP JUMP JUMPDEST PUSH2 0x37DE DUP2 PUSH2 0x3799 JUMP JUMPDEST DUP2 EQ PUSH2 0x37E9 JUMPI PUSH1 0x0 DUP1 REVERT JUMPDEST POP JUMP JUMPDEST PUSH1 0x0 DUP2 CALLDATALOAD SWAP1 POP PUSH2 0x37FB DUP2 PUSH2 0x37D5 JUMP JUMPDEST SWAP3 SWAP2 POP POP JUMP JUMPDEST PUSH1 0x0 DUP1 PUSH1 0x40 DUP4 DUP6 SUB SLT ISZERO PUSH2 0x3818 JUMPI PUSH2 0x3817 PUSH2 0x35A9 JUMP JUMPDEST JUMPDEST PUSH1 0x0 PUSH2 0x3826 DUP6 DUP3 DUP7 ADD PUSH2 0x37EC JUMP JUMPDEST SWAP3 POP POP PUSH1 0x20 PUSH2 0x3837 DUP6 DUP3 DUP7 ADD PUSH2 0x3737 JUMP JUMPDEST SWAP2 POP POP SWAP3 POP SWAP3 SWAP1 POP JUMP JUMPDEST PUSH1 0x0 PUSH1 0xFF DUP3 AND SWAP1 POP SWAP2 SWAP1 POP JUMP JUMPDEST PUSH2 0x3857 DUP2 PUSH2 0x3841 JUMP JUMPDEST DUP3 MSTORE POP POP JUMP JUMPDEST PUSH1 0x0 PUSH1 0x60 DUP3 ADD SWAP1 POP PUSH2 0x3872 PUSH1 0x0 DUP4 ADD DUP7 PUSH2 0x384E JUMP JUMPDEST PUSH2 0x387F PUSH1 0x20 DUP4 ADD DUP6 PUSH2 0x384E JUMP JUMPDEST PUSH2 0x388C PUSH1 0x40 DUP4 ADD DUP5 PUSH2 0x3644 JUMP JUMPDEST SWAP5 SWAP4 POP POP POP POP JUMP JUMPDEST PUSH1 0x0 DUP1 PUSH1 0x0 PUSH1 0x60 DUP5 DUP7 SUB SLT ISZERO PUSH2 0x38AD JUMPI PUSH2 0x38AC PUSH2 0x35A9 JUMP JUMPDEST JUMPDEST PUSH1 0x0 PUSH2 0x38BB DUP7 DUP3 DUP8 ADD PUSH2 0x37EC JUMP JUMPDEST SWAP4 POP POP PUSH1 0x20 PUSH2 0x38CC DUP7 DUP3 DUP8 ADD PUSH2 0x37EC JUMP JUMPDEST SWAP3 POP POP PUSH1 0x40 PUSH2 0x38DD DUP7 DUP3 DUP8 ADD PUSH2 0x3737 JUMP JUMPDEST SWAP2 POP POP SWAP3 POP SWAP3 POP SWAP3 JUMP JUMPDEST PUSH1 0x0 DUP1 REVERT JUMPDEST PUSH32 0x4E487B7100000000000000000000000000000000000000000000000000000000 PUSH1 0x0 MSTORE PUSH1 0x41 PUSH1 0x4 MSTORE PUSH1 0x24 PUSH1 0x0 REVERT JUMPDEST PUSH2 0x3924 DUP3 PUSH2 0x36B4 JUMP JUMPDEST DUP2 ADD DUP2 DUP2 LT PUSH8 0xFFFFFFFFFFFFFFFF DUP3 GT OR ISZERO PUSH2 0x3943 JUMPI PUSH2 0x3942 PUSH2 0x38EC JUMP JUMPDEST JUMPDEST DUP1 PUSH1 0x40 MSTORE POP POP POP JUMP JUMPDEST PUSH1 0x0 PUSH2 0x3956 PUSH2 0x359F JUMP JUMPDEST SWAP1 POP PUSH2 0x3962 DUP3 DUP3 PUSH2 0x391B JUMP JUMPDEST SWAP2 SWAP1 POP JUMP JUMPDEST PUSH1 0x0 PUSH8 0xFFFFFFFFFFFFFFFF DUP3 GT ISZERO PUSH2 0x3982 JUMPI PUSH2 0x3981 PUSH2 0x38EC JUMP JUMPDEST JUMPDEST PUSH1 0x20 DUP3 MUL SWAP1 POP PUSH1 0x20 DUP2 ADD SWAP1 POP SWAP2 SWAP1 POP JUMP JUMPDEST PUSH1 0x0 DUP1 REVERT JUMPDEST PUSH2 0x39A1 DUP2 PUSH2 0x3841 JUMP JUMPDEST DUP2 EQ PUSH2 0x39AC JUMPI PUSH1 0x0 DUP1 REVERT JUMPDEST POP JUMP JUMPDEST PUSH1 0x0 DUP2 CALLDATALOAD SWAP1 POP PUSH2 0x39BE DUP2 PUSH2 0x3998 JUMP JUMPDEST SWAP3 SWAP2 POP POP JUMP JUMPDEST PUSH1 0x0 PUSH2 0x39D7 PUSH2 0x39D2 DUP5 PUSH2 0x3967 JUMP JUMPDEST PUSH2 0x394C JUMP JUMPDEST SWAP1 POP DUP1 DUP4 DUP3 MSTORE PUSH1 0x20 DUP3 ADD SWAP1 POP PUSH1 0x20 DUP5 MUL DUP4 ADD DUP6 DUP2 GT ISZERO PUSH2 0x39FA JUMPI PUSH2 0x39F9 PUSH2 0x3993 JUMP JUMPDEST JUMPDEST DUP4 JUMPDEST DUP2 DUP2 LT ISZERO PUSH2 0x3A23 JUMPI DUP1 PUSH2 0x3A0F DUP9 DUP3 PUSH2 0x39AF JUMP JUMPDEST DUP5 MSTORE PUSH1 0x20 DUP5 ADD SWAP4 POP POP PUSH1 0x20 DUP2 ADD SWAP1 POP PUSH2 0x39FC JUMP JUMPDEST POP POP POP SWAP4 SWAP3 POP POP POP JUMP JUMPDEST PUSH1 0x0 DUP3 PUSH1 0x1F DUP4 ADD SLT PUSH2 0x3A42 JUMPI PUSH2 0x3A41 PUSH2 0x38E7 JUMP JUMPDEST JUMPDEST DUP2 CALLDATALOAD PUSH2 0x3A52 DUP5 DUP3 PUSH1 0x20 DUP7 ADD PUSH2 0x39C4 JUMP JUMPDEST SWAP2 POP POP SWAP3 SWAP2 POP POP JUMP JUMPDEST PUSH1 0x0 PUSH1 0x20 DUP3 DUP5 SUB SLT ISZERO PUSH2 0x3A71 JUMPI PUSH2 0x3A70 PUSH2 0x35A9 JUMP JUMPDEST JUMPDEST PUSH1 0x0 DUP3 ADD CALLDATALOAD PUSH8 0xFFFFFFFFFFFFFFFF DUP2 GT ISZERO PUSH2 0x3A8F JUMPI PUSH2 0x3A8E PUSH2 0x35AE JUMP JUMPDEST JUMPDEST PUSH2 0x3A9B DUP5 DUP3 DUP6 ADD PUSH2 0x3A2D JUMP JUMPDEST SWAP2 POP POP SWAP3 SWAP2 POP POP JUMP JUMPDEST PUSH1 0x0 DUP2 MLOAD SWAP1 POP SWAP2 SWAP1 POP JUMP JUMPDEST PUSH1 0x0 DUP3 DUP3 MSTORE PUSH1 0x20 DUP3 ADD SWAP1 POP SWAP3 SWAP2 POP POP JUMP JUMPDEST PUSH1 0x0 DUP2 SWAP1 POP PUSH1 0x20 DUP3 ADD SWAP1 POP SWAP2 SWAP1 POP JUMP JUMPDEST PUSH2 0x3AD9 DUP2 PUSH2 0x3841 JUMP JUMPDEST DUP3 MSTORE POP POP JUMP JUMPDEST PUSH1 0x0 PUSH2 0x3AEB DUP4 DUP4 PUSH2 0x3AD0 JUMP JUMPDEST PUSH1 0x20 DUP4 ADD SWAP1 POP SWAP3 SWAP2 POP POP JUMP JUMPDEST PUSH1 0x0 PUSH1 0x20 DUP3 ADD SWAP1 POP SWAP2 SWAP1 POP JUMP JUMPDEST PUSH1 0x0 PUSH2 0x3B0F DUP3 PUSH2 0x3AA4 JUMP JUMPDEST PUSH2 0x3B19 DUP2 DUP6 PUSH2 0x3AAF JUMP JUMPDEST SWAP4 POP PUSH2 0x3B24 DUP4 PUSH2 0x3AC0 JUMP JUMPDEST DUP1 PUSH1 0x0 JUMPDEST DUP4 DUP2 LT ISZERO PUSH2 0x3B55 JUMPI DUP2 MLOAD PUSH2 0x3B3C DUP9 DUP3 PUSH2 0x3ADF JUMP JUMPDEST SWAP8 POP PUSH2 0x3B47 DUP4 PUSH2 0x3AF7 JUMP JUMPDEST SWAP3 POP POP PUSH1 0x1 DUP2 ADD SWAP1 POP PUSH2 0x3B28 JUMP JUMPDEST POP DUP6 SWAP4 POP POP POP POP SWAP3 SWAP2 POP POP JUMP JUMPDEST PUSH1 0x0 PUSH1 0x20 DUP3 ADD SWAP1 POP DUP2 DUP2 SUB PUSH1 0x0 DUP4 ADD MSTORE PUSH2 0x3B7C DUP2 DUP5 PUSH2 0x3B04 JUMP JUMPDEST SWAP1 POP SWAP3 SWAP2 POP POP JUMP JUMPDEST PUSH1 0x0 PUSH1 0x20 DUP3 DUP5 SUB SLT ISZERO PUSH2 0x3B9A JUMPI PUSH2 0x3B99 PUSH2 0x35A9 JUMP JUMPDEST JUMPDEST PUSH1 0x0 PUSH2 0x3BA8 DUP5 DUP3 DUP6 ADD PUSH2 0x37EC JUMP JUMPDEST SWAP2 POP POP SWAP3 SWAP2 POP POP JUMP JUMPDEST PUSH32 0x4E487B7100000000000000000000000000000000000000000000000000000000 PUSH1 0x0 MSTORE PUSH1 0x21 PUSH1 0x4 MSTORE PUSH1 0x24 PUSH1 0x0 REVERT JUMPDEST PUSH1 0x3 DUP2 LT PUSH2 0x3BF1 JUMPI PUSH2 0x3BF0 PUSH2 0x3BB1 JUMP JUMPDEST JUMPDEST POP JUMP JUMPDEST PUSH1 0x0 DUP2 SWAP1 POP PUSH2 0x3C02 DUP3 PUSH2 0x3BE0 JUMP JUMPDEST SWAP2 SWAP1 POP JUMP JUMPDEST PUSH1 0x0 PUSH2 0x3C12 DUP3 PUSH2 0x3BF4 JUMP JUMPDEST SWAP1 POP SWAP2 SWAP1 POP JUMP JUMPDEST PUSH2 0x3C22 DUP2 PUSH2 0x3C07 JUMP JUMPDEST DUP3 MSTORE POP POP JUMP JUMPDEST PUSH1 0x0 PUSH1 0x20 DUP3 ADD SWAP1 POP PUSH2 0x3C3D PUSH1 0x0 DUP4 ADD DUP5 PUSH2 0x3C19 JUMP JUMPDEST SWAP3 SWAP2 POP POP JUMP JUMPDEST PUSH1 0x0 DUP2 MLOAD SWAP1 POP SWAP2 SWAP1 POP JUMP JUMPDEST PUSH1 0x0 DUP3 DUP3 MSTORE PUSH1 0x20 DUP3 ADD SWAP1 POP SWAP3 SWAP2 POP POP JUMP JUMPDEST PUSH1 0x0 DUP2 SWAP1 POP PUSH1 0x20 DUP3 ADD SWAP1 POP SWAP2 SWAP1 POP JUMP JUMPDEST PUSH1 0x0 DUP3 DUP3 MSTORE PUSH1 0x20 DUP3 ADD SWAP1 POP SWAP3 SWAP2 POP POP JUMP JUMPDEST PUSH1 0x0 PUSH2 0x3C8B DUP3 PUSH2 0x3AA4 JUMP JUMPDEST PUSH2 0x3C95 DUP2 DUP6 PUSH2 0x3C6F JUMP JUMPDEST SWAP4 POP PUSH2 0x3CA0 DUP4 PUSH2 0x3AC0 JUMP JUMPDEST DUP1 PUSH1 0x0 JUMPDEST DUP4 DUP2 LT ISZERO PUSH2 0x3CD1 JUMPI DUP2 MLOAD PUSH2 0x3CB8 DUP9 DUP3 PUSH2 0x3ADF JUMP JUMPDEST SWAP8 POP PUSH2 0x3CC3 DUP4 PUSH2 0x3AF7 JUMP JUMPDEST SWAP3 POP POP PUSH1 0x1 DUP2 ADD SWAP1 POP PUSH2 0x3CA4 JUMP JUMPDEST POP DUP6 SWAP4 POP POP POP POP SWAP3 SWAP2 POP POP JUMP JUMPDEST PUSH2 0x3CE7 DUP2 PUSH2 0x3638 JUMP JUMPDEST DUP3 MSTORE POP POP JUMP JUMPDEST PUSH1 0x0 PUSH1 0x80 DUP4 ADD PUSH1 0x0 DUP4 ADD MLOAD DUP5 DUP3 SUB PUSH1 0x0 DUP7 ADD MSTORE PUSH2 0x3D0A DUP3 DUP3 PUSH2 0x3C80 JUMP JUMPDEST SWAP2 POP POP PUSH1 0x20 DUP4 ADD MLOAD PUSH2 0x3D1F PUSH1 0x20 DUP7 ADD DUP3 PUSH2 0x3AD0 JUMP JUMPDEST POP PUSH1 0x40 DUP4 ADD MLOAD PUSH2 0x3D32 PUSH1 0x40 DUP7 ADD DUP3 PUSH2 0x3AD0 JUMP JUMPDEST POP PUSH1 0x60 DUP4 ADD MLOAD PUSH2 0x3D45 PUSH1 0x60 DUP7 ADD DUP3 PUSH2 0x3CDE JUMP JUMPDEST POP DUP1 SWAP2 POP POP SWAP3 SWAP2 POP POP JUMP JUMPDEST PUSH1 0x0 PUSH2 0x3D5C DUP4 DUP4 PUSH2 0x3CED JUMP JUMPDEST SWAP1 POP SWAP3 SWAP2 POP POP JUMP JUMPDEST PUSH1 0x0 PUSH1 0x20 DUP3 ADD SWAP1 POP SWAP2 SWAP1 POP JUMP JUMPDEST PUSH1 0x0 PUSH2 0x3D7C DUP3 PUSH2 0x3C43 JUMP JUMPDEST PUSH2 0x3D86 DUP2 DUP6 PUSH2 0x3C4E JUMP JUMPDEST SWAP4 POP DUP4 PUSH1 0x20 DUP3 MUL DUP6 ADD PUSH2 0x3D98 DUP6 PUSH2 0x3C5F JUMP JUMPDEST DUP1 PUSH1 0x0 JUMPDEST DUP6 DUP2 LT ISZERO PUSH2 0x3DD4 JUMPI DUP5 DUP5 SUB DUP10 MSTORE DUP2 MLOAD PUSH2 0x3DB5 DUP6 DUP3 PUSH2 0x3D50 JUMP JUMPDEST SWAP5 POP PUSH2 0x3DC0 DUP4 PUSH2 0x3D64 JUMP JUMPDEST SWAP3 POP PUSH1 0x20 DUP11 ADD SWAP10 POP POP PUSH1 0x1 DUP2 ADD SWAP1 POP PUSH2 0x3D9C JUMP JUMPDEST POP DUP3 SWAP8 POP DUP8 SWAP6 POP POP POP POP POP POP SWAP3 SWAP2 POP POP JUMP JUMPDEST PUSH1 0x0 PUSH1 0x20 DUP3 ADD SWAP1 POP DUP2 DUP2 SUB PUSH1 0x0 DUP4 ADD MSTORE PUSH2 0x3E00 DUP2 DUP5 PUSH2 0x3D71 JUMP JUMPDEST SWAP1 POP SWAP3 SWAP2 POP POP JUMP JUMPDEST PUSH2 0x3E11 DUP2 PUSH2 0x3638 JUMP JUMPDEST DUP2 EQ PUSH2 0x3E1C JUMPI PUSH1 0x0 DUP1 REVERT JUMPDEST POP JUMP JUMPDEST PUSH1 0x0 DUP2 CALLDATALOAD SWAP1 POP PUSH2 0x3E2E DUP2 PUSH2 0x3E08 JUMP JUMPDEST SWAP3 SWAP2 POP POP JUMP JUMPDEST PUSH1 0x0 DUP1 PUSH1 0x40 DUP4 DUP6 SUB SLT ISZERO PUSH2 0x3E4B JUMPI PUSH2 0x3E4A PUSH2 0x35A9 JUMP JUMPDEST JUMPDEST PUSH1 0x0 PUSH2 0x3E59 DUP6 DUP3 DUP7 ADD PUSH2 0x37EC JUMP JUMPDEST SWAP3 POP POP PUSH1 0x20 PUSH2 0x3E6A DUP6 DUP3 DUP7 ADD PUSH2 0x3E1F JUMP JUMPDEST SWAP2 POP POP SWAP3 POP SWAP3 SWAP1 POP JUMP JUMPDEST PUSH1 0x0 DUP1 REVERT JUMPDEST PUSH1 0x0 PUSH8 0xFFFFFFFFFFFFFFFF DUP3 GT ISZERO PUSH2 0x3E94 JUMPI PUSH2 0x3E93 PUSH2 0x38EC JUMP JUMPDEST JUMPDEST PUSH2 0x3E9D DUP3 PUSH2 0x36B4 JUMP JUMPDEST SWAP1 POP PUSH1 0x20 DUP2 ADD SWAP1 POP SWAP2 SWAP1 POP JUMP JUMPDEST DUP3 DUP2 DUP4 CALLDATACOPY PUSH1 0x0 DUP4 DUP4 ADD MSTORE POP POP POP JUMP JUMPDEST PUSH1 0x0 PUSH2 0x3ECC PUSH2 0x3EC7 DUP5 PUSH2 0x3E79 JUMP JUMPDEST PUSH2 0x394C JUMP JUMPDEST SWAP1 POP DUP3 DUP2 MSTORE PUSH1 0x20 DUP2 ADD DUP5 DUP5 DUP5 ADD GT ISZERO PUSH2 0x3EE8 JUMPI PUSH2 0x3EE7 PUSH2 0x3E74 JUMP JUMPDEST JUMPDEST PUSH2 0x3EF3 DUP5 DUP3 DUP6 PUSH2 0x3EAA JUMP JUMPDEST POP SWAP4 SWAP3 POP POP POP JUMP JUMPDEST PUSH1 0x0 DUP3 PUSH1 0x1F DUP4 ADD SLT PUSH2 0x3F10 JUMPI PUSH2 0x3F0F PUSH2 0x38E7 JUMP JUMPDEST JUMPDEST DUP2 CALLDATALOAD PUSH2 0x3F20 DUP5 DUP3 PUSH1 0x20 DUP7 ADD PUSH2 0x3EB9 JUMP JUMPDEST SWAP2 POP POP SWAP3 SWAP2 POP POP JUMP JUMPDEST PUSH1 0x0 DUP1 PUSH1 0x0 DUP1 PUSH1 0x80 DUP6 DUP8 SUB SLT ISZERO PUSH2 0x3F43 JUMPI PUSH2 0x3F42 PUSH2 0x35A9 JUMP JUMPDEST JUMPDEST PUSH1 0x0 PUSH2 0x3F51 DUP8 DUP3 DUP9 ADD PUSH2 0x37EC JUMP JUMPDEST SWAP5 POP POP PUSH1 0x20 PUSH2 0x3F62 DUP8 DUP3 DUP9 ADD PUSH2 0x37EC JUMP JUMPDEST SWAP4 POP POP PUSH1 0x40 PUSH2 0x3F73 DUP8 DUP3 DUP9 ADD PUSH2 0x3737 JUMP JUMPDEST SWAP3 POP POP PUSH1 0x60 DUP6 ADD CALLDATALOAD PUSH8 0xFFFFFFFFFFFFFFFF DUP2 GT ISZERO PUSH2 0x3F94 JUMPI PUSH2 0x3F93 PUSH2 0x35AE JUMP JUMPDEST JUMPDEST PUSH2 0x3FA0 DUP8 DUP3 DUP9 ADD PUSH2 0x3EFB JUMP JUMPDEST SWAP2 POP POP SWAP3 SWAP6 SWAP2 SWAP5 POP SWAP3 POP JUMP JUMPDEST PUSH1 0x0 DUP2 MLOAD SWAP1 POP SWAP2 SWAP1 POP JUMP JUMPDEST PUSH1 0x0 DUP3 DUP3 MSTORE PUSH1 0x20 DUP3 ADD SWAP1 POP SWAP3 SWAP2 POP POP JUMP JUMPDEST PUSH1 0x0 DUP2 SWAP1 POP PUSH1 0x20 DUP3 ADD SWAP1 POP SWAP2 SWAP1 POP JUMP JUMPDEST PUSH1 0x0 PUSH1 0x2 SWAP1 POP SWAP2 SWAP1 POP JUMP JUMPDEST PUSH1 0x0 DUP2 SWAP1 POP SWAP3 SWAP2 POP POP JUMP JUMPDEST PUSH1 0x0 DUP2 SWAP1 POP SWAP2 SWAP1 POP JUMP JUMPDEST PUSH1 0x0 PUSH1 0x20 DUP3 ADD SWAP1 POP SWAP2 SWAP1 POP JUMP JUMPDEST PUSH2 0x400E DUP2 PUSH2 0x3FD8 JUMP JUMPDEST PUSH2 0x4018 DUP2 DUP5 PUSH2 0x3FE3 JUMP JUMPDEST SWAP3 POP PUSH2 0x4023 DUP3 PUSH2 0x3FEE JUMP JUMPDEST DUP1 PUSH1 0x0 JUMPDEST DUP4 DUP2 LT ISZERO PUSH2 0x4054 JUMPI DUP2 MLOAD PUSH2 0x403B DUP8 DUP3 PUSH2 0x3ADF JUMP JUMPDEST SWAP7 POP PUSH2 0x4046 DUP4 PUSH2 0x3FF8 JUMP JUMPDEST SWAP3 POP POP PUSH1 0x1 DUP2 ADD SWAP1 POP PUSH2 0x4027 JUMP JUMPDEST POP POP POP POP POP POP JUMP JUMPDEST PUSH1 0x0 PUSH2 0x4068 DUP4 DUP4 PUSH2 0x4005 JUMP JUMPDEST PUSH1 0x40 DUP4 ADD SWAP1 POP SWAP3 SWAP2 POP POP JUMP JUMPDEST PUSH1 0x0 PUSH1 0x20 DUP3 ADD SWAP1 POP SWAP2 SWAP1 POP JUMP JUMPDEST PUSH1 0x0 PUSH2 0x408C DUP3 PUSH2 0x3FAC JUMP JUMPDEST PUSH2 0x4096 DUP2 DUP6 PUSH2 0x3FB7 JUMP JUMPDEST SWAP4 POP PUSH2 0x40A1 DUP4 PUSH2 0x3FC8 JUMP JUMPDEST DUP1 PUSH1 0x0 JUMPDEST DUP4 DUP2 LT ISZERO PUSH2 0x40D2 JUMPI DUP2 MLOAD PUSH2 0x40B9 DUP9 DUP3 PUSH2 0x405C JUMP JUMPDEST SWAP8 POP PUSH2 0x40C4 DUP4 PUSH2 0x4074 JUMP JUMPDEST SWAP3 POP POP PUSH1 0x1 DUP2 ADD SWAP1 POP PUSH2 0x40A5 JUMP JUMPDEST POP DUP6 SWAP4 POP POP POP POP SWAP3 SWAP2 POP POP JUMP JUMPDEST PUSH1 0x0 PUSH1 0x20 DUP3 ADD SWAP1 POP DUP2 DUP2 SUB PUSH1 0x0 DUP4 ADD MSTORE PUSH2 0x40F9 DUP2 DUP5 PUSH2 0x4081 JUMP JUMPDEST SWAP1 POP SWAP3 SWAP2 POP POP JUMP JUMPDEST PUSH1 0x0 PUSH1 0x40 DUP3 ADD SWAP1 POP PUSH2 0x4116 PUSH1 0x0 DUP4 ADD DUP6 PUSH2 0x384E JUMP JUMPDEST PUSH2 0x4123 PUSH1 0x20 DUP4 ADD DUP5 PUSH2 0x384E JUMP JUMPDEST SWAP4 SWAP3 POP POP POP JUMP JUMPDEST PUSH1 0x0 DUP1 PUSH1 0x40 DUP4 DUP6 SUB SLT ISZERO PUSH2 0x4141 JUMPI PUSH2 0x4140 PUSH2 0x35A9 JUMP JUMPDEST JUMPDEST PUSH1 0x0 PUSH2 0x414F DUP6 DUP3 DUP7 ADD PUSH2 0x37EC JUMP JUMPDEST SWAP3 POP POP PUSH1 0x20 PUSH2 0x4160 DUP6 DUP3 DUP7 ADD PUSH2 0x37EC JUMP JUMPDEST SWAP2 POP POP SWAP3 POP SWAP3 SWAP1 POP JUMP JUMPDEST PUSH1 0x0 DUP2 MLOAD SWAP1 POP SWAP2 SWAP1 POP JUMP JUMPDEST PUSH1 0x0 DUP3 DUP3 MSTORE PUSH1 0x20 DUP3 ADD SWAP1 POP SWAP3 SWAP2 POP POP JUMP JUMPDEST PUSH1 0x0 DUP2 SWAP1 POP PUSH1 0x20 DUP3 ADD SWAP1 POP SWAP2 SWAP1 POP JUMP JUMPDEST PUSH1 0x0 PUSH2 0x41A2 DUP4 DUP4 PUSH2 0x3C80 JUMP JUMPDEST SWAP1 POP SWAP3 SWAP2 POP POP JUMP JUMPDEST PUSH1 0x0 PUSH1 0x20 DUP3 ADD SWAP1 POP SWAP2 SWAP1 POP JUMP JUMPDEST PUSH1 0x0 PUSH2 0x41C2 DUP3 PUSH2 0x416A JUMP JUMPDEST PUSH2 0x41CC DUP2 DUP6 PUSH2 0x4175 JUMP JUMPDEST SWAP4 POP DUP4 PUSH1 0x20 DUP3 MUL DUP6 ADD PUSH2 0x41DE DUP6 PUSH2 0x4186 JUMP JUMPDEST DUP1 PUSH1 0x0 JUMPDEST DUP6 DUP2 LT ISZERO PUSH2 0x421A JUMPI DUP5 DUP5 SUB DUP10 MSTORE DUP2 MLOAD PUSH2 0x41FB DUP6 DUP3 PUSH2 0x4196 JUMP JUMPDEST SWAP5 POP PUSH2 0x4206 DUP4 PUSH2 0x41AA JUMP JUMPDEST SWAP3 POP PUSH1 0x20 DUP11 ADD SWAP10 POP POP PUSH1 0x1 DUP2 ADD SWAP1 POP PUSH2 0x41E2 JUMP JUMPDEST POP DUP3 SWAP8 POP DUP8 SWAP6 POP POP POP POP POP POP SWAP3 SWAP2 POP POP JUMP JUMPDEST PUSH1 0x0 PUSH1 0x20 DUP3 ADD SWAP1 POP DUP2 DUP2 SUB PUSH1 0x0 DUP4 ADD MSTORE PUSH2 0x4246 DUP2 DUP5 PUSH2 0x41B7 JUMP JUMPDEST SWAP1 POP SWAP3 SWAP2 POP POP JUMP JUMPDEST PUSH32 0x4E487B7100000000000000000000000000000000000000000000000000000000 PUSH1 0x0 MSTORE PUSH1 0x22 PUSH1 0x4 MSTORE PUSH1 0x24 PUSH1 0x0 REVERT JUMPDEST PUSH1 0x0 PUSH1 0x2 DUP3 DIV SWAP1 POP PUSH1 0x1 DUP3 AND DUP1 PUSH2 0x4295 JUMPI PUSH1 0x7F DUP3 AND SWAP2 POP JUMPDEST PUSH1 0x20 DUP3 LT DUP2 SUB PUSH2 0x42A8 JUMPI PUSH2 0x42A7 PUSH2 0x424E JUMP JUMPDEST JUMPDEST POP SWAP2 SWAP1 POP JUMP JUMPDEST PUSH1 0x0 PUSH1 0x60 DUP3 ADD SWAP1 POP PUSH2 0x42C3 PUSH1 0x0 DUP4 ADD DUP7 PUSH2 0x37AB JUMP JUMPDEST PUSH2 0x42D0 PUSH1 0x20 DUP4 ADD DUP6 PUSH2 0x3575 JUMP JUMPDEST PUSH2 0x42DD PUSH1 0x40 DUP4 ADD DUP5 PUSH2 0x37AB JUMP JUMPDEST SWAP5 SWAP4 POP POP POP POP JUMP JUMPDEST PUSH32 0x4F6E6C792074686520636F64656D616B65722063616E2063616C6C2074686973 PUSH1 0x0 DUP3 ADD MSTORE PUSH32 0x2066756E6374696F6E0000000000000000000000000000000000000000000000 PUSH1 0x20 DUP3 ADD MSTORE POP JUMP JUMPDEST PUSH1 0x0 PUSH2 0x4341 PUSH1 0x29 DUP4 PUSH2 0x3679 JUMP JUMPDEST SWAP2 POP PUSH2 0x434C DUP3 PUSH2 0x42E5 JUMP JUMPDEST PUSH1 0x40 DUP3 ADD SWAP1 POP SWAP2 SWAP1 POP JUMP JUMPDEST PUSH1 0x0 PUSH1 0x20 DUP3 ADD SWAP1 POP DUP2 DUP2 SUB PUSH1 0x0 DUP4 ADD MSTORE PUSH2 0x4370 DUP2 PUSH2 0x4334 JUMP JUMPDEST SWAP1 POP SWAP2 SWAP1 POP JUMP JUMPDEST PUSH32 0x636F64656D616B65722061646472657373206D75737420626520736574000000 PUSH1 0x0 DUP3 ADD MSTORE POP JUMP JUMPDEST PUSH1 0x0 PUSH2 0x43AD PUSH1 0x1D DUP4 PUSH2 0x3679 JUMP JUMPDEST SWAP2 POP PUSH2 0x43B8 DUP3 PUSH2 0x4377 JUMP JUMPDEST PUSH1 0x20 DUP3 ADD SWAP1 POP SWAP2 SWAP1 POP JUMP JUMPDEST PUSH1 0x0 PUSH1 0x20 DUP3 ADD SWAP1 POP DUP2 DUP2 SUB PUSH1 0x0 DUP4 ADD MSTORE PUSH2 0x43DC DUP2 PUSH2 0x43A0 JUMP JUMPDEST SWAP1 POP SWAP2 SWAP1 POP JUMP JUMPDEST PUSH32 0x436F6465627265616B65722061646472657373206D7573742062652073657400 PUSH1 0x0 DUP3 ADD MSTORE POP JUMP JUMPDEST PUSH1 0x0 PUSH2 0x4419 PUSH1 0x1F DUP4 PUSH2 0x3679 JUMP JUMPDEST SWAP2 POP PUSH2 0x4424 DUP3 PUSH2 0x43E3 JUMP JUMPDEST PUSH1 0x20 DUP3 ADD SWAP1 POP SWAP2 SWAP1 POP JUMP JUMPDEST PUSH1 0x0 PUSH1 0x20 DUP3 ADD SWAP1 POP DUP2 DUP2 SUB PUSH1 0x0 DUP4 ADD MSTORE PUSH2 0x4448 DUP2 PUSH2 0x440C JUMP JUMPDEST SWAP1 POP SWAP2 SWAP1 POP JUMP JUMPDEST PUSH32 0x53656372657420636F6465206D757374206265203420646967697473206C6F6E PUSH1 0x0 DUP3 ADD MSTORE PUSH32 0x6700000000000000000000000000000000000000000000000000000000000000 PUSH1 0x20 DUP3 ADD MSTORE POP JUMP JUMPDEST PUSH1 0x0 PUSH2 0x44AB PUSH1 0x21 DUP4 PUSH2 0x3679 JUMP JUMPDEST SWAP2 POP PUSH2 0x44B6 DUP3 PUSH2 0x444F JUMP JUMPDEST PUSH1 0x40 DUP3 ADD SWAP1 POP SWAP2 SWAP1 POP JUMP JUMPDEST PUSH1 0x0 PUSH1 0x20 DUP3 ADD SWAP1 POP DUP2 DUP2 SUB PUSH1 0x0 DUP4 ADD MSTORE PUSH2 0x44DA DUP2 PUSH2 0x449E JUMP JUMPDEST SWAP1 POP SWAP2 SWAP1 POP JUMP JUMPDEST PUSH1 0x0 DUP2 SWAP1 POP SWAP3 SWAP2 POP POP JUMP JUMPDEST PUSH2 0x44F5 DUP2 PUSH2 0x3841 JUMP JUMPDEST DUP3 MSTORE POP POP JUMP JUMPDEST PUSH1 0x0 PUSH2 0x4507 DUP4 DUP4 PUSH2 0x44EC JUMP JUMPDEST PUSH1 0x20 DUP4 ADD SWAP1 POP SWAP3 SWAP2 POP POP JUMP JUMPDEST PUSH1 0x0 PUSH2 0x451E DUP3 PUSH2 0x3AA4 JUMP JUMPDEST PUSH2 0x4528 DUP2 DUP6 PUSH2 0x44E1 JUMP JUMPDEST SWAP4 POP PUSH2 0x4533 DUP4 PUSH2 0x3AC0 JUMP JUMPDEST DUP1 PUSH1 0x0 JUMPDEST DUP4 DUP2 LT ISZERO PUSH2 0x4564 JUMPI DUP2 MLOAD PUSH2 0x454B DUP9 DUP3 PUSH2 0x44FB JUMP JUMPDEST SWAP8 POP PUSH2 0x4556 DUP4 PUSH2 0x3AF7 JUMP JUMPDEST SWAP3 POP POP PUSH1 0x1 DUP2 ADD SWAP1 POP PUSH2 0x4537 JUMP JUMPDEST POP DUP6 SWAP4 POP POP POP POP SWAP3 SWAP2 POP POP JUMP JUMPDEST PUSH1 0x0 PUSH2 0x457D DUP3 DUP5 PUSH2 0x4513 JUMP JUMPDEST SWAP2 POP DUP2 SWAP1 POP SWAP3 SWAP2 POP POP JUMP JUMPDEST PUSH1 0x0 PUSH1 0x40 DUP3 ADD SWAP1 POP PUSH2 0x459D PUSH1 0x0 DUP4 ADD DUP6 PUSH2 0x3C19 JUMP JUMPDEST PUSH2 0x45AA PUSH1 0x20 DUP4 ADD DUP5 PUSH2 0x3575 JUMP JUMPDEST SWAP4 SWAP3 POP POP POP JUMP JUMPDEST PUSH1 0x0 PUSH1 0x60 DUP3 ADD SWAP1 POP PUSH2 0x45C6 PUSH1 0x0 DUP4 ADD DUP7 PUSH2 0x3575 JUMP JUMPDEST PUSH2 0x45D3 PUSH1 0x20 DUP4 ADD DUP6 PUSH2 0x3575 JUMP JUMPDEST PUSH2 0x45E0 PUSH1 0x40 DUP4 ADD DUP5 PUSH2 0x3575 JUMP JUMPDEST SWAP5 SWAP4 POP POP POP POP JUMP JUMPDEST PUSH32 0x47616D6520696E2073657373696F6E0000000000000000000000000000000000 PUSH1 0x0 DUP3 ADD MSTORE POP JUMP JUMPDEST PUSH1 0x0 PUSH2 0x461E PUSH1 0xF DUP4 PUSH2 0x3679 JUMP JUMPDEST SWAP2 POP PUSH2 0x4629 DUP3 PUSH2 0x45E8 JUMP JUMPDEST PUSH1 0x20 DUP3 ADD SWAP1 POP SWAP2 SWAP1 POP JUMP JUMPDEST PUSH1 0x0 PUSH1 0x20 DUP3 ADD SWAP1 POP DUP2 DUP2 SUB PUSH1 0x0 DUP4 ADD MSTORE PUSH2 0x464D DUP2 PUSH2 0x4611 JUMP JUMPDEST SWAP1 POP SWAP2 SWAP1 POP JUMP JUMPDEST PUSH32 0x4F6E6C792074686520636F6465627265616B65722063616E2063616C6C207468 PUSH1 0x0 DUP3 ADD MSTORE PUSH32 0x69732066756E6374696F6E000000000000000000000000000000000000000000 PUSH1 0x20 DUP3 ADD MSTORE POP JUMP JUMPDEST PUSH1 0x0 PUSH2 0x46B0 PUSH1 0x2B DUP4 PUSH2 0x3679 JUMP JUMPDEST SWAP2 POP PUSH2 0x46BB DUP3 PUSH2 0x4654 JUMP JUMPDEST PUSH1 0x40 DUP3 ADD SWAP1 POP SWAP2 SWAP1 POP JUMP JUMPDEST PUSH1 0x0 PUSH1 0x20 DUP3 ADD SWAP1 POP DUP2 DUP2 SUB PUSH1 0x0 DUP4 ADD MSTORE PUSH2 0x46DF DUP2 PUSH2 0x46A3 JUMP JUMPDEST SWAP1 POP SWAP2 SWAP1 POP JUMP JUMPDEST PUSH32 0x47616D65206973206E6F74206163746976650000000000000000000000000000 PUSH1 0x0 DUP3 ADD MSTORE POP JUMP JUMPDEST PUSH1 0x0 PUSH2 0x471C PUSH1 0x12 DUP4 PUSH2 0x3679 JUMP JUMPDEST SWAP2 POP PUSH2 0x4727 DUP3 PUSH2 0x46E6 JUMP JUMPDEST PUSH1 0x20 DUP3 ADD SWAP1 POP SWAP2 SWAP1 POP JUMP JUMPDEST PUSH1 0x0 PUSH1 0x20 DUP3 ADD SWAP1 POP DUP2 DUP2 SUB PUSH1 0x0 DUP4 ADD MSTORE PUSH2 0x474B DUP2 PUSH2 0x470F JUMP JUMPDEST SWAP1 POP SWAP2 SWAP1 POP JUMP JUMPDEST PUSH32 0x4775657373206D757374206265203420646967697473206C6F6E670000000000 PUSH1 0x0 DUP3 ADD MSTORE POP JUMP JUMPDEST PUSH1 0x0 PUSH2 0x4788 PUSH1 0x1B DUP4 PUSH2 0x3679 JUMP JUMPDEST SWAP2 POP PUSH2 0x4793 DUP3 PUSH2 0x4752 JUMP JUMPDEST PUSH1 0x20 DUP3 ADD SWAP1 POP SWAP2 SWAP1 POP JUMP JUMPDEST PUSH1 0x0 PUSH1 0x20 DUP3 ADD SWAP1 POP DUP2 DUP2 SUB PUSH1 0x0 DUP4 ADD MSTORE PUSH2 0x47B7 DUP2 PUSH2 0x477B JUMP JUMPDEST SWAP1 POP SWAP2 SWAP1 POP JUMP JUMPDEST PUSH32 0x4D6178696D756D206E756D626572206F66206775657373657320726561636865 PUSH1 0x0 DUP3 ADD MSTORE PUSH32 0x6400000000000000000000000000000000000000000000000000000000000000 PUSH1 0x20 DUP3 ADD MSTORE POP JUMP JUMPDEST PUSH1 0x0 PUSH2 0x481A PUSH1 0x21 DUP4 PUSH2 0x3679 JUMP JUMPDEST SWAP2 POP PUSH2 0x4825 DUP3 PUSH2 0x47BE JUMP JUMPDEST PUSH1 0x40 DUP3 ADD SWAP1 POP SWAP2 SWAP1 POP JUMP JUMPDEST PUSH1 0x0 PUSH1 0x20 DUP3 ADD SWAP1 POP DUP2 DUP2 SUB PUSH1 0x0 DUP4 ADD MSTORE PUSH2 0x4849 DUP2 PUSH2 0x480D JUMP JUMPDEST SWAP1 POP SWAP2 SWAP1 POP JUMP JUMPDEST PUSH1 0x0 PUSH1 0xA0 DUP3 ADD SWAP1 POP DUP2 DUP2 SUB PUSH1 0x0 DUP4 ADD MSTORE PUSH2 0x486A DUP2 DUP9 PUSH2 0x3B04 JUMP JUMPDEST SWAP1 POP PUSH2 0x4879 PUSH1 0x20 DUP4 ADD DUP8 PUSH2 0x384E JUMP JUMPDEST PUSH2 0x4886 PUSH1 0x40 DUP4 ADD DUP7 PUSH2 0x384E JUMP JUMPDEST PUSH2 0x4893 PUSH1 0x60 DUP4 ADD DUP6 PUSH2 0x3644 JUMP JUMPDEST PUSH2 0x48A0 PUSH1 0x80 DUP4 ADD DUP5 PUSH2 0x3575 JUMP JUMPDEST SWAP7 SWAP6 POP POP POP POP POP POP JUMP JUMPDEST PUSH32 0x4E487B7100000000000000000000000000000000000000000000000000000000 PUSH1 0x0 MSTORE PUSH1 0x11 PUSH1 0x4 MSTORE PUSH1 0x24 PUSH1 0x0 REVERT JUMPDEST PUSH1 0x0 PUSH2 0x48E4 DUP3 PUSH2 0x356B JUMP JUMPDEST SWAP2 POP PUSH2 0x48EF DUP4 PUSH2 0x356B JUMP JUMPDEST SWAP3 POP DUP3 DUP3 ADD SWAP1 POP DUP1 DUP3 GT ISZERO PUSH2 0x4907 JUMPI PUSH2 0x4906 PUSH2 0x48AA JUMP JUMPDEST JUMPDEST SWAP3 SWAP2 POP POP JUMP JUMPDEST PUSH1 0x0 PUSH2 0x4918 DUP3 PUSH2 0x356B JUMP JUMPDEST SWAP2 POP PUSH32 0xFFFFFFFFFFFFFFFFFFFFFFFFFFFFFFFFFFFFFFFFFFFFFFFFFFFFFFFFFFFFFFFF DUP3 SUB PUSH2 0x494A JUMPI PUSH2 0x4949 PUSH2 0x48AA JUMP JUMPDEST JUMPDEST PUSH1 0x1 DUP3 ADD SWAP1 POP SWAP2 SWAP1 POP JUMP JUMPDEST PUSH1 0x0 DUP2 SWAP1 POP SWAP3 SWAP2 POP POP JUMP JUMPDEST PUSH32 0x7B226E616D65223A224D61737465726D696E6420230000000000000000000000 PUSH1 0x0 DUP3 ADD MSTORE POP JUMP JUMPDEST PUSH1 0x0 PUSH2 0x4996 PUSH1 0x15 DUP4 PUSH2 0x4955 JUMP JUMPDEST SWAP2 POP PUSH2 0x49A1 DUP3 PUSH2 0x4960 JUMP JUMPDEST PUSH1 0x15 DUP3 ADD SWAP1 POP SWAP2 SWAP1 POP JUMP JUMPDEST PUSH1 0x0 PUSH2 0x49B7 DUP3 PUSH2 0x366E JUMP JUMPDEST PUSH2 0x49C1 DUP2 DUP6 PUSH2 0x4955 JUMP JUMPDEST SWAP4 POP PUSH2 0x49D1 DUP2 DUP6 PUSH1 0x20 DUP7 ADD PUSH2 0x368A JUMP JUMPDEST DUP1 DUP5 ADD SWAP2 POP POP SWAP3 SWAP2 POP POP JUMP JUMPDEST PUSH32 0x222C20226465736372697074696F6E223A22416E204E46542074686174207265 PUSH1 0x0 DUP3 ADD MSTORE PUSH32 0x666C6563747320746865206F7574636F6D65206F662061204D61737465726D69 PUSH1 0x20 DUP3 ADD MSTORE PUSH32 0x6E642067616D65222C2000000000000000000000000000000000000000000000 PUSH1 0x40 DUP3 ADD MSTORE POP JUMP JUMPDEST PUSH1 0x0 PUSH2 0x4A5F PUSH1 0x4A DUP4 PUSH2 0x4955 JUMP JUMPDEST SWAP2 POP PUSH2 0x4A6A DUP3 PUSH2 0x49DD JUMP JUMPDEST PUSH1 0x4A DUP3 ADD SWAP1 POP SWAP2 SWAP1 POP JUMP JUMPDEST PUSH32 0x2261747472696275746573223A205B7B2274726169745F74797065223A202267 PUSH1 0x0 DUP3 ADD MSTORE PUSH32 0x616D655F726573756C74222C202276616C7565223A2022000000000000000000 PUSH1 0x20 DUP3 ADD MSTORE POP JUMP JUMPDEST PUSH1 0x0 PUSH2 0x4AD1 PUSH1 0x37 DUP4 PUSH2 0x4955 JUMP JUMPDEST SWAP2 POP PUSH2 0x4ADC DUP3 PUSH2 0x4A75 JUMP JUMPDEST PUSH1 0x37 DUP3 ADD SWAP1 POP SWAP2 SWAP1 POP JUMP JUMPDEST PUSH32 0x227D2C207B2274726169745F74797065223A20226F776E6572222C202276616C PUSH1 0x0 DUP3 ADD MSTORE PUSH32 0x7565223A20220000000000000000000000000000000000000000000000000000 PUSH1 0x20 DUP3 ADD MSTORE POP JUMP JUMPDEST PUSH1 0x0 PUSH2 0x4B43 PUSH1 0x26 DUP4 PUSH2 0x4955 JUMP JUMPDEST SWAP2 POP PUSH2 0x4B4E DUP3 PUSH2 0x4AE7 JUMP JUMPDEST PUSH1 0x26 DUP3 ADD SWAP1 POP SWAP2 SWAP1 POP JUMP JUMPDEST PUSH32 0x227D5D2C2022696D616765223A22000000000000000000000000000000000000 PUSH1 0x0 DUP3 ADD MSTORE POP JUMP JUMPDEST PUSH1 0x0 PUSH2 0x4B8F PUSH1 0xE DUP4 PUSH2 0x4955 JUMP JUMPDEST SWAP2 POP PUSH2 0x4B9A DUP3 PUSH2 0x4B59 JUMP JUMPDEST PUSH1 0xE DUP3 ADD SWAP1 POP SWAP2 SWAP1 POP JUMP JUMPDEST PUSH32 0x227D000000000000000000000000000000000000000000000000000000000000 PUSH1 0x0 DUP3 ADD MSTORE POP JUMP JUMPDEST PUSH1 0x0 PUSH2 0x4BDB PUSH1 0x2 DUP4 PUSH2 0x4955 JUMP JUMPDEST SWAP2 POP PUSH2 0x4BE6 DUP3 PUSH2 0x4BA5 JUMP JUMPDEST PUSH1 0x2 DUP3 ADD SWAP1 POP SWAP2 SWAP1 POP JUMP JUMPDEST PUSH1 0x0 PUSH2 0x4BFC DUP3 PUSH2 0x4989 JUMP JUMPDEST SWAP2 POP PUSH2 0x4C08 DUP3 DUP8 PUSH2 0x49AC JUMP JUMPDEST SWAP2 POP PUSH2 0x4C13 DUP3 PUSH2 0x4A52 JUMP JUMPDEST SWAP2 POP PUSH2 0x4C1E DUP3 PUSH2 0x4AC4 JUMP JUMPDEST SWAP2 POP PUSH2 0x4C2A DUP3 DUP7 PUSH2 0x49AC JUMP JUMPDEST SWAP2 POP PUSH2 0x4C35 DUP3 PUSH2 0x4B36 JUMP JUMPDEST SWAP2 POP PUSH2 0x4C41 DUP3 DUP6 PUSH2 0x49AC JUMP JUMPDEST SWAP2 POP PUSH2 0x4C4C DUP3 PUSH2 0x4B82 JUMP JUMPDEST SWAP2 POP PUSH2 0x4C58 DUP3 DUP5 PUSH2 0x49AC JUMP JUMPDEST SWAP2 POP PUSH2 0x4C63 DUP3 PUSH2 0x4BCE JUMP JUMPDEST SWAP2 POP DUP2 SWAP1 POP SWAP6 SWAP5 POP POP POP POP POP JUMP JUMPDEST PUSH1 0x0 PUSH2 0x4C7D DUP3 DUP6 PUSH2 0x49AC JUMP JUMPDEST SWAP2 POP PUSH2 0x4C89 DUP3 DUP5 PUSH2 0x49AC JUMP JUMPDEST SWAP2 POP DUP2 SWAP1 POP SWAP4 SWAP3 POP POP POP JUMP JUMPDEST PUSH32 0x4E487B7100000000000000000000000000000000000000000000000000000000 PUSH1 0x0 MSTORE PUSH1 0x32 PUSH1 0x4 MSTORE PUSH1 0x24 PUSH1 0x0 REVERT JUMPDEST PUSH32 0x4E6F2067756573736573206D6164652079657400000000000000000000000000 PUSH1 0x0 DUP3 ADD MSTORE POP JUMP JUMPDEST PUSH1 0x0 PUSH2 0x4CFA PUSH1 0x13 DUP4 PUSH2 0x3679 JUMP JUMPDEST SWAP2 POP PUSH2 0x4D05 DUP3 PUSH2 0x4CC4 JUMP JUMPDEST PUSH1 0x20 DUP3 ADD SWAP1 POP SWAP2 SWAP1 POP JUMP JUMPDEST PUSH1 0x0 PUSH1 0x20 DUP3 ADD SWAP1 POP DUP2 DUP2 SUB PUSH1 0x0 DUP4 ADD MSTORE PUSH2 0x4D29 DUP2 PUSH2 0x4CED JUMP JUMPDEST SWAP1 POP SWAP2 SWAP1 POP JUMP JUMPDEST PUSH1 0x0 PUSH2 0x4D3B DUP3 PUSH2 0x356B JUMP JUMPDEST SWAP2 POP PUSH2 0x4D46 DUP4 PUSH2 0x356B JUMP JUMPDEST SWAP3 POP DUP3 DUP3 SUB SWAP1 POP DUP2 DUP2 GT ISZERO PUSH2 0x4D5E JUMPI PUSH2 0x4D5D PUSH2 0x48AA JUMP JUMPDEST JUMPDEST SWAP3 SWAP2 POP POP JUMP JUMPDEST PUSH1 0x0 PUSH2 0x4D6F DUP3 PUSH2 0x3841 JUMP JUMPDEST SWAP2 POP PUSH1 0xFF DUP3 SUB PUSH2 0x4D82 JUMPI PUSH2 0x4D81 PUSH2 0x48AA JUMP JUMPDEST JUMPDEST PUSH1 0x1 DUP3 ADD SWAP1 POP SWAP2 SWAP1 POP JUMP JUMPDEST PUSH1 0x0 DUP2 MLOAD SWAP1 POP SWAP2 SWAP1 POP JUMP JUMPDEST PUSH1 0x0 DUP3 DUP3 MSTORE PUSH1 0x20 DUP3 ADD SWAP1 POP SWAP3 SWAP2 POP POP JUMP JUMPDEST PUSH1 0x0 PUSH2 0x4DB4 DUP3 PUSH2 0x4D8D JUMP JUMPDEST PUSH2 0x4DBE DUP2 DUP6 PUSH2 0x4D98 JUMP JUMPDEST SWAP4 POP PUSH2 0x4DCE DUP2 DUP6 PUSH1 0x20 DUP7 ADD PUSH2 0x368A JUMP JUMPDEST PUSH2 0x4DD7 DUP2 PUSH2 0x36B4 JUMP JUMPDEST DUP5 ADD SWAP2 POP POP SWAP3 SWAP2 POP POP JUMP JUMPDEST PUSH1 0x0 PUSH1 0x80 DUP3 ADD SWAP1 POP PUSH2 0x4DF7 PUSH1 0x0 DUP4 ADD DUP8 PUSH2 0x37AB JUMP JUMPDEST PUSH2 0x4E04 PUSH1 0x20 DUP4 ADD DUP7 PUSH2 0x37AB JUMP JUMPDEST PUSH2 0x4E11 PUSH1 0x40 DUP4 ADD DUP6 PUSH2 0x3575 JUMP JUMPDEST DUP2 DUP2 SUB PUSH1 0x60 DUP4 ADD MSTORE PUSH2 0x4E23 DUP2 DUP5 PUSH2 0x4DA9 JUMP JUMPDEST SWAP1 POP SWAP6 SWAP5 POP POP POP POP POP JUMP JUMPDEST PUSH1 0x0 DUP2 MLOAD SWAP1 POP PUSH2 0x4E3D DUP2 PUSH2 0x35DF JUMP JUMPDEST SWAP3 SWAP2 POP POP JUMP JUMPDEST PUSH1 0x0 PUSH1 0x20 DUP3 DUP5 SUB SLT ISZERO PUSH2 0x4E59 JUMPI PUSH2 0x4E58 PUSH2 0x35A9 JUMP JUMPDEST JUMPDEST PUSH1 0x0 PUSH2 0x4E67 DUP5 DUP3 DUP6 ADD PUSH2 0x4E2E JUMP JUMPDEST SWAP2 POP POP SWAP3 SWAP2 POP POP JUMP JUMPDEST PUSH32 0x3C7376672077696474683D2233303022206865696768743D223330302220786D PUSH1 0x0 DUP3 ADD MSTORE PUSH32 0x6C6E733D22687474703A2F2F7777772E77332E6F72672F323030302F73766722 PUSH1 0x20 DUP3 ADD MSTORE PUSH32 0x3E00000000000000000000000000000000000000000000000000000000000000 PUSH1 0x40 DUP3 ADD MSTORE POP JUMP JUMPDEST PUSH1 0x0 PUSH2 0x4EF2 PUSH1 0x41 DUP4 PUSH2 0x4955 JUMP JUMPDEST SWAP2 POP PUSH2 0x4EFD DUP3 PUSH2 0x4E70 JUMP JUMPDEST PUSH1 0x41 DUP3 ADD SWAP1 POP SWAP2 SWAP1 POP JUMP JUMPDEST PUSH32 0x3C726563742077696474683D2233303022206865696768743D22333030222066 PUSH1 0x0 DUP3 ADD MSTORE PUSH32 0x696C6C3D2223336330613633222072783D223430222072793D22343022207374 PUSH1 0x20 DUP3 ADD MSTORE PUSH32 0x726F6B653D222366666437303022207374726F6B652D77696474683D22323022 PUSH1 0x40 DUP3 ADD MSTORE PUSH32 0x2F3E000000000000000000000000000000000000000000000000000000000000 PUSH1 0x60 DUP3 ADD MSTORE POP JUMP JUMPDEST PUSH1 0x0 PUSH2 0x4FB0 PUSH1 0x62 DUP4 PUSH2 0x4955 JUMP JUMPDEST SWAP2 POP PUSH2 0x4FBB DUP3 PUSH2 0x4F08 JUMP JUMPDEST PUSH1 0x62 DUP3 ADD SWAP1 POP SWAP2 SWAP1 POP JUMP JUMPDEST PUSH32 0x3C636972636C652063783D22313530222063793D2236302220723D2233302220 PUSH1 0x0 DUP3 ADD MSTORE PUSH32 0x66696C6C3D2223303063666666222F3E00000000000000000000000000000000 PUSH1 0x20 DUP3 ADD MSTORE POP JUMP JUMPDEST PUSH1 0x0 PUSH2 0x5022 PUSH1 0x30 DUP4 PUSH2 0x4955 JUMP JUMPDEST SWAP2 POP PUSH2 0x502D DUP3 PUSH2 0x4FC6 JUMP JUMPDEST PUSH1 0x30 DUP3 ADD SWAP1 POP SWAP2 SWAP1 POP JUMP JUMPDEST PUSH32 0x3C636972636C652063783D223630222063793D223135302220723D2233302220 PUSH1 0x0 DUP3 ADD MSTORE PUSH32 0x66696C6C3D2223303066663537222F3E00000000000000000000000000000000 PUSH1 0x20 DUP3 ADD MSTORE POP JUMP JUMPDEST PUSH1 0x0 PUSH2 0x5094 PUSH1 0x30 DUP4 PUSH2 0x4955 JUMP JUMPDEST SWAP2 POP PUSH2 0x509F DUP3 PUSH2 0x5038 JUMP JUMPDEST PUSH1 0x30 DUP3 ADD SWAP1 POP SWAP2 SWAP1 POP JUMP JUMPDEST PUSH32 0x3C636972636C652063783D22313530222063793D223234302220723D22333022 PUSH1 0x0 DUP3 ADD MSTORE PUSH32 0x2066696C6C3D2223666635633563222F3E000000000000000000000000000000 PUSH1 0x20 DUP3 ADD MSTORE POP JUMP JUMPDEST PUSH1 0x0 PUSH2 0x5106 PUSH1 0x31 DUP4 PUSH2 0x4955 JUMP JUMPDEST SWAP2 POP PUSH2 0x5111 DUP3 PUSH2 0x50AA JUMP JUMPDEST PUSH1 0x31 DUP3 ADD SWAP1 POP SWAP2 SWAP1 POP JUMP JUMPDEST PUSH32 0x3C636972636C652063783D22323430222063793D223135302220723D22333022 PUSH1 0x0 DUP3 ADD MSTORE PUSH32 0x2066696C6C3D2223623235636666222F3E000000000000000000000000000000 PUSH1 0x20 DUP3 ADD MSTORE POP JUMP JUMPDEST PUSH1 0x0 PUSH2 0x5178 PUSH1 0x31 DUP4 PUSH2 0x4955 JUMP JUMPDEST SWAP2 POP PUSH2 0x5183 DUP3 PUSH2 0x511C JUMP JUMPDEST PUSH1 0x31 DUP3 ADD SWAP1 POP SWAP2 SWAP1 POP JUMP JUMPDEST PUSH32 0x3C636972636C652063783D223630222063793D2236302220723D223330222066 PUSH1 0x0 DUP3 ADD MSTORE PUSH32 0x696C6C3D2223666639623030222F3E0000000000000000000000000000000000 PUSH1 0x20 DUP3 ADD MSTORE POP JUMP JUMPDEST PUSH1 0x0 PUSH2 0x51EA PUSH1 0x2F DUP4 PUSH2 0x4955 JUMP JUMPDEST SWAP2 POP PUSH2 0x51F5 DUP3 PUSH2 0x518E JUMP JUMPDEST PUSH1 0x2F DUP3 ADD SWAP1 POP SWAP2 SWAP1 POP JUMP JUMPDEST PUSH32 0x3C636972636C652063783D22323430222063793D2236302220723D2233302220 PUSH1 0x0 DUP3 ADD MSTORE PUSH32 0x66696C6C3D2223666635636632222F3E00000000000000000000000000000000 PUSH1 0x20 DUP3 ADD MSTORE POP JUMP JUMPDEST PUSH1 0x0 PUSH2 0x525C PUSH1 0x30 DUP4 PUSH2 0x4955 JUMP JUMPDEST SWAP2 POP PUSH2 0x5267 DUP3 PUSH2 0x5200 JUMP JUMPDEST PUSH1 0x30 DUP3 ADD SWAP1 POP SWAP2 SWAP1 POP JUMP JUMPDEST PUSH32 0x3C636972636C652063783D22323430222063793D223234302220723D22333022 PUSH1 0x0 DUP3 ADD MSTORE PUSH32 0x2066696C6C3D2223666639623030222F3E000000000000000000000000000000 PUSH1 0x20 DUP3 ADD MSTORE POP JUMP JUMPDEST PUSH1 0x0 PUSH2 0x52CE PUSH1 0x31 DUP4 PUSH2 0x4955 JUMP JUMPDEST SWAP2 POP PUSH2 0x52D9 DUP3 PUSH2 0x5272 JUMP JUMPDEST PUSH1 0x31 DUP3 ADD SWAP1 POP SWAP2 SWAP1 POP JUMP JUMPDEST PUSH32 0x3C636972636C652063783D223630222063793D223234302220723D2233302220 PUSH1 0x0 DUP3 ADD MSTORE PUSH32 0x66696C6C3D2223666663663030222F3E00000000000000000000000000000000 PUSH1 0x20 DUP3 ADD MSTORE POP JUMP JUMPDEST PUSH1 0x0 PUSH2 0x5340 PUSH1 0x30 DUP4 PUSH2 0x4955 JUMP JUMPDEST SWAP2 POP PUSH2 0x534B DUP3 PUSH2 0x52E4 JUMP JUMPDEST PUSH1 0x30 DUP3 ADD SWAP1 POP SWAP2 SWAP1 POP JUMP JUMPDEST PUSH32 0x3C7465787420783D223135302220793D223136352220666F6E742D66616D696C PUSH1 0x0 DUP3 ADD MSTORE PUSH32 0x793D22417269616C2220666F6E742D73697A653D223732222066696C6C3D2223 PUSH1 0x20 DUP3 ADD MSTORE PUSH32 0x6335363866662220746578742D616E63686F723D226D6964646C652220646F6D PUSH1 0x40 DUP3 ADD MSTORE PUSH32 0x696E616E742D626173656C696E653D226D6964646C65223E6D3C2F746578743E PUSH1 0x60 DUP3 ADD MSTORE POP JUMP JUMPDEST PUSH1 0x0 PUSH2 0x53FE PUSH1 0x80 DUP4 PUSH2 0x4955 JUMP JUMPDEST SWAP2 POP PUSH2 0x5409 DUP3 PUSH2 0x5356 JUMP JUMPDEST PUSH1 0x80 DUP3 ADD SWAP1 POP SWAP2 SWAP1 POP JUMP JUMPDEST PUSH32 0x3C7465787420783D2239302220793D223238302220666F6E742D66616D696C79 PUSH1 0x0 DUP3 ADD MSTORE PUSH32 0x3D22526F626F746F2220666F6E742D73697A653D223136222066696C6C3D2277 PUSH1 0x20 DUP3 ADD MSTORE PUSH32 0x68697465223E0000000000000000000000000000000000000000000000000000 PUSH1 0x40 DUP3 ADD MSTORE POP JUMP JUMPDEST PUSH1 0x0 PUSH2 0x5496 PUSH1 0x46 DUP4 PUSH2 0x4955 JUMP JUMPDEST SWAP2 POP PUSH2 0x54A1 DUP3 PUSH2 0x5414 JUMP JUMPDEST PUSH1 0x46 DUP3 ADD SWAP1 POP SWAP2 SWAP1 POP JUMP JUMPDEST PUSH32 0x47616D6520526573756C743A2000000000000000000000000000000000000000 PUSH1 0x0 DUP3 ADD MSTORE POP JUMP JUMPDEST PUSH1 0x0 PUSH2 0x54E2 PUSH1 0xD DUP4 PUSH2 0x4955 JUMP JUMPDEST SWAP2 POP PUSH2 0x54ED DUP3 PUSH2 0x54AC JUMP JUMPDEST PUSH1 0xD DUP3 ADD SWAP1 POP SWAP2 SWAP1 POP JUMP JUMPDEST PUSH32 0x3C2F746578743E00000000000000000000000000000000000000000000000000 PUSH1 0x0 DUP3 ADD MSTORE POP JUMP JUMPDEST PUSH1 0x0 PUSH2 0x552E PUSH1 0x7 DUP4 PUSH2 0x4955 JUMP JUMPDEST SWAP2 POP PUSH2 0x5539 DUP3 PUSH2 0x54F8 JUMP JUMPDEST PUSH1 0x7 DUP3 ADD SWAP1 POP SWAP2 SWAP1 POP JUMP JUMPDEST PUSH32 0x3C7465787420783D2239302220793D223239352220666F6E742D66616D696C79 PUSH1 0x0 DUP3 ADD MSTORE PUSH32 0x3D22526F626F746F2220666F6E742D73697A653D223136222066696C6C3D2277 PUSH1 0x20 DUP3 ADD MSTORE PUSH32 0x68697465223E0000000000000000000000000000000000000000000000000000 PUSH1 0x40 DUP3 ADD MSTORE POP JUMP JUMPDEST PUSH1 0x0 PUSH2 0x55C6 PUSH1 0x46 DUP4 PUSH2 0x4955 JUMP JUMPDEST SWAP2 POP PUSH2 0x55D1 DUP3 PUSH2 0x5544 JUMP JUMPDEST PUSH1 0x46 DUP3 ADD SWAP1 POP SWAP2 SWAP1 POP JUMP JUMPDEST PUSH32 0x546F6B656E2049443A2000000000000000000000000000000000000000000000 PUSH1 0x0 DUP3 ADD MSTORE POP JUMP JUMPDEST PUSH1 0x0 PUSH2 0x5612 PUSH1 0xA DUP4 PUSH2 0x4955 JUMP JUMPDEST SWAP2 POP PUSH2 0x561D DUP3 PUSH2 0x55DC JUMP JUMPDEST PUSH1 0xA DUP3 ADD SWAP1 POP SWAP2 SWAP1 POP JUMP JUMPDEST PUSH32 0x3C2F7376673E0000000000000000000000000000000000000000000000000000 PUSH1 0x0 DUP3 ADD MSTORE POP JUMP JUMPDEST PUSH1 0x0 PUSH2 0x565E PUSH1 0x6 DUP4 PUSH2 0x4955 JUMP JUMPDEST SWAP2 POP PUSH2 0x5669 DUP3 PUSH2 0x5628 JUMP JUMPDEST PUSH1 0x6 DUP3 ADD SWAP1 POP SWAP2 SWAP1 POP JUMP JUMPDEST PUSH1 0x0 PUSH2 0x567F DUP3 PUSH2 0x4EE5 JUMP JUMPDEST SWAP2 POP PUSH2 0x568A DUP3 PUSH2 0x4FA3 JUMP JUMPDEST SWAP2 POP PUSH2 0x5695 DUP3 PUSH2 0x5015 JUMP JUMPDEST SWAP2 POP PUSH2 0x56A0 DUP3 PUSH2 0x5087 JUMP JUMPDEST SWAP2 POP PUSH2 0x56AB DUP3 PUSH2 0x50F9 JUMP JUMPDEST SWAP2 POP PUSH2 0x56B6 DUP3 PUSH2 0x516B JUMP JUMPDEST SWAP2 POP PUSH2 0x56C1 DUP3 PUSH2 0x51DD JUMP JUMPDEST SWAP2 POP PUSH2 0x56CC DUP3 PUSH2 0x524F JUMP JUMPDEST SWAP2 POP PUSH2 0x56D7 DUP3 PUSH2 0x52C1 JUMP JUMPDEST SWAP2 POP PUSH2 0x56E2 DUP3 PUSH2 0x5333 JUMP JUMPDEST SWAP2 POP PUSH2 0x56ED DUP3 PUSH2 0x53F1 JUMP JUMPDEST SWAP2 POP PUSH2 0x56F8 DUP3 PUSH2 0x5489 JUMP JUMPDEST SWAP2 POP PUSH2 0x5703 DUP3 PUSH2 0x54D5 JUMP JUMPDEST SWAP2 POP PUSH2 0x570F DUP3 DUP6 PUSH2 0x49AC JUMP JUMPDEST SWAP2 POP PUSH2 0x571A DUP3 PUSH2 0x5521 JUMP JUMPDEST SWAP2 POP PUSH2 0x5725 DUP3 PUSH2 0x55B9 JUMP JUMPDEST SWAP2 POP PUSH2 0x5730 DUP3 PUSH2 0x5605 JUMP JUMPDEST SWAP2 POP PUSH2 0x573C DUP3 DUP5 PUSH2 0x49AC JUMP JUMPDEST SWAP2 POP PUSH2 0x5747 DUP3 PUSH2 0x5521 JUMP JUMPDEST SWAP2 POP PUSH2 0x5752 DUP3 PUSH2 0x5651 JUMP JUMPDEST SWAP2 POP DUP2 SWAP1 POP SWAP4 SWAP3 POP POP POP JUMP JUMPDEST PUSH32 0x646174613A696D6167652F7376672B786D6C3B6261736536342C000000000000 PUSH1 0x0 DUP3 ADD MSTORE POP JUMP JUMPDEST PUSH1 0x0 PUSH2 0x5794 PUSH1 0x1A DUP4 PUSH2 0x4955 JUMP JUMPDEST SWAP2 POP PUSH2 0x579F DUP3 PUSH2 0x575E JUMP JUMPDEST PUSH1 0x1A DUP3 ADD SWAP1 POP SWAP2 SWAP1 POP JUMP JUMPDEST PUSH1 0x0 PUSH2 0x57B5 DUP3 PUSH2 0x5787 JUMP JUMPDEST SWAP2 POP PUSH2 0x57C1 DUP3 DUP5 PUSH2 0x49AC JUMP JUMPDEST SWAP2 POP DUP2 SWAP1 POP SWAP3 SWAP2 POP POP JUMP JUMPDEST PUSH32 0x4E487B7100000000000000000000000000000000000000000000000000000000 PUSH1 0x0 MSTORE PUSH1 0x12 PUSH1 0x4 MSTORE PUSH1 0x24 PUSH1 0x0 REVERT JUMPDEST PUSH1 0x0 PUSH2 0x5806 DUP3 PUSH2 0x356B JUMP JUMPDEST SWAP2 POP PUSH2 0x5811 DUP4 PUSH2 0x356B JUMP JUMPDEST SWAP3 POP DUP3 PUSH2 0x5821 JUMPI PUSH2 0x5820 PUSH2 0x57CC JUMP JUMPDEST JUMPDEST DUP3 DUP3 MOD SWAP1 POP SWAP3 SWAP2 POP POP JUMP JUMPDEST PUSH1 0x0 PUSH2 0x5837 DUP3 PUSH2 0x356B JUMP JUMPDEST SWAP2 POP PUSH2 0x5842 DUP4 PUSH2 0x356B JUMP JUMPDEST SWAP3 POP DUP3 PUSH2 0x5852 JUMPI PUSH2 0x5851 PUSH2 0x57CC JUMP JUMPDEST JUMPDEST DUP3 DUP3 DIV SWAP1 POP SWAP3 SWAP2 POP POP JUMP JUMPDEST PUSH1 0x0 PUSH2 0x5868 DUP3 PUSH2 0x356B JUMP JUMPDEST SWAP2 POP PUSH2 0x5873 DUP4 PUSH2 0x356B JUMP JUMPDEST SWAP3 POP DUP3 DUP3 MUL PUSH2 0x5881 DUP2 PUSH2 0x356B JUMP JUMPDEST SWAP2 POP DUP3 DUP3 DIV DUP5 EQ DUP4 ISZERO OR PUSH2 0x5898 JUMPI PUSH2 0x5897 PUSH2 0x48AA JUMP JUMPDEST JUMPDEST POP SWAP3 SWAP2 POP POP JUMP JUMPDEST PUSH1 0x0 DUP2 PUSH1 0x1 SHR SWAP1 POP SWAP2 SWAP1 POP JUMP JUMPDEST PUSH1 0x0 DUP1 DUP3 SWAP2 POP DUP4 SWAP1 POP JUMPDEST PUSH1 0x1 DUP6 GT ISZERO PUSH2 0x58F6 JUMPI DUP1 DUP7 DIV DUP2 GT ISZERO PUSH2 0x58D2 JUMPI PUSH2 0x58D1 PUSH2 0x48AA JUMP JUMPDEST JUMPDEST PUSH1 0x1 DUP6 AND ISZERO PUSH2 0x58E1 JUMPI DUP1 DUP3 MUL SWAP2 POP JUMPDEST DUP1 DUP2 MUL SWAP1 POP PUSH2 0x58EF DUP6 PUSH2 0x589F JUMP JUMPDEST SWAP5 POP PUSH2 0x58B6 JUMP JUMPDEST SWAP5 POP SWAP5 SWAP3 POP POP POP JUMP JUMPDEST PUSH1 0x0 DUP3 PUSH2 0x590F JUMPI PUSH1 0x1 SWAP1 POP PUSH2 0x59CB JUMP JUMPDEST DUP2 PUSH2 0x591D JUMPI PUSH1 0x0 SWAP1 POP PUSH2 0x59CB JUMP JUMPDEST DUP2 PUSH1 0x1 DUP2 EQ PUSH2 0x5933 JUMPI PUSH1 0x2 DUP2 EQ PUSH2 0x593D JUMPI PUSH2 0x596C JUMP JUMPDEST PUSH1 0x1 SWAP2 POP POP PUSH2 0x59CB JUMP JUMPDEST PUSH1 0xFF DUP5 GT ISZERO PUSH2 0x594F JUMPI PUSH2 0x594E PUSH2 0x48AA JUMP JUMPDEST JUMPDEST DUP4 PUSH1 0x2 EXP SWAP2 POP DUP5 DUP3 GT ISZERO PUSH2 0x5966 JUMPI PUSH2 0x5965 PUSH2 0x48AA JUMP JUMPDEST JUMPDEST POP PUSH2 0x59CB JUMP JUMPDEST POP PUSH1 0x20 DUP4 LT PUSH2 0x133 DUP4 LT AND PUSH1 0x4E DUP5 LT PUSH1 0xB DUP5 LT AND OR ISZERO PUSH2 0x59A1 JUMPI DUP3 DUP3 EXP SWAP1 POP DUP4 DUP2 GT ISZERO PUSH2 0x599C JUMPI PUSH2 0x599B PUSH2 0x48AA JUMP JUMPDEST JUMPDEST PUSH2 0x59CB JUMP JUMPDEST PUSH2 0x59AE DUP5 DUP5 DUP5 PUSH1 0x1 PUSH2 0x58AC JUMP JUMPDEST SWAP3 POP SWAP1 POP DUP2 DUP5 DIV DUP2 GT ISZERO PUSH2 0x59C5 JUMPI PUSH2 0x59C4 PUSH2 0x48AA JUMP JUMPDEST JUMPDEST DUP2 DUP2 MUL SWAP1 POP JUMPDEST SWAP4 SWAP3 POP POP POP JUMP JUMPDEST PUSH1 0x0 PUSH2 0x59DD DUP3 PUSH2 0x356B JUMP JUMPDEST SWAP2 POP PUSH2 0x59E8 DUP4 PUSH2 0x356B JUMP JUMPDEST SWAP3 POP PUSH2 0x5A15 PUSH32 0xFFFFFFFFFFFFFFFFFFFFFFFFFFFFFFFFFFFFFFFFFFFFFFFFFFFFFFFFFFFFFFFF DUP5 DUP5 PUSH2 0x58FF JUMP JUMPDEST SWAP1 POP SWAP3 SWAP2 POP POP JUMP JUMPDEST PUSH1 0x0 PUSH2 0x5A28 DUP3 PUSH2 0x3841 JUMP JUMPDEST SWAP2 POP PUSH2 0x5A33 DUP4 PUSH2 0x3841 JUMP JUMPDEST SWAP3 POP DUP3 PUSH2 0x5A43 JUMPI PUSH2 0x5A42 PUSH2 0x57CC JUMP JUMPDEST JUMPDEST DUP3 DUP3 DIV SWAP1 POP SWAP3 SWAP2 POP POP JUMP JUMPDEST PUSH1 0x0 PUSH2 0x5A59 DUP3 PUSH2 0x3841 JUMP JUMPDEST SWAP2 POP PUSH2 0x5A64 DUP4 PUSH2 0x3841 JUMP JUMPDEST SWAP3 POP DUP3 DUP3 MUL PUSH2 0x5A72 DUP2 PUSH2 0x3841 JUMP JUMPDEST SWAP2 POP DUP1 DUP3 EQ PUSH2 0x5A84 JUMPI PUSH2 0x5A83 PUSH2 0x48AA JUMP JUMPDEST JUMPDEST POP SWAP3 SWAP2 POP POP JUMP JUMPDEST PUSH1 0x0 PUSH2 0x5A96 DUP3 PUSH2 0x3841 JUMP JUMPDEST SWAP2 POP PUSH2 0x5AA1 DUP4 PUSH2 0x3841 JUMP JUMPDEST SWAP3 POP DUP3 DUP3 SUB SWAP1 POP PUSH1 0xFF DUP2 GT ISZERO PUSH2 0x5ABA JUMPI PUSH2 0x5AB9 PUSH2 0x48AA JUMP JUMPDEST JUMPDEST SWAP3 SWAP2 POP POP JUMP JUMPDEST PUSH1 0x0 PUSH1 0x40 DUP3 ADD SWAP1 POP PUSH2 0x5AD5 PUSH1 0x0 DUP4 ADD DUP6 PUSH2 0x37AB JUMP JUMPDEST PUSH2 0x5AE2 PUSH1 0x20 DUP4 ADD DUP5 PUSH2 0x3575 JUMP JUMPDEST SWAP4 SWAP3 POP POP POP JUMP JUMPDEST PUSH1 0x0 PUSH2 0x5AF4 DUP3 PUSH2 0x3841 JUMP JUMPDEST SWAP2 POP PUSH2 0x5AFF DUP4 PUSH2 0x3841 JUMP JUMPDEST SWAP3 POP DUP3 DUP3 ADD SWAP1 POP PUSH1 0xFF DUP2 GT ISZERO PUSH2 0x5B18 JUMPI PUSH2 0x5B17 PUSH2 0x48AA JUMP JUMPDEST JUMPDEST SWAP3 SWAP2 POP POP JUMP INVALID COINBASE TIMESTAMP NUMBER PREVRANDAO GASLIMIT CHAINID SELFBALANCE BASEFEE BLOBHASH BLOBBASEFEE 0x4B 0x4C 0x4D 0x4E 0x4F POP MLOAD MSTORE MSTORE8 SLOAD SSTORE JUMP JUMPI PC MSIZE GAS PUSH2 0x6263 PUSH5 0x6566676869 PUSH11 0x6B6C6D6E6F707172737475 PUSH23 0x7778797A303132333435363738392B2FA2646970667358 0x22 SLT KECCAK256 LOG1 0xB5 0xB5 DUP13 0xB3 0xB0 MULMOD 0xEA 0xE0 MLOAD PUSH26 0x478826068CC2F2780759A6116E64ACBCA3CA7CC7364736F6C63 NUMBER STOP ADDMOD XOR STOP CALLER "},"methodIdentifiers":{"approve(address,uint256)":"095ea7b3","balanceOf(address)":"70a08231","codebreaker()":"0e5c05f1","codemaker()":"50633fa7","gameActive()":"f020044f","gameStatus()":"722fed7e","getAllFeedback()":"d3b68664","getApproved(uint256)":"081812fc","getBreakerScore()":"801db33d","getGuesses()":"797642db","getGuessesCodes()":"f0d4e2db","getLatestFeedback()":"db1329d5","getMakerScore()":"29b817c8","getSecret()":"5b9fdc30","guessCount()":"c68a9fe4","guesses(uint256)":"1f491389","isApprovedForAll(address,address)":"e985e9c5","makeGuess(uint8[])":"a42dc7b7","name()":"06fdde03","ownerOf(uint256)":"6352211e","safeTransferFrom(address,address,uint256)":"42842e0e","safeTransferFrom(address,address,uint256,bytes)":"b88d4fde","scoreCodebreaker()":"c0e361d2","scoreCodemaker()":"011d7ab2","setApprovalForAll(address,bool)":"a22cb465","setCodebreaker()":"84894606","setCodemaker()":"8e5cd8e9","startGame(uint8[])":"276d2121","supportsInterface(bytes4)":"01ffc9a7","symbol()":"95d89b41","tokenURI(uint256)":"c87b56dd","transferFrom(address,address,uint256)":"23b872dd"}}}}}