{"contracts/Mastermind.sol":{"Mastermind":{"abi":[{"inputs":[],"stateMutability":"nonpayable","type":"constructor"},{"inputs":[{"internalType":"address","name":"sender","type":"address"},{"internalType":"uint256","name":"tokenId","type":"uint256"},{"internalType":"address","name":"owner","type":"address"}],"name":"ERC721IncorrectOwner","type":"error"},{"inputs":[{"internalType":"address","name":"operator","type":"address"},{"internalType":"uint256","name":"tokenId","type":"uint256"}],"name":"ERC721InsufficientApproval","type":"error"},{"inputs":[{"internalType":"address","name":"approver","type":"address"}],"name":"ERC721InvalidApprover","type":"error"},{"inputs":[{"internalType":"address","name":"operator","type":"address"}],"name":"ERC721InvalidOperator","type":"error"},{"inputs":[{"internalType":"address","name":"owner","type":"address"}],"name":"ERC721InvalidOwner","type":"error"},{"inputs":[{"internalType":"address","name":"receiver","type":"address"}],"name":"ERC721InvalidReceiver","type":"error"},{"inputs":[{"internalType":"address","name":"sender","type":"address"}],"name":"ERC721InvalidSender","type":"error"},{"inputs":[{"internalType":"uint256","name":"tokenId","type":"uint256"}],"name":"ERC721NonexistentToken","type":"error"},{"anonymous":false,"inputs":[{"indexed":true,"internalType":"address","name":"owner","type":"address"},{"indexed":true,"internalType":"address","name":"approved","type":"address"},{"indexed":true,"internalType":"uint256","name":"tokenId","type":"uint256"}],"name":"Approval","type":"event"},{"anonymous":false,"inputs":[{"indexed":true,"internalType":"address","name":"owner","type":"address"},{"indexed":true,"internalType":"address","name":"operator","type":"address"},{"indexed":false,"internalType":"bool","name":"approved","type":"bool"}],"name":"ApprovalForAll","type":"event"},{"anonymous":false,"inputs":[{"indexed":true,"internalType":"address","name":"codebreaker","type":"address"},{"indexed":false,"internalType":"uint256","name":"timestamp","type":"uint256"}],"name":"CodebreakerSet","type":"event"},{"anonymous":false,"inputs":[{"indexed":true,"internalType":"address","name":"codemaker","type":"address"},{"indexed":false,"internalType":"uint256","name":"timestamp","type":"uint256"}],"name":"CodemakerSet","type":"event"},{"anonymous":false,"inputs":[{"indexed":true,"internalType":"address","name":"winner","type":"address"},{"indexed":false,"internalType":"uint256","name":"timestamp","type":"uint256"}],"name":"GameEnded","type":"event"},{"anonymous":false,"inputs":[{"indexed":true,"internalType":"address","name":"codemaker","type":"address"},{"indexed":false,"internalType":"uint256","name":"timestamp","type":"uint256"}],"name":"GameStarted","type":"event"},{"anonymous":false,"inputs":[{"indexed":false,"internalType":"enum Mastermind.GameStatus","name":"status","type":"uint8"},{"indexed":false,"internalType":"uint256","name":"timestamp","type":"uint256"}],"name":"GameStatusChanged","type":"event"},{"anonymous":false,"inputs":[{"indexed":true,"internalType":"address","name":"codebreaker","type":"address"},{"indexed":false,"internalType":"uint8[]","name":"guess","type":"uint8[]"},{"indexed":false,"internalType":"uint8","name":"blackPegs","type":"uint8"},{"indexed":false,"internalType":"uint8","name":"whitePegs","type":"uint8"},{"indexed":false,"internalType":"bool","name":"correct","type":"bool"},{"indexed":false,"internalType":"uint256","name":"timestamp","type":"uint256"}],"name":"GuessMade","type":"event"},{"anonymous":false,"inputs":[{"indexed":false,"internalType":"uint256","name":"scoreCodebreaker","type":"uint256"},{"indexed":false,"internalType":"uint256","name":"scoreCodemaker","type":"uint256"},{"indexed":false,"internalType":"uint256","name":"timestamp","type":"uint256"}],"name":"ScoreUpdated","type":"event"},{"anonymous":false,"inputs":[{"indexed":true,"internalType":"address","name":"from","type":"address"},{"indexed":true,"internalType":"address","name":"to","type":"address"},{"indexed":true,"internalType":"uint256","name":"tokenId","type":"uint256"}],"name":"Transfer","type":"event"},{"inputs":[{"internalType":"address","name":"to","type":"address"},{"internalType":"uint256","name":"tokenId","type":"uint256"}],"name":"approve","outputs":[],"stateMutability":"nonpayable","type":"function"},{"inputs":[{"internalType":"address","name":"owner","type":"address"}],"name":"balanceOf","outputs":[{"internalType":"uint256","name":"","type":"uint256"}],"stateMutability":"view","type":"function"},{"inputs":[],"name":"codebreaker","outputs":[{"internalType":"address","name":"","type":"address"}],"stateMutability":"view","type":"function"},{"inputs":[],"name":"codemaker","outputs":[{"internalType":"address","name":"","type":"address"}],"stateMutability":"view","type":"function"},{"inputs":[],"name":"gameActive","outputs":[{"internalType":"bool","name":"","type":"bool"}],"stateMutability":"view","type":"function"},{"inputs":[],"name":"gameStatus","outputs":[{"internalType":"enum Mastermind.GameStatus","name":"","type":"uint8"}],"stateMutability":"view","type":"function"},{"inputs":[{"internalType":"uint256","name":"tokenId","type":"uint256"}],"name":"getApproved","outputs":[{"internalType":"address","name":"","type":"address"}],"stateMutability":"view","type":"function"},{"inputs":[],"name":"getBreakerScore","outputs":[{"internalType":"uint256","name":"","type":"uint256"}],"stateMutability":"view","type":"function"},{"inputs":[],"name":"getGuesses","outputs":[{"components":[{"internalType":"uint8[]","name":"code","type":"uint8[]"},{"internalType":"uint8","name":"blackPegs","type":"uint8"},{"internalType":"uint8","name":"whitePegs","type":"uint8"},{"internalType":"bool","name":"correct","type":"bool"}],"internalType":"struct Mastermind.Guess[]","name":"","type":"tuple[]"}],"stateMutability":"view","type":"function"},{"inputs":[],"name":"getMakerScore","outputs":[{"internalType":"uint256","name":"","type":"uint256"}],"stateMutability":"view","type":"function"},{"inputs":[],"name":"guessCount","outputs":[{"internalType":"uint256","name":"","type":"uint256"}],"stateMutability":"view","type":"function"},{"inputs":[{"internalType":"uint256","name":"","type":"uint256"}],"name":"guesses","outputs":[{"internalType":"uint8","name":"blackPegs","type":"uint8"},{"internalType":"uint8","name":"whitePegs","type":"uint8"},{"internalType":"bool","name":"correct","type":"bool"}],"stateMutability":"view","type":"function"},{"inputs":[{"internalType":"address","name":"owner","type":"address"},{"internalType":"address","name":"operator","type":"address"}],"name":"isApprovedForAll","outputs":[{"internalType":"bool","name":"","type":"bool"}],"stateMutability":"view","type":"function"},{"inputs":[{"internalType":"uint8[]","name":"_guess","type":"uint8[]"}],"name":"makeGuess","outputs":[],"stateMutability":"nonpayable","type":"function"},{"inputs":[],"name":"name","outputs":[{"internalType":"string","name":"","type":"string"}],"stateMutability":"view","type":"function"},{"inputs":[{"internalType":"uint256","name":"tokenId","type":"uint256"}],"name":"ownerOf","outputs":[{"internalType":"address","name":"","type":"address"}],"stateMutability":"view","type":"function"},{"inputs":[{"internalType":"address","name":"from","type":"address"},{"internalType":"address","name":"to","type":"address"},{"internalType":"uint256","name":"tokenId","type":"uint256"}],"name":"safeTransferFrom","outputs":[],"stateMutability":"nonpayable","type":"function"},{"inputs":[{"internalType":"address","name":"from","type":"address"},{"internalType":"address","name":"to","type":"address"},{"internalType":"uint256","name":"tokenId","type":"uint256"},{"internalType":"bytes","name":"data","type":"bytes"}],"name":"safeTransferFrom","outputs":[],"stateMutability":"nonpayable","type":"function"},{"inputs":[],"name":"scoreCodebreaker","outputs":[{"internalType":"uint256","name":"","type":"uint256"}],"stateMutability":"view","type":"function"},{"inputs":[],"name":"scoreCodemaker","outputs":[{"internalType":"uint256","name":"","type":"uint256"}],"stateMutability":"view","type":"function"},{"inputs":[{"internalType":"address","name":"operator","type":"address"},{"internalType":"bool","name":"approved","type":"bool"}],"name":"setApprovalForAll","outputs":[],"stateMutability":"nonpayable","type":"function"},{"inputs":[],"name":"setCodebreaker","outputs":[],"stateMutability":"nonpayable","type":"function"},{"inputs":[],"name":"setCodemaker","outputs":[],"stateMutability":"nonpayable","type":"function"},{"inputs":[{"internalType":"uint8[]","name":"_secretCode","type":"uint8[]"}],"name":"startGame","outputs":[],"stateMutability":"nonpayable","type":"function"},{"inputs":[{"internalType":"bytes4","name":"interfaceId","type":"bytes4"}],"name":"supportsInterface","outputs":[{"internalType":"bool","name":"","type":"bool"}],"stateMutability":"view","type":"function"},{"inputs":[],"name":"symbol","outputs":[{"internalType":"string","name":"","type":"string"}],"stateMutability":"view","type":"function"},{"inputs":[{"internalType":"uint256","name":"tokenId","type":"uint256"}],"name":"tokenURI","outputs":[{"internalType":"string","name":"","type":"string"}],"stateMutability":"view","type":"function"},{"inputs":[{"internalType":"address","name":"from","type":"address"},{"internalType":"address","name":"to","type":"address"},{"internalType":"uint256","name":"tokenId","type":"uint256"}],"name":"transferFrom","outputs":[],"stateMutability":"nonpayable","type":"function"}],"evm":{"bytecode":{"linkReferences":{},"object":"60806040523480156200001157600080fd5b506040518060400160405280600a81526020017f4d61737465724d696e64000000000000000000000000000000000000000000008152506040518060400160405280600381526020017f4d534d000000000000000000000000000000000000000000000000000000000081525081600090816200008f919062000380565b508060019081620000a1919062000380565b50505033600760006101000a81548173ffffffffffffffffffffffffffffffffffffffff021916908373ffffffffffffffffffffffffffffffffffffffff1602179055506000600c60006101000a81548160ff02191690831515021790555062000467565b600081519050919050565b7f4e487b7100000000000000000000000000000000000000000000000000000000600052604160045260246000fd5b7f4e487b7100000000000000000000000000000000000000000000000000000000600052602260045260246000fd5b600060028204905060018216806200018857607f821691505b6020821081036200019e576200019d62000140565b5b50919050565b60008190508160005260206000209050919050565b60006020601f8301049050919050565b600082821b905092915050565b600060088302620002087fffffffffffffffffffffffffffffffffffffffffffffffffffffffffffffffff82620001c9565b620002148683620001c9565b95508019841693508086168417925050509392505050565b6000819050919050565b6000819050919050565b6000620002616200025b62000255846200022c565b62000236565b6200022c565b9050919050565b6000819050919050565b6200027d8362000240565b620002956200028c8262000268565b848454620001d6565b825550505050565b600090565b620002ac6200029d565b620002b981848462000272565b505050565b5b81811015620002e157620002d5600082620002a2565b600181019050620002bf565b5050565b601f8211156200033057620002fa81620001a4565b6200030584620001b9565b8101602085101562000315578190505b6200032d6200032485620001b9565b830182620002be565b50505b505050565b600082821c905092915050565b6000620003556000198460080262000335565b1980831691505092915050565b600062000370838362000342565b9150826002028217905092915050565b6200038b8262000106565b67ffffffffffffffff811115620003a757620003a662000111565b5b620003b382546200016f565b620003c0828285620002e5565b600060209050601f831160018114620003f85760008415620003e3578287015190505b620003ef858262000362565b8655506200045f565b601f1984166200040886620001a4565b60005b8281101562000432578489015182556001820191506020850194506020810190506200040b565b868310156200045257848901516200044e601f89168262000342565b8355505b6001600288020188555050505b505050505050565b6156de80620004776000396000f3fe608060405234801561001057600080fd5b50600436106101c45760003560e01c8063722fed7e116100f9578063a42dc7b711610097578063c68a9fe411610071578063c68a9fe4146104bf578063c87b56dd146104dd578063e985e9c51461050d578063f020044f1461053d576101c4565b8063a42dc7b714610469578063b88d4fde14610485578063c0e361d2146104a1576101c4565b806384894606116100d3578063848946061461041b5780638e5cd8e91461042557806395d89b411461042f578063a22cb4651461044d576101c4565b8063722fed7e146103c1578063797642db146103df578063801db33d146103fd576101c4565b806323b872dd1161016657806342842e0e1161014057806342842e0e1461032757806350633fa7146103435780636352211e1461036157806370a0823114610391576101c4565b806323b872dd146102d1578063276d2121146102ed57806329b817c814610309576101c4565b8063081812fc116101a2578063081812fc14610235578063095ea7b3146102655780630e5c05f1146102815780631f4913891461029f576101c4565b8063011d7ab2146101c957806301ffc9a7146101e757806306fdde0314610217575b600080fd5b6101d161055b565b6040516101de9190612e49565b60405180910390f35b61020160048036038101906101fc9190612ed0565b610561565b60405161020e9190612f18565b60405180910390f35b61021f610643565b60405161022c9190612fc3565b60405180910390f35b61024f600480360381019061024a9190613011565b6106d5565b60405161025c919061307f565b60405180910390f35b61027f600480360381019061027a91906130c6565b6106f1565b005b610289610707565b604051610296919061307f565b60405180910390f35b6102b960048036038101906102b49190613011565b61072d565b6040516102c893929190613122565b60405180910390f35b6102eb60048036038101906102e69190613159565b61078e565b005b61030760048036038101906103029190613320565b610890565b005b610311610ba2565b60405161031e9190612e49565b60405180910390f35b610341600480360381019061033c9190613159565b610bac565b005b61034b610bcc565b604051610358919061307f565b60405180910390f35b61037b60048036038101906103769190613011565b610bf2565b604051610388919061307f565b60405180910390f35b6103ab60048036038101906103a69190613369565b610c04565b6040516103b89190612e49565b60405180910390f35b6103c9610cbe565b6040516103d6919061340d565b60405180910390f35b6103e7610cd1565b6040516103f4919061361a565b60405180910390f35b610405610e03565b6040516104129190612e49565b60405180910390f35b610423610e0d565b005b61042d610f10565b005b610437611013565b6040516104449190612fc3565b60405180910390f35b61046760048036038101906104629190613668565b6110a5565b005b610483600480360381019061047e9190613320565b6110bb565b005b61049f600480360381019061049a919061375d565b611705565b005b6104a9611722565b6040516104b69190612e49565b60405180910390f35b6104c7611728565b6040516104d49190612e49565b60405180910390f35b6104f760048036038101906104f29190613011565b61172e565b6040516105049190612fc3565b60405180910390f35b610527600480360381019061052291906137e0565b611872565b6040516105349190612f18565b60405180910390f35b610545611906565b6040516105529190612f18565b60405180910390f35b600f5481565b60007f80ac58cd000000000000000000000000000000000000000000000000000000007bffffffffffffffffffffffffffffffffffffffffffffffffffffffff1916827bffffffffffffffffffffffffffffffffffffffffffffffffffffffff1916148061062c57507f5b5e139f000000000000000000000000000000000000000000000000000000007bffffffffffffffffffffffffffffffffffffffffffffffffffffffff1916827bffffffffffffffffffffffffffffffffffffffffffffffffffffffff1916145b8061063c575061063b82611919565b5b9050919050565b6060600080546106529061384f565b80601f016020809104026020016040519081016040528092919081815260200182805461067e9061384f565b80156106cb5780601f106106a0576101008083540402835291602001916106cb565b820191906000526020600020905b8154815290600101906020018083116106ae57829003601f168201915b5050505050905090565b60006106e082611983565b506106ea82611a0b565b9050919050565b61070382826106fe611a48565b611a50565b5050565b600860009054906101000a900473ffffffffffffffffffffffffffffffffffffffff1681565b600d818154811061073d57600080fd5b90600052602060002090600202016000915090508060010160009054906101000a900460ff16908060010160019054906101000a900460ff16908060010160029054906101000a900460ff16905083565b600073ffffffffffffffffffffffffffffffffffffffff168273ffffffffffffffffffffffffffffffffffffffff16036108005760006040517f64a0ae920000000000000000000000000000000000000000000000000000000081526004016107f7919061307f565b60405180910390fd5b6000610814838361080f611a48565b611a62565b90508373ffffffffffffffffffffffffffffffffffffffff168173ffffffffffffffffffffffffffffffffffffffff161461088a578382826040517f64283d7b00000000000000000000000000000000000000000000000000000000815260040161088193929190613880565b60405180910390fd5b50505050565b600760009054906101000a900473ffffffffffffffffffffffffffffffffffffffff1673ffffffffffffffffffffffffffffffffffffffff163373ffffffffffffffffffffffffffffffffffffffff1614610920576040517f08c379a000000000000000000000000000000000000000000000000000000000815260040161091790613929565b60405180910390fd5b600073ffffffffffffffffffffffffffffffffffffffff16600860009054906101000a900473ffffffffffffffffffffffffffffffffffffffff1673ffffffffffffffffffffffffffffffffffffffff16036109b1576040517f08c379a00000000000000000000000000000000000000000000000000000000081526004016109a890613995565b60405180910390fd5b600460ff168151146109f8576040517f08c379a00000000000000000000000000000000000000000000000000000000081526004016109ef90613a27565b60405180910390fd5b80600a9080519060200190610a0e929190612c9b565b5080604051602001610a209190613ad7565b604051602081830303815290604052805190602001206009819055506000600b81905550600d6000610a529190612d42565b6001600c60006101000a81548160ff0219169083151502179055506000600c60016101000a81548160ff02191690836002811115610a9357610a92613396565b5b02179055506000600e819055506000600f81905550600760009054906101000a900473ffffffffffffffffffffffffffffffffffffffff1673ffffffffffffffffffffffffffffffffffffffff167fea32a03505fd9f04d664676d72295a86c5fb0465e69654751907ca305bc1d1c742604051610b109190612e49565b60405180910390a27fafcf3201aa5a8b6350cd7e42802f62089c82cf3e88f4ef6d7a1cabd94763d8d9600c60019054906101000a900460ff1642604051610b58929190613aee565b60405180910390a17fb2383e82269e758b9ec0fc961ac69cecc166570a12068c11b3f9cf29c8de9e88600e54600f5442604051610b9793929190613b17565b60405180910390a150565b6000600f54905090565b610bc783838360405180602001604052806000815250611705565b505050565b600760009054906101000a900473ffffffffffffffffffffffffffffffffffffffff1681565b6000610bfd82611983565b9050919050565b60008073ffffffffffffffffffffffffffffffffffffffff168273ffffffffffffffffffffffffffffffffffffffff1603610c775760006040517f89c62b64000000000000000000000000000000000000000000000000000000008152600401610c6e919061307f565b60405180910390fd5b600360008373ffffffffffffffffffffffffffffffffffffffff1673ffffffffffffffffffffffffffffffffffffffff168152602001908152602001600020549050919050565b600c60019054906101000a900460ff1681565b6060600d805480602002602001604051908101604052809291908181526020016000905b82821015610dfa578382906000526020600020906002020160405180608001604052908160008201805480602002602001604051908101604052809291908181526020018280548015610d8d57602002820191906000526020600020906000905b82829054906101000a900460ff1660ff1681526020019060010190602082600001049283019260010382029150808411610d565790505b505050505081526020016001820160009054906101000a900460ff1660ff1660ff1681526020016001820160019054906101000a900460ff1660ff1660ff1681526020016001820160029054906101000a900460ff16151515158152505081526020019060010190610cf5565b50505050905090565b6000600e54905090565b600c60009054906101000a900460ff1615610e5d576040517f08c379a0000000000000000000000000000000000000000000000000000000008152600401610e5490613b9a565b60405180910390fd5b33600860006101000a81548173ffffffffffffffffffffffffffffffffffffffff021916908373ffffffffffffffffffffffffffffffffffffffff160217905550600860009054906101000a900473ffffffffffffffffffffffffffffffffffffffff1673ffffffffffffffffffffffffffffffffffffffff167fe030cca42591fdc0fe1e7a7cc3892f5f6d13aaa3aebcafa2563c78df1b9de25142604051610f069190612e49565b60405180910390a2565b600c60009054906101000a900460ff1615610f60576040517f08c379a0000000000000000000000000000000000000000000000000000000008152600401610f5790613b9a565b60405180910390fd5b33600760006101000a81548173ffffffffffffffffffffffffffffffffffffffff021916908373ffffffffffffffffffffffffffffffffffffffff160217905550600760009054906101000a900473ffffffffffffffffffffffffffffffffffffffff1673ffffffffffffffffffffffffffffffffffffffff167f65bd3084c68c3b9e4a26f0857a1c9a69285e55ded79629480351f98856f096a2426040516110099190612e49565b60405180910390a2565b6060600180546110229061384f565b80601f016020809104026020016040519081016040528092919081815260200182805461104e9061384f565b801561109b5780601f106110705761010080835404028352916020019161109b565b820191906000526020600020905b81548152906001019060200180831161107e57829003601f168201915b5050505050905090565b6110b76110b0611a48565b8383611c7c565b5050565b600860009054906101000a900473ffffffffffffffffffffffffffffffffffffffff1673ffffffffffffffffffffffffffffffffffffffff163373ffffffffffffffffffffffffffffffffffffffff161461114b576040517f08c379a000000000000000000000000000000000000000000000000000000000815260040161114290613c2c565b60405180910390fd5b600c60009054906101000a900460ff1661119a576040517f08c379a000000000000000000000000000000000000000000000000000000000815260040161119190613c98565b60405180910390fd5b600460ff168151146111e1576040517f08c379a00000000000000000000000000000000000000000000000000000000081526004016111d890613d04565b60405180910390fd5b600a60ff16600b5410611229576040517f08c379a000000000000000000000000000000000000000000000000000000000815260040161122090613d96565b60405180910390fd5b60008061123583611deb565b915091506000600460ff168360ff16149050600d60405180608001604052808681526020018560ff1681526020018460ff168152602001831515815250908060018154018082558091505060019003906000526020600020906002020160009091909190915060008201518160000190805190602001906112b7929190612c9b565b5060208201518160010160006101000a81548160ff021916908360ff16021790555060408201518160010160016101000a81548160ff021916908360ff16021790555060608201518160010160026101000a81548160ff0219169083151502179055505050600860009054906101000a900473ffffffffffffffffffffffffffffffffffffffff1673ffffffffffffffffffffffffffffffffffffffff167f0b733e8664b442058353db00385a5c6640f039b74589925d748092f1d1b6baad858585854260405161138c959493929190613e25565b60405180910390a2801561153c576000600c60006101000a81548160ff0219169083151502179055506001600c60016101000a81548160ff021916908360028111156113db576113da613396565b5b0217905550612710600e60008282546113f49190613eae565b925050819055506114056006612012565b60006114116006612028565b905061143f600860009054906101000a900473ffffffffffffffffffffffffffffffffffffffff1682612036565b7fafcf3201aa5a8b6350cd7e42802f62089c82cf3e88f4ef6d7a1cabd94763d8d9600c60019054906101000a900460ff164260405161147f929190613aee565b60405180910390a1600860009054906101000a900473ffffffffffffffffffffffffffffffffffffffff1673ffffffffffffffffffffffffffffffffffffffff167fd4ba6fec82d9b0e8ffe50b9fed9e4be3b25c984ce1e0e016405a5528726e8a2c426040516114ef9190612e49565b60405180910390a27fb2383e82269e758b9ec0fc961ac69cecc166570a12068c11b3f9cf29c8de9e88600e54600f544260405161152e93929190613b17565b60405180910390a1506116ff565b6064600f600082825461154f9190613eae565b92505081905550600b600081548092919061156990613ee2565b9190505550600a60ff16600b54106116fe576000600c60006101000a81548160ff0219169083151502179055506002600c60016101000a81548160ff021916908360028111156115bc576115bb613396565b5b02179055506115cb6006612012565b60006115d76006612028565b9050611605600760009054906101000a900473ffffffffffffffffffffffffffffffffffffffff1682612036565b7fafcf3201aa5a8b6350cd7e42802f62089c82cf3e88f4ef6d7a1cabd94763d8d9600c60019054906101000a900460ff1642604051611645929190613aee565b60405180910390a1600760009054906101000a900473ffffffffffffffffffffffffffffffffffffffff1673ffffffffffffffffffffffffffffffffffffffff167fd4ba6fec82d9b0e8ffe50b9fed9e4be3b25c984ce1e0e016405a5528726e8a2c426040516116b59190612e49565b60405180910390a27fb2383e82269e758b9ec0fc961ac69cecc166570a12068c11b3f9cf29c8de9e88600e54600f54426040516116f493929190613b17565b60405180910390a1505b5b50505050565b61171084848461078e565b61171c84848484612054565b50505050565b600e5481565b600b5481565b606060006001600281111561174657611745613396565b5b600c60019054906101000a900460ff16600281111561176857611767613396565b5b146117a8576040518060400160405280600481526020017f4c6f7374000000000000000000000000000000000000000000000000000000008152506117df565b6040518060400160405280600381526020017f576f6e00000000000000000000000000000000000000000000000000000000008152505b905060006117ed828561220b565b905060006117fa85610bf2565b9050600061183c61180a87612272565b856118148561244d565b8660405160200161182894939291906141c6565b60405160208183030381529060405261260a565b905061184661277c565b81604051602001611858929190614246565b604051602081830303815290604052945050505050919050565b6000600560008473ffffffffffffffffffffffffffffffffffffffff1673ffffffffffffffffffffffffffffffffffffffff16815260200190815260200160002060008373ffffffffffffffffffffffffffffffffffffffff1673ffffffffffffffffffffffffffffffffffffffff16815260200190815260200160002060009054906101000a900460ff16905092915050565b600c60009054906101000a900460ff1681565b60007f01ffc9a7000000000000000000000000000000000000000000000000000000007bffffffffffffffffffffffffffffffffffffffffffffffffffffffff1916827bffffffffffffffffffffffffffffffffffffffffffffffffffffffff1916149050919050565b60008061198f836127b9565b9050600073ffffffffffffffffffffffffffffffffffffffff168173ffffffffffffffffffffffffffffffffffffffff1603611a0257826040517f7e2732890000000000000000000000000000000000000000000000000000000081526004016119f99190612e49565b60405180910390fd5b80915050919050565b60006004600083815260200190815260200160002060009054906101000a900473ffffffffffffffffffffffffffffffffffffffff169050919050565b600033905090565b611a5d83838360016127f6565b505050565b600080611a6e846127b9565b9050600073ffffffffffffffffffffffffffffffffffffffff168373ffffffffffffffffffffffffffffffffffffffff1614611ab057611aaf8184866129bb565b5b600073ffffffffffffffffffffffffffffffffffffffff168173ffffffffffffffffffffffffffffffffffffffff1614611b4157611af26000856000806127f6565b6001600360008373ffffffffffffffffffffffffffffffffffffffff1673ffffffffffffffffffffffffffffffffffffffff168152602001908152602001600020600082825403925050819055505b600073ffffffffffffffffffffffffffffffffffffffff168573ffffffffffffffffffffffffffffffffffffffff1614611bc4576001600360008773ffffffffffffffffffffffffffffffffffffffff1673ffffffffffffffffffffffffffffffffffffffff168152602001908152602001600020600082825401925050819055505b846002600086815260200190815260200160002060006101000a81548173ffffffffffffffffffffffffffffffffffffffff021916908373ffffffffffffffffffffffffffffffffffffffff160217905550838573ffffffffffffffffffffffffffffffffffffffff168273ffffffffffffffffffffffffffffffffffffffff167fddf252ad1be2c89b69c2b068fc378daa952ba7f163c4a11628f55a4df523b3ef60405160405180910390a4809150509392505050565b600073ffffffffffffffffffffffffffffffffffffffff168273ffffffffffffffffffffffffffffffffffffffff1603611ced57816040517f5b08ba18000000000000000000000000000000000000000000000000000000008152600401611ce4919061307f565b60405180910390fd5b80600560008573ffffffffffffffffffffffffffffffffffffffff1673ffffffffffffffffffffffffffffffffffffffff16815260200190815260200160002060008473ffffffffffffffffffffffffffffffffffffffff1673ffffffffffffffffffffffffffffffffffffffff16815260200190815260200160002060006101000a81548160ff0219169083151502179055508173ffffffffffffffffffffffffffffffffffffffff168373ffffffffffffffffffffffffffffffffffffffff167f17307eab39ab6107e8899845ad3d59bd9653f200f220920489ca2b5937696c3183604051611dde9190612f18565b60405180910390a3505050565b600080611df6612d66565b611dfe612d66565b60005b600460ff168160ff161015611ede57600a8160ff1681548110611e2757611e2661426a565b5b90600052602060002090602091828204019190069054906101000a900460ff1660ff16868260ff1681518110611e6057611e5f61426a565b5b602002602001015160ff1603611ed1578480611e7b90614299565b9550506001838260ff1660048110611e9657611e9561426a565b5b602002019060ff16908160ff16815250506001828260ff1660048110611ebf57611ebe61426a565b5b602002019060ff16908160ff16815250505b8080600101915050611e01565b5060005b600460ff168160ff16101561200a576000828260ff1660048110611f0957611f0861426a565b5b602002015160ff1603611ffd5760005b600460ff168160ff161015611ffb576000848260ff1660048110611f4057611f3f61426a565b5b602002015160ff16148015611fad5750600a8160ff1681548110611f6757611f6661426a565b5b90600052602060002090602091828204019190069054906101000a900460ff1660ff16878360ff1681518110611fa057611f9f61426a565b5b602002602001015160ff16145b15611fee578480611fbd90614299565b9550506001848260ff1660048110611fd857611fd761426a565b5b602002019060ff16908160ff1681525050611ffb565b8080600101915050611f19565b505b8080600101915050611ee2565b505050915091565b6001816000016000828254019250508190555050565b600081600001549050919050565b612050828260405180602001604052806000815250612a7f565b5050565b60008373ffffffffffffffffffffffffffffffffffffffff163b1115612205578273ffffffffffffffffffffffffffffffffffffffff1663150b7a02612098611a48565b8685856040518563ffffffff1660e01b81526004016120ba9493929190614317565b6020604051808303816000875af19250505080156120f657506040513d601f19601f820116820180604052508101906120f39190614378565b60015b61217a573d8060008114612126576040519150601f19603f3d011682016040523d82523d6000602084013e61212b565b606091505b50600081510361217257836040517f64a0ae92000000000000000000000000000000000000000000000000000000008152600401612169919061307f565b60405180910390fd5b805181602001fd5b63150b7a0260e01b7bffffffffffffffffffffffffffffffffffffffffffffffffffffffff1916817bffffffffffffffffffffffffffffffffffffffffffffffffffffffff19161461220357836040517f64a0ae920000000000000000000000000000000000000000000000000000000081526004016121fa919061307f565b60405180910390fd5b505b50505050565b606060008361221984612272565b60405160200161222a929190615127565b604051602081830303815290604052905060006122468261260a565b60405160200161225691906152c0565b6040516020818303038152906040529050809250505092915050565b60606000604e905060008167ffffffffffffffff811115612296576122956131b1565b5b6040519080825280601f01601f1916602001820160405280156122c85781602001600182028036833780820191505090505b50905060005b6000851461235a576000600a866122e59190615311565b9050600a866122f49190615342565b95508060306123039190613eae565b60f81b83838061231290613ee2565b9450815181106123255761232461426a565b5b60200101907effffffffffffffffffffffffffffffffffffffffffffffffffffffffffffff1916908160001a905350506122ce565b60008167ffffffffffffffff811115612376576123756131b1565b5b6040519080825280601f01601f1916602001820160405280156123a85781602001600182028036833780820191505090505b50905060005b8281101561243a5783600182856123c59190615373565b6123cf9190615373565b815181106123e0576123df61426a565b5b602001015160f81c60f81b8282815181106123fe576123fd61426a565b5b60200101907effffffffffffffffffffffffffffffffffffffffffffffffffffffffffffff1916908160001a90535080806001019150506123ae565b5060008190508095505050505050919050565b60606000602867ffffffffffffffff81111561246c5761246b6131b1565b5b6040519080825280601f01601f19166020018201604052801561249e5781602001600182028036833780820191505090505b50905060005b60148110156126005760008160136124bc9190615373565b60086124c891906153a7565b60026124d4919061551c565b8573ffffffffffffffffffffffffffffffffffffffff166124f59190615342565b60f81b9050600060108260f81c61250c9190615567565b60f81b905060008160f81c60106125239190615598565b8360f81c61253191906155d5565b60f81b905061253f82612a9b565b8585600261254d91906153a7565b8151811061255e5761255d61426a565b5b60200101907effffffffffffffffffffffffffffffffffffffffffffffffffffffffffffff1916908160001a90535061259681612a9b565b8560018660026125a691906153a7565b6125b09190613eae565b815181106125c1576125c061426a565b5b60200101907effffffffffffffffffffffffffffffffffffffffffffffffffffffffffffff1916908160001a90535050505080806001019150506124a4565b5080915050919050565b6060600082510361262c57604051806020016040528060008152509050612777565b6000604051806060016040528060408152602001615669604091399050600060036002855161265b9190613eae565b6126659190615342565b600461267191906153a7565b67ffffffffffffffff81111561268a576126896131b1565b5b6040519080825280601f01601f1916602001820160405280156126bc5781602001600182028036833780820191505090505b50905060018201602082018586518701602081018051600082525b82841015612732576003840193508351603f8160121c168701518653600186019550603f81600c1c168701518653600186019550603f8160061c168701518653600186019550603f81168701518653600186019550506126d7565b80825260038a51066001811461274f57600281146127625761276a565b603d6001870353603d600287035361276a565b603d60018703535b5050505050505080925050505b919050565b60606040518060400160405280601d81526020017f646174613a6170706c69636174696f6e2f6a736f6e3b6261736536342c000000815250905090565b60006002600083815260200190815260200160002060009054906101000a900473ffffffffffffffffffffffffffffffffffffffff169050919050565b808061282f5750600073ffffffffffffffffffffffffffffffffffffffff168273ffffffffffffffffffffffffffffffffffffffff1614155b1561296357600061283f84611983565b9050600073ffffffffffffffffffffffffffffffffffffffff168373ffffffffffffffffffffffffffffffffffffffff16141580156128aa57508273ffffffffffffffffffffffffffffffffffffffff168173ffffffffffffffffffffffffffffffffffffffff1614155b80156128bd57506128bb8184611872565b155b156128ff57826040517fa9fbf51f0000000000000000000000000000000000000000000000000000000081526004016128f6919061307f565b60405180910390fd5b811561296157838573ffffffffffffffffffffffffffffffffffffffff168273ffffffffffffffffffffffffffffffffffffffff167f8c5be1e5ebec7d5bd14f71427d1e84f3dd0314c0f7b2291e5b200ac8c7c3b92560405160405180910390a45b505b836004600085815260200190815260200160002060006101000a81548173ffffffffffffffffffffffffffffffffffffffff021916908373ffffffffffffffffffffffffffffffffffffffff16021790555050505050565b6129c6838383612ae1565b612a7a57600073ffffffffffffffffffffffffffffffffffffffff168373ffffffffffffffffffffffffffffffffffffffff1603612a3b57806040517f7e273289000000000000000000000000000000000000000000000000000000008152600401612a329190612e49565b60405180910390fd5b81816040517f177e802f000000000000000000000000000000000000000000000000000000008152600401612a7192919061560a565b60405180910390fd5b505050565b612a898383612ba2565b612a966000848484612054565b505050565b6000600a8260f81c60ff161015612ac65760308260f81c612abc9190615633565b60f81b9050612adc565b60578260f81c612ad69190615633565b60f81b90505b919050565b60008073ffffffffffffffffffffffffffffffffffffffff168373ffffffffffffffffffffffffffffffffffffffff1614158015612b9957508273ffffffffffffffffffffffffffffffffffffffff168473ffffffffffffffffffffffffffffffffffffffff161480612b5a5750612b598484611872565b5b80612b9857508273ffffffffffffffffffffffffffffffffffffffff16612b8083611a0b565b73ffffffffffffffffffffffffffffffffffffffff16145b5b90509392505050565b600073ffffffffffffffffffffffffffffffffffffffff168273ffffffffffffffffffffffffffffffffffffffff1603612c145760006040517f64a0ae92000000000000000000000000000000000000000000000000000000008152600401612c0b919061307f565b60405180910390fd5b6000612c2283836000611a62565b9050600073ffffffffffffffffffffffffffffffffffffffff168173ffffffffffffffffffffffffffffffffffffffff1614612c965760006040517f73c6ac6e000000000000000000000000000000000000000000000000000000008152600401612c8d919061307f565b60405180910390fd5b505050565b82805482825590600052602060002090601f01602090048101928215612d315791602002820160005b83821115612d0257835183826101000a81548160ff021916908360ff1602179055509260200192600101602081600001049283019260010302612cc4565b8015612d2f5782816101000a81549060ff0219169055600101602081600001049283019260010302612d02565b505b509050612d3e9190612d88565b5090565b5080546000825560020290600052602060002090810190612d639190612da5565b50565b6040518060800160405280600490602082028036833780820191505090505090565b5b80821115612da1576000816000905550600101612d89565b5090565b5b80821115612e045760008082016000612dbf9190612e08565b6001820160006101000a81549060ff02191690556001820160016101000a81549060ff02191690556001820160026101000a81549060ff021916905550600201612da6565b5090565b50805460008255601f016020900490600052602060002090810190612e2d9190612d88565b50565b6000819050919050565b612e4381612e30565b82525050565b6000602082019050612e5e6000830184612e3a565b92915050565b6000604051905090565b600080fd5b600080fd5b60007fffffffff0000000000000000000000000000000000000000000000000000000082169050919050565b612ead81612e78565b8114612eb857600080fd5b50565b600081359050612eca81612ea4565b92915050565b600060208284031215612ee657612ee5612e6e565b5b6000612ef484828501612ebb565b91505092915050565b60008115159050919050565b612f1281612efd565b82525050565b6000602082019050612f2d6000830184612f09565b92915050565b600081519050919050565b600082825260208201905092915050565b60005b83811015612f6d578082015181840152602081019050612f52565b60008484015250505050565b6000601f19601f8301169050919050565b6000612f9582612f33565b612f9f8185612f3e565b9350612faf818560208601612f4f565b612fb881612f79565b840191505092915050565b60006020820190508181036000830152612fdd8184612f8a565b905092915050565b612fee81612e30565b8114612ff957600080fd5b50565b60008135905061300b81612fe5565b92915050565b60006020828403121561302757613026612e6e565b5b600061303584828501612ffc565b91505092915050565b600073ffffffffffffffffffffffffffffffffffffffff82169050919050565b60006130698261303e565b9050919050565b6130798161305e565b82525050565b60006020820190506130946000830184613070565b92915050565b6130a38161305e565b81146130ae57600080fd5b50565b6000813590506130c08161309a565b92915050565b600080604083850312156130dd576130dc612e6e565b5b60006130eb858286016130b1565b92505060206130fc85828601612ffc565b9150509250929050565b600060ff82169050919050565b61311c81613106565b82525050565b60006060820190506131376000830186613113565b6131446020830185613113565b6131516040830184612f09565b949350505050565b60008060006060848603121561317257613171612e6e565b5b6000613180868287016130b1565b9350506020613191868287016130b1565b92505060406131a286828701612ffc565b9150509250925092565b600080fd5b7f4e487b7100000000000000000000000000000000000000000000000000000000600052604160045260246000fd5b6131e982612f79565b810181811067ffffffffffffffff82111715613208576132076131b1565b5b80604052505050565b600061321b612e64565b905061322782826131e0565b919050565b600067ffffffffffffffff821115613247576132466131b1565b5b602082029050602081019050919050565b600080fd5b61326681613106565b811461327157600080fd5b50565b6000813590506132838161325d565b92915050565b600061329c6132978461322c565b613211565b905080838252602082019050602084028301858111156132bf576132be613258565b5b835b818110156132e857806132d48882613274565b8452602084019350506020810190506132c1565b5050509392505050565b600082601f830112613307576133066131ac565b5b8135613317848260208601613289565b91505092915050565b60006020828403121561333657613335612e6e565b5b600082013567ffffffffffffffff81111561335457613353612e73565b5b613360848285016132f2565b91505092915050565b60006020828403121561337f5761337e612e6e565b5b600061338d848285016130b1565b91505092915050565b7f4e487b7100000000000000000000000000000000000000000000000000000000600052602160045260246000fd5b600381106133d6576133d5613396565b5b50565b60008190506133e7826133c5565b919050565b60006133f7826133d9565b9050919050565b613407816133ec565b82525050565b600060208201905061342260008301846133fe565b92915050565b600081519050919050565b600082825260208201905092915050565b6000819050602082019050919050565b600081519050919050565b600082825260208201905092915050565b6000819050602082019050919050565b61348981613106565b82525050565b600061349b8383613480565b60208301905092915050565b6000602082019050919050565b60006134bf82613454565b6134c9818561345f565b93506134d483613470565b8060005b838110156135055781516134ec888261348f565b97506134f7836134a7565b9250506001810190506134d8565b5085935050505092915050565b61351b81612efd565b82525050565b6000608083016000830151848203600086015261353e82826134b4565b91505060208301516135536020860182613480565b5060408301516135666040860182613480565b5060608301516135796060860182613512565b508091505092915050565b60006135908383613521565b905092915050565b6000602082019050919050565b60006135b082613428565b6135ba8185613433565b9350836020820285016135cc85613444565b8060005b8581101561360857848403895281516135e98582613584565b94506135f483613598565b925060208a019950506001810190506135d0565b50829750879550505050505092915050565b6000602082019050818103600083015261363481846135a5565b905092915050565b61364581612efd565b811461365057600080fd5b50565b6000813590506136628161363c565b92915050565b6000806040838503121561367f5761367e612e6e565b5b600061368d858286016130b1565b925050602061369e85828601613653565b9150509250929050565b600080fd5b600067ffffffffffffffff8211156136c8576136c76131b1565b5b6136d182612f79565b9050602081019050919050565b82818337600083830152505050565b60006137006136fb846136ad565b613211565b90508281526020810184848401111561371c5761371b6136a8565b5b6137278482856136de565b509392505050565b600082601f830112613744576137436131ac565b5b81356137548482602086016136ed565b91505092915050565b6000806000806080858703121561377757613776612e6e565b5b6000613785878288016130b1565b9450506020613796878288016130b1565b93505060406137a787828801612ffc565b925050606085013567ffffffffffffffff8111156137c8576137c7612e73565b5b6137d48782880161372f565b91505092959194509250565b600080604083850312156137f7576137f6612e6e565b5b6000613805858286016130b1565b9250506020613816858286016130b1565b9150509250929050565b7f4e487b7100000000000000000000000000000000000000000000000000000000600052602260045260246000fd5b6000600282049050600182168061386757607f821691505b60208210810361387a57613879613820565b5b50919050565b60006060820190506138956000830186613070565b6138a26020830185612e3a565b6138af6040830184613070565b949350505050565b7f4f6e6c792074686520636f64656d616b65722063616e2063616c6c207468697360008201527f2066756e6374696f6e0000000000000000000000000000000000000000000000602082015250565b6000613913602983612f3e565b915061391e826138b7565b604082019050919050565b6000602082019050818103600083015261394281613906565b9050919050565b7f436f6465627265616b65722061646472657373206d7573742062652073657400600082015250565b600061397f601f83612f3e565b915061398a82613949565b602082019050919050565b600060208201905081810360008301526139ae81613972565b9050919050565b7f53656372657420636f6465206d757374206265203420646967697473206c6f6e60008201527f6700000000000000000000000000000000000000000000000000000000000000602082015250565b6000613a11602183612f3e565b9150613a1c826139b5565b604082019050919050565b60006020820190508181036000830152613a4081613a04565b9050919050565b600081905092915050565b613a5b81613106565b82525050565b6000613a6d8383613a52565b60208301905092915050565b6000613a8482613454565b613a8e8185613a47565b9350613a9983613470565b8060005b83811015613aca578151613ab18882613a61565b9750613abc836134a7565b925050600181019050613a9d565b5085935050505092915050565b6000613ae38284613a79565b915081905092915050565b6000604082019050613b0360008301856133fe565b613b106020830184612e3a565b9392505050565b6000606082019050613b2c6000830186612e3a565b613b396020830185612e3a565b613b466040830184612e3a565b949350505050565b7f47616d6520696e2073657373696f6e0000000000000000000000000000000000600082015250565b6000613b84600f83612f3e565b9150613b8f82613b4e565b602082019050919050565b60006020820190508181036000830152613bb381613b77565b9050919050565b7f4f6e6c792074686520636f6465627265616b65722063616e2063616c6c20746860008201527f69732066756e6374696f6e000000000000000000000000000000000000000000602082015250565b6000613c16602b83612f3e565b9150613c2182613bba565b604082019050919050565b60006020820190508181036000830152613c4581613c09565b9050919050565b7f47616d65206973206e6f74206163746976650000000000000000000000000000600082015250565b6000613c82601283612f3e565b9150613c8d82613c4c565b602082019050919050565b60006020820190508181036000830152613cb181613c75565b9050919050565b7f4775657373206d757374206265203420646967697473206c6f6e670000000000600082015250565b6000613cee601b83612f3e565b9150613cf982613cb8565b602082019050919050565b60006020820190508181036000830152613d1d81613ce1565b9050919050565b7f4d6178696d756d206e756d626572206f6620677565737365732072656163686560008201527f6400000000000000000000000000000000000000000000000000000000000000602082015250565b6000613d80602183612f3e565b9150613d8b82613d24565b604082019050919050565b60006020820190508181036000830152613daf81613d73565b9050919050565b600082825260208201905092915050565b6000613dd282613454565b613ddc8185613db6565b9350613de783613470565b8060005b83811015613e18578151613dff888261348f565b9750613e0a836134a7565b925050600181019050613deb565b5085935050505092915050565b600060a0820190508181036000830152613e3f8188613dc7565b9050613e4e6020830187613113565b613e5b6040830186613113565b613e686060830185612f09565b613e756080830184612e3a565b9695505050505050565b7f4e487b7100000000000000000000000000000000000000000000000000000000600052601160045260246000fd5b6000613eb982612e30565b9150613ec483612e30565b9250828201905080821115613edc57613edb613e7f565b5b92915050565b6000613eed82612e30565b91507fffffffffffffffffffffffffffffffffffffffffffffffffffffffffffffffff8203613f1f57613f1e613e7f565b5b600182019050919050565b600081905092915050565b7f7b226e616d65223a224d61737465726d696e6420230000000000000000000000600082015250565b6000613f6b601583613f2a565b9150613f7682613f35565b601582019050919050565b6000613f8c82612f33565b613f968185613f2a565b9350613fa6818560208601612f4f565b80840191505092915050565b7f222c20226465736372697074696f6e223a22416e204e4654207468617420726560008201527f666c6563747320746865206f7574636f6d65206f662061204d61737465726d6960208201527f6e642067616d65222c2000000000000000000000000000000000000000000000604082015250565b6000614034604a83613f2a565b915061403f82613fb2565b604a82019050919050565b7f2261747472696275746573223a205b7b2274726169745f74797065223a20226760008201527f616d655f726573756c74222c202276616c7565223a2022000000000000000000602082015250565b60006140a6603783613f2a565b91506140b18261404a565b603782019050919050565b7f227d2c207b2274726169745f74797065223a20226f776e6572222c202276616c60008201527f7565223a20220000000000000000000000000000000000000000000000000000602082015250565b6000614118602683613f2a565b9150614123826140bc565b602682019050919050565b7f227d5d2c2022696d616765223a22000000000000000000000000000000000000600082015250565b6000614164600e83613f2a565b915061416f8261412e565b600e82019050919050565b7f227d000000000000000000000000000000000000000000000000000000000000600082015250565b60006141b0600283613f2a565b91506141bb8261417a565b600282019050919050565b60006141d182613f5e565b91506141dd8287613f81565b91506141e882614027565b91506141f382614099565b91506141ff8286613f81565b915061420a8261410b565b91506142168285613f81565b915061422182614157565b915061422d8284613f81565b9150614238826141a3565b915081905095945050505050565b60006142528285613f81565b915061425e8284613f81565b91508190509392505050565b7f4e487b7100000000000000000000000000000000000000000000000000000000600052603260045260246000fd5b60006142a482613106565b915060ff82036142b7576142b6613e7f565b5b600182019050919050565b600081519050919050565b600082825260208201905092915050565b60006142e9826142c2565b6142f381856142cd565b9350614303818560208601612f4f565b61430c81612f79565b840191505092915050565b600060808201905061432c6000830187613070565b6143396020830186613070565b6143466040830185612e3a565b818103606083015261435881846142de565b905095945050505050565b60008151905061437281612ea4565b92915050565b60006020828403121561438e5761438d612e6e565b5b600061439c84828501614363565b91505092915050565b7f3c7376672077696474683d2233303022206865696768743d223430302220786d60008201527f6c6e733d22687474703a2f2f7777772e77332e6f72672f323030302f7376672260208201527f3e00000000000000000000000000000000000000000000000000000000000000604082015250565b6000614427604183613f2a565b9150614432826143a5565b604182019050919050565b7f3c726563742077696474683d2233303022206865696768743d2234303022206660008201527f696c6c3d227768697465222f3e00000000000000000000000000000000000000602082015250565b6000614499602d83613f2a565b91506144a48261443d565b602d82019050919050565b7f3c7465787420783d2231302220793d2233302220666f6e742d66616d696c793d60008201527f22417269616c2220666f6e742d73697a653d223234222066696c6c3d2270757260208201527f706c65223e4d61737465726d696e643c2f746578743e00000000000000000000604082015250565b6000614531605683613f2a565b915061453c826144af565b605682019050919050565b7f3c6c696e652078313d223130222079313d223530222078323d2232393022207960008201527f323d22353022207374726f6b653d22626c61636b22207374726f6b652d77696460208201527f74683d2232222f3e000000000000000000000000000000000000000000000000604082015250565b60006145c9604883613f2a565b91506145d482614547565b604882019050919050565b7f3c636972636c652063783d223530222063793d2238302220723d22313022206660008201527f696c6c3d2272656422202f3e0000000000000000000000000000000000000000602082015250565b600061463b602c83613f2a565b9150614646826145df565b602c82019050919050565b7f3c636972636c652063783d223830222063793d2238302220723d22313022206660008201527f696c6c3d22626c756522202f3e00000000000000000000000000000000000000602082015250565b60006146ad602d83613f2a565b91506146b882614651565b602d82019050919050565b7f3c636972636c652063783d22313130222063793d2238302220723d223130222060008201527f66696c6c3d22677265656e22202f3e0000000000000000000000000000000000602082015250565b600061471f602f83613f2a565b915061472a826146c3565b602f82019050919050565b7f3c636972636c652063783d22313430222063793d2238302220723d223130222060008201527f66696c6c3d2279656c6c6f7722202f3e00000000000000000000000000000000602082015250565b6000614791603083613f2a565b915061479c82614735565b603082019050919050565b7f3c636972636c652063783d223530222063793d223132302220723d223130222060008201527f66696c6c3d22776869746522207374726f6b653d22626c61636b22207374726f60208201527f6b652d77696474683d2232222f3e000000000000000000000000000000000000604082015250565b6000614829604e83613f2a565b9150614834826147a7565b604e82019050919050565b7f3c636972636c652063783d223830222063793d223132302220723d223130222060008201527f66696c6c3d22776869746522207374726f6b653d22626c61636b22207374726f60208201527f6b652d77696474683d2232222f3e000000000000000000000000000000000000604082015250565b60006148c1604e83613f2a565b91506148cc8261483f565b604e82019050919050565b7f3c636972636c652063783d22313130222063793d223132302220723d2231302260008201527f2066696c6c3d22776869746522207374726f6b653d22626c61636b222073747260208201527f6f6b652d77696474683d2232222f3e0000000000000000000000000000000000604082015250565b6000614959604f83613f2a565b9150614964826148d7565b604f82019050919050565b7f3c636972636c652063783d22313430222063793d223132302220723d2231302260008201527f2066696c6c3d22776869746522207374726f6b653d22626c61636b222073747260208201527f6f6b652d77696474683d2232222f3e0000000000000000000000000000000000604082015250565b60006149f1604f83613f2a565b91506149fc8261496f565b604f82019050919050565b7f3c636972636c652063783d223530222063793d223136302220723d223130222060008201527f66696c6c3d22776869746522207374726f6b653d22626c61636b22207374726f60208201527f6b652d77696474683d2232222f3e000000000000000000000000000000000000604082015250565b6000614a89604e83613f2a565b9150614a9482614a07565b604e82019050919050565b7f3c636972636c652063783d223830222063793d223136302220723d223130222060008201527f66696c6c3d22776869746522207374726f6b653d22626c61636b22207374726f60208201527f6b652d77696474683d2232222f3e000000000000000000000000000000000000604082015250565b6000614b21604e83613f2a565b9150614b2c82614a9f565b604e82019050919050565b7f3c636972636c652063783d22313130222063793d223136302220723d2231302260008201527f2066696c6c3d22776869746522207374726f6b653d22626c61636b222073747260208201527f6f6b652d77696474683d2232222f3e0000000000000000000000000000000000604082015250565b6000614bb9604f83613f2a565b9150614bc482614b37565b604f82019050919050565b7f3c636972636c652063783d22313430222063793d223136302220723d2231302260008201527f2066696c6c3d22776869746522207374726f6b653d22626c61636b222073747260208201527f6f6b652d77696474683d2232222f3e0000000000000000000000000000000000604082015250565b6000614c51604f83613f2a565b9150614c5c82614bcf565b604f82019050919050565b7f3c636972636c652063783d223530222063793d223230302220723d223130222060008201527f66696c6c3d22776869746522207374726f6b653d22626c61636b22207374726f60208201527f6b652d77696474683d2232222f3e000000000000000000000000000000000000604082015250565b6000614ce9604e83613f2a565b9150614cf482614c67565b604e82019050919050565b7f3c636972636c652063783d223830222063793d223230302220723d223130222060008201527f66696c6c3d22776869746522207374726f6b653d22626c61636b22207374726f60208201527f6b652d77696474683d2232222f3e000000000000000000000000000000000000604082015250565b6000614d81604e83613f2a565b9150614d8c82614cff565b604e82019050919050565b7f3c636972636c652063783d22313130222063793d223230302220723d2231302260008201527f2066696c6c3d22776869746522207374726f6b653d22626c61636b222073747260208201527f6f6b652d77696474683d2232222f3e0000000000000000000000000000000000604082015250565b6000614e19604f83613f2a565b9150614e2482614d97565b604f82019050919050565b7f3c636972636c652063783d22313430222063793d223230302220723d2231302260008201527f2066696c6c3d22776869746522207374726f6b653d22626c61636b222073747260208201527f6f6b652d77696474683d2232222f3e0000000000000000000000000000000000604082015250565b6000614eb1604f83613f2a565b9150614ebc82614e2f565b604f82019050919050565b7f3c7465787420783d2231302220793d223335302220666f6e742d66616d696c7960008201527f3d22417269616c2220666f6e742d73697a653d223136222066696c6c3d22626c60208201527f61636b223e000000000000000000000000000000000000000000000000000000604082015250565b6000614f49604583613f2a565b9150614f5482614ec7565b604582019050919050565b7f47616d6520526573756c743a2000000000000000000000000000000000000000600082015250565b6000614f95600d83613f2a565b9150614fa082614f5f565b600d82019050919050565b7f3c2f746578743e00000000000000000000000000000000000000000000000000600082015250565b6000614fe1600783613f2a565b9150614fec82614fab565b600782019050919050565b7f3c7465787420783d2231302220793d223338302220666f6e742d66616d696c7960008201527f3d22417269616c2220666f6e742d73697a653d223136222066696c6c3d22626c60208201527f61636b223e000000000000000000000000000000000000000000000000000000604082015250565b6000615079604583613f2a565b915061508482614ff7565b604582019050919050565b7f546f6b656e2049443a2000000000000000000000000000000000000000000000600082015250565b60006150c5600a83613f2a565b91506150d08261508f565b600a82019050919050565b7f3c2f7376673e0000000000000000000000000000000000000000000000000000600082015250565b6000615111600683613f2a565b915061511c826150db565b600682019050919050565b60006151328261441a565b915061513d8261448c565b915061514882614524565b9150615153826145bc565b915061515e8261462e565b9150615169826146a0565b915061517482614712565b915061517f82614784565b915061518a8261481c565b9150615195826148b4565b91506151a08261494c565b91506151ab826149e4565b91506151b682614a7c565b91506151c182614b14565b91506151cc82614bac565b91506151d782614c44565b91506151e282614cdc565b91506151ed82614d74565b91506151f882614e0c565b915061520382614ea4565b915061520e82614f3c565b915061521982614f88565b91506152258285613f81565b915061523082614fd4565b915061523b8261506c565b9150615246826150b8565b91506152528284613f81565b915061525d82614fd4565b915061526882615104565b91508190509392505050565b7f646174613a696d6167652f7376672b786d6c3b6261736536342c000000000000600082015250565b60006152aa601a83613f2a565b91506152b582615274565b601a82019050919050565b60006152cb8261529d565b91506152d78284613f81565b915081905092915050565b7f4e487b7100000000000000000000000000000000000000000000000000000000600052601260045260246000fd5b600061531c82612e30565b915061532783612e30565b925082615337576153366152e2565b5b828206905092915050565b600061534d82612e30565b915061535883612e30565b925082615368576153676152e2565b5b828204905092915050565b600061537e82612e30565b915061538983612e30565b92508282039050818111156153a1576153a0613e7f565b5b92915050565b60006153b282612e30565b91506153bd83612e30565b92508282026153cb81612e30565b915082820484148315176153e2576153e1613e7f565b5b5092915050565b60008160011c9050919050565b6000808291508390505b60018511156154405780860481111561541c5761541b613e7f565b5b600185161561542b5780820291505b8081029050615439856153e9565b9450615400565b94509492505050565b6000826154595760019050615515565b816154675760009050615515565b816001811461547d5760028114615487576154b6565b6001915050615515565b60ff84111561549957615498613e7f565b5b8360020a9150848211156154b0576154af613e7f565b5b50615515565b5060208310610133831016604e8410600b84101617156154eb5782820a9050838111156154e6576154e5613e7f565b5b615515565b6154f884848460016153f6565b9250905081840481111561550f5761550e613e7f565b5b81810290505b9392505050565b600061552782612e30565b915061553283612e30565b925061555f7fffffffffffffffffffffffffffffffffffffffffffffffffffffffffffffffff8484615449565b905092915050565b600061557282613106565b915061557d83613106565b92508261558d5761558c6152e2565b5b828204905092915050565b60006155a382613106565b91506155ae83613106565b92508282026155bc81613106565b91508082146155ce576155cd613e7f565b5b5092915050565b60006155e082613106565b91506155eb83613106565b9250828203905060ff81111561560457615603613e7f565b5b92915050565b600060408201905061561f6000830185613070565b61562c6020830184612e3a565b9392505050565b600061563e82613106565b915061564983613106565b9250828201905060ff81111561566257615661613e7f565b5b9291505056fe4142434445464748494a4b4c4d4e4f505152535455565758595a6162636465666768696a6b6c6d6e6f707172737475767778797a303132333435363738392b2fa2646970667358221220f832820cb8ae2686aa6d35260a768f691e0b61bd4b3ea5a8a5989256c153527664736f6c63430008180033","opcodes":"PUSH1 0x80 PUSH1 0x40 MSTORE CALLVALUE DUP1 ISZERO PUSH3 0x11 JUMPI PUSH1 0x0 DUP1 REVERT JUMPDEST POP PUSH1 0x40 MLOAD DUP1 PUSH1 0x40 ADD PUSH1 0x40 MSTORE DUP1 PUSH1 0xA DUP2 MSTORE PUSH1 0x20 ADD PUSH32 0x4D61737465724D696E6400000000000000000000000000000000000000000000 DUP2 MSTORE POP PUSH1 0x40 MLOAD DUP1 PUSH1 0x40 ADD PUSH1 0x40 MSTORE DUP1 PUSH1 0x3 DUP2 MSTORE PUSH1 0x20 ADD PUSH32 0x4D534D0000000000000000000000000000000000000000000000000000000000 DUP2 MSTORE POP DUP2 PUSH1 0x0 SWAP1 DUP2 PUSH3 0x8F SWAP2 SWAP1 PUSH3 0x380 JUMP JUMPDEST POP DUP1 PUSH1 0x1 SWAP1 DUP2 PUSH3 0xA1 SWAP2 SWAP1 PUSH3 0x380 JUMP JUMPDEST POP POP POP CALLER PUSH1 0x7 PUSH1 0x0 PUSH2 0x100 EXP DUP2 SLOAD DUP2 PUSH20 0xFFFFFFFFFFFFFFFFFFFFFFFFFFFFFFFFFFFFFFFF MUL NOT AND SWAP1 DUP4 PUSH20 0xFFFFFFFFFFFFFFFFFFFFFFFFFFFFFFFFFFFFFFFF AND MUL OR SWAP1 SSTORE POP PUSH1 0x0 PUSH1 0xC PUSH1 0x0 PUSH2 0x100 EXP DUP2 SLOAD DUP2 PUSH1 0xFF MUL NOT AND SWAP1 DUP4 ISZERO ISZERO MUL OR SWAP1 SSTORE POP PUSH3 0x467 JUMP JUMPDEST PUSH1 0x0 DUP2 MLOAD SWAP1 POP SWAP2 SWAP1 POP JUMP JUMPDEST PUSH32 0x4E487B7100000000000000000000000000000000000000000000000000000000 PUSH1 0x0 MSTORE PUSH1 0x41 PUSH1 0x4 MSTORE PUSH1 0x24 PUSH1 0x0 REVERT JUMPDEST PUSH32 0x4E487B7100000000000000000000000000000000000000000000000000000000 PUSH1 0x0 MSTORE PUSH1 0x22 PUSH1 0x4 MSTORE PUSH1 0x24 PUSH1 0x0 REVERT JUMPDEST PUSH1 0x0 PUSH1 0x2 DUP3 DIV SWAP1 POP PUSH1 0x1 DUP3 AND DUP1 PUSH3 0x188 JUMPI PUSH1 0x7F DUP3 AND SWAP2 POP JUMPDEST PUSH1 0x20 DUP3 LT DUP2 SUB PUSH3 0x19E JUMPI PUSH3 0x19D PUSH3 0x140 JUMP JUMPDEST JUMPDEST POP SWAP2 SWAP1 POP JUMP JUMPDEST PUSH1 0x0 DUP2 SWAP1 POP DUP2 PUSH1 0x0 MSTORE PUSH1 0x20 PUSH1 0x0 KECCAK256 SWAP1 POP SWAP2 SWAP1 POP JUMP JUMPDEST PUSH1 0x0 PUSH1 0x20 PUSH1 0x1F DUP4 ADD DIV SWAP1 POP SWAP2 SWAP1 POP JUMP JUMPDEST PUSH1 0x0 DUP3 DUP3 SHL SWAP1 POP SWAP3 SWAP2 POP POP JUMP JUMPDEST PUSH1 0x0 PUSH1 0x8 DUP4 MUL PUSH3 0x208 PUSH32 0xFFFFFFFFFFFFFFFFFFFFFFFFFFFFFFFFFFFFFFFFFFFFFFFFFFFFFFFFFFFFFFFF DUP3 PUSH3 0x1C9 JUMP JUMPDEST PUSH3 0x214 DUP7 DUP4 PUSH3 0x1C9 JUMP JUMPDEST SWAP6 POP DUP1 NOT DUP5 AND SWAP4 POP DUP1 DUP7 AND DUP5 OR SWAP3 POP POP POP SWAP4 SWAP3 POP POP POP JUMP JUMPDEST PUSH1 0x0 DUP2 SWAP1 POP SWAP2 SWAP1 POP JUMP JUMPDEST PUSH1 0x0 DUP2 SWAP1 POP SWAP2 SWAP1 POP JUMP JUMPDEST PUSH1 0x0 PUSH3 0x261 PUSH3 0x25B PUSH3 0x255 DUP5 PUSH3 0x22C JUMP JUMPDEST PUSH3 0x236 JUMP JUMPDEST PUSH3 0x22C JUMP JUMPDEST SWAP1 POP SWAP2 SWAP1 POP JUMP JUMPDEST PUSH1 0x0 DUP2 SWAP1 POP SWAP2 SWAP1 POP JUMP JUMPDEST PUSH3 0x27D DUP4 PUSH3 0x240 JUMP JUMPDEST PUSH3 0x295 PUSH3 0x28C DUP3 PUSH3 0x268 JUMP JUMPDEST DUP5 DUP5 SLOAD PUSH3 0x1D6 JUMP JUMPDEST DUP3 SSTORE POP POP POP POP JUMP JUMPDEST PUSH1 0x0 SWAP1 JUMP JUMPDEST PUSH3 0x2AC PUSH3 0x29D JUMP JUMPDEST PUSH3 0x2B9 DUP2 DUP5 DUP5 PUSH3 0x272 JUMP JUMPDEST POP POP POP JUMP JUMPDEST JUMPDEST DUP2 DUP2 LT ISZERO PUSH3 0x2E1 JUMPI PUSH3 0x2D5 PUSH1 0x0 DUP3 PUSH3 0x2A2 JUMP JUMPDEST PUSH1 0x1 DUP2 ADD SWAP1 POP PUSH3 0x2BF JUMP JUMPDEST POP POP JUMP JUMPDEST PUSH1 0x1F DUP3 GT ISZERO PUSH3 0x330 JUMPI PUSH3 0x2FA DUP2 PUSH3 0x1A4 JUMP JUMPDEST PUSH3 0x305 DUP5 PUSH3 0x1B9 JUMP JUMPDEST DUP2 ADD PUSH1 0x20 DUP6 LT ISZERO PUSH3 0x315 JUMPI DUP2 SWAP1 POP JUMPDEST PUSH3 0x32D PUSH3 0x324 DUP6 PUSH3 0x1B9 JUMP JUMPDEST DUP4 ADD DUP3 PUSH3 0x2BE JUMP JUMPDEST POP POP JUMPDEST POP POP POP JUMP JUMPDEST PUSH1 0x0 DUP3 DUP3 SHR SWAP1 POP SWAP3 SWAP2 POP POP JUMP JUMPDEST PUSH1 0x0 PUSH3 0x355 PUSH1 0x0 NOT DUP5 PUSH1 0x8 MUL PUSH3 0x335 JUMP JUMPDEST NOT DUP1 DUP4 AND SWAP2 POP POP SWAP3 SWAP2 POP POP JUMP JUMPDEST PUSH1 0x0 PUSH3 0x370 DUP4 DUP4 PUSH3 0x342 JUMP JUMPDEST SWAP2 POP DUP3 PUSH1 0x2 MUL DUP3 OR SWAP1 POP SWAP3 SWAP2 POP POP JUMP JUMPDEST PUSH3 0x38B DUP3 PUSH3 0x106 JUMP JUMPDEST PUSH8 0xFFFFFFFFFFFFFFFF DUP2 GT ISZERO PUSH3 0x3A7 JUMPI PUSH3 0x3A6 PUSH3 0x111 JUMP JUMPDEST JUMPDEST PUSH3 0x3B3 DUP3 SLOAD PUSH3 0x16F JUMP JUMPDEST PUSH3 0x3C0 DUP3 DUP3 DUP6 PUSH3 0x2E5 JUMP JUMPDEST PUSH1 0x0 PUSH1 0x20 SWAP1 POP PUSH1 0x1F DUP4 GT PUSH1 0x1 DUP2 EQ PUSH3 0x3F8 JUMPI PUSH1 0x0 DUP5 ISZERO PUSH3 0x3E3 JUMPI DUP3 DUP8 ADD MLOAD SWAP1 POP JUMPDEST PUSH3 0x3EF DUP6 DUP3 PUSH3 0x362 JUMP JUMPDEST DUP7 SSTORE POP PUSH3 0x45F JUMP JUMPDEST PUSH1 0x1F NOT DUP5 AND PUSH3 0x408 DUP7 PUSH3 0x1A4 JUMP JUMPDEST PUSH1 0x0 JUMPDEST DUP3 DUP2 LT ISZERO PUSH3 0x432 JUMPI DUP5 DUP10 ADD MLOAD DUP3 SSTORE PUSH1 0x1 DUP3 ADD SWAP2 POP PUSH1 0x20 DUP6 ADD SWAP5 POP PUSH1 0x20 DUP2 ADD SWAP1 POP PUSH3 0x40B JUMP JUMPDEST DUP7 DUP4 LT ISZERO PUSH3 0x452 JUMPI DUP5 DUP10 ADD MLOAD PUSH3 0x44E PUSH1 0x1F DUP10 AND DUP3 PUSH3 0x342 JUMP JUMPDEST DUP4 SSTORE POP JUMPDEST PUSH1 0x1 PUSH1 0x2 DUP9 MUL ADD DUP9 SSTORE POP POP POP JUMPDEST POP POP POP POP POP POP JUMP JUMPDEST PUSH2 0x56DE DUP1 PUSH3 0x477 PUSH1 0x0 CODECOPY PUSH1 0x0 RETURN INVALID PUSH1 0x80 PUSH1 0x40 MSTORE CALLVALUE DUP1 ISZERO PUSH2 0x10 JUMPI PUSH1 0x0 DUP1 REVERT JUMPDEST POP PUSH1 0x4 CALLDATASIZE LT PUSH2 0x1C4 JUMPI PUSH1 0x0 CALLDATALOAD PUSH1 0xE0 SHR DUP1 PUSH4 0x722FED7E GT PUSH2 0xF9 JUMPI DUP1 PUSH4 0xA42DC7B7 GT PUSH2 0x97 JUMPI DUP1 PUSH4 0xC68A9FE4 GT PUSH2 0x71 JUMPI DUP1 PUSH4 0xC68A9FE4 EQ PUSH2 0x4BF JUMPI DUP1 PUSH4 0xC87B56DD EQ PUSH2 0x4DD JUMPI DUP1 PUSH4 0xE985E9C5 EQ PUSH2 0x50D JUMPI DUP1 PUSH4 0xF020044F EQ PUSH2 0x53D JUMPI PUSH2 0x1C4 JUMP JUMPDEST DUP1 PUSH4 0xA42DC7B7 EQ PUSH2 0x469 JUMPI DUP1 PUSH4 0xB88D4FDE EQ PUSH2 0x485 JUMPI DUP1 PUSH4 0xC0E361D2 EQ PUSH2 0x4A1 JUMPI PUSH2 0x1C4 JUMP JUMPDEST DUP1 PUSH4 0x84894606 GT PUSH2 0xD3 JUMPI DUP1 PUSH4 0x84894606 EQ PUSH2 0x41B JUMPI DUP1 PUSH4 0x8E5CD8E9 EQ PUSH2 0x425 JUMPI DUP1 PUSH4 0x95D89B41 EQ PUSH2 0x42F JUMPI DUP1 PUSH4 0xA22CB465 EQ PUSH2 0x44D JUMPI PUSH2 0x1C4 JUMP JUMPDEST DUP1 PUSH4 0x722FED7E EQ PUSH2 0x3C1 JUMPI DUP1 PUSH4 0x797642DB EQ PUSH2 0x3DF JUMPI DUP1 PUSH4 0x801DB33D EQ PUSH2 0x3FD JUMPI PUSH2 0x1C4 JUMP JUMPDEST DUP1 PUSH4 0x23B872DD GT PUSH2 0x166 JUMPI DUP1 PUSH4 0x42842E0E GT PUSH2 0x140 JUMPI DUP1 PUSH4 0x42842E0E EQ PUSH2 0x327 JUMPI DUP1 PUSH4 0x50633FA7 EQ PUSH2 0x343 JUMPI DUP1 PUSH4 0x6352211E EQ PUSH2 0x361 JUMPI DUP1 PUSH4 0x70A08231 EQ PUSH2 0x391 JUMPI PUSH2 0x1C4 JUMP JUMPDEST DUP1 PUSH4 0x23B872DD EQ PUSH2 0x2D1 JUMPI DUP1 PUSH4 0x276D2121 EQ PUSH2 0x2ED JUMPI DUP1 PUSH4 0x29B817C8 EQ PUSH2 0x309 JUMPI PUSH2 0x1C4 JUMP JUMPDEST DUP1 PUSH4 0x81812FC GT PUSH2 0x1A2 JUMPI DUP1 PUSH4 0x81812FC EQ PUSH2 0x235 JUMPI DUP1 PUSH4 0x95EA7B3 EQ PUSH2 0x265 JUMPI DUP1 PUSH4 0xE5C05F1 EQ PUSH2 0x281 JUMPI DUP1 PUSH4 0x1F491389 EQ PUSH2 0x29F JUMPI PUSH2 0x1C4 JUMP JUMPDEST DUP1 PUSH4 0x11D7AB2 EQ PUSH2 0x1C9 JUMPI DUP1 PUSH4 0x1FFC9A7 EQ PUSH2 0x1E7 JUMPI DUP1 PUSH4 0x6FDDE03 EQ PUSH2 0x217 JUMPI JUMPDEST PUSH1 0x0 DUP1 REVERT JUMPDEST PUSH2 0x1D1 PUSH2 0x55B JUMP JUMPDEST PUSH1 0x40 MLOAD PUSH2 0x1DE SWAP2 SWAP1 PUSH2 0x2E49 JUMP JUMPDEST PUSH1 0x40 MLOAD DUP1 SWAP2 SUB SWAP1 RETURN JUMPDEST PUSH2 0x201 PUSH1 0x4 DUP1 CALLDATASIZE SUB DUP2 ADD SWAP1 PUSH2 0x1FC SWAP2 SWAP1 PUSH2 0x2ED0 JUMP JUMPDEST PUSH2 0x561 JUMP JUMPDEST PUSH1 0x40 MLOAD PUSH2 0x20E SWAP2 SWAP1 PUSH2 0x2F18 JUMP JUMPDEST PUSH1 0x40 MLOAD DUP1 SWAP2 SUB SWAP1 RETURN JUMPDEST PUSH2 0x21F PUSH2 0x643 JUMP JUMPDEST PUSH1 0x40 MLOAD PUSH2 0x22C SWAP2 SWAP1 PUSH2 0x2FC3 JUMP JUMPDEST PUSH1 0x40 MLOAD DUP1 SWAP2 SUB SWAP1 RETURN JUMPDEST PUSH2 0x24F PUSH1 0x4 DUP1 CALLDATASIZE SUB DUP2 ADD SWAP1 PUSH2 0x24A SWAP2 SWAP1 PUSH2 0x3011 JUMP JUMPDEST PUSH2 0x6D5 JUMP JUMPDEST PUSH1 0x40 MLOAD PUSH2 0x25C SWAP2 SWAP1 PUSH2 0x307F JUMP JUMPDEST PUSH1 0x40 MLOAD DUP1 SWAP2 SUB SWAP1 RETURN JUMPDEST PUSH2 0x27F PUSH1 0x4 DUP1 CALLDATASIZE SUB DUP2 ADD SWAP1 PUSH2 0x27A SWAP2 SWAP1 PUSH2 0x30C6 JUMP JUMPDEST PUSH2 0x6F1 JUMP JUMPDEST STOP JUMPDEST PUSH2 0x289 PUSH2 0x707 JUMP JUMPDEST PUSH1 0x40 MLOAD PUSH2 0x296 SWAP2 SWAP1 PUSH2 0x307F JUMP JUMPDEST PUSH1 0x40 MLOAD DUP1 SWAP2 SUB SWAP1 RETURN JUMPDEST PUSH2 0x2B9 PUSH1 0x4 DUP1 CALLDATASIZE SUB DUP2 ADD SWAP1 PUSH2 0x2B4 SWAP2 SWAP1 PUSH2 0x3011 JUMP JUMPDEST PUSH2 0x72D JUMP JUMPDEST PUSH1 0x40 MLOAD PUSH2 0x2C8 SWAP4 SWAP3 SWAP2 SWAP1 PUSH2 0x3122 JUMP JUMPDEST PUSH1 0x40 MLOAD DUP1 SWAP2 SUB SWAP1 RETURN JUMPDEST PUSH2 0x2EB PUSH1 0x4 DUP1 CALLDATASIZE SUB DUP2 ADD SWAP1 PUSH2 0x2E6 SWAP2 SWAP1 PUSH2 0x3159 JUMP JUMPDEST PUSH2 0x78E JUMP JUMPDEST STOP JUMPDEST PUSH2 0x307 PUSH1 0x4 DUP1 CALLDATASIZE SUB DUP2 ADD SWAP1 PUSH2 0x302 SWAP2 SWAP1 PUSH2 0x3320 JUMP JUMPDEST PUSH2 0x890 JUMP JUMPDEST STOP JUMPDEST PUSH2 0x311 PUSH2 0xBA2 JUMP JUMPDEST PUSH1 0x40 MLOAD PUSH2 0x31E SWAP2 SWAP1 PUSH2 0x2E49 JUMP JUMPDEST PUSH1 0x40 MLOAD DUP1 SWAP2 SUB SWAP1 RETURN JUMPDEST PUSH2 0x341 PUSH1 0x4 DUP1 CALLDATASIZE SUB DUP2 ADD SWAP1 PUSH2 0x33C SWAP2 SWAP1 PUSH2 0x3159 JUMP JUMPDEST PUSH2 0xBAC JUMP JUMPDEST STOP JUMPDEST PUSH2 0x34B PUSH2 0xBCC JUMP JUMPDEST PUSH1 0x40 MLOAD PUSH2 0x358 SWAP2 SWAP1 PUSH2 0x307F JUMP JUMPDEST PUSH1 0x40 MLOAD DUP1 SWAP2 SUB SWAP1 RETURN JUMPDEST PUSH2 0x37B PUSH1 0x4 DUP1 CALLDATASIZE SUB DUP2 ADD SWAP1 PUSH2 0x376 SWAP2 SWAP1 PUSH2 0x3011 JUMP JUMPDEST PUSH2 0xBF2 JUMP JUMPDEST PUSH1 0x40 MLOAD PUSH2 0x388 SWAP2 SWAP1 PUSH2 0x307F JUMP JUMPDEST PUSH1 0x40 MLOAD DUP1 SWAP2 SUB SWAP1 RETURN JUMPDEST PUSH2 0x3AB PUSH1 0x4 DUP1 CALLDATASIZE SUB DUP2 ADD SWAP1 PUSH2 0x3A6 SWAP2 SWAP1 PUSH2 0x3369 JUMP JUMPDEST PUSH2 0xC04 JUMP JUMPDEST PUSH1 0x40 MLOAD PUSH2 0x3B8 SWAP2 SWAP1 PUSH2 0x2E49 JUMP JUMPDEST PUSH1 0x40 MLOAD DUP1 SWAP2 SUB SWAP1 RETURN JUMPDEST PUSH2 0x3C9 PUSH2 0xCBE JUMP JUMPDEST PUSH1 0x40 MLOAD PUSH2 0x3D6 SWAP2 SWAP1 PUSH2 0x340D JUMP JUMPDEST PUSH1 0x40 MLOAD DUP1 SWAP2 SUB SWAP1 RETURN JUMPDEST PUSH2 0x3E7 PUSH2 0xCD1 JUMP JUMPDEST PUSH1 0x40 MLOAD PUSH2 0x3F4 SWAP2 SWAP1 PUSH2 0x361A JUMP JUMPDEST PUSH1 0x40 MLOAD DUP1 SWAP2 SUB SWAP1 RETURN JUMPDEST PUSH2 0x405 PUSH2 0xE03 JUMP JUMPDEST PUSH1 0x40 MLOAD PUSH2 0x412 SWAP2 SWAP1 PUSH2 0x2E49 JUMP JUMPDEST PUSH1 0x40 MLOAD DUP1 SWAP2 SUB SWAP1 RETURN JUMPDEST PUSH2 0x423 PUSH2 0xE0D JUMP JUMPDEST STOP JUMPDEST PUSH2 0x42D PUSH2 0xF10 JUMP JUMPDEST STOP JUMPDEST PUSH2 0x437 PUSH2 0x1013 JUMP JUMPDEST PUSH1 0x40 MLOAD PUSH2 0x444 SWAP2 SWAP1 PUSH2 0x2FC3 JUMP JUMPDEST PUSH1 0x40 MLOAD DUP1 SWAP2 SUB SWAP1 RETURN JUMPDEST PUSH2 0x467 PUSH1 0x4 DUP1 CALLDATASIZE SUB DUP2 ADD SWAP1 PUSH2 0x462 SWAP2 SWAP1 PUSH2 0x3668 JUMP JUMPDEST PUSH2 0x10A5 JUMP JUMPDEST STOP JUMPDEST PUSH2 0x483 PUSH1 0x4 DUP1 CALLDATASIZE SUB DUP2 ADD SWAP1 PUSH2 0x47E SWAP2 SWAP1 PUSH2 0x3320 JUMP JUMPDEST PUSH2 0x10BB JUMP JUMPDEST STOP JUMPDEST PUSH2 0x49F PUSH1 0x4 DUP1 CALLDATASIZE SUB DUP2 ADD SWAP1 PUSH2 0x49A SWAP2 SWAP1 PUSH2 0x375D JUMP JUMPDEST PUSH2 0x1705 JUMP JUMPDEST STOP JUMPDEST PUSH2 0x4A9 PUSH2 0x1722 JUMP JUMPDEST PUSH1 0x40 MLOAD PUSH2 0x4B6 SWAP2 SWAP1 PUSH2 0x2E49 JUMP JUMPDEST PUSH1 0x40 MLOAD DUP1 SWAP2 SUB SWAP1 RETURN JUMPDEST PUSH2 0x4C7 PUSH2 0x1728 JUMP JUMPDEST PUSH1 0x40 MLOAD PUSH2 0x4D4 SWAP2 SWAP1 PUSH2 0x2E49 JUMP JUMPDEST PUSH1 0x40 MLOAD DUP1 SWAP2 SUB SWAP1 RETURN JUMPDEST PUSH2 0x4F7 PUSH1 0x4 DUP1 CALLDATASIZE SUB DUP2 ADD SWAP1 PUSH2 0x4F2 SWAP2 SWAP1 PUSH2 0x3011 JUMP JUMPDEST PUSH2 0x172E JUMP JUMPDEST PUSH1 0x40 MLOAD PUSH2 0x504 SWAP2 SWAP1 PUSH2 0x2FC3 JUMP JUMPDEST PUSH1 0x40 MLOAD DUP1 SWAP2 SUB SWAP1 RETURN JUMPDEST PUSH2 0x527 PUSH1 0x4 DUP1 CALLDATASIZE SUB DUP2 ADD SWAP1 PUSH2 0x522 SWAP2 SWAP1 PUSH2 0x37E0 JUMP JUMPDEST PUSH2 0x1872 JUMP JUMPDEST PUSH1 0x40 MLOAD PUSH2 0x534 SWAP2 SWAP1 PUSH2 0x2F18 JUMP JUMPDEST PUSH1 0x40 MLOAD DUP1 SWAP2 SUB SWAP1 RETURN JUMPDEST PUSH2 0x545 PUSH2 0x1906 JUMP JUMPDEST PUSH1 0x40 MLOAD PUSH2 0x552 SWAP2 SWAP1 PUSH2 0x2F18 JUMP JUMPDEST PUSH1 0x40 MLOAD DUP1 SWAP2 SUB SWAP1 RETURN JUMPDEST PUSH1 0xF SLOAD DUP2 JUMP JUMPDEST PUSH1 0x0 PUSH32 0x80AC58CD00000000000000000000000000000000000000000000000000000000 PUSH28 0xFFFFFFFFFFFFFFFFFFFFFFFFFFFFFFFFFFFFFFFFFFFFFFFFFFFFFFFF NOT AND DUP3 PUSH28 0xFFFFFFFFFFFFFFFFFFFFFFFFFFFFFFFFFFFFFFFFFFFFFFFFFFFFFFFF NOT AND EQ DUP1 PUSH2 0x62C JUMPI POP PUSH32 0x5B5E139F00000000000000000000000000000000000000000000000000000000 PUSH28 0xFFFFFFFFFFFFFFFFFFFFFFFFFFFFFFFFFFFFFFFFFFFFFFFFFFFFFFFF NOT AND DUP3 PUSH28 0xFFFFFFFFFFFFFFFFFFFFFFFFFFFFFFFFFFFFFFFFFFFFFFFFFFFFFFFF NOT AND EQ JUMPDEST DUP1 PUSH2 0x63C JUMPI POP PUSH2 0x63B DUP3 PUSH2 0x1919 JUMP JUMPDEST JUMPDEST SWAP1 POP SWAP2 SWAP1 POP JUMP JUMPDEST PUSH1 0x60 PUSH1 0x0 DUP1 SLOAD PUSH2 0x652 SWAP1 PUSH2 0x384F JUMP JUMPDEST DUP1 PUSH1 0x1F ADD PUSH1 0x20 DUP1 SWAP2 DIV MUL PUSH1 0x20 ADD PUSH1 0x40 MLOAD SWAP1 DUP2 ADD PUSH1 0x40 MSTORE DUP1 SWAP3 SWAP2 SWAP1 DUP2 DUP2 MSTORE PUSH1 0x20 ADD DUP3 DUP1 SLOAD PUSH2 0x67E SWAP1 PUSH2 0x384F JUMP JUMPDEST DUP1 ISZERO PUSH2 0x6CB JUMPI DUP1 PUSH1 0x1F LT PUSH2 0x6A0 JUMPI PUSH2 0x100 DUP1 DUP4 SLOAD DIV MUL DUP4 MSTORE SWAP2 PUSH1 0x20 ADD SWAP2 PUSH2 0x6CB JUMP JUMPDEST DUP3 ADD SWAP2 SWAP1 PUSH1 0x0 MSTORE PUSH1 0x20 PUSH1 0x0 KECCAK256 SWAP1 JUMPDEST DUP2 SLOAD DUP2 MSTORE SWAP1 PUSH1 0x1 ADD SWAP1 PUSH1 0x20 ADD DUP1 DUP4 GT PUSH2 0x6AE JUMPI DUP3 SWAP1 SUB PUSH1 0x1F AND DUP3 ADD SWAP2 JUMPDEST POP POP POP POP POP SWAP1 POP SWAP1 JUMP JUMPDEST PUSH1 0x0 PUSH2 0x6E0 DUP3 PUSH2 0x1983 JUMP JUMPDEST POP PUSH2 0x6EA DUP3 PUSH2 0x1A0B JUMP JUMPDEST SWAP1 POP SWAP2 SWAP1 POP JUMP JUMPDEST PUSH2 0x703 DUP3 DUP3 PUSH2 0x6FE PUSH2 0x1A48 JUMP JUMPDEST PUSH2 0x1A50 JUMP JUMPDEST POP POP JUMP JUMPDEST PUSH1 0x8 PUSH1 0x0 SWAP1 SLOAD SWAP1 PUSH2 0x100 EXP SWAP1 DIV PUSH20 0xFFFFFFFFFFFFFFFFFFFFFFFFFFFFFFFFFFFFFFFF AND DUP2 JUMP JUMPDEST PUSH1 0xD DUP2 DUP2 SLOAD DUP2 LT PUSH2 0x73D JUMPI PUSH1 0x0 DUP1 REVERT JUMPDEST SWAP1 PUSH1 0x0 MSTORE PUSH1 0x20 PUSH1 0x0 KECCAK256 SWAP1 PUSH1 0x2 MUL ADD PUSH1 0x0 SWAP2 POP SWAP1 POP DUP1 PUSH1 0x1 ADD PUSH1 0x0 SWAP1 SLOAD SWAP1 PUSH2 0x100 EXP SWAP1 DIV PUSH1 0xFF AND SWAP1 DUP1 PUSH1 0x1 ADD PUSH1 0x1 SWAP1 SLOAD SWAP1 PUSH2 0x100 EXP SWAP1 DIV PUSH1 0xFF AND SWAP1 DUP1 PUSH1 0x1 ADD PUSH1 0x2 SWAP1 SLOAD SWAP1 PUSH2 0x100 EXP SWAP1 DIV PUSH1 0xFF AND SWAP1 POP DUP4 JUMP JUMPDEST PUSH1 0x0 PUSH20 0xFFFFFFFFFFFFFFFFFFFFFFFFFFFFFFFFFFFFFFFF AND DUP3 PUSH20 0xFFFFFFFFFFFFFFFFFFFFFFFFFFFFFFFFFFFFFFFF AND SUB PUSH2 0x800 JUMPI PUSH1 0x0 PUSH1 0x40 MLOAD PUSH32 0x64A0AE9200000000000000000000000000000000000000000000000000000000 DUP2 MSTORE PUSH1 0x4 ADD PUSH2 0x7F7 SWAP2 SWAP1 PUSH2 0x307F JUMP JUMPDEST PUSH1 0x40 MLOAD DUP1 SWAP2 SUB SWAP1 REVERT JUMPDEST PUSH1 0x0 PUSH2 0x814 DUP4 DUP4 PUSH2 0x80F PUSH2 0x1A48 JUMP JUMPDEST PUSH2 0x1A62 JUMP JUMPDEST SWAP1 POP DUP4 PUSH20 0xFFFFFFFFFFFFFFFFFFFFFFFFFFFFFFFFFFFFFFFF AND DUP2 PUSH20 0xFFFFFFFFFFFFFFFFFFFFFFFFFFFFFFFFFFFFFFFF AND EQ PUSH2 0x88A JUMPI DUP4 DUP3 DUP3 PUSH1 0x40 MLOAD PUSH32 0x64283D7B00000000000000000000000000000000000000000000000000000000 DUP2 MSTORE PUSH1 0x4 ADD PUSH2 0x881 SWAP4 SWAP3 SWAP2 SWAP1 PUSH2 0x3880 JUMP JUMPDEST PUSH1 0x40 MLOAD DUP1 SWAP2 SUB SWAP1 REVERT JUMPDEST POP POP POP POP JUMP JUMPDEST PUSH1 0x7 PUSH1 0x0 SWAP1 SLOAD SWAP1 PUSH2 0x100 EXP SWAP1 DIV PUSH20 0xFFFFFFFFFFFFFFFFFFFFFFFFFFFFFFFFFFFFFFFF AND PUSH20 0xFFFFFFFFFFFFFFFFFFFFFFFFFFFFFFFFFFFFFFFF AND CALLER PUSH20 0xFFFFFFFFFFFFFFFFFFFFFFFFFFFFFFFFFFFFFFFF AND EQ PUSH2 0x920 JUMPI PUSH1 0x40 MLOAD PUSH32 0x8C379A000000000000000000000000000000000000000000000000000000000 DUP2 MSTORE PUSH1 0x4 ADD PUSH2 0x917 SWAP1 PUSH2 0x3929 JUMP JUMPDEST PUSH1 0x40 MLOAD DUP1 SWAP2 SUB SWAP1 REVERT JUMPDEST PUSH1 0x0 PUSH20 0xFFFFFFFFFFFFFFFFFFFFFFFFFFFFFFFFFFFFFFFF AND PUSH1 0x8 PUSH1 0x0 SWAP1 SLOAD SWAP1 PUSH2 0x100 EXP SWAP1 DIV PUSH20 0xFFFFFFFFFFFFFFFFFFFFFFFFFFFFFFFFFFFFFFFF AND PUSH20 0xFFFFFFFFFFFFFFFFFFFFFFFFFFFFFFFFFFFFFFFF AND SUB PUSH2 0x9B1 JUMPI PUSH1 0x40 MLOAD PUSH32 0x8C379A000000000000000000000000000000000000000000000000000000000 DUP2 MSTORE PUSH1 0x4 ADD PUSH2 0x9A8 SWAP1 PUSH2 0x3995 JUMP JUMPDEST PUSH1 0x40 MLOAD DUP1 SWAP2 SUB SWAP1 REVERT JUMPDEST PUSH1 0x4 PUSH1 0xFF AND DUP2 MLOAD EQ PUSH2 0x9F8 JUMPI PUSH1 0x40 MLOAD PUSH32 0x8C379A000000000000000000000000000000000000000000000000000000000 DUP2 MSTORE PUSH1 0x4 ADD PUSH2 0x9EF SWAP1 PUSH2 0x3A27 JUMP JUMPDEST PUSH1 0x40 MLOAD DUP1 SWAP2 SUB SWAP1 REVERT JUMPDEST DUP1 PUSH1 0xA SWAP1 DUP1 MLOAD SWAP1 PUSH1 0x20 ADD SWAP1 PUSH2 0xA0E SWAP3 SWAP2 SWAP1 PUSH2 0x2C9B JUMP JUMPDEST POP DUP1 PUSH1 0x40 MLOAD PUSH1 0x20 ADD PUSH2 0xA20 SWAP2 SWAP1 PUSH2 0x3AD7 JUMP JUMPDEST PUSH1 0x40 MLOAD PUSH1 0x20 DUP2 DUP4 SUB SUB DUP2 MSTORE SWAP1 PUSH1 0x40 MSTORE DUP1 MLOAD SWAP1 PUSH1 0x20 ADD KECCAK256 PUSH1 0x9 DUP2 SWAP1 SSTORE POP PUSH1 0x0 PUSH1 0xB DUP2 SWAP1 SSTORE POP PUSH1 0xD PUSH1 0x0 PUSH2 0xA52 SWAP2 SWAP1 PUSH2 0x2D42 JUMP JUMPDEST PUSH1 0x1 PUSH1 0xC PUSH1 0x0 PUSH2 0x100 EXP DUP2 SLOAD DUP2 PUSH1 0xFF MUL NOT AND SWAP1 DUP4 ISZERO ISZERO MUL OR SWAP1 SSTORE POP PUSH1 0x0 PUSH1 0xC PUSH1 0x1 PUSH2 0x100 EXP DUP2 SLOAD DUP2 PUSH1 0xFF MUL NOT AND SWAP1 DUP4 PUSH1 0x2 DUP2 GT ISZERO PUSH2 0xA93 JUMPI PUSH2 0xA92 PUSH2 0x3396 JUMP JUMPDEST JUMPDEST MUL OR SWAP1 SSTORE POP PUSH1 0x0 PUSH1 0xE DUP2 SWAP1 SSTORE POP PUSH1 0x0 PUSH1 0xF DUP2 SWAP1 SSTORE POP PUSH1 0x7 PUSH1 0x0 SWAP1 SLOAD SWAP1 PUSH2 0x100 EXP SWAP1 DIV PUSH20 0xFFFFFFFFFFFFFFFFFFFFFFFFFFFFFFFFFFFFFFFF AND PUSH20 0xFFFFFFFFFFFFFFFFFFFFFFFFFFFFFFFFFFFFFFFF AND PUSH32 0xEA32A03505FD9F04D664676D72295A86C5FB0465E69654751907CA305BC1D1C7 TIMESTAMP PUSH1 0x40 MLOAD PUSH2 0xB10 SWAP2 SWAP1 PUSH2 0x2E49 JUMP JUMPDEST PUSH1 0x40 MLOAD DUP1 SWAP2 SUB SWAP1 LOG2 PUSH32 0xAFCF3201AA5A8B6350CD7E42802F62089C82CF3E88F4EF6D7A1CABD94763D8D9 PUSH1 0xC PUSH1 0x1 SWAP1 SLOAD SWAP1 PUSH2 0x100 EXP SWAP1 DIV PUSH1 0xFF AND TIMESTAMP PUSH1 0x40 MLOAD PUSH2 0xB58 SWAP3 SWAP2 SWAP1 PUSH2 0x3AEE JUMP JUMPDEST PUSH1 0x40 MLOAD DUP1 SWAP2 SUB SWAP1 LOG1 PUSH32 0xB2383E82269E758B9EC0FC961AC69CECC166570A12068C11B3F9CF29C8DE9E88 PUSH1 0xE SLOAD PUSH1 0xF SLOAD TIMESTAMP PUSH1 0x40 MLOAD PUSH2 0xB97 SWAP4 SWAP3 SWAP2 SWAP1 PUSH2 0x3B17 JUMP JUMPDEST PUSH1 0x40 MLOAD DUP1 SWAP2 SUB SWAP1 LOG1 POP JUMP JUMPDEST PUSH1 0x0 PUSH1 0xF SLOAD SWAP1 POP SWAP1 JUMP JUMPDEST PUSH2 0xBC7 DUP4 DUP4 DUP4 PUSH1 0x40 MLOAD DUP1 PUSH1 0x20 ADD PUSH1 0x40 MSTORE DUP1 PUSH1 0x0 DUP2 MSTORE POP PUSH2 0x1705 JUMP JUMPDEST POP POP POP JUMP JUMPDEST PUSH1 0x7 PUSH1 0x0 SWAP1 SLOAD SWAP1 PUSH2 0x100 EXP SWAP1 DIV PUSH20 0xFFFFFFFFFFFFFFFFFFFFFFFFFFFFFFFFFFFFFFFF AND DUP2 JUMP JUMPDEST PUSH1 0x0 PUSH2 0xBFD DUP3 PUSH2 0x1983 JUMP JUMPDEST SWAP1 POP SWAP2 SWAP1 POP JUMP JUMPDEST PUSH1 0x0 DUP1 PUSH20 0xFFFFFFFFFFFFFFFFFFFFFFFFFFFFFFFFFFFFFFFF AND DUP3 PUSH20 0xFFFFFFFFFFFFFFFFFFFFFFFFFFFFFFFFFFFFFFFF AND SUB PUSH2 0xC77 JUMPI PUSH1 0x0 PUSH1 0x40 MLOAD PUSH32 0x89C62B6400000000000000000000000000000000000000000000000000000000 DUP2 MSTORE PUSH1 0x4 ADD PUSH2 0xC6E SWAP2 SWAP1 PUSH2 0x307F JUMP JUMPDEST PUSH1 0x40 MLOAD DUP1 SWAP2 SUB SWAP1 REVERT JUMPDEST PUSH1 0x3 PUSH1 0x0 DUP4 PUSH20 0xFFFFFFFFFFFFFFFFFFFFFFFFFFFFFFFFFFFFFFFF AND PUSH20 0xFFFFFFFFFFFFFFFFFFFFFFFFFFFFFFFFFFFFFFFF AND DUP2 MSTORE PUSH1 0x20 ADD SWAP1 DUP2 MSTORE PUSH1 0x20 ADD PUSH1 0x0 KECCAK256 SLOAD SWAP1 POP SWAP2 SWAP1 POP JUMP JUMPDEST PUSH1 0xC PUSH1 0x1 SWAP1 SLOAD SWAP1 PUSH2 0x100 EXP SWAP1 DIV PUSH1 0xFF AND DUP2 JUMP JUMPDEST PUSH1 0x60 PUSH1 0xD DUP1 SLOAD DUP1 PUSH1 0x20 MUL PUSH1 0x20 ADD PUSH1 0x40 MLOAD SWAP1 DUP2 ADD PUSH1 0x40 MSTORE DUP1 SWAP3 SWAP2 SWAP1 DUP2 DUP2 MSTORE PUSH1 0x20 ADD PUSH1 0x0 SWAP1 JUMPDEST DUP3 DUP3 LT ISZERO PUSH2 0xDFA JUMPI DUP4 DUP3 SWAP1 PUSH1 0x0 MSTORE PUSH1 0x20 PUSH1 0x0 KECCAK256 SWAP1 PUSH1 0x2 MUL ADD PUSH1 0x40 MLOAD DUP1 PUSH1 0x80 ADD PUSH1 0x40 MSTORE SWAP1 DUP2 PUSH1 0x0 DUP3 ADD DUP1 SLOAD DUP1 PUSH1 0x20 MUL PUSH1 0x20 ADD PUSH1 0x40 MLOAD SWAP1 DUP2 ADD PUSH1 0x40 MSTORE DUP1 SWAP3 SWAP2 SWAP1 DUP2 DUP2 MSTORE PUSH1 0x20 ADD DUP3 DUP1 SLOAD DUP1 ISZERO PUSH2 0xD8D JUMPI PUSH1 0x20 MUL DUP3 ADD SWAP2 SWAP1 PUSH1 0x0 MSTORE PUSH1 0x20 PUSH1 0x0 KECCAK256 SWAP1 PUSH1 0x0 SWAP1 JUMPDEST DUP3 DUP3 SWAP1 SLOAD SWAP1 PUSH2 0x100 EXP SWAP1 DIV PUSH1 0xFF AND PUSH1 0xFF AND DUP2 MSTORE PUSH1 0x20 ADD SWAP1 PUSH1 0x1 ADD SWAP1 PUSH1 0x20 DUP3 PUSH1 0x0 ADD DIV SWAP3 DUP4 ADD SWAP3 PUSH1 0x1 SUB DUP3 MUL SWAP2 POP DUP1 DUP5 GT PUSH2 0xD56 JUMPI SWAP1 POP JUMPDEST POP POP POP POP POP DUP2 MSTORE PUSH1 0x20 ADD PUSH1 0x1 DUP3 ADD PUSH1 0x0 SWAP1 SLOAD SWAP1 PUSH2 0x100 EXP SWAP1 DIV PUSH1 0xFF AND PUSH1 0xFF AND PUSH1 0xFF AND DUP2 MSTORE PUSH1 0x20 ADD PUSH1 0x1 DUP3 ADD PUSH1 0x1 SWAP1 SLOAD SWAP1 PUSH2 0x100 EXP SWAP1 DIV PUSH1 0xFF AND PUSH1 0xFF AND PUSH1 0xFF AND DUP2 MSTORE PUSH1 0x20 ADD PUSH1 0x1 DUP3 ADD PUSH1 0x2 SWAP1 SLOAD SWAP1 PUSH2 0x100 EXP SWAP1 DIV PUSH1 0xFF AND ISZERO ISZERO ISZERO ISZERO DUP2 MSTORE POP POP DUP2 MSTORE PUSH1 0x20 ADD SWAP1 PUSH1 0x1 ADD SWAP1 PUSH2 0xCF5 JUMP JUMPDEST POP POP POP POP SWAP1 POP SWAP1 JUMP JUMPDEST PUSH1 0x0 PUSH1 0xE SLOAD SWAP1 POP SWAP1 JUMP JUMPDEST PUSH1 0xC PUSH1 0x0 SWAP1 SLOAD SWAP1 PUSH2 0x100 EXP SWAP1 DIV PUSH1 0xFF AND ISZERO PUSH2 0xE5D JUMPI PUSH1 0x40 MLOAD PUSH32 0x8C379A000000000000000000000000000000000000000000000000000000000 DUP2 MSTORE PUSH1 0x4 ADD PUSH2 0xE54 SWAP1 PUSH2 0x3B9A JUMP JUMPDEST PUSH1 0x40 MLOAD DUP1 SWAP2 SUB SWAP1 REVERT JUMPDEST CALLER PUSH1 0x8 PUSH1 0x0 PUSH2 0x100 EXP DUP2 SLOAD DUP2 PUSH20 0xFFFFFFFFFFFFFFFFFFFFFFFFFFFFFFFFFFFFFFFF MUL NOT AND SWAP1 DUP4 PUSH20 0xFFFFFFFFFFFFFFFFFFFFFFFFFFFFFFFFFFFFFFFF AND MUL OR SWAP1 SSTORE POP PUSH1 0x8 PUSH1 0x0 SWAP1 SLOAD SWAP1 PUSH2 0x100 EXP SWAP1 DIV PUSH20 0xFFFFFFFFFFFFFFFFFFFFFFFFFFFFFFFFFFFFFFFF AND PUSH20 0xFFFFFFFFFFFFFFFFFFFFFFFFFFFFFFFFFFFFFFFF AND PUSH32 0xE030CCA42591FDC0FE1E7A7CC3892F5F6D13AAA3AEBCAFA2563C78DF1B9DE251 TIMESTAMP PUSH1 0x40 MLOAD PUSH2 0xF06 SWAP2 SWAP1 PUSH2 0x2E49 JUMP JUMPDEST PUSH1 0x40 MLOAD DUP1 SWAP2 SUB SWAP1 LOG2 JUMP JUMPDEST PUSH1 0xC PUSH1 0x0 SWAP1 SLOAD SWAP1 PUSH2 0x100 EXP SWAP1 DIV PUSH1 0xFF AND ISZERO PUSH2 0xF60 JUMPI PUSH1 0x40 MLOAD PUSH32 0x8C379A000000000000000000000000000000000000000000000000000000000 DUP2 MSTORE PUSH1 0x4 ADD PUSH2 0xF57 SWAP1 PUSH2 0x3B9A JUMP JUMPDEST PUSH1 0x40 MLOAD DUP1 SWAP2 SUB SWAP1 REVERT JUMPDEST CALLER PUSH1 0x7 PUSH1 0x0 PUSH2 0x100 EXP DUP2 SLOAD DUP2 PUSH20 0xFFFFFFFFFFFFFFFFFFFFFFFFFFFFFFFFFFFFFFFF MUL NOT AND SWAP1 DUP4 PUSH20 0xFFFFFFFFFFFFFFFFFFFFFFFFFFFFFFFFFFFFFFFF AND MUL OR SWAP1 SSTORE POP PUSH1 0x7 PUSH1 0x0 SWAP1 SLOAD SWAP1 PUSH2 0x100 EXP SWAP1 DIV PUSH20 0xFFFFFFFFFFFFFFFFFFFFFFFFFFFFFFFFFFFFFFFF AND PUSH20 0xFFFFFFFFFFFFFFFFFFFFFFFFFFFFFFFFFFFFFFFF AND PUSH32 0x65BD3084C68C3B9E4A26F0857A1C9A69285E55DED79629480351F98856F096A2 TIMESTAMP PUSH1 0x40 MLOAD PUSH2 0x1009 SWAP2 SWAP1 PUSH2 0x2E49 JUMP JUMPDEST PUSH1 0x40 MLOAD DUP1 SWAP2 SUB SWAP1 LOG2 JUMP JUMPDEST PUSH1 0x60 PUSH1 0x1 DUP1 SLOAD PUSH2 0x1022 SWAP1 PUSH2 0x384F JUMP JUMPDEST DUP1 PUSH1 0x1F ADD PUSH1 0x20 DUP1 SWAP2 DIV MUL PUSH1 0x20 ADD PUSH1 0x40 MLOAD SWAP1 DUP2 ADD PUSH1 0x40 MSTORE DUP1 SWAP3 SWAP2 SWAP1 DUP2 DUP2 MSTORE PUSH1 0x20 ADD DUP3 DUP1 SLOAD PUSH2 0x104E SWAP1 PUSH2 0x384F JUMP JUMPDEST DUP1 ISZERO PUSH2 0x109B JUMPI DUP1 PUSH1 0x1F LT PUSH2 0x1070 JUMPI PUSH2 0x100 DUP1 DUP4 SLOAD DIV MUL DUP4 MSTORE SWAP2 PUSH1 0x20 ADD SWAP2 PUSH2 0x109B JUMP JUMPDEST DUP3 ADD SWAP2 SWAP1 PUSH1 0x0 MSTORE PUSH1 0x20 PUSH1 0x0 KECCAK256 SWAP1 JUMPDEST DUP2 SLOAD DUP2 MSTORE SWAP1 PUSH1 0x1 ADD SWAP1 PUSH1 0x20 ADD DUP1 DUP4 GT PUSH2 0x107E JUMPI DUP3 SWAP1 SUB PUSH1 0x1F AND DUP3 ADD SWAP2 JUMPDEST POP POP POP POP POP SWAP1 POP SWAP1 JUMP JUMPDEST PUSH2 0x10B7 PUSH2 0x10B0 PUSH2 0x1A48 JUMP JUMPDEST DUP4 DUP4 PUSH2 0x1C7C JUMP JUMPDEST POP POP JUMP JUMPDEST PUSH1 0x8 PUSH1 0x0 SWAP1 SLOAD SWAP1 PUSH2 0x100 EXP SWAP1 DIV PUSH20 0xFFFFFFFFFFFFFFFFFFFFFFFFFFFFFFFFFFFFFFFF AND PUSH20 0xFFFFFFFFFFFFFFFFFFFFFFFFFFFFFFFFFFFFFFFF AND CALLER PUSH20 0xFFFFFFFFFFFFFFFFFFFFFFFFFFFFFFFFFFFFFFFF AND EQ PUSH2 0x114B JUMPI PUSH1 0x40 MLOAD PUSH32 0x8C379A000000000000000000000000000000000000000000000000000000000 DUP2 MSTORE PUSH1 0x4 ADD PUSH2 0x1142 SWAP1 PUSH2 0x3C2C JUMP JUMPDEST PUSH1 0x40 MLOAD DUP1 SWAP2 SUB SWAP1 REVERT JUMPDEST PUSH1 0xC PUSH1 0x0 SWAP1 SLOAD SWAP1 PUSH2 0x100 EXP SWAP1 DIV PUSH1 0xFF AND PUSH2 0x119A JUMPI PUSH1 0x40 MLOAD PUSH32 0x8C379A000000000000000000000000000000000000000000000000000000000 DUP2 MSTORE PUSH1 0x4 ADD PUSH2 0x1191 SWAP1 PUSH2 0x3C98 JUMP JUMPDEST PUSH1 0x40 MLOAD DUP1 SWAP2 SUB SWAP1 REVERT JUMPDEST PUSH1 0x4 PUSH1 0xFF AND DUP2 MLOAD EQ PUSH2 0x11E1 JUMPI PUSH1 0x40 MLOAD PUSH32 0x8C379A000000000000000000000000000000000000000000000000000000000 DUP2 MSTORE PUSH1 0x4 ADD PUSH2 0x11D8 SWAP1 PUSH2 0x3D04 JUMP JUMPDEST PUSH1 0x40 MLOAD DUP1 SWAP2 SUB SWAP1 REVERT JUMPDEST PUSH1 0xA PUSH1 0xFF AND PUSH1 0xB SLOAD LT PUSH2 0x1229 JUMPI PUSH1 0x40 MLOAD PUSH32 0x8C379A000000000000000000000000000000000000000000000000000000000 DUP2 MSTORE PUSH1 0x4 ADD PUSH2 0x1220 SWAP1 PUSH2 0x3D96 JUMP JUMPDEST PUSH1 0x40 MLOAD DUP1 SWAP2 SUB SWAP1 REVERT JUMPDEST PUSH1 0x0 DUP1 PUSH2 0x1235 DUP4 PUSH2 0x1DEB JUMP JUMPDEST SWAP2 POP SWAP2 POP PUSH1 0x0 PUSH1 0x4 PUSH1 0xFF AND DUP4 PUSH1 0xFF AND EQ SWAP1 POP PUSH1 0xD PUSH1 0x40 MLOAD DUP1 PUSH1 0x80 ADD PUSH1 0x40 MSTORE DUP1 DUP7 DUP2 MSTORE PUSH1 0x20 ADD DUP6 PUSH1 0xFF AND DUP2 MSTORE PUSH1 0x20 ADD DUP5 PUSH1 0xFF AND DUP2 MSTORE PUSH1 0x20 ADD DUP4 ISZERO ISZERO DUP2 MSTORE POP SWAP1 DUP1 PUSH1 0x1 DUP2 SLOAD ADD DUP1 DUP3 SSTORE DUP1 SWAP2 POP POP PUSH1 0x1 SWAP1 SUB SWAP1 PUSH1 0x0 MSTORE PUSH1 0x20 PUSH1 0x0 KECCAK256 SWAP1 PUSH1 0x2 MUL ADD PUSH1 0x0 SWAP1 SWAP2 SWAP1 SWAP2 SWAP1 SWAP2 POP PUSH1 0x0 DUP3 ADD MLOAD DUP2 PUSH1 0x0 ADD SWAP1 DUP1 MLOAD SWAP1 PUSH1 0x20 ADD SWAP1 PUSH2 0x12B7 SWAP3 SWAP2 SWAP1 PUSH2 0x2C9B JUMP JUMPDEST POP PUSH1 0x20 DUP3 ADD MLOAD DUP2 PUSH1 0x1 ADD PUSH1 0x0 PUSH2 0x100 EXP DUP2 SLOAD DUP2 PUSH1 0xFF MUL NOT AND SWAP1 DUP4 PUSH1 0xFF AND MUL OR SWAP1 SSTORE POP PUSH1 0x40 DUP3 ADD MLOAD DUP2 PUSH1 0x1 ADD PUSH1 0x1 PUSH2 0x100 EXP DUP2 SLOAD DUP2 PUSH1 0xFF MUL NOT AND SWAP1 DUP4 PUSH1 0xFF AND MUL OR SWAP1 SSTORE POP PUSH1 0x60 DUP3 ADD MLOAD DUP2 PUSH1 0x1 ADD PUSH1 0x2 PUSH2 0x100 EXP DUP2 SLOAD DUP2 PUSH1 0xFF MUL NOT AND SWAP1 DUP4 ISZERO ISZERO MUL OR SWAP1 SSTORE POP POP POP PUSH1 0x8 PUSH1 0x0 SWAP1 SLOAD SWAP1 PUSH2 0x100 EXP SWAP1 DIV PUSH20 0xFFFFFFFFFFFFFFFFFFFFFFFFFFFFFFFFFFFFFFFF AND PUSH20 0xFFFFFFFFFFFFFFFFFFFFFFFFFFFFFFFFFFFFFFFF AND PUSH32 0xB733E8664B442058353DB00385A5C6640F039B74589925D748092F1D1B6BAAD DUP6 DUP6 DUP6 DUP6 TIMESTAMP PUSH1 0x40 MLOAD PUSH2 0x138C SWAP6 SWAP5 SWAP4 SWAP3 SWAP2 SWAP1 PUSH2 0x3E25 JUMP JUMPDEST PUSH1 0x40 MLOAD DUP1 SWAP2 SUB SWAP1 LOG2 DUP1 ISZERO PUSH2 0x153C JUMPI PUSH1 0x0 PUSH1 0xC PUSH1 0x0 PUSH2 0x100 EXP DUP2 SLOAD DUP2 PUSH1 0xFF MUL NOT AND SWAP1 DUP4 ISZERO ISZERO MUL OR SWAP1 SSTORE POP PUSH1 0x1 PUSH1 0xC PUSH1 0x1 PUSH2 0x100 EXP DUP2 SLOAD DUP2 PUSH1 0xFF MUL NOT AND SWAP1 DUP4 PUSH1 0x2 DUP2 GT ISZERO PUSH2 0x13DB JUMPI PUSH2 0x13DA PUSH2 0x3396 JUMP JUMPDEST JUMPDEST MUL OR SWAP1 SSTORE POP PUSH2 0x2710 PUSH1 0xE PUSH1 0x0 DUP3 DUP3 SLOAD PUSH2 0x13F4 SWAP2 SWAP1 PUSH2 0x3EAE JUMP JUMPDEST SWAP3 POP POP DUP2 SWAP1 SSTORE POP PUSH2 0x1405 PUSH1 0x6 PUSH2 0x2012 JUMP JUMPDEST PUSH1 0x0 PUSH2 0x1411 PUSH1 0x6 PUSH2 0x2028 JUMP JUMPDEST SWAP1 POP PUSH2 0x143F PUSH1 0x8 PUSH1 0x0 SWAP1 SLOAD SWAP1 PUSH2 0x100 EXP SWAP1 DIV PUSH20 0xFFFFFFFFFFFFFFFFFFFFFFFFFFFFFFFFFFFFFFFF AND DUP3 PUSH2 0x2036 JUMP JUMPDEST PUSH32 0xAFCF3201AA5A8B6350CD7E42802F62089C82CF3E88F4EF6D7A1CABD94763D8D9 PUSH1 0xC PUSH1 0x1 SWAP1 SLOAD SWAP1 PUSH2 0x100 EXP SWAP1 DIV PUSH1 0xFF AND TIMESTAMP PUSH1 0x40 MLOAD PUSH2 0x147F SWAP3 SWAP2 SWAP1 PUSH2 0x3AEE JUMP JUMPDEST PUSH1 0x40 MLOAD DUP1 SWAP2 SUB SWAP1 LOG1 PUSH1 0x8 PUSH1 0x0 SWAP1 SLOAD SWAP1 PUSH2 0x100 EXP SWAP1 DIV PUSH20 0xFFFFFFFFFFFFFFFFFFFFFFFFFFFFFFFFFFFFFFFF AND PUSH20 0xFFFFFFFFFFFFFFFFFFFFFFFFFFFFFFFFFFFFFFFF AND PUSH32 0xD4BA6FEC82D9B0E8FFE50B9FED9E4BE3B25C984CE1E0E016405A5528726E8A2C TIMESTAMP PUSH1 0x40 MLOAD PUSH2 0x14EF SWAP2 SWAP1 PUSH2 0x2E49 JUMP JUMPDEST PUSH1 0x40 MLOAD DUP1 SWAP2 SUB SWAP1 LOG2 PUSH32 0xB2383E82269E758B9EC0FC961AC69CECC166570A12068C11B3F9CF29C8DE9E88 PUSH1 0xE SLOAD PUSH1 0xF SLOAD TIMESTAMP PUSH1 0x40 MLOAD PUSH2 0x152E SWAP4 SWAP3 SWAP2 SWAP1 PUSH2 0x3B17 JUMP JUMPDEST PUSH1 0x40 MLOAD DUP1 SWAP2 SUB SWAP1 LOG1 POP PUSH2 0x16FF JUMP JUMPDEST PUSH1 0x64 PUSH1 0xF PUSH1 0x0 DUP3 DUP3 SLOAD PUSH2 0x154F SWAP2 SWAP1 PUSH2 0x3EAE JUMP JUMPDEST SWAP3 POP POP DUP2 SWAP1 SSTORE POP PUSH1 0xB PUSH1 0x0 DUP2 SLOAD DUP1 SWAP3 SWAP2 SWAP1 PUSH2 0x1569 SWAP1 PUSH2 0x3EE2 JUMP JUMPDEST SWAP2 SWAP1 POP SSTORE POP PUSH1 0xA PUSH1 0xFF AND PUSH1 0xB SLOAD LT PUSH2 0x16FE JUMPI PUSH1 0x0 PUSH1 0xC PUSH1 0x0 PUSH2 0x100 EXP DUP2 SLOAD DUP2 PUSH1 0xFF MUL NOT AND SWAP1 DUP4 ISZERO ISZERO MUL OR SWAP1 SSTORE POP PUSH1 0x2 PUSH1 0xC PUSH1 0x1 PUSH2 0x100 EXP DUP2 SLOAD DUP2 PUSH1 0xFF MUL NOT AND SWAP1 DUP4 PUSH1 0x2 DUP2 GT ISZERO PUSH2 0x15BC JUMPI PUSH2 0x15BB PUSH2 0x3396 JUMP JUMPDEST JUMPDEST MUL OR SWAP1 SSTORE POP PUSH2 0x15CB PUSH1 0x6 PUSH2 0x2012 JUMP JUMPDEST PUSH1 0x0 PUSH2 0x15D7 PUSH1 0x6 PUSH2 0x2028 JUMP JUMPDEST SWAP1 POP PUSH2 0x1605 PUSH1 0x7 PUSH1 0x0 SWAP1 SLOAD SWAP1 PUSH2 0x100 EXP SWAP1 DIV PUSH20 0xFFFFFFFFFFFFFFFFFFFFFFFFFFFFFFFFFFFFFFFF AND DUP3 PUSH2 0x2036 JUMP JUMPDEST PUSH32 0xAFCF3201AA5A8B6350CD7E42802F62089C82CF3E88F4EF6D7A1CABD94763D8D9 PUSH1 0xC PUSH1 0x1 SWAP1 SLOAD SWAP1 PUSH2 0x100 EXP SWAP1 DIV PUSH1 0xFF AND TIMESTAMP PUSH1 0x40 MLOAD PUSH2 0x1645 SWAP3 SWAP2 SWAP1 PUSH2 0x3AEE JUMP JUMPDEST PUSH1 0x40 MLOAD DUP1 SWAP2 SUB SWAP1 LOG1 PUSH1 0x7 PUSH1 0x0 SWAP1 SLOAD SWAP1 PUSH2 0x100 EXP SWAP1 DIV PUSH20 0xFFFFFFFFFFFFFFFFFFFFFFFFFFFFFFFFFFFFFFFF AND PUSH20 0xFFFFFFFFFFFFFFFFFFFFFFFFFFFFFFFFFFFFFFFF AND PUSH32 0xD4BA6FEC82D9B0E8FFE50B9FED9E4BE3B25C984CE1E0E016405A5528726E8A2C TIMESTAMP PUSH1 0x40 MLOAD PUSH2 0x16B5 SWAP2 SWAP1 PUSH2 0x2E49 JUMP JUMPDEST PUSH1 0x40 MLOAD DUP1 SWAP2 SUB SWAP1 LOG2 PUSH32 0xB2383E82269E758B9EC0FC961AC69CECC166570A12068C11B3F9CF29C8DE9E88 PUSH1 0xE SLOAD PUSH1 0xF SLOAD TIMESTAMP PUSH1 0x40 MLOAD PUSH2 0x16F4 SWAP4 SWAP3 SWAP2 SWAP1 PUSH2 0x3B17 JUMP JUMPDEST PUSH1 0x40 MLOAD DUP1 SWAP2 SUB SWAP1 LOG1 POP JUMPDEST JUMPDEST POP POP POP POP JUMP JUMPDEST PUSH2 0x1710 DUP5 DUP5 DUP5 PUSH2 0x78E JUMP JUMPDEST PUSH2 0x171C DUP5 DUP5 DUP5 DUP5 PUSH2 0x2054 JUMP JUMPDEST POP POP POP POP JUMP JUMPDEST PUSH1 0xE SLOAD DUP2 JUMP JUMPDEST PUSH1 0xB SLOAD DUP2 JUMP JUMPDEST PUSH1 0x60 PUSH1 0x0 PUSH1 0x1 PUSH1 0x2 DUP2 GT ISZERO PUSH2 0x1746 JUMPI PUSH2 0x1745 PUSH2 0x3396 JUMP JUMPDEST JUMPDEST PUSH1 0xC PUSH1 0x1 SWAP1 SLOAD SWAP1 PUSH2 0x100 EXP SWAP1 DIV PUSH1 0xFF AND PUSH1 0x2 DUP2 GT ISZERO PUSH2 0x1768 JUMPI PUSH2 0x1767 PUSH2 0x3396 JUMP JUMPDEST JUMPDEST EQ PUSH2 0x17A8 JUMPI PUSH1 0x40 MLOAD DUP1 PUSH1 0x40 ADD PUSH1 0x40 MSTORE DUP1 PUSH1 0x4 DUP2 MSTORE PUSH1 0x20 ADD PUSH32 0x4C6F737400000000000000000000000000000000000000000000000000000000 DUP2 MSTORE POP PUSH2 0x17DF JUMP JUMPDEST PUSH1 0x40 MLOAD DUP1 PUSH1 0x40 ADD PUSH1 0x40 MSTORE DUP1 PUSH1 0x3 DUP2 MSTORE PUSH1 0x20 ADD PUSH32 0x576F6E0000000000000000000000000000000000000000000000000000000000 DUP2 MSTORE POP JUMPDEST SWAP1 POP PUSH1 0x0 PUSH2 0x17ED DUP3 DUP6 PUSH2 0x220B JUMP JUMPDEST SWAP1 POP PUSH1 0x0 PUSH2 0x17FA DUP6 PUSH2 0xBF2 JUMP JUMPDEST SWAP1 POP PUSH1 0x0 PUSH2 0x183C PUSH2 0x180A DUP8 PUSH2 0x2272 JUMP JUMPDEST DUP6 PUSH2 0x1814 DUP6 PUSH2 0x244D JUMP JUMPDEST DUP7 PUSH1 0x40 MLOAD PUSH1 0x20 ADD PUSH2 0x1828 SWAP5 SWAP4 SWAP3 SWAP2 SWAP1 PUSH2 0x41C6 JUMP JUMPDEST PUSH1 0x40 MLOAD PUSH1 0x20 DUP2 DUP4 SUB SUB DUP2 MSTORE SWAP1 PUSH1 0x40 MSTORE PUSH2 0x260A JUMP JUMPDEST SWAP1 POP PUSH2 0x1846 PUSH2 0x277C JUMP JUMPDEST DUP2 PUSH1 0x40 MLOAD PUSH1 0x20 ADD PUSH2 0x1858 SWAP3 SWAP2 SWAP1 PUSH2 0x4246 JUMP JUMPDEST PUSH1 0x40 MLOAD PUSH1 0x20 DUP2 DUP4 SUB SUB DUP2 MSTORE SWAP1 PUSH1 0x40 MSTORE SWAP5 POP POP POP POP POP SWAP2 SWAP1 POP JUMP JUMPDEST PUSH1 0x0 PUSH1 0x5 PUSH1 0x0 DUP5 PUSH20 0xFFFFFFFFFFFFFFFFFFFFFFFFFFFFFFFFFFFFFFFF AND PUSH20 0xFFFFFFFFFFFFFFFFFFFFFFFFFFFFFFFFFFFFFFFF AND DUP2 MSTORE PUSH1 0x20 ADD SWAP1 DUP2 MSTORE PUSH1 0x20 ADD PUSH1 0x0 KECCAK256 PUSH1 0x0 DUP4 PUSH20 0xFFFFFFFFFFFFFFFFFFFFFFFFFFFFFFFFFFFFFFFF AND PUSH20 0xFFFFFFFFFFFFFFFFFFFFFFFFFFFFFFFFFFFFFFFF AND DUP2 MSTORE PUSH1 0x20 ADD SWAP1 DUP2 MSTORE PUSH1 0x20 ADD PUSH1 0x0 KECCAK256 PUSH1 0x0 SWAP1 SLOAD SWAP1 PUSH2 0x100 EXP SWAP1 DIV PUSH1 0xFF AND SWAP1 POP SWAP3 SWAP2 POP POP JUMP JUMPDEST PUSH1 0xC PUSH1 0x0 SWAP1 SLOAD SWAP1 PUSH2 0x100 EXP SWAP1 DIV PUSH1 0xFF AND DUP2 JUMP JUMPDEST PUSH1 0x0 PUSH32 0x1FFC9A700000000000000000000000000000000000000000000000000000000 PUSH28 0xFFFFFFFFFFFFFFFFFFFFFFFFFFFFFFFFFFFFFFFFFFFFFFFFFFFFFFFF NOT AND DUP3 PUSH28 0xFFFFFFFFFFFFFFFFFFFFFFFFFFFFFFFFFFFFFFFFFFFFFFFFFFFFFFFF NOT AND EQ SWAP1 POP SWAP2 SWAP1 POP JUMP JUMPDEST PUSH1 0x0 DUP1 PUSH2 0x198F DUP4 PUSH2 0x27B9 JUMP JUMPDEST SWAP1 POP PUSH1 0x0 PUSH20 0xFFFFFFFFFFFFFFFFFFFFFFFFFFFFFFFFFFFFFFFF AND DUP2 PUSH20 0xFFFFFFFFFFFFFFFFFFFFFFFFFFFFFFFFFFFFFFFF AND SUB PUSH2 0x1A02 JUMPI DUP3 PUSH1 0x40 MLOAD PUSH32 0x7E27328900000000000000000000000000000000000000000000000000000000 DUP2 MSTORE PUSH1 0x4 ADD PUSH2 0x19F9 SWAP2 SWAP1 PUSH2 0x2E49 JUMP JUMPDEST PUSH1 0x40 MLOAD DUP1 SWAP2 SUB SWAP1 REVERT JUMPDEST DUP1 SWAP2 POP POP SWAP2 SWAP1 POP JUMP JUMPDEST PUSH1 0x0 PUSH1 0x4 PUSH1 0x0 DUP4 DUP2 MSTORE PUSH1 0x20 ADD SWAP1 DUP2 MSTORE PUSH1 0x20 ADD PUSH1 0x0 KECCAK256 PUSH1 0x0 SWAP1 SLOAD SWAP1 PUSH2 0x100 EXP SWAP1 DIV PUSH20 0xFFFFFFFFFFFFFFFFFFFFFFFFFFFFFFFFFFFFFFFF AND SWAP1 POP SWAP2 SWAP1 POP JUMP JUMPDEST PUSH1 0x0 CALLER SWAP1 POP SWAP1 JUMP JUMPDEST PUSH2 0x1A5D DUP4 DUP4 DUP4 PUSH1 0x1 PUSH2 0x27F6 JUMP JUMPDEST POP POP POP JUMP JUMPDEST PUSH1 0x0 DUP1 PUSH2 0x1A6E DUP5 PUSH2 0x27B9 JUMP JUMPDEST SWAP1 POP PUSH1 0x0 PUSH20 0xFFFFFFFFFFFFFFFFFFFFFFFFFFFFFFFFFFFFFFFF AND DUP4 PUSH20 0xFFFFFFFFFFFFFFFFFFFFFFFFFFFFFFFFFFFFFFFF AND EQ PUSH2 0x1AB0 JUMPI PUSH2 0x1AAF DUP2 DUP5 DUP7 PUSH2 0x29BB JUMP JUMPDEST JUMPDEST PUSH1 0x0 PUSH20 0xFFFFFFFFFFFFFFFFFFFFFFFFFFFFFFFFFFFFFFFF AND DUP2 PUSH20 0xFFFFFFFFFFFFFFFFFFFFFFFFFFFFFFFFFFFFFFFF AND EQ PUSH2 0x1B41 JUMPI PUSH2 0x1AF2 PUSH1 0x0 DUP6 PUSH1 0x0 DUP1 PUSH2 0x27F6 JUMP JUMPDEST PUSH1 0x1 PUSH1 0x3 PUSH1 0x0 DUP4 PUSH20 0xFFFFFFFFFFFFFFFFFFFFFFFFFFFFFFFFFFFFFFFF AND PUSH20 0xFFFFFFFFFFFFFFFFFFFFFFFFFFFFFFFFFFFFFFFF AND DUP2 MSTORE PUSH1 0x20 ADD SWAP1 DUP2 MSTORE PUSH1 0x20 ADD PUSH1 0x0 KECCAK256 PUSH1 0x0 DUP3 DUP3 SLOAD SUB SWAP3 POP POP DUP2 SWAP1 SSTORE POP JUMPDEST PUSH1 0x0 PUSH20 0xFFFFFFFFFFFFFFFFFFFFFFFFFFFFFFFFFFFFFFFF AND DUP6 PUSH20 0xFFFFFFFFFFFFFFFFFFFFFFFFFFFFFFFFFFFFFFFF AND EQ PUSH2 0x1BC4 JUMPI PUSH1 0x1 PUSH1 0x3 PUSH1 0x0 DUP8 PUSH20 0xFFFFFFFFFFFFFFFFFFFFFFFFFFFFFFFFFFFFFFFF AND PUSH20 0xFFFFFFFFFFFFFFFFFFFFFFFFFFFFFFFFFFFFFFFF AND DUP2 MSTORE PUSH1 0x20 ADD SWAP1 DUP2 MSTORE PUSH1 0x20 ADD PUSH1 0x0 KECCAK256 PUSH1 0x0 DUP3 DUP3 SLOAD ADD SWAP3 POP POP DUP2 SWAP1 SSTORE POP JUMPDEST DUP5 PUSH1 0x2 PUSH1 0x0 DUP7 DUP2 MSTORE PUSH1 0x20 ADD SWAP1 DUP2 MSTORE PUSH1 0x20 ADD PUSH1 0x0 KECCAK256 PUSH1 0x0 PUSH2 0x100 EXP DUP2 SLOAD DUP2 PUSH20 0xFFFFFFFFFFFFFFFFFFFFFFFFFFFFFFFFFFFFFFFF MUL NOT AND SWAP1 DUP4 PUSH20 0xFFFFFFFFFFFFFFFFFFFFFFFFFFFFFFFFFFFFFFFF AND MUL OR SWAP1 SSTORE POP DUP4 DUP6 PUSH20 0xFFFFFFFFFFFFFFFFFFFFFFFFFFFFFFFFFFFFFFFF AND DUP3 PUSH20 0xFFFFFFFFFFFFFFFFFFFFFFFFFFFFFFFFFFFFFFFF AND PUSH32 0xDDF252AD1BE2C89B69C2B068FC378DAA952BA7F163C4A11628F55A4DF523B3EF PUSH1 0x40 MLOAD PUSH1 0x40 MLOAD DUP1 SWAP2 SUB SWAP1 LOG4 DUP1 SWAP2 POP POP SWAP4 SWAP3 POP POP POP JUMP JUMPDEST PUSH1 0x0 PUSH20 0xFFFFFFFFFFFFFFFFFFFFFFFFFFFFFFFFFFFFFFFF AND DUP3 PUSH20 0xFFFFFFFFFFFFFFFFFFFFFFFFFFFFFFFFFFFFFFFF AND SUB PUSH2 0x1CED JUMPI DUP2 PUSH1 0x40 MLOAD PUSH32 0x5B08BA1800000000000000000000000000000000000000000000000000000000 DUP2 MSTORE PUSH1 0x4 ADD PUSH2 0x1CE4 SWAP2 SWAP1 PUSH2 0x307F JUMP JUMPDEST PUSH1 0x40 MLOAD DUP1 SWAP2 SUB SWAP1 REVERT JUMPDEST DUP1 PUSH1 0x5 PUSH1 0x0 DUP6 PUSH20 0xFFFFFFFFFFFFFFFFFFFFFFFFFFFFFFFFFFFFFFFF AND PUSH20 0xFFFFFFFFFFFFFFFFFFFFFFFFFFFFFFFFFFFFFFFF AND DUP2 MSTORE PUSH1 0x20 ADD SWAP1 DUP2 MSTORE PUSH1 0x20 ADD PUSH1 0x0 KECCAK256 PUSH1 0x0 DUP5 PUSH20 0xFFFFFFFFFFFFFFFFFFFFFFFFFFFFFFFFFFFFFFFF AND PUSH20 0xFFFFFFFFFFFFFFFFFFFFFFFFFFFFFFFFFFFFFFFF AND DUP2 MSTORE PUSH1 0x20 ADD SWAP1 DUP2 MSTORE PUSH1 0x20 ADD PUSH1 0x0 KECCAK256 PUSH1 0x0 PUSH2 0x100 EXP DUP2 SLOAD DUP2 PUSH1 0xFF MUL NOT AND SWAP1 DUP4 ISZERO ISZERO MUL OR SWAP1 SSTORE POP DUP2 PUSH20 0xFFFFFFFFFFFFFFFFFFFFFFFFFFFFFFFFFFFFFFFF AND DUP4 PUSH20 0xFFFFFFFFFFFFFFFFFFFFFFFFFFFFFFFFFFFFFFFF AND PUSH32 0x17307EAB39AB6107E8899845AD3D59BD9653F200F220920489CA2B5937696C31 DUP4 PUSH1 0x40 MLOAD PUSH2 0x1DDE SWAP2 SWAP1 PUSH2 0x2F18 JUMP JUMPDEST PUSH1 0x40 MLOAD DUP1 SWAP2 SUB SWAP1 LOG3 POP POP POP JUMP JUMPDEST PUSH1 0x0 DUP1 PUSH2 0x1DF6 PUSH2 0x2D66 JUMP JUMPDEST PUSH2 0x1DFE PUSH2 0x2D66 JUMP JUMPDEST PUSH1 0x0 JUMPDEST PUSH1 0x4 PUSH1 0xFF AND DUP2 PUSH1 0xFF AND LT ISZERO PUSH2 0x1EDE JUMPI PUSH1 0xA DUP2 PUSH1 0xFF AND DUP2 SLOAD DUP2 LT PUSH2 0x1E27 JUMPI PUSH2 0x1E26 PUSH2 0x426A JUMP JUMPDEST JUMPDEST SWAP1 PUSH1 0x0 MSTORE PUSH1 0x20 PUSH1 0x0 KECCAK256 SWAP1 PUSH1 0x20 SWAP2 DUP3 DUP3 DIV ADD SWAP2 SWAP1 MOD SWAP1 SLOAD SWAP1 PUSH2 0x100 EXP SWAP1 DIV PUSH1 0xFF AND PUSH1 0xFF AND DUP7 DUP3 PUSH1 0xFF AND DUP2 MLOAD DUP2 LT PUSH2 0x1E60 JUMPI PUSH2 0x1E5F PUSH2 0x426A JUMP JUMPDEST JUMPDEST PUSH1 0x20 MUL PUSH1 0x20 ADD ADD MLOAD PUSH1 0xFF AND SUB PUSH2 0x1ED1 JUMPI DUP5 DUP1 PUSH2 0x1E7B SWAP1 PUSH2 0x4299 JUMP JUMPDEST SWAP6 POP POP PUSH1 0x1 DUP4 DUP3 PUSH1 0xFF AND PUSH1 0x4 DUP2 LT PUSH2 0x1E96 JUMPI PUSH2 0x1E95 PUSH2 0x426A JUMP JUMPDEST JUMPDEST PUSH1 0x20 MUL ADD SWAP1 PUSH1 0xFF AND SWAP1 DUP2 PUSH1 0xFF AND DUP2 MSTORE POP POP PUSH1 0x1 DUP3 DUP3 PUSH1 0xFF AND PUSH1 0x4 DUP2 LT PUSH2 0x1EBF JUMPI PUSH2 0x1EBE PUSH2 0x426A JUMP JUMPDEST JUMPDEST PUSH1 0x20 MUL ADD SWAP1 PUSH1 0xFF AND SWAP1 DUP2 PUSH1 0xFF AND DUP2 MSTORE POP POP JUMPDEST DUP1 DUP1 PUSH1 0x1 ADD SWAP2 POP POP PUSH2 0x1E01 JUMP JUMPDEST POP PUSH1 0x0 JUMPDEST PUSH1 0x4 PUSH1 0xFF AND DUP2 PUSH1 0xFF AND LT ISZERO PUSH2 0x200A JUMPI PUSH1 0x0 DUP3 DUP3 PUSH1 0xFF AND PUSH1 0x4 DUP2 LT PUSH2 0x1F09 JUMPI PUSH2 0x1F08 PUSH2 0x426A JUMP JUMPDEST JUMPDEST PUSH1 0x20 MUL ADD MLOAD PUSH1 0xFF AND SUB PUSH2 0x1FFD JUMPI PUSH1 0x0 JUMPDEST PUSH1 0x4 PUSH1 0xFF AND DUP2 PUSH1 0xFF AND LT ISZERO PUSH2 0x1FFB JUMPI PUSH1 0x0 DUP5 DUP3 PUSH1 0xFF AND PUSH1 0x4 DUP2 LT PUSH2 0x1F40 JUMPI PUSH2 0x1F3F PUSH2 0x426A JUMP JUMPDEST JUMPDEST PUSH1 0x20 MUL ADD MLOAD PUSH1 0xFF AND EQ DUP1 ISZERO PUSH2 0x1FAD JUMPI POP PUSH1 0xA DUP2 PUSH1 0xFF AND DUP2 SLOAD DUP2 LT PUSH2 0x1F67 JUMPI PUSH2 0x1F66 PUSH2 0x426A JUMP JUMPDEST JUMPDEST SWAP1 PUSH1 0x0 MSTORE PUSH1 0x20 PUSH1 0x0 KECCAK256 SWAP1 PUSH1 0x20 SWAP2 DUP3 DUP3 DIV ADD SWAP2 SWAP1 MOD SWAP1 SLOAD SWAP1 PUSH2 0x100 EXP SWAP1 DIV PUSH1 0xFF AND PUSH1 0xFF AND DUP8 DUP4 PUSH1 0xFF AND DUP2 MLOAD DUP2 LT PUSH2 0x1FA0 JUMPI PUSH2 0x1F9F PUSH2 0x426A JUMP JUMPDEST JUMPDEST PUSH1 0x20 MUL PUSH1 0x20 ADD ADD MLOAD PUSH1 0xFF AND EQ JUMPDEST ISZERO PUSH2 0x1FEE JUMPI DUP5 DUP1 PUSH2 0x1FBD SWAP1 PUSH2 0x4299 JUMP JUMPDEST SWAP6 POP POP PUSH1 0x1 DUP5 DUP3 PUSH1 0xFF AND PUSH1 0x4 DUP2 LT PUSH2 0x1FD8 JUMPI PUSH2 0x1FD7 PUSH2 0x426A JUMP JUMPDEST JUMPDEST PUSH1 0x20 MUL ADD SWAP1 PUSH1 0xFF AND SWAP1 DUP2 PUSH1 0xFF AND DUP2 MSTORE POP POP PUSH2 0x1FFB JUMP JUMPDEST DUP1 DUP1 PUSH1 0x1 ADD SWAP2 POP POP PUSH2 0x1F19 JUMP JUMPDEST POP JUMPDEST DUP1 DUP1 PUSH1 0x1 ADD SWAP2 POP POP PUSH2 0x1EE2 JUMP JUMPDEST POP POP POP SWAP2 POP SWAP2 JUMP JUMPDEST PUSH1 0x1 DUP2 PUSH1 0x0 ADD PUSH1 0x0 DUP3 DUP3 SLOAD ADD SWAP3 POP POP DUP2 SWAP1 SSTORE POP POP JUMP JUMPDEST PUSH1 0x0 DUP2 PUSH1 0x0 ADD SLOAD SWAP1 POP SWAP2 SWAP1 POP JUMP JUMPDEST PUSH2 0x2050 DUP3 DUP3 PUSH1 0x40 MLOAD DUP1 PUSH1 0x20 ADD PUSH1 0x40 MSTORE DUP1 PUSH1 0x0 DUP2 MSTORE POP PUSH2 0x2A7F JUMP JUMPDEST POP POP JUMP JUMPDEST PUSH1 0x0 DUP4 PUSH20 0xFFFFFFFFFFFFFFFFFFFFFFFFFFFFFFFFFFFFFFFF AND EXTCODESIZE GT ISZERO PUSH2 0x2205 JUMPI DUP3 PUSH20 0xFFFFFFFFFFFFFFFFFFFFFFFFFFFFFFFFFFFFFFFF AND PUSH4 0x150B7A02 PUSH2 0x2098 PUSH2 0x1A48 JUMP JUMPDEST DUP7 DUP6 DUP6 PUSH1 0x40 MLOAD DUP6 PUSH4 0xFFFFFFFF AND PUSH1 0xE0 SHL DUP2 MSTORE PUSH1 0x4 ADD PUSH2 0x20BA SWAP5 SWAP4 SWAP3 SWAP2 SWAP1 PUSH2 0x4317 JUMP JUMPDEST PUSH1 0x20 PUSH1 0x40 MLOAD DUP1 DUP4 SUB DUP2 PUSH1 0x0 DUP8 GAS CALL SWAP3 POP POP POP DUP1 ISZERO PUSH2 0x20F6 JUMPI POP PUSH1 0x40 MLOAD RETURNDATASIZE PUSH1 0x1F NOT PUSH1 0x1F DUP3 ADD AND DUP3 ADD DUP1 PUSH1 0x40 MSTORE POP DUP2 ADD SWAP1 PUSH2 0x20F3 SWAP2 SWAP1 PUSH2 0x4378 JUMP JUMPDEST PUSH1 0x1 JUMPDEST PUSH2 0x217A JUMPI RETURNDATASIZE DUP1 PUSH1 0x0 DUP2 EQ PUSH2 0x2126 JUMPI PUSH1 0x40 MLOAD SWAP2 POP PUSH1 0x1F NOT PUSH1 0x3F RETURNDATASIZE ADD AND DUP3 ADD PUSH1 0x40 MSTORE RETURNDATASIZE DUP3 MSTORE RETURNDATASIZE PUSH1 0x0 PUSH1 0x20 DUP5 ADD RETURNDATACOPY PUSH2 0x212B JUMP JUMPDEST PUSH1 0x60 SWAP2 POP JUMPDEST POP PUSH1 0x0 DUP2 MLOAD SUB PUSH2 0x2172 JUMPI DUP4 PUSH1 0x40 MLOAD PUSH32 0x64A0AE9200000000000000000000000000000000000000000000000000000000 DUP2 MSTORE PUSH1 0x4 ADD PUSH2 0x2169 SWAP2 SWAP1 PUSH2 0x307F JUMP JUMPDEST PUSH1 0x40 MLOAD DUP1 SWAP2 SUB SWAP1 REVERT JUMPDEST DUP1 MLOAD DUP2 PUSH1 0x20 ADD REVERT JUMPDEST PUSH4 0x150B7A02 PUSH1 0xE0 SHL PUSH28 0xFFFFFFFFFFFFFFFFFFFFFFFFFFFFFFFFFFFFFFFFFFFFFFFFFFFFFFFF NOT AND DUP2 PUSH28 0xFFFFFFFFFFFFFFFFFFFFFFFFFFFFFFFFFFFFFFFFFFFFFFFFFFFFFFFF NOT AND EQ PUSH2 0x2203 JUMPI DUP4 PUSH1 0x40 MLOAD PUSH32 0x64A0AE9200000000000000000000000000000000000000000000000000000000 DUP2 MSTORE PUSH1 0x4 ADD PUSH2 0x21FA SWAP2 SWAP1 PUSH2 0x307F JUMP JUMPDEST PUSH1 0x40 MLOAD DUP1 SWAP2 SUB SWAP1 REVERT JUMPDEST POP JUMPDEST POP POP POP POP JUMP JUMPDEST PUSH1 0x60 PUSH1 0x0 DUP4 PUSH2 0x2219 DUP5 PUSH2 0x2272 JUMP JUMPDEST PUSH1 0x40 MLOAD PUSH1 0x20 ADD PUSH2 0x222A SWAP3 SWAP2 SWAP1 PUSH2 0x5127 JUMP JUMPDEST PUSH1 0x40 MLOAD PUSH1 0x20 DUP2 DUP4 SUB SUB DUP2 MSTORE SWAP1 PUSH1 0x40 MSTORE SWAP1 POP PUSH1 0x0 PUSH2 0x2246 DUP3 PUSH2 0x260A JUMP JUMPDEST PUSH1 0x40 MLOAD PUSH1 0x20 ADD PUSH2 0x2256 SWAP2 SWAP1 PUSH2 0x52C0 JUMP JUMPDEST PUSH1 0x40 MLOAD PUSH1 0x20 DUP2 DUP4 SUB SUB DUP2 MSTORE SWAP1 PUSH1 0x40 MSTORE SWAP1 POP DUP1 SWAP3 POP POP POP SWAP3 SWAP2 POP POP JUMP JUMPDEST PUSH1 0x60 PUSH1 0x0 PUSH1 0x4E SWAP1 POP PUSH1 0x0 DUP2 PUSH8 0xFFFFFFFFFFFFFFFF DUP2 GT ISZERO PUSH2 0x2296 JUMPI PUSH2 0x2295 PUSH2 0x31B1 JUMP JUMPDEST JUMPDEST PUSH1 0x40 MLOAD SWAP1 DUP1 DUP3 MSTORE DUP1 PUSH1 0x1F ADD PUSH1 0x1F NOT AND PUSH1 0x20 ADD DUP3 ADD PUSH1 0x40 MSTORE DUP1 ISZERO PUSH2 0x22C8 JUMPI DUP2 PUSH1 0x20 ADD PUSH1 0x1 DUP3 MUL DUP1 CALLDATASIZE DUP4 CALLDATACOPY DUP1 DUP3 ADD SWAP2 POP POP SWAP1 POP JUMPDEST POP SWAP1 POP PUSH1 0x0 JUMPDEST PUSH1 0x0 DUP6 EQ PUSH2 0x235A JUMPI PUSH1 0x0 PUSH1 0xA DUP7 PUSH2 0x22E5 SWAP2 SWAP1 PUSH2 0x5311 JUMP JUMPDEST SWAP1 POP PUSH1 0xA DUP7 PUSH2 0x22F4 SWAP2 SWAP1 PUSH2 0x5342 JUMP JUMPDEST SWAP6 POP DUP1 PUSH1 0x30 PUSH2 0x2303 SWAP2 SWAP1 PUSH2 0x3EAE JUMP JUMPDEST PUSH1 0xF8 SHL DUP4 DUP4 DUP1 PUSH2 0x2312 SWAP1 PUSH2 0x3EE2 JUMP JUMPDEST SWAP5 POP DUP2 MLOAD DUP2 LT PUSH2 0x2325 JUMPI PUSH2 0x2324 PUSH2 0x426A JUMP JUMPDEST JUMPDEST PUSH1 0x20 ADD ADD SWAP1 PUSH31 0xFFFFFFFFFFFFFFFFFFFFFFFFFFFFFFFFFFFFFFFFFFFFFFFFFFFFFFFFFFFFFF NOT AND SWAP1 DUP2 PUSH1 0x0 BYTE SWAP1 MSTORE8 POP POP PUSH2 0x22CE JUMP JUMPDEST PUSH1 0x0 DUP2 PUSH8 0xFFFFFFFFFFFFFFFF DUP2 GT ISZERO PUSH2 0x2376 JUMPI PUSH2 0x2375 PUSH2 0x31B1 JUMP JUMPDEST JUMPDEST PUSH1 0x40 MLOAD SWAP1 DUP1 DUP3 MSTORE DUP1 PUSH1 0x1F ADD PUSH1 0x1F NOT AND PUSH1 0x20 ADD DUP3 ADD PUSH1 0x40 MSTORE DUP1 ISZERO PUSH2 0x23A8 JUMPI DUP2 PUSH1 0x20 ADD PUSH1 0x1 DUP3 MUL DUP1 CALLDATASIZE DUP4 CALLDATACOPY DUP1 DUP3 ADD SWAP2 POP POP SWAP1 POP JUMPDEST POP SWAP1 POP PUSH1 0x0 JUMPDEST DUP3 DUP2 LT ISZERO PUSH2 0x243A JUMPI DUP4 PUSH1 0x1 DUP3 DUP6 PUSH2 0x23C5 SWAP2 SWAP1 PUSH2 0x5373 JUMP JUMPDEST PUSH2 0x23CF SWAP2 SWAP1 PUSH2 0x5373 JUMP JUMPDEST DUP2 MLOAD DUP2 LT PUSH2 0x23E0 JUMPI PUSH2 0x23DF PUSH2 0x426A JUMP JUMPDEST JUMPDEST PUSH1 0x20 ADD ADD MLOAD PUSH1 0xF8 SHR PUSH1 0xF8 SHL DUP3 DUP3 DUP2 MLOAD DUP2 LT PUSH2 0x23FE JUMPI PUSH2 0x23FD PUSH2 0x426A JUMP JUMPDEST JUMPDEST PUSH1 0x20 ADD ADD SWAP1 PUSH31 0xFFFFFFFFFFFFFFFFFFFFFFFFFFFFFFFFFFFFFFFFFFFFFFFFFFFFFFFFFFFFFF NOT AND SWAP1 DUP2 PUSH1 0x0 BYTE SWAP1 MSTORE8 POP DUP1 DUP1 PUSH1 0x1 ADD SWAP2 POP POP PUSH2 0x23AE JUMP JUMPDEST POP PUSH1 0x0 DUP2 SWAP1 POP DUP1 SWAP6 POP POP POP POP POP POP SWAP2 SWAP1 POP JUMP JUMPDEST PUSH1 0x60 PUSH1 0x0 PUSH1 0x28 PUSH8 0xFFFFFFFFFFFFFFFF DUP2 GT ISZERO PUSH2 0x246C JUMPI PUSH2 0x246B PUSH2 0x31B1 JUMP JUMPDEST JUMPDEST PUSH1 0x40 MLOAD SWAP1 DUP1 DUP3 MSTORE DUP1 PUSH1 0x1F ADD PUSH1 0x1F NOT AND PUSH1 0x20 ADD DUP3 ADD PUSH1 0x40 MSTORE DUP1 ISZERO PUSH2 0x249E JUMPI DUP2 PUSH1 0x20 ADD PUSH1 0x1 DUP3 MUL DUP1 CALLDATASIZE DUP4 CALLDATACOPY DUP1 DUP3 ADD SWAP2 POP POP SWAP1 POP JUMPDEST POP SWAP1 POP PUSH1 0x0 JUMPDEST PUSH1 0x14 DUP2 LT ISZERO PUSH2 0x2600 JUMPI PUSH1 0x0 DUP2 PUSH1 0x13 PUSH2 0x24BC SWAP2 SWAP1 PUSH2 0x5373 JUMP JUMPDEST PUSH1 0x8 PUSH2 0x24C8 SWAP2 SWAP1 PUSH2 0x53A7 JUMP JUMPDEST PUSH1 0x2 PUSH2 0x24D4 SWAP2 SWAP1 PUSH2 0x551C JUMP JUMPDEST DUP6 PUSH20 0xFFFFFFFFFFFFFFFFFFFFFFFFFFFFFFFFFFFFFFFF AND PUSH2 0x24F5 SWAP2 SWAP1 PUSH2 0x5342 JUMP JUMPDEST PUSH1 0xF8 SHL SWAP1 POP PUSH1 0x0 PUSH1 0x10 DUP3 PUSH1 0xF8 SHR PUSH2 0x250C SWAP2 SWAP1 PUSH2 0x5567 JUMP JUMPDEST PUSH1 0xF8 SHL SWAP1 POP PUSH1 0x0 DUP2 PUSH1 0xF8 SHR PUSH1 0x10 PUSH2 0x2523 SWAP2 SWAP1 PUSH2 0x5598 JUMP JUMPDEST DUP4 PUSH1 0xF8 SHR PUSH2 0x2531 SWAP2 SWAP1 PUSH2 0x55D5 JUMP JUMPDEST PUSH1 0xF8 SHL SWAP1 POP PUSH2 0x253F DUP3 PUSH2 0x2A9B JUMP JUMPDEST DUP6 DUP6 PUSH1 0x2 PUSH2 0x254D SWAP2 SWAP1 PUSH2 0x53A7 JUMP JUMPDEST DUP2 MLOAD DUP2 LT PUSH2 0x255E JUMPI PUSH2 0x255D PUSH2 0x426A JUMP JUMPDEST JUMPDEST PUSH1 0x20 ADD ADD SWAP1 PUSH31 0xFFFFFFFFFFFFFFFFFFFFFFFFFFFFFFFFFFFFFFFFFFFFFFFFFFFFFFFFFFFFFF NOT AND SWAP1 DUP2 PUSH1 0x0 BYTE SWAP1 MSTORE8 POP PUSH2 0x2596 DUP2 PUSH2 0x2A9B JUMP JUMPDEST DUP6 PUSH1 0x1 DUP7 PUSH1 0x2 PUSH2 0x25A6 SWAP2 SWAP1 PUSH2 0x53A7 JUMP JUMPDEST PUSH2 0x25B0 SWAP2 SWAP1 PUSH2 0x3EAE JUMP JUMPDEST DUP2 MLOAD DUP2 LT PUSH2 0x25C1 JUMPI PUSH2 0x25C0 PUSH2 0x426A JUMP JUMPDEST JUMPDEST PUSH1 0x20 ADD ADD SWAP1 PUSH31 0xFFFFFFFFFFFFFFFFFFFFFFFFFFFFFFFFFFFFFFFFFFFFFFFFFFFFFFFFFFFFFF NOT AND SWAP1 DUP2 PUSH1 0x0 BYTE SWAP1 MSTORE8 POP POP POP POP DUP1 DUP1 PUSH1 0x1 ADD SWAP2 POP POP PUSH2 0x24A4 JUMP JUMPDEST POP DUP1 SWAP2 POP POP SWAP2 SWAP1 POP JUMP JUMPDEST PUSH1 0x60 PUSH1 0x0 DUP3 MLOAD SUB PUSH2 0x262C JUMPI PUSH1 0x40 MLOAD DUP1 PUSH1 0x20 ADD PUSH1 0x40 MSTORE DUP1 PUSH1 0x0 DUP2 MSTORE POP SWAP1 POP PUSH2 0x2777 JUMP JUMPDEST PUSH1 0x0 PUSH1 0x40 MLOAD DUP1 PUSH1 0x60 ADD PUSH1 0x40 MSTORE DUP1 PUSH1 0x40 DUP2 MSTORE PUSH1 0x20 ADD PUSH2 0x5669 PUSH1 0x40 SWAP2 CODECOPY SWAP1 POP PUSH1 0x0 PUSH1 0x3 PUSH1 0x2 DUP6 MLOAD PUSH2 0x265B SWAP2 SWAP1 PUSH2 0x3EAE JUMP JUMPDEST PUSH2 0x2665 SWAP2 SWAP1 PUSH2 0x5342 JUMP JUMPDEST PUSH1 0x4 PUSH2 0x2671 SWAP2 SWAP1 PUSH2 0x53A7 JUMP JUMPDEST PUSH8 0xFFFFFFFFFFFFFFFF DUP2 GT ISZERO PUSH2 0x268A JUMPI PUSH2 0x2689 PUSH2 0x31B1 JUMP JUMPDEST JUMPDEST PUSH1 0x40 MLOAD SWAP1 DUP1 DUP3 MSTORE DUP1 PUSH1 0x1F ADD PUSH1 0x1F NOT AND PUSH1 0x20 ADD DUP3 ADD PUSH1 0x40 MSTORE DUP1 ISZERO PUSH2 0x26BC JUMPI DUP2 PUSH1 0x20 ADD PUSH1 0x1 DUP3 MUL DUP1 CALLDATASIZE DUP4 CALLDATACOPY DUP1 DUP3 ADD SWAP2 POP POP SWAP1 POP JUMPDEST POP SWAP1 POP PUSH1 0x1 DUP3 ADD PUSH1 0x20 DUP3 ADD DUP6 DUP7 MLOAD DUP8 ADD PUSH1 0x20 DUP2 ADD DUP1 MLOAD PUSH1 0x0 DUP3 MSTORE JUMPDEST DUP3 DUP5 LT ISZERO PUSH2 0x2732 JUMPI PUSH1 0x3 DUP5 ADD SWAP4 POP DUP4 MLOAD PUSH1 0x3F DUP2 PUSH1 0x12 SHR AND DUP8 ADD MLOAD DUP7 MSTORE8 PUSH1 0x1 DUP7 ADD SWAP6 POP PUSH1 0x3F DUP2 PUSH1 0xC SHR AND DUP8 ADD MLOAD DUP7 MSTORE8 PUSH1 0x1 DUP7 ADD SWAP6 POP PUSH1 0x3F DUP2 PUSH1 0x6 SHR AND DUP8 ADD MLOAD DUP7 MSTORE8 PUSH1 0x1 DUP7 ADD SWAP6 POP PUSH1 0x3F DUP2 AND DUP8 ADD MLOAD DUP7 MSTORE8 PUSH1 0x1 DUP7 ADD SWAP6 POP POP PUSH2 0x26D7 JUMP JUMPDEST DUP1 DUP3 MSTORE PUSH1 0x3 DUP11 MLOAD MOD PUSH1 0x1 DUP2 EQ PUSH2 0x274F JUMPI PUSH1 0x2 DUP2 EQ PUSH2 0x2762 JUMPI PUSH2 0x276A JUMP JUMPDEST PUSH1 0x3D PUSH1 0x1 DUP8 SUB MSTORE8 PUSH1 0x3D PUSH1 0x2 DUP8 SUB MSTORE8 PUSH2 0x276A JUMP JUMPDEST PUSH1 0x3D PUSH1 0x1 DUP8 SUB MSTORE8 JUMPDEST POP POP POP POP POP POP POP DUP1 SWAP3 POP POP POP JUMPDEST SWAP2 SWAP1 POP JUMP JUMPDEST PUSH1 0x60 PUSH1 0x40 MLOAD DUP1 PUSH1 0x40 ADD PUSH1 0x40 MSTORE DUP1 PUSH1 0x1D DUP2 MSTORE PUSH1 0x20 ADD PUSH32 0x646174613A6170706C69636174696F6E2F6A736F6E3B6261736536342C000000 DUP2 MSTORE POP SWAP1 POP SWAP1 JUMP JUMPDEST PUSH1 0x0 PUSH1 0x2 PUSH1 0x0 DUP4 DUP2 MSTORE PUSH1 0x20 ADD SWAP1 DUP2 MSTORE PUSH1 0x20 ADD PUSH1 0x0 KECCAK256 PUSH1 0x0 SWAP1 SLOAD SWAP1 PUSH2 0x100 EXP SWAP1 DIV PUSH20 0xFFFFFFFFFFFFFFFFFFFFFFFFFFFFFFFFFFFFFFFF AND SWAP1 POP SWAP2 SWAP1 POP JUMP JUMPDEST DUP1 DUP1 PUSH2 0x282F JUMPI POP PUSH1 0x0 PUSH20 0xFFFFFFFFFFFFFFFFFFFFFFFFFFFFFFFFFFFFFFFF AND DUP3 PUSH20 0xFFFFFFFFFFFFFFFFFFFFFFFFFFFFFFFFFFFFFFFF AND EQ ISZERO JUMPDEST ISZERO PUSH2 0x2963 JUMPI PUSH1 0x0 PUSH2 0x283F DUP5 PUSH2 0x1983 JUMP JUMPDEST SWAP1 POP PUSH1 0x0 PUSH20 0xFFFFFFFFFFFFFFFFFFFFFFFFFFFFFFFFFFFFFFFF AND DUP4 PUSH20 0xFFFFFFFFFFFFFFFFFFFFFFFFFFFFFFFFFFFFFFFF AND EQ ISZERO DUP1 ISZERO PUSH2 0x28AA JUMPI POP DUP3 PUSH20 0xFFFFFFFFFFFFFFFFFFFFFFFFFFFFFFFFFFFFFFFF AND DUP2 PUSH20 0xFFFFFFFFFFFFFFFFFFFFFFFFFFFFFFFFFFFFFFFF AND EQ ISZERO JUMPDEST DUP1 ISZERO PUSH2 0x28BD JUMPI POP PUSH2 0x28BB DUP2 DUP5 PUSH2 0x1872 JUMP JUMPDEST ISZERO JUMPDEST ISZERO PUSH2 0x28FF JUMPI DUP3 PUSH1 0x40 MLOAD PUSH32 0xA9FBF51F00000000000000000000000000000000000000000000000000000000 DUP2 MSTORE PUSH1 0x4 ADD PUSH2 0x28F6 SWAP2 SWAP1 PUSH2 0x307F JUMP JUMPDEST PUSH1 0x40 MLOAD DUP1 SWAP2 SUB SWAP1 REVERT JUMPDEST DUP2 ISZERO PUSH2 0x2961 JUMPI DUP4 DUP6 PUSH20 0xFFFFFFFFFFFFFFFFFFFFFFFFFFFFFFFFFFFFFFFF AND DUP3 PUSH20 0xFFFFFFFFFFFFFFFFFFFFFFFFFFFFFFFFFFFFFFFF AND PUSH32 0x8C5BE1E5EBEC7D5BD14F71427D1E84F3DD0314C0F7B2291E5B200AC8C7C3B925 PUSH1 0x40 MLOAD PUSH1 0x40 MLOAD DUP1 SWAP2 SUB SWAP1 LOG4 JUMPDEST POP JUMPDEST DUP4 PUSH1 0x4 PUSH1 0x0 DUP6 DUP2 MSTORE PUSH1 0x20 ADD SWAP1 DUP2 MSTORE PUSH1 0x20 ADD PUSH1 0x0 KECCAK256 PUSH1 0x0 PUSH2 0x100 EXP DUP2 SLOAD DUP2 PUSH20 0xFFFFFFFFFFFFFFFFFFFFFFFFFFFFFFFFFFFFFFFF MUL NOT AND SWAP1 DUP4 PUSH20 0xFFFFFFFFFFFFFFFFFFFFFFFFFFFFFFFFFFFFFFFF AND MUL OR SWAP1 SSTORE POP POP POP POP POP JUMP JUMPDEST PUSH2 0x29C6 DUP4 DUP4 DUP4 PUSH2 0x2AE1 JUMP JUMPDEST PUSH2 0x2A7A JUMPI PUSH1 0x0 PUSH20 0xFFFFFFFFFFFFFFFFFFFFFFFFFFFFFFFFFFFFFFFF AND DUP4 PUSH20 0xFFFFFFFFFFFFFFFFFFFFFFFFFFFFFFFFFFFFFFFF AND SUB PUSH2 0x2A3B JUMPI DUP1 PUSH1 0x40 MLOAD PUSH32 0x7E27328900000000000000000000000000000000000000000000000000000000 DUP2 MSTORE PUSH1 0x4 ADD PUSH2 0x2A32 SWAP2 SWAP1 PUSH2 0x2E49 JUMP JUMPDEST PUSH1 0x40 MLOAD DUP1 SWAP2 SUB SWAP1 REVERT JUMPDEST DUP2 DUP2 PUSH1 0x40 MLOAD PUSH32 0x177E802F00000000000000000000000000000000000000000000000000000000 DUP2 MSTORE PUSH1 0x4 ADD PUSH2 0x2A71 SWAP3 SWAP2 SWAP1 PUSH2 0x560A JUMP JUMPDEST PUSH1 0x40 MLOAD DUP1 SWAP2 SUB SWAP1 REVERT JUMPDEST POP POP POP JUMP JUMPDEST PUSH2 0x2A89 DUP4 DUP4 PUSH2 0x2BA2 JUMP JUMPDEST PUSH2 0x2A96 PUSH1 0x0 DUP5 DUP5 DUP5 PUSH2 0x2054 JUMP JUMPDEST POP POP POP JUMP JUMPDEST PUSH1 0x0 PUSH1 0xA DUP3 PUSH1 0xF8 SHR PUSH1 0xFF AND LT ISZERO PUSH2 0x2AC6 JUMPI PUSH1 0x30 DUP3 PUSH1 0xF8 SHR PUSH2 0x2ABC SWAP2 SWAP1 PUSH2 0x5633 JUMP JUMPDEST PUSH1 0xF8 SHL SWAP1 POP PUSH2 0x2ADC JUMP JUMPDEST PUSH1 0x57 DUP3 PUSH1 0xF8 SHR PUSH2 0x2AD6 SWAP2 SWAP1 PUSH2 0x5633 JUMP JUMPDEST PUSH1 0xF8 SHL SWAP1 POP JUMPDEST SWAP2 SWAP1 POP JUMP JUMPDEST PUSH1 0x0 DUP1 PUSH20 0xFFFFFFFFFFFFFFFFFFFFFFFFFFFFFFFFFFFFFFFF AND DUP4 PUSH20 0xFFFFFFFFFFFFFFFFFFFFFFFFFFFFFFFFFFFFFFFF AND EQ ISZERO DUP1 ISZERO PUSH2 0x2B99 JUMPI POP DUP3 PUSH20 0xFFFFFFFFFFFFFFFFFFFFFFFFFFFFFFFFFFFFFFFF AND DUP5 PUSH20 0xFFFFFFFFFFFFFFFFFFFFFFFFFFFFFFFFFFFFFFFF AND EQ DUP1 PUSH2 0x2B5A JUMPI POP PUSH2 0x2B59 DUP5 DUP5 PUSH2 0x1872 JUMP JUMPDEST JUMPDEST DUP1 PUSH2 0x2B98 JUMPI POP DUP3 PUSH20 0xFFFFFFFFFFFFFFFFFFFFFFFFFFFFFFFFFFFFFFFF AND PUSH2 0x2B80 DUP4 PUSH2 0x1A0B JUMP JUMPDEST PUSH20 0xFFFFFFFFFFFFFFFFFFFFFFFFFFFFFFFFFFFFFFFF AND EQ JUMPDEST JUMPDEST SWAP1 POP SWAP4 SWAP3 POP POP POP JUMP JUMPDEST PUSH1 0x0 PUSH20 0xFFFFFFFFFFFFFFFFFFFFFFFFFFFFFFFFFFFFFFFF AND DUP3 PUSH20 0xFFFFFFFFFFFFFFFFFFFFFFFFFFFFFFFFFFFFFFFF AND SUB PUSH2 0x2C14 JUMPI PUSH1 0x0 PUSH1 0x40 MLOAD PUSH32 0x64A0AE9200000000000000000000000000000000000000000000000000000000 DUP2 MSTORE PUSH1 0x4 ADD PUSH2 0x2C0B SWAP2 SWAP1 PUSH2 0x307F JUMP JUMPDEST PUSH1 0x40 MLOAD DUP1 SWAP2 SUB SWAP1 REVERT JUMPDEST PUSH1 0x0 PUSH2 0x2C22 DUP4 DUP4 PUSH1 0x0 PUSH2 0x1A62 JUMP JUMPDEST SWAP1 POP PUSH1 0x0 PUSH20 0xFFFFFFFFFFFFFFFFFFFFFFFFFFFFFFFFFFFFFFFF AND DUP2 PUSH20 0xFFFFFFFFFFFFFFFFFFFFFFFFFFFFFFFFFFFFFFFF AND EQ PUSH2 0x2C96 JUMPI PUSH1 0x0 PUSH1 0x40 MLOAD PUSH32 0x73C6AC6E00000000000000000000000000000000000000000000000000000000 DUP2 MSTORE PUSH1 0x4 ADD PUSH2 0x2C8D SWAP2 SWAP1 PUSH2 0x307F JUMP JUMPDEST PUSH1 0x40 MLOAD DUP1 SWAP2 SUB SWAP1 REVERT JUMPDEST POP POP POP JUMP JUMPDEST DUP3 DUP1 SLOAD DUP3 DUP3 SSTORE SWAP1 PUSH1 0x0 MSTORE PUSH1 0x20 PUSH1 0x0 KECCAK256 SWAP1 PUSH1 0x1F ADD PUSH1 0x20 SWAP1 DIV DUP2 ADD SWAP3 DUP3 ISZERO PUSH2 0x2D31 JUMPI SWAP2 PUSH1 0x20 MUL DUP3 ADD PUSH1 0x0 JUMPDEST DUP4 DUP3 GT ISZERO PUSH2 0x2D02 JUMPI DUP4 MLOAD DUP4 DUP3 PUSH2 0x100 EXP DUP2 SLOAD DUP2 PUSH1 0xFF MUL NOT AND SWAP1 DUP4 PUSH1 0xFF AND MUL OR SWAP1 SSTORE POP SWAP3 PUSH1 0x20 ADD SWAP3 PUSH1 0x1 ADD PUSH1 0x20 DUP2 PUSH1 0x0 ADD DIV SWAP3 DUP4 ADD SWAP3 PUSH1 0x1 SUB MUL PUSH2 0x2CC4 JUMP JUMPDEST DUP1 ISZERO PUSH2 0x2D2F JUMPI DUP3 DUP2 PUSH2 0x100 EXP DUP2 SLOAD SWAP1 PUSH1 0xFF MUL NOT AND SWAP1 SSTORE PUSH1 0x1 ADD PUSH1 0x20 DUP2 PUSH1 0x0 ADD DIV SWAP3 DUP4 ADD SWAP3 PUSH1 0x1 SUB MUL PUSH2 0x2D02 JUMP JUMPDEST POP JUMPDEST POP SWAP1 POP PUSH2 0x2D3E SWAP2 SWAP1 PUSH2 0x2D88 JUMP JUMPDEST POP SWAP1 JUMP JUMPDEST POP DUP1 SLOAD PUSH1 0x0 DUP3 SSTORE PUSH1 0x2 MUL SWAP1 PUSH1 0x0 MSTORE PUSH1 0x20 PUSH1 0x0 KECCAK256 SWAP1 DUP2 ADD SWAP1 PUSH2 0x2D63 SWAP2 SWAP1 PUSH2 0x2DA5 JUMP JUMPDEST POP JUMP JUMPDEST PUSH1 0x40 MLOAD DUP1 PUSH1 0x80 ADD PUSH1 0x40 MSTORE DUP1 PUSH1 0x4 SWAP1 PUSH1 0x20 DUP3 MUL DUP1 CALLDATASIZE DUP4 CALLDATACOPY DUP1 DUP3 ADD SWAP2 POP POP SWAP1 POP POP SWAP1 JUMP JUMPDEST JUMPDEST DUP1 DUP3 GT ISZERO PUSH2 0x2DA1 JUMPI PUSH1 0x0 DUP2 PUSH1 0x0 SWAP1 SSTORE POP PUSH1 0x1 ADD PUSH2 0x2D89 JUMP JUMPDEST POP SWAP1 JUMP JUMPDEST JUMPDEST DUP1 DUP3 GT ISZERO PUSH2 0x2E04 JUMPI PUSH1 0x0 DUP1 DUP3 ADD PUSH1 0x0 PUSH2 0x2DBF SWAP2 SWAP1 PUSH2 0x2E08 JUMP JUMPDEST PUSH1 0x1 DUP3 ADD PUSH1 0x0 PUSH2 0x100 EXP DUP2 SLOAD SWAP1 PUSH1 0xFF MUL NOT AND SWAP1 SSTORE PUSH1 0x1 DUP3 ADD PUSH1 0x1 PUSH2 0x100 EXP DUP2 SLOAD SWAP1 PUSH1 0xFF MUL NOT AND SWAP1 SSTORE PUSH1 0x1 DUP3 ADD PUSH1 0x2 PUSH2 0x100 EXP DUP2 SLOAD SWAP1 PUSH1 0xFF MUL NOT AND SWAP1 SSTORE POP PUSH1 0x2 ADD PUSH2 0x2DA6 JUMP JUMPDEST POP SWAP1 JUMP JUMPDEST POP DUP1 SLOAD PUSH1 0x0 DUP3 SSTORE PUSH1 0x1F ADD PUSH1 0x20 SWAP1 DIV SWAP1 PUSH1 0x0 MSTORE PUSH1 0x20 PUSH1 0x0 KECCAK256 SWAP1 DUP2 ADD SWAP1 PUSH2 0x2E2D SWAP2 SWAP1 PUSH2 0x2D88 JUMP JUMPDEST POP JUMP JUMPDEST PUSH1 0x0 DUP2 SWAP1 POP SWAP2 SWAP1 POP JUMP JUMPDEST PUSH2 0x2E43 DUP2 PUSH2 0x2E30 JUMP JUMPDEST DUP3 MSTORE POP POP JUMP JUMPDEST PUSH1 0x0 PUSH1 0x20 DUP3 ADD SWAP1 POP PUSH2 0x2E5E PUSH1 0x0 DUP4 ADD DUP5 PUSH2 0x2E3A JUMP JUMPDEST SWAP3 SWAP2 POP POP JUMP JUMPDEST PUSH1 0x0 PUSH1 0x40 MLOAD SWAP1 POP SWAP1 JUMP JUMPDEST PUSH1 0x0 DUP1 REVERT JUMPDEST PUSH1 0x0 DUP1 REVERT JUMPDEST PUSH1 0x0 PUSH32 0xFFFFFFFF00000000000000000000000000000000000000000000000000000000 DUP3 AND SWAP1 POP SWAP2 SWAP1 POP JUMP JUMPDEST PUSH2 0x2EAD DUP2 PUSH2 0x2E78 JUMP JUMPDEST DUP2 EQ PUSH2 0x2EB8 JUMPI PUSH1 0x0 DUP1 REVERT JUMPDEST POP JUMP JUMPDEST PUSH1 0x0 DUP2 CALLDATALOAD SWAP1 POP PUSH2 0x2ECA DUP2 PUSH2 0x2EA4 JUMP JUMPDEST SWAP3 SWAP2 POP POP JUMP JUMPDEST PUSH1 0x0 PUSH1 0x20 DUP3 DUP5 SUB SLT ISZERO PUSH2 0x2EE6 JUMPI PUSH2 0x2EE5 PUSH2 0x2E6E JUMP JUMPDEST JUMPDEST PUSH1 0x0 PUSH2 0x2EF4 DUP5 DUP3 DUP6 ADD PUSH2 0x2EBB JUMP JUMPDEST SWAP2 POP POP SWAP3 SWAP2 POP POP JUMP JUMPDEST PUSH1 0x0 DUP2 ISZERO ISZERO SWAP1 POP SWAP2 SWAP1 POP JUMP JUMPDEST PUSH2 0x2F12 DUP2 PUSH2 0x2EFD JUMP JUMPDEST DUP3 MSTORE POP POP JUMP JUMPDEST PUSH1 0x0 PUSH1 0x20 DUP3 ADD SWAP1 POP PUSH2 0x2F2D PUSH1 0x0 DUP4 ADD DUP5 PUSH2 0x2F09 JUMP JUMPDEST SWAP3 SWAP2 POP POP JUMP JUMPDEST PUSH1 0x0 DUP2 MLOAD SWAP1 POP SWAP2 SWAP1 POP JUMP JUMPDEST PUSH1 0x0 DUP3 DUP3 MSTORE PUSH1 0x20 DUP3 ADD SWAP1 POP SWAP3 SWAP2 POP POP JUMP JUMPDEST PUSH1 0x0 JUMPDEST DUP4 DUP2 LT ISZERO PUSH2 0x2F6D JUMPI DUP1 DUP3 ADD MLOAD DUP2 DUP5 ADD MSTORE PUSH1 0x20 DUP2 ADD SWAP1 POP PUSH2 0x2F52 JUMP JUMPDEST PUSH1 0x0 DUP5 DUP5 ADD MSTORE POP POP POP POP JUMP JUMPDEST PUSH1 0x0 PUSH1 0x1F NOT PUSH1 0x1F DUP4 ADD AND SWAP1 POP SWAP2 SWAP1 POP JUMP JUMPDEST PUSH1 0x0 PUSH2 0x2F95 DUP3 PUSH2 0x2F33 JUMP JUMPDEST PUSH2 0x2F9F DUP2 DUP6 PUSH2 0x2F3E JUMP JUMPDEST SWAP4 POP PUSH2 0x2FAF DUP2 DUP6 PUSH1 0x20 DUP7 ADD PUSH2 0x2F4F JUMP JUMPDEST PUSH2 0x2FB8 DUP2 PUSH2 0x2F79 JUMP JUMPDEST DUP5 ADD SWAP2 POP POP SWAP3 SWAP2 POP POP JUMP JUMPDEST PUSH1 0x0 PUSH1 0x20 DUP3 ADD SWAP1 POP DUP2 DUP2 SUB PUSH1 0x0 DUP4 ADD MSTORE PUSH2 0x2FDD DUP2 DUP5 PUSH2 0x2F8A JUMP JUMPDEST SWAP1 POP SWAP3 SWAP2 POP POP JUMP JUMPDEST PUSH2 0x2FEE DUP2 PUSH2 0x2E30 JUMP JUMPDEST DUP2 EQ PUSH2 0x2FF9 JUMPI PUSH1 0x0 DUP1 REVERT JUMPDEST POP JUMP JUMPDEST PUSH1 0x0 DUP2 CALLDATALOAD SWAP1 POP PUSH2 0x300B DUP2 PUSH2 0x2FE5 JUMP JUMPDEST SWAP3 SWAP2 POP POP JUMP JUMPDEST PUSH1 0x0 PUSH1 0x20 DUP3 DUP5 SUB SLT ISZERO PUSH2 0x3027 JUMPI PUSH2 0x3026 PUSH2 0x2E6E JUMP JUMPDEST JUMPDEST PUSH1 0x0 PUSH2 0x3035 DUP5 DUP3 DUP6 ADD PUSH2 0x2FFC JUMP JUMPDEST SWAP2 POP POP SWAP3 SWAP2 POP POP JUMP JUMPDEST PUSH1 0x0 PUSH20 0xFFFFFFFFFFFFFFFFFFFFFFFFFFFFFFFFFFFFFFFF DUP3 AND SWAP1 POP SWAP2 SWAP1 POP JUMP JUMPDEST PUSH1 0x0 PUSH2 0x3069 DUP3 PUSH2 0x303E JUMP JUMPDEST SWAP1 POP SWAP2 SWAP1 POP JUMP JUMPDEST PUSH2 0x3079 DUP2 PUSH2 0x305E JUMP JUMPDEST DUP3 MSTORE POP POP JUMP JUMPDEST PUSH1 0x0 PUSH1 0x20 DUP3 ADD SWAP1 POP PUSH2 0x3094 PUSH1 0x0 DUP4 ADD DUP5 PUSH2 0x3070 JUMP JUMPDEST SWAP3 SWAP2 POP POP JUMP JUMPDEST PUSH2 0x30A3 DUP2 PUSH2 0x305E JUMP JUMPDEST DUP2 EQ PUSH2 0x30AE JUMPI PUSH1 0x0 DUP1 REVERT JUMPDEST POP JUMP JUMPDEST PUSH1 0x0 DUP2 CALLDATALOAD SWAP1 POP PUSH2 0x30C0 DUP2 PUSH2 0x309A JUMP JUMPDEST SWAP3 SWAP2 POP POP JUMP JUMPDEST PUSH1 0x0 DUP1 PUSH1 0x40 DUP4 DUP6 SUB SLT ISZERO PUSH2 0x30DD JUMPI PUSH2 0x30DC PUSH2 0x2E6E JUMP JUMPDEST JUMPDEST PUSH1 0x0 PUSH2 0x30EB DUP6 DUP3 DUP7 ADD PUSH2 0x30B1 JUMP JUMPDEST SWAP3 POP POP PUSH1 0x20 PUSH2 0x30FC DUP6 DUP3 DUP7 ADD PUSH2 0x2FFC JUMP JUMPDEST SWAP2 POP POP SWAP3 POP SWAP3 SWAP1 POP JUMP JUMPDEST PUSH1 0x0 PUSH1 0xFF DUP3 AND SWAP1 POP SWAP2 SWAP1 POP JUMP JUMPDEST PUSH2 0x311C DUP2 PUSH2 0x3106 JUMP JUMPDEST DUP3 MSTORE POP POP JUMP JUMPDEST PUSH1 0x0 PUSH1 0x60 DUP3 ADD SWAP1 POP PUSH2 0x3137 PUSH1 0x0 DUP4 ADD DUP7 PUSH2 0x3113 JUMP JUMPDEST PUSH2 0x3144 PUSH1 0x20 DUP4 ADD DUP6 PUSH2 0x3113 JUMP JUMPDEST PUSH2 0x3151 PUSH1 0x40 DUP4 ADD DUP5 PUSH2 0x2F09 JUMP JUMPDEST SWAP5 SWAP4 POP POP POP POP JUMP JUMPDEST PUSH1 0x0 DUP1 PUSH1 0x0 PUSH1 0x60 DUP5 DUP7 SUB SLT ISZERO PUSH2 0x3172 JUMPI PUSH2 0x3171 PUSH2 0x2E6E JUMP JUMPDEST JUMPDEST PUSH1 0x0 PUSH2 0x3180 DUP7 DUP3 DUP8 ADD PUSH2 0x30B1 JUMP JUMPDEST SWAP4 POP POP PUSH1 0x20 PUSH2 0x3191 DUP7 DUP3 DUP8 ADD PUSH2 0x30B1 JUMP JUMPDEST SWAP3 POP POP PUSH1 0x40 PUSH2 0x31A2 DUP7 DUP3 DUP8 ADD PUSH2 0x2FFC JUMP JUMPDEST SWAP2 POP POP SWAP3 POP SWAP3 POP SWAP3 JUMP JUMPDEST PUSH1 0x0 DUP1 REVERT JUMPDEST PUSH32 0x4E487B7100000000000000000000000000000000000000000000000000000000 PUSH1 0x0 MSTORE PUSH1 0x41 PUSH1 0x4 MSTORE PUSH1 0x24 PUSH1 0x0 REVERT JUMPDEST PUSH2 0x31E9 DUP3 PUSH2 0x2F79 JUMP JUMPDEST DUP2 ADD DUP2 DUP2 LT PUSH8 0xFFFFFFFFFFFFFFFF DUP3 GT OR ISZERO PUSH2 0x3208 JUMPI PUSH2 0x3207 PUSH2 0x31B1 JUMP JUMPDEST JUMPDEST DUP1 PUSH1 0x40 MSTORE POP POP POP JUMP JUMPDEST PUSH1 0x0 PUSH2 0x321B PUSH2 0x2E64 JUMP JUMPDEST SWAP1 POP PUSH2 0x3227 DUP3 DUP3 PUSH2 0x31E0 JUMP JUMPDEST SWAP2 SWAP1 POP JUMP JUMPDEST PUSH1 0x0 PUSH8 0xFFFFFFFFFFFFFFFF DUP3 GT ISZERO PUSH2 0x3247 JUMPI PUSH2 0x3246 PUSH2 0x31B1 JUMP JUMPDEST JUMPDEST PUSH1 0x20 DUP3 MUL SWAP1 POP PUSH1 0x20 DUP2 ADD SWAP1 POP SWAP2 SWAP1 POP JUMP JUMPDEST PUSH1 0x0 DUP1 REVERT JUMPDEST PUSH2 0x3266 DUP2 PUSH2 0x3106 JUMP JUMPDEST DUP2 EQ PUSH2 0x3271 JUMPI PUSH1 0x0 DUP1 REVERT JUMPDEST POP JUMP JUMPDEST PUSH1 0x0 DUP2 CALLDATALOAD SWAP1 POP PUSH2 0x3283 DUP2 PUSH2 0x325D JUMP JUMPDEST SWAP3 SWAP2 POP POP JUMP JUMPDEST PUSH1 0x0 PUSH2 0x329C PUSH2 0x3297 DUP5 PUSH2 0x322C JUMP JUMPDEST PUSH2 0x3211 JUMP JUMPDEST SWAP1 POP DUP1 DUP4 DUP3 MSTORE PUSH1 0x20 DUP3 ADD SWAP1 POP PUSH1 0x20 DUP5 MUL DUP4 ADD DUP6 DUP2 GT ISZERO PUSH2 0x32BF JUMPI PUSH2 0x32BE PUSH2 0x3258 JUMP JUMPDEST JUMPDEST DUP4 JUMPDEST DUP2 DUP2 LT ISZERO PUSH2 0x32E8 JUMPI DUP1 PUSH2 0x32D4 DUP9 DUP3 PUSH2 0x3274 JUMP JUMPDEST DUP5 MSTORE PUSH1 0x20 DUP5 ADD SWAP4 POP POP PUSH1 0x20 DUP2 ADD SWAP1 POP PUSH2 0x32C1 JUMP JUMPDEST POP POP POP SWAP4 SWAP3 POP POP POP JUMP JUMPDEST PUSH1 0x0 DUP3 PUSH1 0x1F DUP4 ADD SLT PUSH2 0x3307 JUMPI PUSH2 0x3306 PUSH2 0x31AC JUMP JUMPDEST JUMPDEST DUP2 CALLDATALOAD PUSH2 0x3317 DUP5 DUP3 PUSH1 0x20 DUP7 ADD PUSH2 0x3289 JUMP JUMPDEST SWAP2 POP POP SWAP3 SWAP2 POP POP JUMP JUMPDEST PUSH1 0x0 PUSH1 0x20 DUP3 DUP5 SUB SLT ISZERO PUSH2 0x3336 JUMPI PUSH2 0x3335 PUSH2 0x2E6E JUMP JUMPDEST JUMPDEST PUSH1 0x0 DUP3 ADD CALLDATALOAD PUSH8 0xFFFFFFFFFFFFFFFF DUP2 GT ISZERO PUSH2 0x3354 JUMPI PUSH2 0x3353 PUSH2 0x2E73 JUMP JUMPDEST JUMPDEST PUSH2 0x3360 DUP5 DUP3 DUP6 ADD PUSH2 0x32F2 JUMP JUMPDEST SWAP2 POP POP SWAP3 SWAP2 POP POP JUMP JUMPDEST PUSH1 0x0 PUSH1 0x20 DUP3 DUP5 SUB SLT ISZERO PUSH2 0x337F JUMPI PUSH2 0x337E PUSH2 0x2E6E JUMP JUMPDEST JUMPDEST PUSH1 0x0 PUSH2 0x338D DUP5 DUP3 DUP6 ADD PUSH2 0x30B1 JUMP JUMPDEST SWAP2 POP POP SWAP3 SWAP2 POP POP JUMP JUMPDEST PUSH32 0x4E487B7100000000000000000000000000000000000000000000000000000000 PUSH1 0x0 MSTORE PUSH1 0x21 PUSH1 0x4 MSTORE PUSH1 0x24 PUSH1 0x0 REVERT JUMPDEST PUSH1 0x3 DUP2 LT PUSH2 0x33D6 JUMPI PUSH2 0x33D5 PUSH2 0x3396 JUMP JUMPDEST JUMPDEST POP JUMP JUMPDEST PUSH1 0x0 DUP2 SWAP1 POP PUSH2 0x33E7 DUP3 PUSH2 0x33C5 JUMP JUMPDEST SWAP2 SWAP1 POP JUMP JUMPDEST PUSH1 0x0 PUSH2 0x33F7 DUP3 PUSH2 0x33D9 JUMP JUMPDEST SWAP1 POP SWAP2 SWAP1 POP JUMP JUMPDEST PUSH2 0x3407 DUP2 PUSH2 0x33EC JUMP JUMPDEST DUP3 MSTORE POP POP JUMP JUMPDEST PUSH1 0x0 PUSH1 0x20 DUP3 ADD SWAP1 POP PUSH2 0x3422 PUSH1 0x0 DUP4 ADD DUP5 PUSH2 0x33FE JUMP JUMPDEST SWAP3 SWAP2 POP POP JUMP JUMPDEST PUSH1 0x0 DUP2 MLOAD SWAP1 POP SWAP2 SWAP1 POP JUMP JUMPDEST PUSH1 0x0 DUP3 DUP3 MSTORE PUSH1 0x20 DUP3 ADD SWAP1 POP SWAP3 SWAP2 POP POP JUMP JUMPDEST PUSH1 0x0 DUP2 SWAP1 POP PUSH1 0x20 DUP3 ADD SWAP1 POP SWAP2 SWAP1 POP JUMP JUMPDEST PUSH1 0x0 DUP2 MLOAD SWAP1 POP SWAP2 SWAP1 POP JUMP JUMPDEST PUSH1 0x0 DUP3 DUP3 MSTORE PUSH1 0x20 DUP3 ADD SWAP1 POP SWAP3 SWAP2 POP POP JUMP JUMPDEST PUSH1 0x0 DUP2 SWAP1 POP PUSH1 0x20 DUP3 ADD SWAP1 POP SWAP2 SWAP1 POP JUMP JUMPDEST PUSH2 0x3489 DUP2 PUSH2 0x3106 JUMP JUMPDEST DUP3 MSTORE POP POP JUMP JUMPDEST PUSH1 0x0 PUSH2 0x349B DUP4 DUP4 PUSH2 0x3480 JUMP JUMPDEST PUSH1 0x20 DUP4 ADD SWAP1 POP SWAP3 SWAP2 POP POP JUMP JUMPDEST PUSH1 0x0 PUSH1 0x20 DUP3 ADD SWAP1 POP SWAP2 SWAP1 POP JUMP JUMPDEST PUSH1 0x0 PUSH2 0x34BF DUP3 PUSH2 0x3454 JUMP JUMPDEST PUSH2 0x34C9 DUP2 DUP6 PUSH2 0x345F JUMP JUMPDEST SWAP4 POP PUSH2 0x34D4 DUP4 PUSH2 0x3470 JUMP JUMPDEST DUP1 PUSH1 0x0 JUMPDEST DUP4 DUP2 LT ISZERO PUSH2 0x3505 JUMPI DUP2 MLOAD PUSH2 0x34EC DUP9 DUP3 PUSH2 0x348F JUMP JUMPDEST SWAP8 POP PUSH2 0x34F7 DUP4 PUSH2 0x34A7 JUMP JUMPDEST SWAP3 POP POP PUSH1 0x1 DUP2 ADD SWAP1 POP PUSH2 0x34D8 JUMP JUMPDEST POP DUP6 SWAP4 POP POP POP POP SWAP3 SWAP2 POP POP JUMP JUMPDEST PUSH2 0x351B DUP2 PUSH2 0x2EFD JUMP JUMPDEST DUP3 MSTORE POP POP JUMP JUMPDEST PUSH1 0x0 PUSH1 0x80 DUP4 ADD PUSH1 0x0 DUP4 ADD MLOAD DUP5 DUP3 SUB PUSH1 0x0 DUP7 ADD MSTORE PUSH2 0x353E DUP3 DUP3 PUSH2 0x34B4 JUMP JUMPDEST SWAP2 POP POP PUSH1 0x20 DUP4 ADD MLOAD PUSH2 0x3553 PUSH1 0x20 DUP7 ADD DUP3 PUSH2 0x3480 JUMP JUMPDEST POP PUSH1 0x40 DUP4 ADD MLOAD PUSH2 0x3566 PUSH1 0x40 DUP7 ADD DUP3 PUSH2 0x3480 JUMP JUMPDEST POP PUSH1 0x60 DUP4 ADD MLOAD PUSH2 0x3579 PUSH1 0x60 DUP7 ADD DUP3 PUSH2 0x3512 JUMP JUMPDEST POP DUP1 SWAP2 POP POP SWAP3 SWAP2 POP POP JUMP JUMPDEST PUSH1 0x0 PUSH2 0x3590 DUP4 DUP4 PUSH2 0x3521 JUMP JUMPDEST SWAP1 POP SWAP3 SWAP2 POP POP JUMP JUMPDEST PUSH1 0x0 PUSH1 0x20 DUP3 ADD SWAP1 POP SWAP2 SWAP1 POP JUMP JUMPDEST PUSH1 0x0 PUSH2 0x35B0 DUP3 PUSH2 0x3428 JUMP JUMPDEST PUSH2 0x35BA DUP2 DUP6 PUSH2 0x3433 JUMP JUMPDEST SWAP4 POP DUP4 PUSH1 0x20 DUP3 MUL DUP6 ADD PUSH2 0x35CC DUP6 PUSH2 0x3444 JUMP JUMPDEST DUP1 PUSH1 0x0 JUMPDEST DUP6 DUP2 LT ISZERO PUSH2 0x3608 JUMPI DUP5 DUP5 SUB DUP10 MSTORE DUP2 MLOAD PUSH2 0x35E9 DUP6 DUP3 PUSH2 0x3584 JUMP JUMPDEST SWAP5 POP PUSH2 0x35F4 DUP4 PUSH2 0x3598 JUMP JUMPDEST SWAP3 POP PUSH1 0x20 DUP11 ADD SWAP10 POP POP PUSH1 0x1 DUP2 ADD SWAP1 POP PUSH2 0x35D0 JUMP JUMPDEST POP DUP3 SWAP8 POP DUP8 SWAP6 POP POP POP POP POP POP SWAP3 SWAP2 POP POP JUMP JUMPDEST PUSH1 0x0 PUSH1 0x20 DUP3 ADD SWAP1 POP DUP2 DUP2 SUB PUSH1 0x0 DUP4 ADD MSTORE PUSH2 0x3634 DUP2 DUP5 PUSH2 0x35A5 JUMP JUMPDEST SWAP1 POP SWAP3 SWAP2 POP POP JUMP JUMPDEST PUSH2 0x3645 DUP2 PUSH2 0x2EFD JUMP JUMPDEST DUP2 EQ PUSH2 0x3650 JUMPI PUSH1 0x0 DUP1 REVERT JUMPDEST POP JUMP JUMPDEST PUSH1 0x0 DUP2 CALLDATALOAD SWAP1 POP PUSH2 0x3662 DUP2 PUSH2 0x363C JUMP JUMPDEST SWAP3 SWAP2 POP POP JUMP JUMPDEST PUSH1 0x0 DUP1 PUSH1 0x40 DUP4 DUP6 SUB SLT ISZERO PUSH2 0x367F JUMPI PUSH2 0x367E PUSH2 0x2E6E JUMP JUMPDEST JUMPDEST PUSH1 0x0 PUSH2 0x368D DUP6 DUP3 DUP7 ADD PUSH2 0x30B1 JUMP JUMPDEST SWAP3 POP POP PUSH1 0x20 PUSH2 0x369E DUP6 DUP3 DUP7 ADD PUSH2 0x3653 JUMP JUMPDEST SWAP2 POP POP SWAP3 POP SWAP3 SWAP1 POP JUMP JUMPDEST PUSH1 0x0 DUP1 REVERT JUMPDEST PUSH1 0x0 PUSH8 0xFFFFFFFFFFFFFFFF DUP3 GT ISZERO PUSH2 0x36C8 JUMPI PUSH2 0x36C7 PUSH2 0x31B1 JUMP JUMPDEST JUMPDEST PUSH2 0x36D1 DUP3 PUSH2 0x2F79 JUMP JUMPDEST SWAP1 POP PUSH1 0x20 DUP2 ADD SWAP1 POP SWAP2 SWAP1 POP JUMP JUMPDEST DUP3 DUP2 DUP4 CALLDATACOPY PUSH1 0x0 DUP4 DUP4 ADD MSTORE POP POP POP JUMP JUMPDEST PUSH1 0x0 PUSH2 0x3700 PUSH2 0x36FB DUP5 PUSH2 0x36AD JUMP JUMPDEST PUSH2 0x3211 JUMP JUMPDEST SWAP1 POP DUP3 DUP2 MSTORE PUSH1 0x20 DUP2 ADD DUP5 DUP5 DUP5 ADD GT ISZERO PUSH2 0x371C JUMPI PUSH2 0x371B PUSH2 0x36A8 JUMP JUMPDEST JUMPDEST PUSH2 0x3727 DUP5 DUP3 DUP6 PUSH2 0x36DE JUMP JUMPDEST POP SWAP4 SWAP3 POP POP POP JUMP JUMPDEST PUSH1 0x0 DUP3 PUSH1 0x1F DUP4 ADD SLT PUSH2 0x3744 JUMPI PUSH2 0x3743 PUSH2 0x31AC JUMP JUMPDEST JUMPDEST DUP2 CALLDATALOAD PUSH2 0x3754 DUP5 DUP3 PUSH1 0x20 DUP7 ADD PUSH2 0x36ED JUMP JUMPDEST SWAP2 POP POP SWAP3 SWAP2 POP POP JUMP JUMPDEST PUSH1 0x0 DUP1 PUSH1 0x0 DUP1 PUSH1 0x80 DUP6 DUP8 SUB SLT ISZERO PUSH2 0x3777 JUMPI PUSH2 0x3776 PUSH2 0x2E6E JUMP JUMPDEST JUMPDEST PUSH1 0x0 PUSH2 0x3785 DUP8 DUP3 DUP9 ADD PUSH2 0x30B1 JUMP JUMPDEST SWAP5 POP POP PUSH1 0x20 PUSH2 0x3796 DUP8 DUP3 DUP9 ADD PUSH2 0x30B1 JUMP JUMPDEST SWAP4 POP POP PUSH1 0x40 PUSH2 0x37A7 DUP8 DUP3 DUP9 ADD PUSH2 0x2FFC JUMP JUMPDEST SWAP3 POP POP PUSH1 0x60 DUP6 ADD CALLDATALOAD PUSH8 0xFFFFFFFFFFFFFFFF DUP2 GT ISZERO PUSH2 0x37C8 JUMPI PUSH2 0x37C7 PUSH2 0x2E73 JUMP JUMPDEST JUMPDEST PUSH2 0x37D4 DUP8 DUP3 DUP9 ADD PUSH2 0x372F JUMP JUMPDEST SWAP2 POP POP SWAP3 SWAP6 SWAP2 SWAP5 POP SWAP3 POP JUMP JUMPDEST PUSH1 0x0 DUP1 PUSH1 0x40 DUP4 DUP6 SUB SLT ISZERO PUSH2 0x37F7 JUMPI PUSH2 0x37F6 PUSH2 0x2E6E JUMP JUMPDEST JUMPDEST PUSH1 0x0 PUSH2 0x3805 DUP6 DUP3 DUP7 ADD PUSH2 0x30B1 JUMP JUMPDEST SWAP3 POP POP PUSH1 0x20 PUSH2 0x3816 DUP6 DUP3 DUP7 ADD PUSH2 0x30B1 JUMP JUMPDEST SWAP2 POP POP SWAP3 POP SWAP3 SWAP1 POP JUMP JUMPDEST PUSH32 0x4E487B7100000000000000000000000000000000000000000000000000000000 PUSH1 0x0 MSTORE PUSH1 0x22 PUSH1 0x4 MSTORE PUSH1 0x24 PUSH1 0x0 REVERT JUMPDEST PUSH1 0x0 PUSH1 0x2 DUP3 DIV SWAP1 POP PUSH1 0x1 DUP3 AND DUP1 PUSH2 0x3867 JUMPI PUSH1 0x7F DUP3 AND SWAP2 POP JUMPDEST PUSH1 0x20 DUP3 LT DUP2 SUB PUSH2 0x387A JUMPI PUSH2 0x3879 PUSH2 0x3820 JUMP JUMPDEST JUMPDEST POP SWAP2 SWAP1 POP JUMP JUMPDEST PUSH1 0x0 PUSH1 0x60 DUP3 ADD SWAP1 POP PUSH2 0x3895 PUSH1 0x0 DUP4 ADD DUP7 PUSH2 0x3070 JUMP JUMPDEST PUSH2 0x38A2 PUSH1 0x20 DUP4 ADD DUP6 PUSH2 0x2E3A JUMP JUMPDEST PUSH2 0x38AF PUSH1 0x40 DUP4 ADD DUP5 PUSH2 0x3070 JUMP JUMPDEST SWAP5 SWAP4 POP POP POP POP JUMP JUMPDEST PUSH32 0x4F6E6C792074686520636F64656D616B65722063616E2063616C6C2074686973 PUSH1 0x0 DUP3 ADD MSTORE PUSH32 0x2066756E6374696F6E0000000000000000000000000000000000000000000000 PUSH1 0x20 DUP3 ADD MSTORE POP JUMP JUMPDEST PUSH1 0x0 PUSH2 0x3913 PUSH1 0x29 DUP4 PUSH2 0x2F3E JUMP JUMPDEST SWAP2 POP PUSH2 0x391E DUP3 PUSH2 0x38B7 JUMP JUMPDEST PUSH1 0x40 DUP3 ADD SWAP1 POP SWAP2 SWAP1 POP JUMP JUMPDEST PUSH1 0x0 PUSH1 0x20 DUP3 ADD SWAP1 POP DUP2 DUP2 SUB PUSH1 0x0 DUP4 ADD MSTORE PUSH2 0x3942 DUP2 PUSH2 0x3906 JUMP JUMPDEST SWAP1 POP SWAP2 SWAP1 POP JUMP JUMPDEST PUSH32 0x436F6465627265616B65722061646472657373206D7573742062652073657400 PUSH1 0x0 DUP3 ADD MSTORE POP JUMP JUMPDEST PUSH1 0x0 PUSH2 0x397F PUSH1 0x1F DUP4 PUSH2 0x2F3E JUMP JUMPDEST SWAP2 POP PUSH2 0x398A DUP3 PUSH2 0x3949 JUMP JUMPDEST PUSH1 0x20 DUP3 ADD SWAP1 POP SWAP2 SWAP1 POP JUMP JUMPDEST PUSH1 0x0 PUSH1 0x20 DUP3 ADD SWAP1 POP DUP2 DUP2 SUB PUSH1 0x0 DUP4 ADD MSTORE PUSH2 0x39AE DUP2 PUSH2 0x3972 JUMP JUMPDEST SWAP1 POP SWAP2 SWAP1 POP JUMP JUMPDEST PUSH32 0x53656372657420636F6465206D757374206265203420646967697473206C6F6E PUSH1 0x0 DUP3 ADD MSTORE PUSH32 0x6700000000000000000000000000000000000000000000000000000000000000 PUSH1 0x20 DUP3 ADD MSTORE POP JUMP JUMPDEST PUSH1 0x0 PUSH2 0x3A11 PUSH1 0x21 DUP4 PUSH2 0x2F3E JUMP JUMPDEST SWAP2 POP PUSH2 0x3A1C DUP3 PUSH2 0x39B5 JUMP JUMPDEST PUSH1 0x40 DUP3 ADD SWAP1 POP SWAP2 SWAP1 POP JUMP JUMPDEST PUSH1 0x0 PUSH1 0x20 DUP3 ADD SWAP1 POP DUP2 DUP2 SUB PUSH1 0x0 DUP4 ADD MSTORE PUSH2 0x3A40 DUP2 PUSH2 0x3A04 JUMP JUMPDEST SWAP1 POP SWAP2 SWAP1 POP JUMP JUMPDEST PUSH1 0x0 DUP2 SWAP1 POP SWAP3 SWAP2 POP POP JUMP JUMPDEST PUSH2 0x3A5B DUP2 PUSH2 0x3106 JUMP JUMPDEST DUP3 MSTORE POP POP JUMP JUMPDEST PUSH1 0x0 PUSH2 0x3A6D DUP4 DUP4 PUSH2 0x3A52 JUMP JUMPDEST PUSH1 0x20 DUP4 ADD SWAP1 POP SWAP3 SWAP2 POP POP JUMP JUMPDEST PUSH1 0x0 PUSH2 0x3A84 DUP3 PUSH2 0x3454 JUMP JUMPDEST PUSH2 0x3A8E DUP2 DUP6 PUSH2 0x3A47 JUMP JUMPDEST SWAP4 POP PUSH2 0x3A99 DUP4 PUSH2 0x3470 JUMP JUMPDEST DUP1 PUSH1 0x0 JUMPDEST DUP4 DUP2 LT ISZERO PUSH2 0x3ACA JUMPI DUP2 MLOAD PUSH2 0x3AB1 DUP9 DUP3 PUSH2 0x3A61 JUMP JUMPDEST SWAP8 POP PUSH2 0x3ABC DUP4 PUSH2 0x34A7 JUMP JUMPDEST SWAP3 POP POP PUSH1 0x1 DUP2 ADD SWAP1 POP PUSH2 0x3A9D JUMP JUMPDEST POP DUP6 SWAP4 POP POP POP POP SWAP3 SWAP2 POP POP JUMP JUMPDEST PUSH1 0x0 PUSH2 0x3AE3 DUP3 DUP5 PUSH2 0x3A79 JUMP JUMPDEST SWAP2 POP DUP2 SWAP1 POP SWAP3 SWAP2 POP POP JUMP JUMPDEST PUSH1 0x0 PUSH1 0x40 DUP3 ADD SWAP1 POP PUSH2 0x3B03 PUSH1 0x0 DUP4 ADD DUP6 PUSH2 0x33FE JUMP JUMPDEST PUSH2 0x3B10 PUSH1 0x20 DUP4 ADD DUP5 PUSH2 0x2E3A JUMP JUMPDEST SWAP4 SWAP3 POP POP POP JUMP JUMPDEST PUSH1 0x0 PUSH1 0x60 DUP3 ADD SWAP1 POP PUSH2 0x3B2C PUSH1 0x0 DUP4 ADD DUP7 PUSH2 0x2E3A JUMP JUMPDEST PUSH2 0x3B39 PUSH1 0x20 DUP4 ADD DUP6 PUSH2 0x2E3A JUMP JUMPDEST PUSH2 0x3B46 PUSH1 0x40 DUP4 ADD DUP5 PUSH2 0x2E3A JUMP JUMPDEST SWAP5 SWAP4 POP POP POP POP JUMP JUMPDEST PUSH32 0x47616D6520696E2073657373696F6E0000000000000000000000000000000000 PUSH1 0x0 DUP3 ADD MSTORE POP JUMP JUMPDEST PUSH1 0x0 PUSH2 0x3B84 PUSH1 0xF DUP4 PUSH2 0x2F3E JUMP JUMPDEST SWAP2 POP PUSH2 0x3B8F DUP3 PUSH2 0x3B4E JUMP JUMPDEST PUSH1 0x20 DUP3 ADD SWAP1 POP SWAP2 SWAP1 POP JUMP JUMPDEST PUSH1 0x0 PUSH1 0x20 DUP3 ADD SWAP1 POP DUP2 DUP2 SUB PUSH1 0x0 DUP4 ADD MSTORE PUSH2 0x3BB3 DUP2 PUSH2 0x3B77 JUMP JUMPDEST SWAP1 POP SWAP2 SWAP1 POP JUMP JUMPDEST PUSH32 0x4F6E6C792074686520636F6465627265616B65722063616E2063616C6C207468 PUSH1 0x0 DUP3 ADD MSTORE PUSH32 0x69732066756E6374696F6E000000000000000000000000000000000000000000 PUSH1 0x20 DUP3 ADD MSTORE POP JUMP JUMPDEST PUSH1 0x0 PUSH2 0x3C16 PUSH1 0x2B DUP4 PUSH2 0x2F3E JUMP JUMPDEST SWAP2 POP PUSH2 0x3C21 DUP3 PUSH2 0x3BBA JUMP JUMPDEST PUSH1 0x40 DUP3 ADD SWAP1 POP SWAP2 SWAP1 POP JUMP JUMPDEST PUSH1 0x0 PUSH1 0x20 DUP3 ADD SWAP1 POP DUP2 DUP2 SUB PUSH1 0x0 DUP4 ADD MSTORE PUSH2 0x3C45 DUP2 PUSH2 0x3C09 JUMP JUMPDEST SWAP1 POP SWAP2 SWAP1 POP JUMP JUMPDEST PUSH32 0x47616D65206973206E6F74206163746976650000000000000000000000000000 PUSH1 0x0 DUP3 ADD MSTORE POP JUMP JUMPDEST PUSH1 0x0 PUSH2 0x3C82 PUSH1 0x12 DUP4 PUSH2 0x2F3E JUMP JUMPDEST SWAP2 POP PUSH2 0x3C8D DUP3 PUSH2 0x3C4C JUMP JUMPDEST PUSH1 0x20 DUP3 ADD SWAP1 POP SWAP2 SWAP1 POP JUMP JUMPDEST PUSH1 0x0 PUSH1 0x20 DUP3 ADD SWAP1 POP DUP2 DUP2 SUB PUSH1 0x0 DUP4 ADD MSTORE PUSH2 0x3CB1 DUP2 PUSH2 0x3C75 JUMP JUMPDEST SWAP1 POP SWAP2 SWAP1 POP JUMP JUMPDEST PUSH32 0x4775657373206D757374206265203420646967697473206C6F6E670000000000 PUSH1 0x0 DUP3 ADD MSTORE POP JUMP JUMPDEST PUSH1 0x0 PUSH2 0x3CEE PUSH1 0x1B DUP4 PUSH2 0x2F3E JUMP JUMPDEST SWAP2 POP PUSH2 0x3CF9 DUP3 PUSH2 0x3CB8 JUMP JUMPDEST PUSH1 0x20 DUP3 ADD SWAP1 POP SWAP2 SWAP1 POP JUMP JUMPDEST PUSH1 0x0 PUSH1 0x20 DUP3 ADD SWAP1 POP DUP2 DUP2 SUB PUSH1 0x0 DUP4 ADD MSTORE PUSH2 0x3D1D DUP2 PUSH2 0x3CE1 JUMP JUMPDEST SWAP1 POP SWAP2 SWAP1 POP JUMP JUMPDEST PUSH32 0x4D6178696D756D206E756D626572206F66206775657373657320726561636865 PUSH1 0x0 DUP3 ADD MSTORE PUSH32 0x6400000000000000000000000000000000000000000000000000000000000000 PUSH1 0x20 DUP3 ADD MSTORE POP JUMP JUMPDEST PUSH1 0x0 PUSH2 0x3D80 PUSH1 0x21 DUP4 PUSH2 0x2F3E JUMP JUMPDEST SWAP2 POP PUSH2 0x3D8B DUP3 PUSH2 0x3D24 JUMP JUMPDEST PUSH1 0x40 DUP3 ADD SWAP1 POP SWAP2 SWAP1 POP JUMP JUMPDEST PUSH1 0x0 PUSH1 0x20 DUP3 ADD SWAP1 POP DUP2 DUP2 SUB PUSH1 0x0 DUP4 ADD MSTORE PUSH2 0x3DAF DUP2 PUSH2 0x3D73 JUMP JUMPDEST SWAP1 POP SWAP2 SWAP1 POP JUMP JUMPDEST PUSH1 0x0 DUP3 DUP3 MSTORE PUSH1 0x20 DUP3 ADD SWAP1 POP SWAP3 SWAP2 POP POP JUMP JUMPDEST PUSH1 0x0 PUSH2 0x3DD2 DUP3 PUSH2 0x3454 JUMP JUMPDEST PUSH2 0x3DDC DUP2 DUP6 PUSH2 0x3DB6 JUMP JUMPDEST SWAP4 POP PUSH2 0x3DE7 DUP4 PUSH2 0x3470 JUMP JUMPDEST DUP1 PUSH1 0x0 JUMPDEST DUP4 DUP2 LT ISZERO PUSH2 0x3E18 JUMPI DUP2 MLOAD PUSH2 0x3DFF DUP9 DUP3 PUSH2 0x348F JUMP JUMPDEST SWAP8 POP PUSH2 0x3E0A DUP4 PUSH2 0x34A7 JUMP JUMPDEST SWAP3 POP POP PUSH1 0x1 DUP2 ADD SWAP1 POP PUSH2 0x3DEB JUMP JUMPDEST POP DUP6 SWAP4 POP POP POP POP SWAP3 SWAP2 POP POP JUMP JUMPDEST PUSH1 0x0 PUSH1 0xA0 DUP3 ADD SWAP1 POP DUP2 DUP2 SUB PUSH1 0x0 DUP4 ADD MSTORE PUSH2 0x3E3F DUP2 DUP9 PUSH2 0x3DC7 JUMP JUMPDEST SWAP1 POP PUSH2 0x3E4E PUSH1 0x20 DUP4 ADD DUP8 PUSH2 0x3113 JUMP JUMPDEST PUSH2 0x3E5B PUSH1 0x40 DUP4 ADD DUP7 PUSH2 0x3113 JUMP JUMPDEST PUSH2 0x3E68 PUSH1 0x60 DUP4 ADD DUP6 PUSH2 0x2F09 JUMP JUMPDEST PUSH2 0x3E75 PUSH1 0x80 DUP4 ADD DUP5 PUSH2 0x2E3A JUMP JUMPDEST SWAP7 SWAP6 POP POP POP POP POP POP JUMP JUMPDEST PUSH32 0x4E487B7100000000000000000000000000000000000000000000000000000000 PUSH1 0x0 MSTORE PUSH1 0x11 PUSH1 0x4 MSTORE PUSH1 0x24 PUSH1 0x0 REVERT JUMPDEST PUSH1 0x0 PUSH2 0x3EB9 DUP3 PUSH2 0x2E30 JUMP JUMPDEST SWAP2 POP PUSH2 0x3EC4 DUP4 PUSH2 0x2E30 JUMP JUMPDEST SWAP3 POP DUP3 DUP3 ADD SWAP1 POP DUP1 DUP3 GT ISZERO PUSH2 0x3EDC JUMPI PUSH2 0x3EDB PUSH2 0x3E7F JUMP JUMPDEST JUMPDEST SWAP3 SWAP2 POP POP JUMP JUMPDEST PUSH1 0x0 PUSH2 0x3EED DUP3 PUSH2 0x2E30 JUMP JUMPDEST SWAP2 POP PUSH32 0xFFFFFFFFFFFFFFFFFFFFFFFFFFFFFFFFFFFFFFFFFFFFFFFFFFFFFFFFFFFFFFFF DUP3 SUB PUSH2 0x3F1F JUMPI PUSH2 0x3F1E PUSH2 0x3E7F JUMP JUMPDEST JUMPDEST PUSH1 0x1 DUP3 ADD SWAP1 POP SWAP2 SWAP1 POP JUMP JUMPDEST PUSH1 0x0 DUP2 SWAP1 POP SWAP3 SWAP2 POP POP JUMP JUMPDEST PUSH32 0x7B226E616D65223A224D61737465726D696E6420230000000000000000000000 PUSH1 0x0 DUP3 ADD MSTORE POP JUMP JUMPDEST PUSH1 0x0 PUSH2 0x3F6B PUSH1 0x15 DUP4 PUSH2 0x3F2A JUMP JUMPDEST SWAP2 POP PUSH2 0x3F76 DUP3 PUSH2 0x3F35 JUMP JUMPDEST PUSH1 0x15 DUP3 ADD SWAP1 POP SWAP2 SWAP1 POP JUMP JUMPDEST PUSH1 0x0 PUSH2 0x3F8C DUP3 PUSH2 0x2F33 JUMP JUMPDEST PUSH2 0x3F96 DUP2 DUP6 PUSH2 0x3F2A JUMP JUMPDEST SWAP4 POP PUSH2 0x3FA6 DUP2 DUP6 PUSH1 0x20 DUP7 ADD PUSH2 0x2F4F JUMP JUMPDEST DUP1 DUP5 ADD SWAP2 POP POP SWAP3 SWAP2 POP POP JUMP JUMPDEST PUSH32 0x222C20226465736372697074696F6E223A22416E204E46542074686174207265 PUSH1 0x0 DUP3 ADD MSTORE PUSH32 0x666C6563747320746865206F7574636F6D65206F662061204D61737465726D69 PUSH1 0x20 DUP3 ADD MSTORE PUSH32 0x6E642067616D65222C2000000000000000000000000000000000000000000000 PUSH1 0x40 DUP3 ADD MSTORE POP JUMP JUMPDEST PUSH1 0x0 PUSH2 0x4034 PUSH1 0x4A DUP4 PUSH2 0x3F2A JUMP JUMPDEST SWAP2 POP PUSH2 0x403F DUP3 PUSH2 0x3FB2 JUMP JUMPDEST PUSH1 0x4A DUP3 ADD SWAP1 POP SWAP2 SWAP1 POP JUMP JUMPDEST PUSH32 0x2261747472696275746573223A205B7B2274726169745F74797065223A202267 PUSH1 0x0 DUP3 ADD MSTORE PUSH32 0x616D655F726573756C74222C202276616C7565223A2022000000000000000000 PUSH1 0x20 DUP3 ADD MSTORE POP JUMP JUMPDEST PUSH1 0x0 PUSH2 0x40A6 PUSH1 0x37 DUP4 PUSH2 0x3F2A JUMP JUMPDEST SWAP2 POP PUSH2 0x40B1 DUP3 PUSH2 0x404A JUMP JUMPDEST PUSH1 0x37 DUP3 ADD SWAP1 POP SWAP2 SWAP1 POP JUMP JUMPDEST PUSH32 0x227D2C207B2274726169745F74797065223A20226F776E6572222C202276616C PUSH1 0x0 DUP3 ADD MSTORE PUSH32 0x7565223A20220000000000000000000000000000000000000000000000000000 PUSH1 0x20 DUP3 ADD MSTORE POP JUMP JUMPDEST PUSH1 0x0 PUSH2 0x4118 PUSH1 0x26 DUP4 PUSH2 0x3F2A JUMP JUMPDEST SWAP2 POP PUSH2 0x4123 DUP3 PUSH2 0x40BC JUMP JUMPDEST PUSH1 0x26 DUP3 ADD SWAP1 POP SWAP2 SWAP1 POP JUMP JUMPDEST PUSH32 0x227D5D2C2022696D616765223A22000000000000000000000000000000000000 PUSH1 0x0 DUP3 ADD MSTORE POP JUMP JUMPDEST PUSH1 0x0 PUSH2 0x4164 PUSH1 0xE DUP4 PUSH2 0x3F2A JUMP JUMPDEST SWAP2 POP PUSH2 0x416F DUP3 PUSH2 0x412E JUMP JUMPDEST PUSH1 0xE DUP3 ADD SWAP1 POP SWAP2 SWAP1 POP JUMP JUMPDEST PUSH32 0x227D000000000000000000000000000000000000000000000000000000000000 PUSH1 0x0 DUP3 ADD MSTORE POP JUMP JUMPDEST PUSH1 0x0 PUSH2 0x41B0 PUSH1 0x2 DUP4 PUSH2 0x3F2A JUMP JUMPDEST SWAP2 POP PUSH2 0x41BB DUP3 PUSH2 0x417A JUMP JUMPDEST PUSH1 0x2 DUP3 ADD SWAP1 POP SWAP2 SWAP1 POP JUMP JUMPDEST PUSH1 0x0 PUSH2 0x41D1 DUP3 PUSH2 0x3F5E JUMP JUMPDEST SWAP2 POP PUSH2 0x41DD DUP3 DUP8 PUSH2 0x3F81 JUMP JUMPDEST SWAP2 POP PUSH2 0x41E8 DUP3 PUSH2 0x4027 JUMP JUMPDEST SWAP2 POP PUSH2 0x41F3 DUP3 PUSH2 0x4099 JUMP JUMPDEST SWAP2 POP PUSH2 0x41FF DUP3 DUP7 PUSH2 0x3F81 JUMP JUMPDEST SWAP2 POP PUSH2 0x420A DUP3 PUSH2 0x410B JUMP JUMPDEST SWAP2 POP PUSH2 0x4216 DUP3 DUP6 PUSH2 0x3F81 JUMP JUMPDEST SWAP2 POP PUSH2 0x4221 DUP3 PUSH2 0x4157 JUMP JUMPDEST SWAP2 POP PUSH2 0x422D DUP3 DUP5 PUSH2 0x3F81 JUMP JUMPDEST SWAP2 POP PUSH2 0x4238 DUP3 PUSH2 0x41A3 JUMP JUMPDEST SWAP2 POP DUP2 SWAP1 POP SWAP6 SWAP5 POP POP POP POP POP JUMP JUMPDEST PUSH1 0x0 PUSH2 0x4252 DUP3 DUP6 PUSH2 0x3F81 JUMP JUMPDEST SWAP2 POP PUSH2 0x425E DUP3 DUP5 PUSH2 0x3F81 JUMP JUMPDEST SWAP2 POP DUP2 SWAP1 POP SWAP4 SWAP3 POP POP POP JUMP JUMPDEST PUSH32 0x4E487B7100000000000000000000000000000000000000000000000000000000 PUSH1 0x0 MSTORE PUSH1 0x32 PUSH1 0x4 MSTORE PUSH1 0x24 PUSH1 0x0 REVERT JUMPDEST PUSH1 0x0 PUSH2 0x42A4 DUP3 PUSH2 0x3106 JUMP JUMPDEST SWAP2 POP PUSH1 0xFF DUP3 SUB PUSH2 0x42B7 JUMPI PUSH2 0x42B6 PUSH2 0x3E7F JUMP JUMPDEST JUMPDEST PUSH1 0x1 DUP3 ADD SWAP1 POP SWAP2 SWAP1 POP JUMP JUMPDEST PUSH1 0x0 DUP2 MLOAD SWAP1 POP SWAP2 SWAP1 POP JUMP JUMPDEST PUSH1 0x0 DUP3 DUP3 MSTORE PUSH1 0x20 DUP3 ADD SWAP1 POP SWAP3 SWAP2 POP POP JUMP JUMPDEST PUSH1 0x0 PUSH2 0x42E9 DUP3 PUSH2 0x42C2 JUMP JUMPDEST PUSH2 0x42F3 DUP2 DUP6 PUSH2 0x42CD JUMP JUMPDEST SWAP4 POP PUSH2 0x4303 DUP2 DUP6 PUSH1 0x20 DUP7 ADD PUSH2 0x2F4F JUMP JUMPDEST PUSH2 0x430C DUP2 PUSH2 0x2F79 JUMP JUMPDEST DUP5 ADD SWAP2 POP POP SWAP3 SWAP2 POP POP JUMP JUMPDEST PUSH1 0x0 PUSH1 0x80 DUP3 ADD SWAP1 POP PUSH2 0x432C PUSH1 0x0 DUP4 ADD DUP8 PUSH2 0x3070 JUMP JUMPDEST PUSH2 0x4339 PUSH1 0x20 DUP4 ADD DUP7 PUSH2 0x3070 JUMP JUMPDEST PUSH2 0x4346 PUSH1 0x40 DUP4 ADD DUP6 PUSH2 0x2E3A JUMP JUMPDEST DUP2 DUP2 SUB PUSH1 0x60 DUP4 ADD MSTORE PUSH2 0x4358 DUP2 DUP5 PUSH2 0x42DE JUMP JUMPDEST SWAP1 POP SWAP6 SWAP5 POP POP POP POP POP JUMP JUMPDEST PUSH1 0x0 DUP2 MLOAD SWAP1 POP PUSH2 0x4372 DUP2 PUSH2 0x2EA4 JUMP JUMPDEST SWAP3 SWAP2 POP POP JUMP JUMPDEST PUSH1 0x0 PUSH1 0x20 DUP3 DUP5 SUB SLT ISZERO PUSH2 0x438E JUMPI PUSH2 0x438D PUSH2 0x2E6E JUMP JUMPDEST JUMPDEST PUSH1 0x0 PUSH2 0x439C DUP5 DUP3 DUP6 ADD PUSH2 0x4363 JUMP JUMPDEST SWAP2 POP POP SWAP3 SWAP2 POP POP JUMP JUMPDEST PUSH32 0x3C7376672077696474683D2233303022206865696768743D223430302220786D PUSH1 0x0 DUP3 ADD MSTORE PUSH32 0x6C6E733D22687474703A2F2F7777772E77332E6F72672F323030302F73766722 PUSH1 0x20 DUP3 ADD MSTORE PUSH32 0x3E00000000000000000000000000000000000000000000000000000000000000 PUSH1 0x40 DUP3 ADD MSTORE POP JUMP JUMPDEST PUSH1 0x0 PUSH2 0x4427 PUSH1 0x41 DUP4 PUSH2 0x3F2A JUMP JUMPDEST SWAP2 POP PUSH2 0x4432 DUP3 PUSH2 0x43A5 JUMP JUMPDEST PUSH1 0x41 DUP3 ADD SWAP1 POP SWAP2 SWAP1 POP JUMP JUMPDEST PUSH32 0x3C726563742077696474683D2233303022206865696768743D22343030222066 PUSH1 0x0 DUP3 ADD MSTORE PUSH32 0x696C6C3D227768697465222F3E00000000000000000000000000000000000000 PUSH1 0x20 DUP3 ADD MSTORE POP JUMP JUMPDEST PUSH1 0x0 PUSH2 0x4499 PUSH1 0x2D DUP4 PUSH2 0x3F2A JUMP JUMPDEST SWAP2 POP PUSH2 0x44A4 DUP3 PUSH2 0x443D JUMP JUMPDEST PUSH1 0x2D DUP3 ADD SWAP1 POP SWAP2 SWAP1 POP JUMP JUMPDEST PUSH32 0x3C7465787420783D2231302220793D2233302220666F6E742D66616D696C793D PUSH1 0x0 DUP3 ADD MSTORE PUSH32 0x22417269616C2220666F6E742D73697A653D223234222066696C6C3D22707572 PUSH1 0x20 DUP3 ADD MSTORE PUSH32 0x706C65223E4D61737465726D696E643C2F746578743E00000000000000000000 PUSH1 0x40 DUP3 ADD MSTORE POP JUMP JUMPDEST PUSH1 0x0 PUSH2 0x4531 PUSH1 0x56 DUP4 PUSH2 0x3F2A JUMP JUMPDEST SWAP2 POP PUSH2 0x453C DUP3 PUSH2 0x44AF JUMP JUMPDEST PUSH1 0x56 DUP3 ADD SWAP1 POP SWAP2 SWAP1 POP JUMP JUMPDEST PUSH32 0x3C6C696E652078313D223130222079313D223530222078323D22323930222079 PUSH1 0x0 DUP3 ADD MSTORE PUSH32 0x323D22353022207374726F6B653D22626C61636B22207374726F6B652D776964 PUSH1 0x20 DUP3 ADD MSTORE PUSH32 0x74683D2232222F3E000000000000000000000000000000000000000000000000 PUSH1 0x40 DUP3 ADD MSTORE POP JUMP JUMPDEST PUSH1 0x0 PUSH2 0x45C9 PUSH1 0x48 DUP4 PUSH2 0x3F2A JUMP JUMPDEST SWAP2 POP PUSH2 0x45D4 DUP3 PUSH2 0x4547 JUMP JUMPDEST PUSH1 0x48 DUP3 ADD SWAP1 POP SWAP2 SWAP1 POP JUMP JUMPDEST PUSH32 0x3C636972636C652063783D223530222063793D2238302220723D223130222066 PUSH1 0x0 DUP3 ADD MSTORE PUSH32 0x696C6C3D2272656422202F3E0000000000000000000000000000000000000000 PUSH1 0x20 DUP3 ADD MSTORE POP JUMP JUMPDEST PUSH1 0x0 PUSH2 0x463B PUSH1 0x2C DUP4 PUSH2 0x3F2A JUMP JUMPDEST SWAP2 POP PUSH2 0x4646 DUP3 PUSH2 0x45DF JUMP JUMPDEST PUSH1 0x2C DUP3 ADD SWAP1 POP SWAP2 SWAP1 POP JUMP JUMPDEST PUSH32 0x3C636972636C652063783D223830222063793D2238302220723D223130222066 PUSH1 0x0 DUP3 ADD MSTORE PUSH32 0x696C6C3D22626C756522202F3E00000000000000000000000000000000000000 PUSH1 0x20 DUP3 ADD MSTORE POP JUMP JUMPDEST PUSH1 0x0 PUSH2 0x46AD PUSH1 0x2D DUP4 PUSH2 0x3F2A JUMP JUMPDEST SWAP2 POP PUSH2 0x46B8 DUP3 PUSH2 0x4651 JUMP JUMPDEST PUSH1 0x2D DUP3 ADD SWAP1 POP SWAP2 SWAP1 POP JUMP JUMPDEST PUSH32 0x3C636972636C652063783D22313130222063793D2238302220723D2231302220 PUSH1 0x0 DUP3 ADD MSTORE PUSH32 0x66696C6C3D22677265656E22202F3E0000000000000000000000000000000000 PUSH1 0x20 DUP3 ADD MSTORE POP JUMP JUMPDEST PUSH1 0x0 PUSH2 0x471F PUSH1 0x2F DUP4 PUSH2 0x3F2A JUMP JUMPDEST SWAP2 POP PUSH2 0x472A DUP3 PUSH2 0x46C3 JUMP JUMPDEST PUSH1 0x2F DUP3 ADD SWAP1 POP SWAP2 SWAP1 POP JUMP JUMPDEST PUSH32 0x3C636972636C652063783D22313430222063793D2238302220723D2231302220 PUSH1 0x0 DUP3 ADD MSTORE PUSH32 0x66696C6C3D2279656C6C6F7722202F3E00000000000000000000000000000000 PUSH1 0x20 DUP3 ADD MSTORE POP JUMP JUMPDEST PUSH1 0x0 PUSH2 0x4791 PUSH1 0x30 DUP4 PUSH2 0x3F2A JUMP JUMPDEST SWAP2 POP PUSH2 0x479C DUP3 PUSH2 0x4735 JUMP JUMPDEST PUSH1 0x30 DUP3 ADD SWAP1 POP SWAP2 SWAP1 POP JUMP JUMPDEST PUSH32 0x3C636972636C652063783D223530222063793D223132302220723D2231302220 PUSH1 0x0 DUP3 ADD MSTORE PUSH32 0x66696C6C3D22776869746522207374726F6B653D22626C61636B22207374726F PUSH1 0x20 DUP3 ADD MSTORE PUSH32 0x6B652D77696474683D2232222F3E000000000000000000000000000000000000 PUSH1 0x40 DUP3 ADD MSTORE POP JUMP JUMPDEST PUSH1 0x0 PUSH2 0x4829 PUSH1 0x4E DUP4 PUSH2 0x3F2A JUMP JUMPDEST SWAP2 POP PUSH2 0x4834 DUP3 PUSH2 0x47A7 JUMP JUMPDEST PUSH1 0x4E DUP3 ADD SWAP1 POP SWAP2 SWAP1 POP JUMP JUMPDEST PUSH32 0x3C636972636C652063783D223830222063793D223132302220723D2231302220 PUSH1 0x0 DUP3 ADD MSTORE PUSH32 0x66696C6C3D22776869746522207374726F6B653D22626C61636B22207374726F PUSH1 0x20 DUP3 ADD MSTORE PUSH32 0x6B652D77696474683D2232222F3E000000000000000000000000000000000000 PUSH1 0x40 DUP3 ADD MSTORE POP JUMP JUMPDEST PUSH1 0x0 PUSH2 0x48C1 PUSH1 0x4E DUP4 PUSH2 0x3F2A JUMP JUMPDEST SWAP2 POP PUSH2 0x48CC DUP3 PUSH2 0x483F JUMP JUMPDEST PUSH1 0x4E DUP3 ADD SWAP1 POP SWAP2 SWAP1 POP JUMP JUMPDEST PUSH32 0x3C636972636C652063783D22313130222063793D223132302220723D22313022 PUSH1 0x0 DUP3 ADD MSTORE PUSH32 0x2066696C6C3D22776869746522207374726F6B653D22626C61636B2220737472 PUSH1 0x20 DUP3 ADD MSTORE PUSH32 0x6F6B652D77696474683D2232222F3E0000000000000000000000000000000000 PUSH1 0x40 DUP3 ADD MSTORE POP JUMP JUMPDEST PUSH1 0x0 PUSH2 0x4959 PUSH1 0x4F DUP4 PUSH2 0x3F2A JUMP JUMPDEST SWAP2 POP PUSH2 0x4964 DUP3 PUSH2 0x48D7 JUMP JUMPDEST PUSH1 0x4F DUP3 ADD SWAP1 POP SWAP2 SWAP1 POP JUMP JUMPDEST PUSH32 0x3C636972636C652063783D22313430222063793D223132302220723D22313022 PUSH1 0x0 DUP3 ADD MSTORE PUSH32 0x2066696C6C3D22776869746522207374726F6B653D22626C61636B2220737472 PUSH1 0x20 DUP3 ADD MSTORE PUSH32 0x6F6B652D77696474683D2232222F3E0000000000000000000000000000000000 PUSH1 0x40 DUP3 ADD MSTORE POP JUMP JUMPDEST PUSH1 0x0 PUSH2 0x49F1 PUSH1 0x4F DUP4 PUSH2 0x3F2A JUMP JUMPDEST SWAP2 POP PUSH2 0x49FC DUP3 PUSH2 0x496F JUMP JUMPDEST PUSH1 0x4F DUP3 ADD SWAP1 POP SWAP2 SWAP1 POP JUMP JUMPDEST PUSH32 0x3C636972636C652063783D223530222063793D223136302220723D2231302220 PUSH1 0x0 DUP3 ADD MSTORE PUSH32 0x66696C6C3D22776869746522207374726F6B653D22626C61636B22207374726F PUSH1 0x20 DUP3 ADD MSTORE PUSH32 0x6B652D77696474683D2232222F3E000000000000000000000000000000000000 PUSH1 0x40 DUP3 ADD MSTORE POP JUMP JUMPDEST PUSH1 0x0 PUSH2 0x4A89 PUSH1 0x4E DUP4 PUSH2 0x3F2A JUMP JUMPDEST SWAP2 POP PUSH2 0x4A94 DUP3 PUSH2 0x4A07 JUMP JUMPDEST PUSH1 0x4E DUP3 ADD SWAP1 POP SWAP2 SWAP1 POP JUMP JUMPDEST PUSH32 0x3C636972636C652063783D223830222063793D223136302220723D2231302220 PUSH1 0x0 DUP3 ADD MSTORE PUSH32 0x66696C6C3D22776869746522207374726F6B653D22626C61636B22207374726F PUSH1 0x20 DUP3 ADD MSTORE PUSH32 0x6B652D77696474683D2232222F3E000000000000000000000000000000000000 PUSH1 0x40 DUP3 ADD MSTORE POP JUMP JUMPDEST PUSH1 0x0 PUSH2 0x4B21 PUSH1 0x4E DUP4 PUSH2 0x3F2A JUMP JUMPDEST SWAP2 POP PUSH2 0x4B2C DUP3 PUSH2 0x4A9F JUMP JUMPDEST PUSH1 0x4E DUP3 ADD SWAP1 POP SWAP2 SWAP1 POP JUMP JUMPDEST PUSH32 0x3C636972636C652063783D22313130222063793D223136302220723D22313022 PUSH1 0x0 DUP3 ADD MSTORE PUSH32 0x2066696C6C3D22776869746522207374726F6B653D22626C61636B2220737472 PUSH1 0x20 DUP3 ADD MSTORE PUSH32 0x6F6B652D77696474683D2232222F3E0000000000000000000000000000000000 PUSH1 0x40 DUP3 ADD MSTORE POP JUMP JUMPDEST PUSH1 0x0 PUSH2 0x4BB9 PUSH1 0x4F DUP4 PUSH2 0x3F2A JUMP JUMPDEST SWAP2 POP PUSH2 0x4BC4 DUP3 PUSH2 0x4B37 JUMP JUMPDEST PUSH1 0x4F DUP3 ADD SWAP1 POP SWAP2 SWAP1 POP JUMP JUMPDEST PUSH32 0x3C636972636C652063783D22313430222063793D223136302220723D22313022 PUSH1 0x0 DUP3 ADD MSTORE PUSH32 0x2066696C6C3D22776869746522207374726F6B653D22626C61636B2220737472 PUSH1 0x20 DUP3 ADD MSTORE PUSH32 0x6F6B652D77696474683D2232222F3E0000000000000000000000000000000000 PUSH1 0x40 DUP3 ADD MSTORE POP JUMP JUMPDEST PUSH1 0x0 PUSH2 0x4C51 PUSH1 0x4F DUP4 PUSH2 0x3F2A JUMP JUMPDEST SWAP2 POP PUSH2 0x4C5C DUP3 PUSH2 0x4BCF JUMP JUMPDEST PUSH1 0x4F DUP3 ADD SWAP1 POP SWAP2 SWAP1 POP JUMP JUMPDEST PUSH32 0x3C636972636C652063783D223530222063793D223230302220723D2231302220 PUSH1 0x0 DUP3 ADD MSTORE PUSH32 0x66696C6C3D22776869746522207374726F6B653D22626C61636B22207374726F PUSH1 0x20 DUP3 ADD MSTORE PUSH32 0x6B652D77696474683D2232222F3E000000000000000000000000000000000000 PUSH1 0x40 DUP3 ADD MSTORE POP JUMP JUMPDEST PUSH1 0x0 PUSH2 0x4CE9 PUSH1 0x4E DUP4 PUSH2 0x3F2A JUMP JUMPDEST SWAP2 POP PUSH2 0x4CF4 DUP3 PUSH2 0x4C67 JUMP JUMPDEST PUSH1 0x4E DUP3 ADD SWAP1 POP SWAP2 SWAP1 POP JUMP JUMPDEST PUSH32 0x3C636972636C652063783D223830222063793D223230302220723D2231302220 PUSH1 0x0 DUP3 ADD MSTORE PUSH32 0x66696C6C3D22776869746522207374726F6B653D22626C61636B22207374726F PUSH1 0x20 DUP3 ADD MSTORE PUSH32 0x6B652D77696474683D2232222F3E000000000000000000000000000000000000 PUSH1 0x40 DUP3 ADD MSTORE POP JUMP JUMPDEST PUSH1 0x0 PUSH2 0x4D81 PUSH1 0x4E DUP4 PUSH2 0x3F2A JUMP JUMPDEST SWAP2 POP PUSH2 0x4D8C DUP3 PUSH2 0x4CFF JUMP JUMPDEST PUSH1 0x4E DUP3 ADD SWAP1 POP SWAP2 SWAP1 POP JUMP JUMPDEST PUSH32 0x3C636972636C652063783D22313130222063793D223230302220723D22313022 PUSH1 0x0 DUP3 ADD MSTORE PUSH32 0x2066696C6C3D22776869746522207374726F6B653D22626C61636B2220737472 PUSH1 0x20 DUP3 ADD MSTORE PUSH32 0x6F6B652D77696474683D2232222F3E0000000000000000000000000000000000 PUSH1 0x40 DUP3 ADD MSTORE POP JUMP JUMPDEST PUSH1 0x0 PUSH2 0x4E19 PUSH1 0x4F DUP4 PUSH2 0x3F2A JUMP JUMPDEST SWAP2 POP PUSH2 0x4E24 DUP3 PUSH2 0x4D97 JUMP JUMPDEST PUSH1 0x4F DUP3 ADD SWAP1 POP SWAP2 SWAP1 POP JUMP JUMPDEST PUSH32 0x3C636972636C652063783D22313430222063793D223230302220723D22313022 PUSH1 0x0 DUP3 ADD MSTORE PUSH32 0x2066696C6C3D22776869746522207374726F6B653D22626C61636B2220737472 PUSH1 0x20 DUP3 ADD MSTORE PUSH32 0x6F6B652D77696474683D2232222F3E0000000000000000000000000000000000 PUSH1 0x40 DUP3 ADD MSTORE POP JUMP JUMPDEST PUSH1 0x0 PUSH2 0x4EB1 PUSH1 0x4F DUP4 PUSH2 0x3F2A JUMP JUMPDEST SWAP2 POP PUSH2 0x4EBC DUP3 PUSH2 0x4E2F JUMP JUMPDEST PUSH1 0x4F DUP3 ADD SWAP1 POP SWAP2 SWAP1 POP JUMP JUMPDEST PUSH32 0x3C7465787420783D2231302220793D223335302220666F6E742D66616D696C79 PUSH1 0x0 DUP3 ADD MSTORE PUSH32 0x3D22417269616C2220666F6E742D73697A653D223136222066696C6C3D22626C PUSH1 0x20 DUP3 ADD MSTORE PUSH32 0x61636B223E000000000000000000000000000000000000000000000000000000 PUSH1 0x40 DUP3 ADD MSTORE POP JUMP JUMPDEST PUSH1 0x0 PUSH2 0x4F49 PUSH1 0x45 DUP4 PUSH2 0x3F2A JUMP JUMPDEST SWAP2 POP PUSH2 0x4F54 DUP3 PUSH2 0x4EC7 JUMP JUMPDEST PUSH1 0x45 DUP3 ADD SWAP1 POP SWAP2 SWAP1 POP JUMP JUMPDEST PUSH32 0x47616D6520526573756C743A2000000000000000000000000000000000000000 PUSH1 0x0 DUP3 ADD MSTORE POP JUMP JUMPDEST PUSH1 0x0 PUSH2 0x4F95 PUSH1 0xD DUP4 PUSH2 0x3F2A JUMP JUMPDEST SWAP2 POP PUSH2 0x4FA0 DUP3 PUSH2 0x4F5F JUMP JUMPDEST PUSH1 0xD DUP3 ADD SWAP1 POP SWAP2 SWAP1 POP JUMP JUMPDEST PUSH32 0x3C2F746578743E00000000000000000000000000000000000000000000000000 PUSH1 0x0 DUP3 ADD MSTORE POP JUMP JUMPDEST PUSH1 0x0 PUSH2 0x4FE1 PUSH1 0x7 DUP4 PUSH2 0x3F2A JUMP JUMPDEST SWAP2 POP PUSH2 0x4FEC DUP3 PUSH2 0x4FAB JUMP JUMPDEST PUSH1 0x7 DUP3 ADD SWAP1 POP SWAP2 SWAP1 POP JUMP JUMPDEST PUSH32 0x3C7465787420783D2231302220793D223338302220666F6E742D66616D696C79 PUSH1 0x0 DUP3 ADD MSTORE PUSH32 0x3D22417269616C2220666F6E742D73697A653D223136222066696C6C3D22626C PUSH1 0x20 DUP3 ADD MSTORE PUSH32 0x61636B223E000000000000000000000000000000000000000000000000000000 PUSH1 0x40 DUP3 ADD MSTORE POP JUMP JUMPDEST PUSH1 0x0 PUSH2 0x5079 PUSH1 0x45 DUP4 PUSH2 0x3F2A JUMP JUMPDEST SWAP2 POP PUSH2 0x5084 DUP3 PUSH2 0x4FF7 JUMP JUMPDEST PUSH1 0x45 DUP3 ADD SWAP1 POP SWAP2 SWAP1 POP JUMP JUMPDEST PUSH32 0x546F6B656E2049443A2000000000000000000000000000000000000000000000 PUSH1 0x0 DUP3 ADD MSTORE POP JUMP JUMPDEST PUSH1 0x0 PUSH2 0x50C5 PUSH1 0xA DUP4 PUSH2 0x3F2A JUMP JUMPDEST SWAP2 POP PUSH2 0x50D0 DUP3 PUSH2 0x508F JUMP JUMPDEST PUSH1 0xA DUP3 ADD SWAP1 POP SWAP2 SWAP1 POP JUMP JUMPDEST PUSH32 0x3C2F7376673E0000000000000000000000000000000000000000000000000000 PUSH1 0x0 DUP3 ADD MSTORE POP JUMP JUMPDEST PUSH1 0x0 PUSH2 0x5111 PUSH1 0x6 DUP4 PUSH2 0x3F2A JUMP JUMPDEST SWAP2 POP PUSH2 0x511C DUP3 PUSH2 0x50DB JUMP JUMPDEST PUSH1 0x6 DUP3 ADD SWAP1 POP SWAP2 SWAP1 POP JUMP JUMPDEST PUSH1 0x0 PUSH2 0x5132 DUP3 PUSH2 0x441A JUMP JUMPDEST SWAP2 POP PUSH2 0x513D DUP3 PUSH2 0x448C JUMP JUMPDEST SWAP2 POP PUSH2 0x5148 DUP3 PUSH2 0x4524 JUMP JUMPDEST SWAP2 POP PUSH2 0x5153 DUP3 PUSH2 0x45BC JUMP JUMPDEST SWAP2 POP PUSH2 0x515E DUP3 PUSH2 0x462E JUMP JUMPDEST SWAP2 POP PUSH2 0x5169 DUP3 PUSH2 0x46A0 JUMP JUMPDEST SWAP2 POP PUSH2 0x5174 DUP3 PUSH2 0x4712 JUMP JUMPDEST SWAP2 POP PUSH2 0x517F DUP3 PUSH2 0x4784 JUMP JUMPDEST SWAP2 POP PUSH2 0x518A DUP3 PUSH2 0x481C JUMP JUMPDEST SWAP2 POP PUSH2 0x5195 DUP3 PUSH2 0x48B4 JUMP JUMPDEST SWAP2 POP PUSH2 0x51A0 DUP3 PUSH2 0x494C JUMP JUMPDEST SWAP2 POP PUSH2 0x51AB DUP3 PUSH2 0x49E4 JUMP JUMPDEST SWAP2 POP PUSH2 0x51B6 DUP3 PUSH2 0x4A7C JUMP JUMPDEST SWAP2 POP PUSH2 0x51C1 DUP3 PUSH2 0x4B14 JUMP JUMPDEST SWAP2 POP PUSH2 0x51CC DUP3 PUSH2 0x4BAC JUMP JUMPDEST SWAP2 POP PUSH2 0x51D7 DUP3 PUSH2 0x4C44 JUMP JUMPDEST SWAP2 POP PUSH2 0x51E2 DUP3 PUSH2 0x4CDC JUMP JUMPDEST SWAP2 POP PUSH2 0x51ED DUP3 PUSH2 0x4D74 JUMP JUMPDEST SWAP2 POP PUSH2 0x51F8 DUP3 PUSH2 0x4E0C JUMP JUMPDEST SWAP2 POP PUSH2 0x5203 DUP3 PUSH2 0x4EA4 JUMP JUMPDEST SWAP2 POP PUSH2 0x520E DUP3 PUSH2 0x4F3C JUMP JUMPDEST SWAP2 POP PUSH2 0x5219 DUP3 PUSH2 0x4F88 JUMP JUMPDEST SWAP2 POP PUSH2 0x5225 DUP3 DUP6 PUSH2 0x3F81 JUMP JUMPDEST SWAP2 POP PUSH2 0x5230 DUP3 PUSH2 0x4FD4 JUMP JUMPDEST SWAP2 POP PUSH2 0x523B DUP3 PUSH2 0x506C JUMP JUMPDEST SWAP2 POP PUSH2 0x5246 DUP3 PUSH2 0x50B8 JUMP JUMPDEST SWAP2 POP PUSH2 0x5252 DUP3 DUP5 PUSH2 0x3F81 JUMP JUMPDEST SWAP2 POP PUSH2 0x525D DUP3 PUSH2 0x4FD4 JUMP JUMPDEST SWAP2 POP PUSH2 0x5268 DUP3 PUSH2 0x5104 JUMP JUMPDEST SWAP2 POP DUP2 SWAP1 POP SWAP4 SWAP3 POP POP POP JUMP JUMPDEST PUSH32 0x646174613A696D6167652F7376672B786D6C3B6261736536342C000000000000 PUSH1 0x0 DUP3 ADD MSTORE POP JUMP JUMPDEST PUSH1 0x0 PUSH2 0x52AA PUSH1 0x1A DUP4 PUSH2 0x3F2A JUMP JUMPDEST SWAP2 POP PUSH2 0x52B5 DUP3 PUSH2 0x5274 JUMP JUMPDEST PUSH1 0x1A DUP3 ADD SWAP1 POP SWAP2 SWAP1 POP JUMP JUMPDEST PUSH1 0x0 PUSH2 0x52CB DUP3 PUSH2 0x529D JUMP JUMPDEST SWAP2 POP PUSH2 0x52D7 DUP3 DUP5 PUSH2 0x3F81 JUMP JUMPDEST SWAP2 POP DUP2 SWAP1 POP SWAP3 SWAP2 POP POP JUMP JUMPDEST PUSH32 0x4E487B7100000000000000000000000000000000000000000000000000000000 PUSH1 0x0 MSTORE PUSH1 0x12 PUSH1 0x4 MSTORE PUSH1 0x24 PUSH1 0x0 REVERT JUMPDEST PUSH1 0x0 PUSH2 0x531C DUP3 PUSH2 0x2E30 JUMP JUMPDEST SWAP2 POP PUSH2 0x5327 DUP4 PUSH2 0x2E30 JUMP JUMPDEST SWAP3 POP DUP3 PUSH2 0x5337 JUMPI PUSH2 0x5336 PUSH2 0x52E2 JUMP JUMPDEST JUMPDEST DUP3 DUP3 MOD SWAP1 POP SWAP3 SWAP2 POP POP JUMP JUMPDEST PUSH1 0x0 PUSH2 0x534D DUP3 PUSH2 0x2E30 JUMP JUMPDEST SWAP2 POP PUSH2 0x5358 DUP4 PUSH2 0x2E30 JUMP JUMPDEST SWAP3 POP DUP3 PUSH2 0x5368 JUMPI PUSH2 0x5367 PUSH2 0x52E2 JUMP JUMPDEST JUMPDEST DUP3 DUP3 DIV SWAP1 POP SWAP3 SWAP2 POP POP JUMP JUMPDEST PUSH1 0x0 PUSH2 0x537E DUP3 PUSH2 0x2E30 JUMP JUMPDEST SWAP2 POP PUSH2 0x5389 DUP4 PUSH2 0x2E30 JUMP JUMPDEST SWAP3 POP DUP3 DUP3 SUB SWAP1 POP DUP2 DUP2 GT ISZERO PUSH2 0x53A1 JUMPI PUSH2 0x53A0 PUSH2 0x3E7F JUMP JUMPDEST JUMPDEST SWAP3 SWAP2 POP POP JUMP JUMPDEST PUSH1 0x0 PUSH2 0x53B2 DUP3 PUSH2 0x2E30 JUMP JUMPDEST SWAP2 POP PUSH2 0x53BD DUP4 PUSH2 0x2E30 JUMP JUMPDEST SWAP3 POP DUP3 DUP3 MUL PUSH2 0x53CB DUP2 PUSH2 0x2E30 JUMP JUMPDEST SWAP2 POP DUP3 DUP3 DIV DUP5 EQ DUP4 ISZERO OR PUSH2 0x53E2 JUMPI PUSH2 0x53E1 PUSH2 0x3E7F JUMP JUMPDEST JUMPDEST POP SWAP3 SWAP2 POP POP JUMP JUMPDEST PUSH1 0x0 DUP2 PUSH1 0x1 SHR SWAP1 POP SWAP2 SWAP1 POP JUMP JUMPDEST PUSH1 0x0 DUP1 DUP3 SWAP2 POP DUP4 SWAP1 POP JUMPDEST PUSH1 0x1 DUP6 GT ISZERO PUSH2 0x5440 JUMPI DUP1 DUP7 DIV DUP2 GT ISZERO PUSH2 0x541C JUMPI PUSH2 0x541B PUSH2 0x3E7F JUMP JUMPDEST JUMPDEST PUSH1 0x1 DUP6 AND ISZERO PUSH2 0x542B JUMPI DUP1 DUP3 MUL SWAP2 POP JUMPDEST DUP1 DUP2 MUL SWAP1 POP PUSH2 0x5439 DUP6 PUSH2 0x53E9 JUMP JUMPDEST SWAP5 POP PUSH2 0x5400 JUMP JUMPDEST SWAP5 POP SWAP5 SWAP3 POP POP POP JUMP JUMPDEST PUSH1 0x0 DUP3 PUSH2 0x5459 JUMPI PUSH1 0x1 SWAP1 POP PUSH2 0x5515 JUMP JUMPDEST DUP2 PUSH2 0x5467 JUMPI PUSH1 0x0 SWAP1 POP PUSH2 0x5515 JUMP JUMPDEST DUP2 PUSH1 0x1 DUP2 EQ PUSH2 0x547D JUMPI PUSH1 0x2 DUP2 EQ PUSH2 0x5487 JUMPI PUSH2 0x54B6 JUMP JUMPDEST PUSH1 0x1 SWAP2 POP POP PUSH2 0x5515 JUMP JUMPDEST PUSH1 0xFF DUP5 GT ISZERO PUSH2 0x5499 JUMPI PUSH2 0x5498 PUSH2 0x3E7F JUMP JUMPDEST JUMPDEST DUP4 PUSH1 0x2 EXP SWAP2 POP DUP5 DUP3 GT ISZERO PUSH2 0x54B0 JUMPI PUSH2 0x54AF PUSH2 0x3E7F JUMP JUMPDEST JUMPDEST POP PUSH2 0x5515 JUMP JUMPDEST POP PUSH1 0x20 DUP4 LT PUSH2 0x133 DUP4 LT AND PUSH1 0x4E DUP5 LT PUSH1 0xB DUP5 LT AND OR ISZERO PUSH2 0x54EB JUMPI DUP3 DUP3 EXP SWAP1 POP DUP4 DUP2 GT ISZERO PUSH2 0x54E6 JUMPI PUSH2 0x54E5 PUSH2 0x3E7F JUMP JUMPDEST JUMPDEST PUSH2 0x5515 JUMP JUMPDEST PUSH2 0x54F8 DUP5 DUP5 DUP5 PUSH1 0x1 PUSH2 0x53F6 JUMP JUMPDEST SWAP3 POP SWAP1 POP DUP2 DUP5 DIV DUP2 GT ISZERO PUSH2 0x550F JUMPI PUSH2 0x550E PUSH2 0x3E7F JUMP JUMPDEST JUMPDEST DUP2 DUP2 MUL SWAP1 POP JUMPDEST SWAP4 SWAP3 POP POP POP JUMP JUMPDEST PUSH1 0x0 PUSH2 0x5527 DUP3 PUSH2 0x2E30 JUMP JUMPDEST SWAP2 POP PUSH2 0x5532 DUP4 PUSH2 0x2E30 JUMP JUMPDEST SWAP3 POP PUSH2 0x555F PUSH32 0xFFFFFFFFFFFFFFFFFFFFFFFFFFFFFFFFFFFFFFFFFFFFFFFFFFFFFFFFFFFFFFFF DUP5 DUP5 PUSH2 0x5449 JUMP JUMPDEST SWAP1 POP SWAP3 SWAP2 POP POP JUMP JUMPDEST PUSH1 0x0 PUSH2 0x5572 DUP3 PUSH2 0x3106 JUMP JUMPDEST SWAP2 POP PUSH2 0x557D DUP4 PUSH2 0x3106 JUMP JUMPDEST SWAP3 POP DUP3 PUSH2 0x558D JUMPI PUSH2 0x558C PUSH2 0x52E2 JUMP JUMPDEST JUMPDEST DUP3 DUP3 DIV SWAP1 POP SWAP3 SWAP2 POP POP JUMP JUMPDEST PUSH1 0x0 PUSH2 0x55A3 DUP3 PUSH2 0x3106 JUMP JUMPDEST SWAP2 POP PUSH2 0x55AE DUP4 PUSH2 0x3106 JUMP JUMPDEST SWAP3 POP DUP3 DUP3 MUL PUSH2 0x55BC DUP2 PUSH2 0x3106 JUMP JUMPDEST SWAP2 POP DUP1 DUP3 EQ PUSH2 0x55CE JUMPI PUSH2 0x55CD PUSH2 0x3E7F JUMP JUMPDEST JUMPDEST POP SWAP3 SWAP2 POP POP JUMP JUMPDEST PUSH1 0x0 PUSH2 0x55E0 DUP3 PUSH2 0x3106 JUMP JUMPDEST SWAP2 POP PUSH2 0x55EB DUP4 PUSH2 0x3106 JUMP JUMPDEST SWAP3 POP DUP3 DUP3 SUB SWAP1 POP PUSH1 0xFF DUP2 GT ISZERO PUSH2 0x5604 JUMPI PUSH2 0x5603 PUSH2 0x3E7F JUMP JUMPDEST JUMPDEST SWAP3 SWAP2 POP POP JUMP JUMPDEST PUSH1 0x0 PUSH1 0x40 DUP3 ADD SWAP1 POP PUSH2 0x561F PUSH1 0x0 DUP4 ADD DUP6 PUSH2 0x3070 JUMP JUMPDEST PUSH2 0x562C PUSH1 0x20 DUP4 ADD DUP5 PUSH2 0x2E3A JUMP JUMPDEST SWAP4 SWAP3 POP POP POP JUMP JUMPDEST PUSH1 0x0 PUSH2 0x563E DUP3 PUSH2 0x3106 JUMP JUMPDEST SWAP2 POP PUSH2 0x5649 DUP4 PUSH2 0x3106 JUMP JUMPDEST SWAP3 POP DUP3 DUP3 ADD SWAP1 POP PUSH1 0xFF DUP2 GT ISZERO PUSH2 0x5662 JUMPI PUSH2 0x5661 PUSH2 0x3E7F JUMP JUMPDEST JUMPDEST SWAP3 SWAP2 POP POP JUMP INVALID COINBASE TIMESTAMP NUMBER PREVRANDAO GASLIMIT CHAINID SELFBALANCE BASEFEE BLOBHASH BLOBBASEFEE 0x4B 0x4C 0x4D 0x4E 0x4F POP MLOAD MSTORE MSTORE8 SLOAD SSTORE JUMP JUMPI PC MSIZE GAS PUSH2 0x6263 PUSH5 0x6566676869 PUSH11 0x6B6C6D6E6F707172737475 PUSH23 0x7778797A303132333435363738392B2FA2646970667358 0x22 SLT KECCAK256 0xF8 ORIGIN DUP3 0xC 0xB8 0xAE 0x26 DUP7 0xAA PUSH14 0x35260A768F691E0B61BD4B3EA5A8 0xA5 SWAP9 SWAP3 JUMP 0xC1 MSTORE8 MSTORE PUSH23 0x64736F6C63430008180033000000000000000000000000 "},"methodIdentifiers":{"approve(address,uint256)":"095ea7b3","balanceOf(address)":"70a08231","codebreaker()":"0e5c05f1","codemaker()":"50633fa7","gameActive()":"f020044f","gameStatus()":"722fed7e","getApproved(uint256)":"081812fc","getBreakerScore()":"801db33d","getGuesses()":"797642db","getMakerScore()":"29b817c8","guessCount()":"c68a9fe4","guesses(uint256)":"1f491389","isApprovedForAll(address,address)":"e985e9c5","makeGuess(uint8[])":"a42dc7b7","name()":"06fdde03","ownerOf(uint256)":"6352211e","safeTransferFrom(address,address,uint256)":"42842e0e","safeTransferFrom(address,address,uint256,bytes)":"b88d4fde","scoreCodebreaker()":"c0e361d2","scoreCodemaker()":"011d7ab2","setApprovalForAll(address,bool)":"a22cb465","setCodebreaker()":"84894606","setCodemaker()":"8e5cd8e9","startGame(uint8[])":"276d2121","supportsInterface(bytes4)":"01ffc9a7","symbol()":"95d89b41","tokenURI(uint256)":"c87b56dd","transferFrom(address,address,uint256)":"23b872dd"}}}}}