{
  "_format": "hh-sol-artifact-1",
  "contractName": "VerificationSystem",
  "sourceName": "contracts/verification.sol",
  "abi": [
    {
      "inputs": [
        {
          "internalType": "string",
          "name": "data",
          "type": "string"
        }
      ],
      "name": "hashAndStore",
      "outputs": [],
      "stateMutability": "nonpayable",
      "type": "function"
    },
    {
      "inputs": [],
      "name": "isAddressVerified",
      "outputs": [
        {
          "internalType": "bool",
          "name": "",
          "type": "bool"
        }
      ],
      "stateMutability": "view",
      "type": "function"
    },
    {
      "inputs": [
        {
          "internalType": "string",
          "name": "data",
          "type": "string"
        }
      ],
      "name": "isHashVerified",
      "outputs": [
        {
          "internalType": "bool",
          "name": "",
          "type": "bool"
        }
      ],
      "stateMutability": "view",
      "type": "function"
    },
    {
      "inputs": [
        {
          "internalType": "address",
          "name": "",
          "type": "address"
        }
      ],
      "name": "verifiedAddresses",
      "outputs": [
        {
          "internalType": "bool",
          "name": "",
          "type": "bool"
        }
      ],
      "stateMutability": "view",
      "type": "function"
    },
    {
      "inputs": [
        {
          "internalType": "bytes32",
          "name": "",
          "type": "bytes32"
        }
      ],
      "name": "verifiedHashes",
      "outputs": [
        {
          "internalType": "bool",
          "name": "",
          "type": "bool"
        }
      ],
      "stateMutability": "view",
      "type": "function"
    }
  ],
  "bytecode": "0x608060405234801561000f575f80fd5b506106c98061001d5f395ff3fe608060405234801561000f575f80fd5b5060043610610055575f3560e01c806314fd081f14610059578063374146e214610077578063a50cce50146100a7578063a91f947d146100d7578063d0e3496a14610107575b5f80fd5b610061610123565b60405161006e9190610309565b60405180910390f35b610091600480360381019061008c9190610366565b610173565b60405161009e9190610309565b60405180910390f35b6100c160048036038101906100bc91906103eb565b61018f565b6040516100ce9190610309565b60405180910390f35b6100f160048036038101906100ec9190610552565b6101ac565b6040516100fe9190610309565b60405180910390f35b610121600480360381019061011c9190610552565b6101fc565b005b5f60015f3373ffffffffffffffffffffffffffffffffffffffff1673ffffffffffffffffffffffffffffffffffffffff1681526020019081526020015f205f9054906101000a900460ff16905090565b5f602052805f5260405f205f915054906101000a900460ff1681565b6001602052805f5260405f205f915054906101000a900460ff1681565b5f80826040516020016101bf9190610605565b6040516020818303038152906040528051906020012090505f808281526020019081526020015f205f9054906101000a900460ff16915050919050565b610205816101ac565b15610245576040517f08c379a000000000000000000000000000000000000000000000000000000000815260040161023c90610675565b60405180910390fd5b5f816040516020016102579190610605565b60405160208183030381529060405280519060200120905060015f808381526020019081526020015f205f6101000a81548160ff0219169083151502179055506001805f3373ffffffffffffffffffffffffffffffffffffffff1673ffffffffffffffffffffffffffffffffffffffff1681526020019081526020015f205f6101000a81548160ff0219169083151502179055505050565b5f8115159050919050565b610303816102ef565b82525050565b5f60208201905061031c5f8301846102fa565b92915050565b5f604051905090565b5f80fd5b5f80fd5b5f819050919050565b61034581610333565b811461034f575f80fd5b50565b5f813590506103608161033c565b92915050565b5f6020828403121561037b5761037a61032b565b5b5f61038884828501610352565b91505092915050565b5f73ffffffffffffffffffffffffffffffffffffffff82169050919050565b5f6103ba82610391565b9050919050565b6103ca816103b0565b81146103d4575f80fd5b50565b5f813590506103e5816103c1565b92915050565b5f60208284031215610400576103ff61032b565b5b5f61040d848285016103d7565b91505092915050565b5f80fd5b5f80fd5b5f601f19601f8301169050919050565b7f4e487b71000000000000000000000000000000000000000000000000000000005f52604160045260245ffd5b6104648261041e565b810181811067ffffffffffffffff821117156104835761048261042e565b5b80604052505050565b5f610495610322565b90506104a1828261045b565b919050565b5f67ffffffffffffffff8211156104c0576104bf61042e565b5b6104c98261041e565b9050602081019050919050565b828183375f83830152505050565b5f6104f66104f1846104a6565b61048c565b9050828152602081018484840111156105125761051161041a565b5b61051d8482856104d6565b509392505050565b5f82601f83011261053957610538610416565b5b81356105498482602086016104e4565b91505092915050565b5f602082840312156105675761056661032b565b5b5f82013567ffffffffffffffff8111156105845761058361032f565b5b61059084828501610525565b91505092915050565b5f81519050919050565b5f81905092915050565b5f5b838110156105ca5780820151818401526020810190506105af565b5f8484015250505050565b5f6105df82610599565b6105e981856105a3565b93506105f98185602086016105ad565b80840191505092915050565b5f61061082846105d5565b915081905092915050565b5f82825260208201905092915050565b7f4861736820616c726561647920766572696669656400000000000000000000005f82015250565b5f61065f60158361061b565b915061066a8261062b565b602082019050919050565b5f6020820190508181035f83015261068c81610653565b905091905056fea2646970667358221220dd8b5bef1ed0f1704b8df1fd10f29187a49780da3b46142152bb75e3072af4f764736f6c63430008180033",
  "linkReferences": {},
  "deployedLinkReferences": {}
}