{
  "_format": "hh-sol-artifact-1",
  "contractName": "PrimeAssets",
  "sourceName": "contracts/PrimeAssets.sol",
  "abi": [
    {
      "inputs": [
        {
          "internalType": "address",
          "name": "_Verification",
          "type": "address"
        }
      ],
      "stateMutability": "nonpayable",
      "type": "constructor"
    },
    {
      "anonymous": false,
      "inputs": [
        {
          "indexed": true,
          "internalType": "address",
          "name": "owner",
          "type": "address"
        },
        {
          "indexed": true,
          "internalType": "address",
          "name": "approved",
          "type": "address"
        },
        {
          "indexed": true,
          "internalType": "uint256",
          "name": "tokenId",
          "type": "uint256"
        }
      ],
      "name": "Approval",
      "type": "event"
    },
    {
      "anonymous": false,
      "inputs": [
        {
          "indexed": true,
          "internalType": "address",
          "name": "owner",
          "type": "address"
        },
        {
          "indexed": true,
          "internalType": "address",
          "name": "operator",
          "type": "address"
        },
        {
          "indexed": false,
          "internalType": "bool",
          "name": "approved",
          "type": "bool"
        }
      ],
      "name": "ApprovalForAll",
      "type": "event"
    },
    {
      "anonymous": false,
      "inputs": [
        {
          "indexed": true,
          "internalType": "address",
          "name": "from",
          "type": "address"
        },
        {
          "indexed": true,
          "internalType": "address",
          "name": "to",
          "type": "address"
        },
        {
          "indexed": true,
          "internalType": "uint256",
          "name": "tokenId",
          "type": "uint256"
        }
      ],
      "name": "Transfer",
      "type": "event"
    },
    {
      "anonymous": false,
      "inputs": [
        {
          "indexed": false,
          "internalType": "address",
          "name": "buyer",
          "type": "address"
        },
        {
          "indexed": false,
          "internalType": "address",
          "name": "seller",
          "type": "address"
        },
        {
          "indexed": false,
          "internalType": "uint256",
          "name": "timestamp",
          "type": "uint256"
        },
        {
          "indexed": false,
          "internalType": "uint256",
          "name": "amount",
          "type": "uint256"
        },
        {
          "indexed": false,
          "internalType": "bool",
          "name": "paid",
          "type": "bool"
        }
      ],
      "name": "action",
      "type": "event"
    },
    {
      "anonymous": false,
      "inputs": [
        {
          "indexed": false,
          "internalType": "address",
          "name": "owner",
          "type": "address"
        },
        {
          "indexed": true,
          "internalType": "uint256",
          "name": "id",
          "type": "uint256"
        },
        {
          "indexed": false,
          "internalType": "string",
          "name": "credential",
          "type": "string"
        },
        {
          "indexed": false,
          "internalType": "uint256",
          "name": "timestamp",
          "type": "uint256"
        },
        {
          "indexed": false,
          "internalType": "uint256",
          "name": "price",
          "type": "uint256"
        }
      ],
      "name": "assetCreation",
      "type": "event"
    },
    {
      "anonymous": false,
      "inputs": [
        {
          "indexed": false,
          "internalType": "address",
          "name": "from",
          "type": "address"
        },
        {
          "indexed": false,
          "internalType": "address",
          "name": "to",
          "type": "address"
        },
        {
          "indexed": false,
          "internalType": "uint256",
          "name": "tokenId",
          "type": "uint256"
        },
        {
          "indexed": false,
          "internalType": "string",
          "name": "credential",
          "type": "string"
        },
        {
          "indexed": false,
          "internalType": "uint256",
          "name": "timestamp",
          "type": "uint256"
        }
      ],
      "name": "assetTransfer",
      "type": "event"
    },
    {
      "anonymous": false,
      "inputs": [
        {
          "indexed": false,
          "internalType": "enum PrimeAssets.assetStatus",
          "name": "",
          "type": "uint8"
        },
        {
          "indexed": false,
          "internalType": "enum PrimeAssets.assetStatus",
          "name": "",
          "type": "uint8"
        }
      ],
      "name": "refundAction",
      "type": "event"
    },
    {
      "anonymous": false,
      "inputs": [
        {
          "indexed": false,
          "internalType": "bool",
          "name": "confirm",
          "type": "bool"
        },
        {
          "indexed": false,
          "internalType": "enum PrimeAssets.assetStatus",
          "name": "status",
          "type": "uint8"
        }
      ],
      "name": "sold",
      "type": "event"
    },
    {
      "inputs": [
        {
          "internalType": "uint256",
          "name": "id",
          "type": "uint256"
        }
      ],
      "name": "Probe",
      "outputs": [],
      "stateMutability": "nonpayable",
      "type": "function"
    },
    {
      "inputs": [
        {
          "internalType": "address",
          "name": "to",
          "type": "address"
        },
        {
          "internalType": "uint256",
          "name": "tokenId",
          "type": "uint256"
        }
      ],
      "name": "approve",
      "outputs": [],
      "stateMutability": "nonpayable",
      "type": "function"
    },
    {
      "inputs": [
        {
          "internalType": "address",
          "name": "owner",
          "type": "address"
        }
      ],
      "name": "balanceOf",
      "outputs": [
        {
          "internalType": "uint256",
          "name": "",
          "type": "uint256"
        }
      ],
      "stateMutability": "view",
      "type": "function"
    },
    {
      "inputs": [
        {
          "internalType": "uint256",
          "name": "id",
          "type": "uint256"
        }
      ],
      "name": "buyAsset",
      "outputs": [],
      "stateMutability": "payable",
      "type": "function"
    },
    {
      "inputs": [
        {
          "internalType": "uint256",
          "name": "id",
          "type": "uint256"
        }
      ],
      "name": "confirm",
      "outputs": [],
      "stateMutability": "nonpayable",
      "type": "function"
    },
    {
      "inputs": [
        {
          "internalType": "string",
          "name": "title",
          "type": "string"
        },
        {
          "internalType": "string",
          "name": "description",
          "type": "string"
        },
        {
          "internalType": "string",
          "name": "credential",
          "type": "string"
        },
        {
          "internalType": "uint256",
          "name": "price",
          "type": "uint256"
        }
      ],
      "name": "createAsset",
      "outputs": [
        {
          "internalType": "bool",
          "name": "",
          "type": "bool"
        }
      ],
      "stateMutability": "nonpayable",
      "type": "function"
    },
    {
      "inputs": [
        {
          "internalType": "uint256",
          "name": "tokenId",
          "type": "uint256"
        }
      ],
      "name": "getApproved",
      "outputs": [
        {
          "internalType": "address",
          "name": "",
          "type": "address"
        }
      ],
      "stateMutability": "view",
      "type": "function"
    },
    {
      "inputs": [
        {
          "internalType": "uint256",
          "name": "_id",
          "type": "uint256"
        }
      ],
      "name": "getAsset",
      "outputs": [
        {
          "components": [
            {
              "internalType": "bool",
              "name": "probe",
              "type": "bool"
            },
            {
              "internalType": "bool",
              "name": "bought",
              "type": "bool"
            },
            {
              "internalType": "enum PrimeAssets.assetStatus",
              "name": "status",
              "type": "uint8"
            },
            {
              "internalType": "uint256",
              "name": "timestamp",
              "type": "uint256"
            },
            {
              "internalType": "uint256",
              "name": "price",
              "type": "uint256"
            },
            {
              "internalType": "uint256",
              "name": "id",
              "type": "uint256"
            },
            {
              "internalType": "address",
              "name": "seller",
              "type": "address"
            },
            {
              "internalType": "string",
              "name": "title",
              "type": "string"
            },
            {
              "internalType": "string",
              "name": "description",
              "type": "string"
            },
            {
              "internalType": "string",
              "name": "credential",
              "type": "string"
            }
          ],
          "internalType": "struct PrimeAssets.asset",
          "name": "",
          "type": "tuple"
        }
      ],
      "stateMutability": "view",
      "type": "function"
    },
    {
      "inputs": [],
      "name": "getAssets",
      "outputs": [
        {
          "components": [
            {
              "internalType": "bool",
              "name": "probe",
              "type": "bool"
            },
            {
              "internalType": "bool",
              "name": "bought",
              "type": "bool"
            },
            {
              "internalType": "enum PrimeAssets.assetStatus",
              "name": "status",
              "type": "uint8"
            },
            {
              "internalType": "uint256",
              "name": "timestamp",
              "type": "uint256"
            },
            {
              "internalType": "uint256",
              "name": "price",
              "type": "uint256"
            },
            {
              "internalType": "uint256",
              "name": "id",
              "type": "uint256"
            },
            {
              "internalType": "address",
              "name": "seller",
              "type": "address"
            },
            {
              "internalType": "string",
              "name": "title",
              "type": "string"
            },
            {
              "internalType": "string",
              "name": "description",
              "type": "string"
            },
            {
              "internalType": "string",
              "name": "credential",
              "type": "string"
            }
          ],
          "internalType": "struct PrimeAssets.asset[]",
          "name": "",
          "type": "tuple[]"
        }
      ],
      "stateMutability": "view",
      "type": "function"
    },
    {
      "inputs": [
        {
          "internalType": "uint256",
          "name": "buyerId",
          "type": "uint256"
        }
      ],
      "name": "getBuyer",
      "outputs": [
        {
          "components": [
            {
              "internalType": "uint256",
              "name": "id",
              "type": "uint256"
            },
            {
              "internalType": "address",
              "name": "owner",
              "type": "address"
            },
            {
              "internalType": "uint256",
              "name": "amountpaid",
              "type": "uint256"
            },
            {
              "internalType": "uint256",
              "name": "timestamp",
              "type": "uint256"
            },
            {
              "internalType": "bool",
              "name": "paid",
              "type": "bool"
            },
            {
              "internalType": "bool",
              "name": "checked",
              "type": "bool"
            },
            {
              "internalType": "string",
              "name": "credential",
              "type": "string"
            },
            {
              "internalType": "enum PrimeAssets.assetStatus",
              "name": "status",
              "type": "uint8"
            }
          ],
          "internalType": "struct PrimeAssets.buyer",
          "name": "",
          "type": "tuple"
        }
      ],
      "stateMutability": "view",
      "type": "function"
    },
    {
      "inputs": [
        {
          "internalType": "uint256",
          "name": "_id",
          "type": "uint256"
        }
      ],
      "name": "getRefundedBuyers",
      "outputs": [
        {
          "components": [
            {
              "internalType": "uint256",
              "name": "id",
              "type": "uint256"
            },
            {
              "internalType": "address",
              "name": "owner",
              "type": "address"
            },
            {
              "internalType": "uint256",
              "name": "amountpaid",
              "type": "uint256"
            },
            {
              "internalType": "uint256",
              "name": "timestamp",
              "type": "uint256"
            },
            {
              "internalType": "bool",
              "name": "paid",
              "type": "bool"
            },
            {
              "internalType": "bool",
              "name": "checked",
              "type": "bool"
            },
            {
              "internalType": "string",
              "name": "credential",
              "type": "string"
            },
            {
              "internalType": "enum PrimeAssets.assetStatus",
              "name": "status",
              "type": "uint8"
            }
          ],
          "internalType": "struct PrimeAssets.buyer",
          "name": "",
          "type": "tuple"
        }
      ],
      "stateMutability": "view",
      "type": "function"
    },
    {
      "inputs": [
        {
          "internalType": "address",
          "name": "owner",
          "type": "address"
        },
        {
          "internalType": "address",
          "name": "operator",
          "type": "address"
        }
      ],
      "name": "isApprovedForAll",
      "outputs": [
        {
          "internalType": "bool",
          "name": "",
          "type": "bool"
        }
      ],
      "stateMutability": "view",
      "type": "function"
    },
    {
      "inputs": [],
      "name": "name",
      "outputs": [
        {
          "internalType": "string",
          "name": "",
          "type": "string"
        }
      ],
      "stateMutability": "view",
      "type": "function"
    },
    {
      "inputs": [],
      "name": "owner",
      "outputs": [
        {
          "internalType": "address",
          "name": "",
          "type": "address"
        }
      ],
      "stateMutability": "view",
      "type": "function"
    },
    {
      "inputs": [
        {
          "internalType": "uint256",
          "name": "tokenId",
          "type": "uint256"
        }
      ],
      "name": "ownerOf",
      "outputs": [
        {
          "internalType": "address",
          "name": "",
          "type": "address"
        }
      ],
      "stateMutability": "view",
      "type": "function"
    },
    {
      "inputs": [
        {
          "internalType": "uint256",
          "name": "id",
          "type": "uint256"
        }
      ],
      "name": "refund",
      "outputs": [],
      "stateMutability": "nonpayable",
      "type": "function"
    },
    {
      "inputs": [
        {
          "internalType": "uint256",
          "name": "id",
          "type": "uint256"
        }
      ],
      "name": "releaseAsset",
      "outputs": [],
      "stateMutability": "nonpayable",
      "type": "function"
    },
    {
      "inputs": [
        {
          "internalType": "address",
          "name": "from",
          "type": "address"
        },
        {
          "internalType": "address",
          "name": "to",
          "type": "address"
        },
        {
          "internalType": "uint256",
          "name": "tokenId",
          "type": "uint256"
        }
      ],
      "name": "safeTransferFrom",
      "outputs": [],
      "stateMutability": "nonpayable",
      "type": "function"
    },
    {
      "inputs": [
        {
          "internalType": "address",
          "name": "from",
          "type": "address"
        },
        {
          "internalType": "address",
          "name": "to",
          "type": "address"
        },
        {
          "internalType": "uint256",
          "name": "tokenId",
          "type": "uint256"
        },
        {
          "internalType": "bytes",
          "name": "data",
          "type": "bytes"
        }
      ],
      "name": "safeTransferFrom",
      "outputs": [],
      "stateMutability": "nonpayable",
      "type": "function"
    },
    {
      "inputs": [
        {
          "internalType": "address",
          "name": "operator",
          "type": "address"
        },
        {
          "internalType": "bool",
          "name": "approved",
          "type": "bool"
        }
      ],
      "name": "setApprovalForAll",
      "outputs": [],
      "stateMutability": "nonpayable",
      "type": "function"
    },
    {
      "inputs": [
        {
          "internalType": "bytes4",
          "name": "interfaceId",
          "type": "bytes4"
        }
      ],
      "name": "supportsInterface",
      "outputs": [
        {
          "internalType": "bool",
          "name": "",
          "type": "bool"
        }
      ],
      "stateMutability": "view",
      "type": "function"
    },
    {
      "inputs": [],
      "name": "symbol",
      "outputs": [
        {
          "internalType": "string",
          "name": "",
          "type": "string"
        }
      ],
      "stateMutability": "view",
      "type": "function"
    },
    {
      "inputs": [
        {
          "internalType": "uint256",
          "name": "tokenId",
          "type": "uint256"
        }
      ],
      "name": "tokenURI",
      "outputs": [
        {
          "internalType": "string",
          "name": "",
          "type": "string"
        }
      ],
      "stateMutability": "view",
      "type": "function"
    },
    {
      "inputs": [
        {
          "internalType": "address",
          "name": "from",
          "type": "address"
        },
        {
          "internalType": "address",
          "name": "to",
          "type": "address"
        },
        {
          "internalType": "uint256",
          "name": "tokenId",
          "type": "uint256"
        }
      ],
      "name": "transferFrom",
      "outputs": [],
      "stateMutability": "nonpayable",
      "type": "function"
    },
    {
      "inputs": [],
      "name": "verify",
      "outputs": [
        {
          "internalType": "address",
          "name": "",
          "type": "address"
        }
      ],
      "stateMutability": "view",
      "type": "function"
    }
  ],
  "bytecode": "0x60a06040523480156200001157600080fd5b5060405162003fdf38038062003fdf8339810160408190526200003491620000bf565b6040518060400160405280600b81526020016a5072696d6541737365747360a81b81525060405180604001604052806002815260200161504160f01b815250816000908162000084919062000198565b50600162000093828262000198565b5050600160065550600e80546001600160a01b031916331790556001600160a01b031660805262000264565b600060208284031215620000d257600080fd5b81516001600160a01b0381168114620000ea57600080fd5b9392505050565b634e487b7160e01b600052604160045260246000fd5b600181811c908216806200011c57607f821691505b6020821081036200013d57634e487b7160e01b600052602260045260246000fd5b50919050565b601f82111562000193576000816000526020600020601f850160051c810160208610156200016e5750805b601f850160051c820191505b818110156200018f578281556001016200017a565b5050505b505050565b81516001600160401b03811115620001b457620001b4620000f1565b620001cc81620001c5845462000107565b8462000143565b602080601f831160018114620002045760008415620001eb5750858301515b600019600386901b1c1916600185901b1785556200018f565b600085815260208120601f198616915b82811015620002355788860151825594840194600190910190840162000214565b5085821015620002545787850151600019600388901b60f8161c191681555b5050505050600190811b01905550565b608051613d516200028e60003960008181610519015281816109b7015261121a0152613d516000f3fe6080604052600436106101965760003560e01c80636352211e116100e1578063a22cb4651161008a578063c87b56dd11610064578063c87b56dd14610471578063e985e9c514610491578063eac8f5b8146104da578063fc735e991461050757600080fd5b8063a22cb46514610411578063b88d4fde14610431578063ba0179b51461045157600080fd5b80638da5cb5b116100bb5780638da5cb5b146103bc5780639010ce97146103dc57806395d89b41146103fc57600080fd5b80636352211e1461034c57806367e4ac2c1461036c57806370a082311461038e57600080fd5b806323b872dd1161014357806342842e0e1161011d57806342842e0e146102df5780634dcfd945146102ff5780635bf608b81461032c57600080fd5b806323b872dd1461027f578063278ecde11461029f578063369d8138146102bf57600080fd5b8063081812fc11610174578063081812fc14610214578063095ea7b31461024c578063110d35b81461026c57600080fd5b806301ffc9a71461019b57806304e98cef146101d057806306fdde03146101f2575b600080fd5b3480156101a757600080fd5b506101bb6101b63660046133a1565b61053b565b60405190151581526020015b60405180910390f35b3480156101dc57600080fd5b506101f06101eb3660046133be565b6105d8565b005b3480156101fe57600080fd5b506102076107c3565b6040516101c79190613427565b34801561022057600080fd5b5061023461022f3660046133be565b610855565b6040516001600160a01b0390911681526020016101c7565b34801561025857600080fd5b506101f0610267366004613456565b61087c565b6101f061027a3660046133be565b6109ad565b34801561028b57600080fd5b506101f061029a366004613480565b610e6d565b3480156102ab57600080fd5b506101f06102ba3660046133be565b610ee4565b3480156102cb57600080fd5b506101bb6102da366004613568565b611216565b3480156102eb57600080fd5b506101f06102fa366004613480565b611623565b34801561030b57600080fd5b5061031f61031a3660046133be565b61163e565b6040516101c79190613630565b34801561033857600080fd5b5061031f6103473660046133be565b6117ba565b34801561035857600080fd5b506102346103673660046133be565b61187c565b34801561037857600080fd5b506103816118e1565b6040516101c79190613780565b34801561039a57600080fd5b506103ae6103a93660046137e4565b611b7c565b6040519081526020016101c7565b3480156103c857600080fd5b50600e54610234906001600160a01b031681565b3480156103e857600080fd5b506101f06103f73660046133be565b611c16565b34801561040857600080fd5b50610207611f52565b34801561041d57600080fd5b506101f061042c36600461380d565b611f61565b34801561043d57600080fd5b506101f061044c366004613844565b611f70565b34801561045d57600080fd5b506101f061046c3660046133be565b611fee565b34801561047d57600080fd5b5061020761048c3660046133be565b612520565b34801561049d57600080fd5b506101bb6104ac3660046138c0565b6001600160a01b03918216600090815260056020908152604080832093909416825291909152205460ff1690565b3480156104e657600080fd5b506104fa6104f53660046133be565b61263b565b6040516101c791906138f3565b34801561051357600080fd5b506102347f000000000000000000000000000000000000000000000000000000000000000081565b60006001600160e01b031982167f80ac58cd00000000000000000000000000000000000000000000000000000000148061059e57506001600160e01b031982167f5b5e139f00000000000000000000000000000000000000000000000000000000145b806105d257507f01ffc9a7000000000000000000000000000000000000000000000000000000006001600160e01b03198316145b92915050565b600e546001600160a01b0316331480156106165750600a818154811061060057610600613906565b600091825260209091206008909102015460ff16155b6106b35760405162461bcd60e51b815260206004820152604160248201527f4f6e6c79204f776e6572206861732074686520617574686f7269747920746f2060448201527f63616e2070726f62652041737365742c2050726f63657373205265766572736560648201527f6400000000000000000000000000000000000000000000000000000000000000608482015260a4015b60405180910390fd5b6001600a82815481106106c8576106c8613906565b60009182526020909120600890910201805460ff19169115159190911790556001600a82815481106106fc576106fc613906565b600091825260209091206008909102015462010000900460ff166004811115610727576107276135f8565b0361077857600081815260096020526040902060010154600a8054610778926001600160a01b031691908490811061076157610761613906565b90600052602060002090600802016002015461290c565b6002600a828154811061078d5761078d613906565b60009182526020909120600890910201805462ff00001916620100008360048111156107bb576107bb6135f8565b021790555050565b6060600080546107d29061391c565b80601f01602080910402602001604051908101604052809291908181526020018280546107fe9061391c565b801561084b5780601f106108205761010080835404028352916020019161084b565b820191906000526020600020905b81548152906001019060200180831161082e57829003601f168201915b5050505050905090565b6000610860826129af565b506000908152600460205260409020546001600160a01b031690565b60006108878261187c565b9050806001600160a01b0316836001600160a01b0316036109105760405162461bcd60e51b815260206004820152602160248201527f4552433732313a20617070726f76616c20746f2063757272656e74206f776e6560448201527f720000000000000000000000000000000000000000000000000000000000000060648201526084016106aa565b336001600160a01b038216148061092c575061092c81336104ac565b61099e5760405162461bcd60e51b815260206004820152603d60248201527f4552433732313a20617070726f76652063616c6c6572206973206e6f7420746f60448201527f6b656e206f776e6572206f7220617070726f76656420666f7220616c6c00000060648201526084016106aa565b6109a88383612a13565b505050565b6109b5612a81565b7f00000000000000000000000000000000000000000000000000000000000000006001600160a01b03166314fd081f6040518163ffffffff1660e01b8152600401602060405180830381865afa158015610a13573d6000803e3d6000fd5b505050506040513d601f19601f82011682018060405250810190610a379190613956565b610a835760405162461bcd60e51b815260206004820152601460248201527f41646472657373206e6f7420766572696669656400000000000000000000000060448201526064016106aa565b6000600a8281548110610a9857610a98613906565b600091825260209091206008909102015462010000900460ff166004811115610ac357610ac36135f8565b14610b105760405162461bcd60e51b815260206004820152601e60248201527f417373657420697320756e6465676f696e67204e65676f74696174696f6e000060448201526064016106aa565b600a8181548110610b2357610b23613906565b60009182526020909120600460089092020101546001600160a01b03163303610b8e5760405162461bcd60e51b815260206004820152601960248201527f596f752063616e6e6f742062757920796f75722041737365740000000000000060448201526064016106aa565b6000818152600d602052604090205460ff16610bec5760405162461bcd60e51b815260206004820152601460248201527f417373657420646f6573206e6f7420457869737400000000000000000000000060448201526064016106aa565b600a8181548110610bff57610bff613906565b9060005260206000209060080201600201543414610c5f5760405162461bcd60e51b815260206004820152601860248201527f496e636f7272656374207061796d656e7420616d6f756e74000000000000000060448201526064016106aa565b604080516101008082018352838252336020808401918252348486019081524260608601908152600160808701818152600060a089018181528a518088018c5282815260c08b0190815260e08b018590528c8352600990975299902088518155955191860180546001600160a01b0319166001600160a01b03909316929092179091559151600285015551600384015551600483018054965161ffff1990971691151561ff001916919091179515159093029490941790915591519091906005820190610d2c90826139c3565b5060e082015160068201805460ff19166001836004811115610d5057610d506135f8565b02179055509050506001600a8281548110610d6d57610d6d613906565b906000526020600020906008020160000160016101000a81548160ff0219169083151502179055507f7414a63d70487f3b712731394f3264b690945bb10c662ef4d73f95c21418f4a933600a8381548110610dca57610dca613906565b600091825260209182902060089091020160040154604080516001600160a01b039485168152939091169183019190915242908201523460608201526001608082015260a00160405180910390a16001600a8281548110610e2d57610e2d613906565b60009182526020909120600890910201805462ff0000191662010000836004811115610e5b57610e5b6135f8565b0217905550610e6a6001600655565b50565b610e773382612ada565b610ed95760405162461bcd60e51b815260206004820152602d60248201527f4552433732313a2063616c6c6572206973206e6f7420746f6b656e206f776e6560448201526c1c881bdc88185c1c1c9bdd9959609a1b60648201526084016106aa565b6109a8838383612b58565b6000818152600960205260408120600a805491929184908110610f0957610f09613906565b60009182526020909120600184015460089092020191506001600160a01b031633148015610f4f57506001600683015460ff166004811115610f4d57610f4d6135f8565b145b610fc15760405162461bcd60e51b815260206004820152602360248201527f596f7520617265206e6f7420746865206275796572206f66207468697320617360448201527f736574000000000000000000000000000000000000000000000000000000000060648201526084016106aa565b6006820180546003919060ff1916600183021790555060008381526008602052604090208254815560018084015490820180546001600160a01b0319166001600160a01b03909216919091179055600280840154908201556003808401549082015560048084018054918301805460ff938416151560ff19821681178355925461010090819004909416151590930261ff001990921661ffff1990931692909217179055829060058082019061107990840182613a83565b50600682810154908201805460ff9092169160ff191660018360048111156110a3576110a36135f8565b0217905550506040805161010080820183526000808352602080840182815284860183815242606087019081526080870185815260a0880186815289518087018b5287815260c08a0190815260e08a018890528e88526009909652989095208751815592516001840180546001600160a01b0319166001600160a01b03909216919091179055905160028301555160038201559151600483018054965161ffff1990971691151561ff00191691909117951515909302949094179091559151909250600582019061117490826139c3565b5060e082015160068201805460ff19166001836004811115611198576111986135f8565b02179055505050600182015460028201546111bc916001600160a01b03169061290c565b805462ffff00191680825560068301546040517f84d7f04dfb80e682ae7d14070ec2154d4184eae42887cb5fe7747d6ccbadc21c926112099260ff62010000909204821692911690613b5e565b60405180910390a1505050565b60007f00000000000000000000000000000000000000000000000000000000000000006001600160a01b03166314fd081f6040518163ffffffff1660e01b8152600401602060405180830381865afa158015611276573d6000803e3d6000fd5b505050506040513d601f19601f8201168201806040525081019061129a9190613956565b6112e65760405162461bcd60e51b815260206004820152601460248201527f41646472657373206e6f7420766572696669656400000000000000000000000060448201526064016106aa565b600085511180156112f8575060008451115b6113445760405162461bcd60e51b815260206004820152601c60248201527f5469746c65206d7573742062652067726561746572207468616e20300000000060448201526064016106aa565b600083511180156113555750600082115b6113a15760405162461bcd60e51b815260206004820152601560248201527f496d6167652063616e6e6f7420626520656d707479000000000000000000000060448201526064016106aa565b600c836040516113b19190613b79565b9081526040519081900360200190205460ff16156114115760405162461bcd60e51b815260206004820152601360248201527f417373657420616c72656164792065786973740000000000000000000000000060448201526064016106aa565b61141f600780546001019055565b600061142a60075490565b60408051610140810182526000808252602082018181529282018181524260608401526080830188905260a083018590523360c084015260e083018b90526101008084018b905261012084018a9052600a80546001810182559352835160089093027fc65a7bb8d6351c1cf70c95a316cc6a92839c986682d98bc35f958f4883f9d2a80180549551151590910261ff00199315159390931661ffff1990951694909417919091178084559051939450909290829062ff00001916620100008360048111156114fa576114fa6135f8565b0217905550606082015160018201556080820151600282015560a0820151600382015560c08201516004820180546001600160a01b0319166001600160a01b0390921691909117905560e0820151600582019061155790826139c3565b50610100820151600682019061156d90826139c3565b50610120820151600782019061158390826139c3565b5050506001600c856040516115989190613b79565b908152604080519182900360209081018320805494151560ff199586161790556000858152600d90915220805490921660011790915581907f1bd34f5070969faf7c075ecf37c24f973b7c3a11714bbb362e90c5284f96cf5b90611603903390889042908990613b95565b60405180910390a26116153382612d51565b60019150505b949350505050565b6109a883838360405180602001604052806000815250611f70565b611682604080516101008101825260008082526020820181905291810182905260608082018390526080820183905260a0820183905260c08201529060e082015290565b600082815260086020908152604091829020825161010080820185528254825260018301546001600160a01b03169382019390935260028201549381019390935260038101546060840152600481015460ff80821615156080860152929004909116151560a083015260058101805460c0840191906117009061391c565b80601f016020809104026020016040519081016040528092919081815260200182805461172c9061391c565b80156117795780601f1061174e57610100808354040283529160200191611779565b820191906000526020600020905b81548152906001019060200180831161175c57829003601f168201915b5050509183525050600682015460209091019060ff1660048111156117a0576117a06135f8565b60048111156117b1576117b16135f8565b90525092915050565b6117fe604080516101008101825260008082526020820181905291810182905260608082018390526080820183905260a0820183905260c08201529060e082015290565b600082815260096020908152604091829020825161010080820185528254825260018301546001600160a01b03169382019390935260028201549381019390935260038101546060840152600481015460ff80821615156080860152929004909116151560a083015260058101805460c0840191906117009061391c565b6000818152600260205260408120546001600160a01b0316806105d25760405162461bcd60e51b815260206004820152601860248201527f4552433732313a20696e76616c696420746f6b656e204944000000000000000060448201526064016106aa565b6060600a805480602002602001604051908101604052809291908181526020016000905b82821015611b73576000848152602090819020604080516101408101825260088602909201805460ff80821615158552610100820481161515958501959095529293909291840191620100009004166004811115611965576119656135f8565b6004811115611976576119766135f8565b815260018201546020820152600282015460408201526003820154606082015260048201546001600160a01b0316608082015260058201805460a0909201916119be9061391c565b80601f01602080910402602001604051908101604052809291908181526020018280546119ea9061391c565b8015611a375780601f10611a0c57610100808354040283529160200191611a37565b820191906000526020600020905b815481529060010190602001808311611a1a57829003601f168201915b50505050508152602001600682018054611a509061391c565b80601f0160208091040260200160405190810160405280929190818152602001828054611a7c9061391c565b8015611ac95780601f10611a9e57610100808354040283529160200191611ac9565b820191906000526020600020905b815481529060010190602001808311611aac57829003601f168201915b50505050508152602001600782018054611ae29061391c565b80601f0160208091040260200160405190810160405280929190818152602001828054611b0e9061391c565b8015611b5b5780601f10611b3057610100808354040283529160200191611b5b565b820191906000526020600020905b815481529060010190602001808311611b3e57829003601f168201915b50505050508152505081526020019060010190611905565b50505050905090565b60006001600160a01b038216611bfa5760405162461bcd60e51b815260206004820152602960248201527f4552433732313a2061646472657373207a65726f206973206e6f74206120766160448201527f6c6964206f776e6572000000000000000000000000000000000000000000000060648201526084016106aa565b506001600160a01b031660009081526003602052604090205490565b6000600a8281548110611c2b57611c2b613906565b600091825260209182902060408051610140810182526008909302909101805460ff80821615158552610100820481161515958501959095529293909291840191620100009004166004811115611c8457611c846135f8565b6004811115611c9557611c956135f8565b815260018201546020820152600282015460408201526003820154606082015260048201546001600160a01b0316608082015260058201805460a090920191611cdd9061391c565b80601f0160208091040260200160405190810160405280929190818152602001828054611d099061391c565b8015611d565780601f10611d2b57610100808354040283529160200191611d56565b820191906000526020600020905b815481529060010190602001808311611d3957829003601f168201915b50505050508152602001600682018054611d6f9061391c565b80601f0160208091040260200160405190810160405280929190818152602001828054611d9b9061391c565b8015611de85780601f10611dbd57610100808354040283529160200191611de8565b820191906000526020600020905b815481529060010190602001808311611dcb57829003601f168201915b50505050508152602001600782018054611e019061391c565b80601f0160208091040260200160405190810160405280929190818152602001828054611e2d9061391c565b8015611e7a5780601f10611e4f57610100808354040283529160200191611e7a565b820191906000526020600020905b815481529060010190602001808311611e5d57829003601f168201915b505050919092525050600e54919250506001600160a01b031633148015611eb65750600281604001516004811115611eb457611eb46135f8565b145b611f025760405162461bcd60e51b815260206004820181905260248201527f6f6e6c7920746865206f776e65722063616e2072656c6561736520417373657460448201526064016106aa565b6000808252600a805484908110611f1b57611f1b613906565b60009182526020909120600890910201805462ff0000191662010000836004811115611f4957611f496135f8565b02179055505050565b6060600180546107d29061391c565b611f6c338383612d6b565b5050565b611f7a3383612ada565b611fdc5760405162461bcd60e51b815260206004820152602d60248201527f4552433732313a2063616c6c6572206973206e6f7420746f6b656e206f776e6560448201526c1c881bdc88185c1c1c9bdd9959609a1b60648201526084016106aa565b611fe884848484612e39565b50505050565b6000600a828154811061200357612003613906565b600091825260209182902060408051610140810182526008909302909101805460ff8082161515855261010082048116151595850195909552929390929184019162010000900416600481111561205c5761205c6135f8565b600481111561206d5761206d6135f8565b815260018201546020820152600282015460408201526003820154606082015260048201546001600160a01b0316608082015260058201805460a0909201916120b59061391c565b80601f01602080910402602001604051908101604052809291908181526020018280546120e19061391c565b801561212e5780601f106121035761010080835404028352916020019161212e565b820191906000526020600020905b81548152906001019060200180831161211157829003601f168201915b505050505081526020016006820180546121479061391c565b80601f01602080910402602001604051908101604052809291908181526020018280546121739061391c565b80156121c05780601f10612195576101008083540402835291602001916121c0565b820191906000526020600020905b8154815290600101906020018083116121a357829003601f168201915b505050505081526020016007820180546121d99061391c565b80601f01602080910402602001604051908101604052809291908181526020018280546122059061391c565b80156122525780601f1061222757610100808354040283529160200191612252565b820191906000526020600020905b81548152906001019060200180831161223557829003601f168201915b505050919092525050506000838152600d602052604090205490915060ff166122bd5760405162461bcd60e51b815260206004820152601460248201527f417373657420646f6573206e6f7420457869737400000000000000000000000060448201526064016106aa565b6001816040015160048111156122d5576122d56135f8565b146123225760405162461bcd60e51b815260206004820152601f60248201527f417373657420697320756e646572676f696e67204e65676f74696174696f6e0060448201526064016106aa565b6000828152600960205260409020600101546001600160a01b0316331480156123625750600082815260096020526040902060040154610100900460ff16155b6123d45760405162461bcd60e51b815260206004820152602560248201527f4f6e6c79207468652062757965722063616e2063616c6c20746869732066756e60448201527f6374696f6e00000000000000000000000000000000000000000000000000000060648201526084016106aa565b6000828152600960205260409020600401805461ff00191661010017905560c08101516080820151612406919061290c565b6004604082015260c081015160a082015161242391903390612b58565b61012081015160008381526009602052604090206005019061244590826139c3565b503360c0820181905260008381526009602052604090819020600181015460a085015192517f8eac340af35af673875d62f0b4eeaa6928b83ecb2f0f45ef9b6d1cba38b00661946124ad9490936001600160a01b039093169290916005909101904290613bca565b60405180910390a16000828152600960205260409081902060068101805460ff1916600490811790915501548282015191517f91530a5dd22aa84df44ea20c894ccdca804d5359f6f90d0f9eba007c27812265926125149260ff6101009091041691613c87565b60405180910390a15050565b6000818152600260205260409020546060906001600160a01b03166125ad5760405162461bcd60e51b815260206004820152602f60248201527f4552433732314d657461646174613a2055524920717565727920666f72206e6f60448201527f6e6578697374656e7420746f6b656e000000000000000000000000000000000060648201526084016106aa565b60006125e960408051808201909152601d81527f646174613a6170706c69636174696f6e2f6a736f6e3b6261736536342c000000602082015290565b905060008151116126095760405180602001604052806000815250612634565b8061261384612eb7565b604051602001612624929190613c9d565b6040516020818303038152906040525b9392505050565b61269a60408051610140810182526000808252602082018190529091820190815260200160008152602001600081526020016000815260200160006001600160a01b031681526020016060815260200160608152602001606081525090565b600a82815481106126ad576126ad613906565b600091825260209182902060408051610140810182526008909302909101805460ff80821615158552610100820481161515958501959095529293909291840191620100009004166004811115612706576127066135f8565b6004811115612717576127176135f8565b815260018201546020820152600282015460408201526003820154606082015260048201546001600160a01b0316608082015260058201805460a09092019161275f9061391c565b80601f016020809104026020016040519081016040528092919081815260200182805461278b9061391c565b80156127d85780601f106127ad576101008083540402835291602001916127d8565b820191906000526020600020905b8154815290600101906020018083116127bb57829003601f168201915b505050505081526020016006820180546127f19061391c565b80601f016020809104026020016040519081016040528092919081815260200182805461281d9061391c565b801561286a5780601f1061283f5761010080835404028352916020019161286a565b820191906000526020600020905b81548152906001019060200180831161284d57829003601f168201915b505050505081526020016007820180546128839061391c565b80601f01602080910402602001604051908101604052809291908181526020018280546128af9061391c565b80156128fc5780601f106128d1576101008083540402835291602001916128fc565b820191906000526020600020905b8154815290600101906020018083116128df57829003601f168201915b5050505050815250509050919050565b6000826001600160a01b03168260405160006040518083038185875af1925050503d8060008114612959576040519150601f19603f3d011682016040523d82523d6000602084013e61295e565b606091505b50509050806109a85760405162461bcd60e51b815260206004820152601460248201527f4661696c656420746f2073656e6420457468657200000000000000000000000060448201526064016106aa565b6000818152600260205260409020546001600160a01b0316610e6a5760405162461bcd60e51b815260206004820152601860248201527f4552433732313a20696e76616c696420746f6b656e204944000000000000000060448201526064016106aa565b600081815260046020526040902080546001600160a01b0319166001600160a01b0384169081179091558190612a488261187c565b6001600160a01b03167f8c5be1e5ebec7d5bd14f71427d1e84f3dd0314c0f7b2291e5b200ac8c7c3b92560405160405180910390a45050565b600260065403612ad35760405162461bcd60e51b815260206004820152601f60248201527f5265656e7472616e637947756172643a207265656e7472616e742063616c6c0060448201526064016106aa565b6002600655565b600080612ae68361187c565b9050806001600160a01b0316846001600160a01b03161480612b2d57506001600160a01b0380821660009081526005602090815260408083209388168352929052205460ff165b8061161b5750836001600160a01b0316612b4684610855565b6001600160a01b031614949350505050565b826001600160a01b0316612b6b8261187c565b6001600160a01b031614612bcf5760405162461bcd60e51b815260206004820152602560248201527f4552433732313a207472616e736665722066726f6d20696e636f72726563742060448201526437bbb732b960d91b60648201526084016106aa565b6001600160a01b038216612c4a5760405162461bcd60e51b8152602060048201526024808201527f4552433732313a207472616e7366657220746f20746865207a65726f2061646460448201527f726573730000000000000000000000000000000000000000000000000000000060648201526084016106aa565b826001600160a01b0316612c5d8261187c565b6001600160a01b031614612cc15760405162461bcd60e51b815260206004820152602560248201527f4552433732313a207472616e736665722066726f6d20696e636f72726563742060448201526437bbb732b960d91b60648201526084016106aa565b600081815260046020908152604080832080546001600160a01b03199081169091556001600160a01b0387811680865260038552838620805460001901905590871680865283862080546001019055868652600290945282852080549092168417909155905184937fddf252ad1be2c89b69c2b068fc378daa952ba7f163c4a11628f55a4df523b3ef91a4505050565b611f6c828260405180602001604052806000815250612f57565b816001600160a01b0316836001600160a01b031603612dcc5760405162461bcd60e51b815260206004820152601960248201527f4552433732313a20617070726f766520746f2063616c6c65720000000000000060448201526064016106aa565b6001600160a01b03838116600081815260056020908152604080832094871680845294825291829020805460ff191686151590811790915591519182527f17307eab39ab6107e8899845ad3d59bd9653f200f220920489ca2b5937696c31910160405180910390a3505050565b612e44848484612b58565b612e5084848484612fd5565b611fe85760405162461bcd60e51b815260206004820152603260248201527f4552433732313a207472616e7366657220746f206e6f6e20455243373231526560448201527131b2b4bb32b91034b6b83632b6b2b73a32b960711b60648201526084016106aa565b60606000612ec48361311e565b600101905060008167ffffffffffffffff811115612ee457612ee46134bc565b6040519080825280601f01601f191660200182016040528015612f0e576020820181803683370190505b5090508181016020015b600019017f3031323334353637383961626364656600000000000000000000000000000000600a86061a8153600a8504945084612f1857509392505050565b612f618383613200565b612f6e6000848484612fd5565b6109a85760405162461bcd60e51b815260206004820152603260248201527f4552433732313a207472616e7366657220746f206e6f6e20455243373231526560448201527131b2b4bb32b91034b6b83632b6b2b73a32b960711b60648201526084016106aa565b60006001600160a01b0384163b1561311657604051630a85bd0160e11b81526001600160a01b0385169063150b7a0290613019903390899088908890600401613ccc565b6020604051808303816000875af1925050508015613054575060408051601f3d908101601f1916820190925261305191810190613cfe565b60015b6130fc573d808015613082576040519150601f19603f3d011682016040523d82523d6000602084013e613087565b606091505b5080516000036130f45760405162461bcd60e51b815260206004820152603260248201527f4552433732313a207472616e7366657220746f206e6f6e20455243373231526560448201527131b2b4bb32b91034b6b83632b6b2b73a32b960711b60648201526084016106aa565b805181602001fd5b6001600160e01b031916630a85bd0160e11b14905061161b565b50600161161b565b6000807a184f03e93ff9f4daa797ed6e38ed64bf6a1f0100000000000000008310613167577a184f03e93ff9f4daa797ed6e38ed64bf6a1f010000000000000000830492506040015b6d04ee2d6d415b85acef81000000008310613193576d04ee2d6d415b85acef8100000000830492506020015b662386f26fc1000083106131b157662386f26fc10000830492506010015b6305f5e10083106131c9576305f5e100830492506008015b61271083106131dd57612710830492506004015b606483106131ef576064830492506002015b600a83106105d25760010192915050565b6001600160a01b0382166132565760405162461bcd60e51b815260206004820181905260248201527f4552433732313a206d696e7420746f20746865207a65726f206164647265737360448201526064016106aa565b6000818152600260205260409020546001600160a01b0316156132bb5760405162461bcd60e51b815260206004820152601c60248201527f4552433732313a20746f6b656e20616c7265616479206d696e7465640000000060448201526064016106aa565b6000818152600260205260409020546001600160a01b0316156133205760405162461bcd60e51b815260206004820152601c60248201527f4552433732313a20746f6b656e20616c7265616479206d696e7465640000000060448201526064016106aa565b6001600160a01b038216600081815260036020908152604080832080546001019055848352600290915280822080546001600160a01b0319168417905551839291907fddf252ad1be2c89b69c2b068fc378daa952ba7f163c4a11628f55a4df523b3ef908290a45050565b6001600160e01b031981168114610e6a57600080fd5b6000602082840312156133b357600080fd5b81356126348161338b565b6000602082840312156133d057600080fd5b5035919050565b60005b838110156133f25781810151838201526020016133da565b50506000910152565b600081518084526134138160208601602086016133d7565b601f01601f19169290920160200192915050565b60208152600061263460208301846133fb565b80356001600160a01b038116811461345157600080fd5b919050565b6000806040838503121561346957600080fd5b6134728361343a565b946020939093013593505050565b60008060006060848603121561349557600080fd5b61349e8461343a565b92506134ac6020850161343a565b9150604084013590509250925092565b634e487b7160e01b600052604160045260246000fd5b600067ffffffffffffffff808411156134ed576134ed6134bc565b604051601f8501601f19908116603f01168101908282118183101715613515576135156134bc565b8160405280935085815286868601111561352e57600080fd5b858560208301376000602087830101525050509392505050565b600082601f83011261355957600080fd5b612634838335602085016134d2565b6000806000806080858703121561357e57600080fd5b843567ffffffffffffffff8082111561359657600080fd5b6135a288838901613548565b955060208701359150808211156135b857600080fd5b6135c488838901613548565b945060408701359150808211156135da57600080fd5b506135e787828801613548565b949793965093946060013593505050565b634e487b7160e01b600052602160045260246000fd5b6005811061362c57634e487b7160e01b600052602160045260246000fd5b9052565b60208152815160208201526001600160a01b03602083015116604082015260408201516060820152606082015160808201526080820151151560a0820152600060a083015161368360c084018215159052565b5060c08301516101008060e08501526136a06101208501836133fb565b915060e08501516136b38286018261360e565b5090949350505050565b805115158252600061014060208301516136db602086018215159052565b5060408301516136ee604086018261360e565b50606083015160608501526080830151608085015260a083015160a085015260c083015161372760c08601826001600160a01b03169052565b5060e08301518160e086015261373f828601826133fb565b915050610100808401518583038287015261375a83826133fb565b92505050610120808401518583038287015261377683826133fb565b9695505050505050565b600060208083016020845280855180835260408601915060408160051b87010192506020870160005b828110156137d757603f198886030184526137c58583516136bd565b945092850192908501906001016137a9565b5092979650505050505050565b6000602082840312156137f657600080fd5b6126348261343a565b8015158114610e6a57600080fd5b6000806040838503121561382057600080fd5b6138298361343a565b91506020830135613839816137ff565b809150509250929050565b6000806000806080858703121561385a57600080fd5b6138638561343a565b93506138716020860161343a565b925060408501359150606085013567ffffffffffffffff81111561389457600080fd5b8501601f810187136138a557600080fd5b6138b4878235602084016134d2565b91505092959194509250565b600080604083850312156138d357600080fd5b6138dc8361343a565b91506138ea6020840161343a565b90509250929050565b60208152600061263460208301846136bd565b634e487b7160e01b600052603260045260246000fd5b600181811c9082168061393057607f821691505b60208210810361395057634e487b7160e01b600052602260045260246000fd5b50919050565b60006020828403121561396857600080fd5b8151612634816137ff565b601f8211156109a8576000816000526020600020601f850160051c8101602086101561399c5750805b601f850160051c820191505b818110156139bb578281556001016139a8565b505050505050565b815167ffffffffffffffff8111156139dd576139dd6134bc565b6139f1816139eb845461391c565b84613973565b602080601f831160018114613a265760008415613a0e5750858301515b600019600386901b1c1916600185901b1785556139bb565b600085815260208120601f198616915b82811015613a5557888601518255948401946001909101908401613a36565b5085821015613a735787850151600019600388901b60f8161c191681555b5050505050600190811b01905550565b818103613a8e575050565b613a98825461391c565b67ffffffffffffffff811115613ab057613ab06134bc565b613abe816139eb845461391c565b6000601f821160018114613af25760008315613ada5750848201545b600019600385901b1c1916600184901b178455613b57565b600085815260209020601f19841690600086815260209020845b83811015613b2c5782860154825560019586019590910190602001613b0c565b5085831015613b4a5781850154600019600388901b60f8161c191681555b50505060018360011b0184555b5050505050565b60408101613b6c828561360e565b612634602083018461360e565b60008251613b8b8184602087016133d7565b9190910192915050565b6001600160a01b0385168152608060208201526000613bb760808301866133fb565b6040830194909452506060015292915050565b60006001600160a01b0380881683526020818816602085015286604085015260a06060850152600091508554613bff8161391c565b8060a087015260c0600180841660008114613c215760018114613c3d57613c6d565b60ff19851660c08a015260c084151560051b8a01019650613c6d565b8a600052602060002060005b85811015613c645781548b8201860152908301908701613c49565b8a0160c0019750505b505050505050809150508260808301529695505050505050565b821515815260408101612634602083018461360e565b60008351613caf8184602088016133d7565b835190830190613cc38183602088016133d7565b01949350505050565b60006001600160a01b0380871683528086166020840152508360408301526080606083015261377660808301846133fb565b600060208284031215613d1057600080fd5b81516126348161338b56fea264697066735822122024de6c5cfa8310954d38786c90ef689dd760e1ffc5d32265fd658d41e10769c464736f6c63430008180033",
  "linkReferences": {},
  "deployedLinkReferences": {}
}